{"abi":[{"type":"constructor","inputs":[{"name":"router","type":"address","internalType":"address"}],"stateMutability":"nonpayable"},{"type":"function","name":"acceptOwnership","inputs":[],"outputs":[],"stateMutability":"nonpayable"},{"type":"function","name":"ccipReceive","inputs":[{"name":"message","type":"tuple","internalType":"struct Client.Any2EVMMessage","components":[{"name":"messageId","type":"bytes32","internalType":"bytes32"},{"name":"sourceChainSelector","type":"uint64","internalType":"uint64"},{"name":"sender","type":"bytes","internalType":"bytes"},{"name":"data","type":"bytes","internalType":"bytes"},{"name":"destTokenAmounts","type":"tuple[]","internalType":"struct Client.EVMTokenAmount[]","components":[{"name":"token","type":"address","internalType":"address"},{"name":"amount","type":"uint256","internalType":"uint256"}]}]}],"outputs":[],"stateMutability":"nonpayable"},{"type":"function","name":"getLatestMessageDetails","inputs":[],"outputs":[{"name":"","type":"bytes32","internalType":"bytes32"},{"name":"","type":"uint64","internalType":"uint64"},{"name":"","type":"address","internalType":"address"},{"name":"","type":"string","internalType":"string"}],"stateMutability":"view"},{"type":"function","name":"getRouter","inputs":[],"outputs":[{"name":"","type":"address","internalType":"address"}],"stateMutability":"view"},{"type":"function","name":"owner","inputs":[],"outputs":[{"name":"","type":"address","internalType":"address"}],"stateMutability":"view"},{"type":"function","name":"supportsInterface","inputs":[{"name":"interfaceId","type":"bytes4","internalType":"bytes4"}],"outputs":[{"name":"","type":"bool","internalType":"bool"}],"stateMutability":"view"},{"type":"function","name":"transferOwnership","inputs":[{"name":"to","type":"address","internalType":"address"}],"outputs":[],"stateMutability":"nonpayable"},{"type":"function","name":"withdraw","inputs":[{"name":"beneficiary","type":"address","internalType":"address"}],"outputs":[],"stateMutability":"nonpayable"},{"type":"function","name":"withdrawToken","inputs":[{"name":"beneficiary","type":"address","internalType":"address"},{"name":"token","type":"address","internalType":"address"}],"outputs":[],"stateMutability":"nonpayable"},{"type":"event","name":"MessageReceived","inputs":[{"name":"latestMessageId","type":"bytes32","indexed":false,"internalType":"bytes32"},{"name":"latestSourceChainSelector","type":"uint64","indexed":false,"internalType":"uint64"},{"name":"latestSender","type":"address","indexed":false,"internalType":"address"},{"name":"latestMessage","type":"string","indexed":false,"internalType":"string"}],"anonymous":false},{"type":"event","name":"OwnershipTransferRequested","inputs":[{"name":"from","type":"address","indexed":true,"internalType":"address"},{"name":"to","type":"address","indexed":true,"internalType":"address"}],"anonymous":false},{"type":"event","name":"OwnershipTransferred","inputs":[{"name":"from","type":"address","indexed":true,"internalType":"address"},{"name":"to","type":"address","indexed":true,"internalType":"address"}],"anonymous":false},{"type":"error","name":"FailedToWithdrawEth","inputs":[{"name":"owner","type":"address","internalType":"address"},{"name":"target","type":"address","internalType":"address"},{"name":"value","type":"uint256","internalType":"uint256"}]},{"type":"error","name":"InvalidRouter","inputs":[{"name":"router","type":"address","internalType":"address"}]}],"bytecode":{"object":"0x60a06040523480156200001157600080fd5b506040516200233f3803806200233f833981810160405281019062000037919062000382565b3380600083600073ffffffffffffffffffffffffffffffffffffffff168173ffffffffffffffffffffffffffffffffffffffff1603620000b15760006040517fd7f73334000000000000000000000000000000000000000000000000000000008152600401620000a89190620003c5565b60405180910390fd5b8073ffffffffffffffffffffffffffffffffffffffff1660808173ffffffffffffffffffffffffffffffffffffffff168152505050600073ffffffffffffffffffffffffffffffffffffffff168273ffffffffffffffffffffffffffffffffffffffff160362000158576040517f08c379a00000000000000000000000000000000000000000000000000000000081526004016200014f9062000443565b60405180910390fd5b816000806101000a81548173ffffffffffffffffffffffffffffffffffffffff021916908373ffffffffffffffffffffffffffffffffffffffff160217905550600073ffffffffffffffffffffffffffffffffffffffff168173ffffffffffffffffffffffffffffffffffffffff1614620001df57620001de81620001e960201b60201c565b5b50505050620004d7565b3373ffffffffffffffffffffffffffffffffffffffff168173ffffffffffffffffffffffffffffffffffffffff16036200025a576040517f08c379a00000000000000000000000000000000000000000000000000000000081526004016200025190620004b5565b60405180910390fd5b80600160006101000a81548173ffffffffffffffffffffffffffffffffffffffff021916908373ffffffffffffffffffffffffffffffffffffffff1602179055508073ffffffffffffffffffffffffffffffffffffffff1660008054906101000a900473ffffffffffffffffffffffffffffffffffffffff1673ffffffffffffffffffffffffffffffffffffffff167fed8889f560326eb138920d842192f0eb3dd22b4f139c87a2c57538e05bae127860405160405180910390a350565b600080fd5b600073ffffffffffffffffffffffffffffffffffffffff82169050919050565b60006200034a826200031d565b9050919050565b6200035c816200033d565b81146200036857600080fd5b50565b6000815190506200037c8162000351565b92915050565b6000602082840312156200039b576200039a62000318565b5b6000620003ab848285016200036b565b91505092915050565b620003bf816200033d565b82525050565b6000602082019050620003dc6000830184620003b4565b92915050565b600082825260208201905092915050565b7f43616e6e6f7420736574206f776e657220746f207a65726f0000000000000000600082015250565b60006200042b601883620003e2565b91506200043882620003f3565b602082019050919050565b600060208201905081810360008301526200045e816200041c565b9050919050565b7f43616e6e6f74207472616e7366657220746f2073656c66000000000000000000600082015250565b60006200049d601783620003e2565b9150620004aa8262000465565b602082019050919050565b60006020820190508181036000830152620004d0816200048e565b9050919050565b608051611e4c620004f360003960006107190152611e4c6000f3fe608060405234801561001057600080fd5b50600436106100935760003560e01c806379ba50971161006657806379ba50971461012157806385572ffb1461012b5780638da5cb5b14610147578063b0f479a114610165578063f2fde38b1461018357610093565b806301ffc9a7146100985780633394e6f4146100c85780633aeac4e1146100e957806351cff8d914610105575b600080fd5b6100b260048036038101906100ad9190610dc5565b61019f565b6040516100bf9190610e0d565b60405180910390f35b6100d0610271565b6040516100e09493929190610f35565b60405180910390f35b61010360048036038101906100fe9190610fad565b610351565b005b61011f600480360381019061011a9190610fed565b610407565b005b6101296104cb565b005b6101456004803603810190610140919061103e565b610660565b005b61014f6106ec565b60405161015c9190611087565b60405180910390f35b61016d610715565b60405161017a9190611087565b60405180910390f35b61019d60048036038101906101989190610fed565b61073d565b005b60007f85572ffb000000000000000000000000000000000000000000000000000000007bffffffffffffffffffffffffffffffffffffffffffffffffffffffff1916827bffffffffffffffffffffffffffffffffffffffffffffffffffffffff1916148061026a57507f01ffc9a7000000000000000000000000000000000000000000000000000000007bffffffffffffffffffffffffffffffffffffffffffffffffffffffff1916827bffffffffffffffffffffffffffffffffffffffffffffffffffffffff1916145b9050919050565b60008060006060600254600360009054906101000a900467ffffffffffffffff16600360089054906101000a900473ffffffffffffffffffffffffffffffffffffffff1660048080546102c3906110d1565b80601f01602080910402602001604051908101604052809291908181526020018280546102ef906110d1565b801561033c5780601f106103115761010080835404028352916020019161033c565b820191906000526020600020905b81548152906001019060200180831161031f57829003601f168201915b50505050509050935093509350935090919293565b610359610751565b60008173ffffffffffffffffffffffffffffffffffffffff166370a08231306040518263ffffffff1660e01b81526004016103949190611087565b602060405180830381865afa1580156103b1573d6000803e3d6000fd5b505050506040513d601f19601f820116820180604052508101906103d59190611138565b905061040283828473ffffffffffffffffffffffffffffffffffffffff166107e19092919063ffffffff16565b505050565b61040f610751565b600047905060008273ffffffffffffffffffffffffffffffffffffffff168260405161043a90611196565b60006040518083038185875af1925050503d8060008114610477576040519150601f19603f3d011682016040523d82523d6000602084013e61047c565b606091505b50509050806104c6573383836040517f9d11f5630000000000000000000000000000000000000000000000000000000081526004016104bd939291906111ba565b60405180910390fd5b505050565b600160009054906101000a900473ffffffffffffffffffffffffffffffffffffffff1673ffffffffffffffffffffffffffffffffffffffff163373ffffffffffffffffffffffffffffffffffffffff161461055b576040517f08c379a00000000000000000000000000000000000000000000000000000000081526004016105529061123d565b60405180910390fd5b60008060009054906101000a900473ffffffffffffffffffffffffffffffffffffffff169050336000806101000a81548173ffffffffffffffffffffffffffffffffffffffff021916908373ffffffffffffffffffffffffffffffffffffffff1602179055506000600160006101000a81548173ffffffffffffffffffffffffffffffffffffffff021916908373ffffffffffffffffffffffffffffffffffffffff1602179055503373ffffffffffffffffffffffffffffffffffffffff168173ffffffffffffffffffffffffffffffffffffffff167f8be0079c531659141344cd1fd0a4f28419497f9722a3daafe3b4186f6b6457e060405160405180910390a350565b610668610715565b73ffffffffffffffffffffffffffffffffffffffff163373ffffffffffffffffffffffffffffffffffffffff16146106d757336040517fd7f733340000000000000000000000000000000000000000000000000000000081526004016106ce9190611087565b60405180910390fd5b6106e9816106e490611601565b610867565b50565b60008060009054906101000a900473ffffffffffffffffffffffffffffffffffffffff16905090565b60007f0000000000000000000000000000000000000000000000000000000000000000905090565b610745610751565b61074e81610999565b50565b60008054906101000a900473ffffffffffffffffffffffffffffffffffffffff1673ffffffffffffffffffffffffffffffffffffffff163373ffffffffffffffffffffffffffffffffffffffff16146107df576040517f08c379a00000000000000000000000000000000000000000000000000000000081526004016107d690611660565b60405180910390fd5b565b6108628363a9059cbb60e01b8484604051602401610800929190611680565b604051602081830303815290604052907bffffffffffffffffffffffffffffffffffffffffffffffffffffffff19166020820180517bffffffffffffffffffffffffffffffffffffffffffffffffffffffff8381831617835250505050610ac5565b505050565b80600001516002819055508060200151600360006101000a81548167ffffffffffffffff021916908367ffffffffffffffff16021790555080604001518060200190518101906108b791906116e7565b600360086101000a81548173ffffffffffffffffffffffffffffffffffffffff021916908373ffffffffffffffffffffffffffffffffffffffff160217905550806060015180602001905181019061090f91906117b5565b6004908161091d91906119aa565b507fb1e312a29937cc11967b0e4a346fef1ae132424ebaba9dc6d90249dba053e87c600254600360009054906101000a900467ffffffffffffffff16600360089054906101000a900473ffffffffffffffffffffffffffffffffffffffff16600460405161098e9493929190611b00565b60405180910390a150565b3373ffffffffffffffffffffffffffffffffffffffff168173ffffffffffffffffffffffffffffffffffffffff1603610a07576040517f08c379a00000000000000000000000000000000000000000000000000000000081526004016109fe90611b98565b60405180910390fd5b80600160006101000a81548173ffffffffffffffffffffffffffffffffffffffff021916908373ffffffffffffffffffffffffffffffffffffffff1602179055508073ffffffffffffffffffffffffffffffffffffffff1660008054906101000a900473ffffffffffffffffffffffffffffffffffffffff1673ffffffffffffffffffffffffffffffffffffffff167fed8889f560326eb138920d842192f0eb3dd22b4f139c87a2c57538e05bae127860405160405180910390a350565b6000610b27826040518060400160405280602081526020017f5361666545524332303a206c6f772d6c6576656c2063616c6c206661696c65648152508573ffffffffffffffffffffffffffffffffffffffff16610b8c9092919063ffffffff16565b9050600081511115610b875780806020019051810190610b479190611be4565b610b86576040517f08c379a0000000000000000000000000000000000000000000000000000000008152600401610b7d90611c83565b60405180910390fd5b5b505050565b6060610b9b8484600085610ba4565b90509392505050565b606082471015610be9576040517f08c379a0000000000000000000000000000000000000000000000000000000008152600401610be090611d15565b60405180910390fd5b6000808673ffffffffffffffffffffffffffffffffffffffff168587604051610c129190611d71565b60006040518083038185875af1925050503d8060008114610c4f576040519150601f19603f3d011682016040523d82523d6000602084013e610c54565b606091505b5091509150610c6587838387610c71565b92505050949350505050565b60608315610cd3576000835103610ccb57610c8b85610ce6565b610cca576040517f08c379a0000000000000000000000000000000000000000000000000000000008152600401610cc190611dd4565b60405180910390fd5b5b829050610cde565b610cdd8383610d09565b5b949350505050565b6000808273ffffffffffffffffffffffffffffffffffffffff163b119050919050565b600082511115610d1c5781518083602001fd5b806040517f08c379a0000000000000000000000000000000000000000000000000000000008152600401610d509190611df4565b60405180910390fd5b6000604051905090565b600080fd5b600080fd5b60007fffffffff0000000000000000000000000000000000000000000000000000000082169050919050565b610da281610d6d565b8114610dad57600080fd5b50565b600081359050610dbf81610d99565b92915050565b600060208284031215610ddb57610dda610d63565b5b6000610de984828501610db0565b91505092915050565b60008115159050919050565b610e0781610df2565b82525050565b6000602082019050610e226000830184610dfe565b92915050565b6000819050919050565b610e3b81610e28565b82525050565b600067ffffffffffffffff82169050919050565b610e5e81610e41565b82525050565b600073ffffffffffffffffffffffffffffffffffffffff82169050919050565b6000610e8f82610e64565b9050919050565b610e9f81610e84565b82525050565b600081519050919050565b600082825260208201905092915050565b60005b83811015610edf578082015181840152602081019050610ec4565b60008484015250505050565b6000601f19601f8301169050919050565b6000610f0782610ea5565b610f118185610eb0565b9350610f21818560208601610ec1565b610f2a81610eeb565b840191505092915050565b6000608082019050610f4a6000830187610e32565b610f576020830186610e55565b610f646040830185610e96565b8181036060830152610f768184610efc565b905095945050505050565b610f8a81610e84565b8114610f9557600080fd5b50565b600081359050610fa781610f81565b92915050565b60008060408385031215610fc457610fc3610d63565b5b6000610fd285828601610f98565b9250506020610fe385828601610f98565b9150509250929050565b60006020828403121561100357611002610d63565b5b600061101184828501610f98565b91505092915050565b600080fd5b600060a082840312156110355761103461101a565b5b81905092915050565b60006020828403121561105457611053610d63565b5b600082013567ffffffffffffffff81111561107257611071610d68565b5b61107e8482850161101f565b91505092915050565b600060208201905061109c6000830184610e96565b92915050565b7f4e487b7100000000000000000000000000000000000000000000000000000000600052602260045260246000fd5b600060028204905060018216806110e957607f821691505b6020821081036110fc576110fb6110a2565b5b50919050565b6000819050919050565b61111581611102565b811461112057600080fd5b50565b6000815190506111328161110c565b92915050565b60006020828403121561114e5761114d610d63565b5b600061115c84828501611123565b91505092915050565b600081905092915050565b50565b6000611180600083611165565b915061118b82611170565b600082019050919050565b60006111a182611173565b9150819050919050565b6111b481611102565b82525050565b60006060820190506111cf6000830186610e96565b6111dc6020830185610e96565b6111e960408301846111ab565b949350505050565b7f4d7573742062652070726f706f736564206f776e657200000000000000000000600082015250565b6000611227601683610eb0565b9150611232826111f1565b602082019050919050565b600060208201905081810360008301526112568161121a565b9050919050565b600080fd5b7f4e487b7100000000000000000000000000000000000000000000000000000000600052604160045260246000fd5b61129a82610eeb565b810181811067ffffffffffffffff821117156112b9576112b8611262565b5b80604052505050565b60006112cc610d59565b90506112d88282611291565b919050565b600080fd5b6112eb81610e28565b81146112f657600080fd5b50565b600081359050611308816112e2565b92915050565b61131781610e41565b811461132257600080fd5b50565b6000813590506113348161130e565b92915050565b600080fd5b600080fd5b600067ffffffffffffffff82111561135f5761135e611262565b5b61136882610eeb565b9050602081019050919050565b82818337600083830152505050565b600061139761139284611344565b6112c2565b9050828152602081018484840111156113b3576113b261133f565b5b6113be848285611375565b509392505050565b600082601f8301126113db576113da61133a565b5b81356113eb848260208601611384565b91505092915050565b600067ffffffffffffffff82111561140f5761140e611262565b5b602082029050602081019050919050565b600080fd5b6000813590506114348161110c565b92915050565b6000604082840312156114505761144f61125d565b5b61145a60406112c2565b9050600061146a84828501610f98565b600083015250602061147e84828501611425565b60208301525092915050565b600061149d611498846113f4565b6112c2565b905080838252602082019050604084028301858111156114c0576114bf611420565b5b835b818110156114e957806114d5888261143a565b8452602084019350506040810190506114c2565b5050509392505050565b600082601f8301126115085761150761133a565b5b813561151884826020860161148a565b91505092915050565b600060a082840312156115375761153661125d565b5b61154160a06112c2565b90506000611551848285016112f9565b600083015250602061156584828501611325565b602083015250604082013567ffffffffffffffff811115611589576115886112dd565b5b611595848285016113c6565b604083015250606082013567ffffffffffffffff8111156115b9576115b86112dd565b5b6115c5848285016113c6565b606083015250608082013567ffffffffffffffff8111156115e9576115e86112dd565b5b6115f5848285016114f3565b60808301525092915050565b600061160d3683611521565b9050919050565b7f4f6e6c792063616c6c61626c65206279206f776e657200000000000000000000600082015250565b600061164a601683610eb0565b915061165582611614565b602082019050919050565b600060208201905081810360008301526116798161163d565b9050919050565b60006040820190506116956000830185610e96565b6116a260208301846111ab565b9392505050565b60006116b482610e64565b9050919050565b6116c4816116a9565b81146116cf57600080fd5b50565b6000815190506116e1816116bb565b92915050565b6000602082840312156116fd576116fc610d63565b5b600061170b848285016116d2565b91505092915050565b600067ffffffffffffffff82111561172f5761172e611262565b5b61173882610eeb565b9050602081019050919050565b600061175861175384611714565b6112c2565b9050828152602081018484840111156117745761177361133f565b5b61177f848285610ec1565b509392505050565b600082601f83011261179c5761179b61133a565b5b81516117ac848260208601611745565b91505092915050565b6000602082840312156117cb576117ca610d63565b5b600082015167ffffffffffffffff8111156117e9576117e8610d68565b5b6117f584828501611787565b91505092915050565b60008190508160005260206000209050919050565b60006020601f8301049050919050565b600082821b905092915050565b6000600883026118607fffffffffffffffffffffffffffffffffffffffffffffffffffffffffffffffff82611823565b61186a8683611823565b95508019841693508086168417925050509392505050565b6000819050919050565b60006118a76118a261189d84611102565b611882565b611102565b9050919050565b6000819050919050565b6118c18361188c565b6118d56118cd826118ae565b848454611830565b825550505050565b600090565b6118ea6118dd565b6118f58184846118b8565b505050565b5b818110156119195761190e6000826118e2565b6001810190506118fb565b5050565b601f82111561195e5761192f816117fe565b61193884611813565b81016020851015611947578190505b61195b61195385611813565b8301826118fa565b50505b505050565b600082821c905092915050565b600061198160001984600802611963565b1980831691505092915050565b600061199a8383611970565b9150826002028217905092915050565b6119b382610ea5565b67ffffffffffffffff8111156119cc576119cb611262565b5b6119d682546110d1565b6119e182828561191d565b600060209050601f831160018114611a145760008415611a02578287015190505b611a0c858261198e565b865550611a74565b601f198416611a22866117fe565b60005b82811015611a4a57848901518255600182019150602085019450602081019050611a25565b86831015611a675784890151611a63601f891682611970565b8355505b6001600288020188555050505b505050505050565b60008154611a89816110d1565b611a938186610eb0565b94506001821660008114611aae5760018114611ac457611af7565b60ff198316865281151560200286019350611af7565b611acd856117fe565b60005b83811015611aef57815481890152600182019150602081019050611ad0565b808801955050505b50505092915050565b6000608082019050611b156000830187610e32565b611b226020830186610e55565b611b2f6040830185610e96565b8181036060830152611b418184611a7c565b905095945050505050565b7f43616e6e6f74207472616e7366657220746f2073656c66000000000000000000600082015250565b6000611b82601783610eb0565b9150611b8d82611b4c565b602082019050919050565b60006020820190508181036000830152611bb181611b75565b9050919050565b611bc181610df2565b8114611bcc57600080fd5b50565b600081519050611bde81611bb8565b92915050565b600060208284031215611bfa57611bf9610d63565b5b6000611c0884828501611bcf565b91505092915050565b7f5361666545524332303a204552433230206f7065726174696f6e20646964206e60008201527f6f74207375636365656400000000000000000000000000000000000000000000602082015250565b6000611c6d602a83610eb0565b9150611c7882611c11565b604082019050919050565b60006020820190508181036000830152611c9c81611c60565b9050919050565b7f416464726573733a20696e73756666696369656e742062616c616e636520666f60008201527f722063616c6c0000000000000000000000000000000000000000000000000000602082015250565b6000611cff602683610eb0565b9150611d0a82611ca3565b604082019050919050565b60006020820190508181036000830152611d2e81611cf2565b9050919050565b600081519050919050565b6000611d4b82611d35565b611d558185611165565b9350611d65818560208601610ec1565b80840191505092915050565b6000611d7d8284611d40565b915081905092915050565b7f416464726573733a2063616c6c20746f206e6f6e2d636f6e7472616374000000600082015250565b6000611dbe601d83610eb0565b9150611dc982611d88565b602082019050919050565b60006020820190508181036000830152611ded81611db1565b9050919050565b60006020820190508181036000830152611e0e8184610efc565b90509291505056fea2646970667358221220da7d6345711e346de53517fb9914920c136c01b5d2ebef783faa1ea17f05967664736f6c63430008180033","linkReferences":{}},"methodIdentifiers":{"acceptOwnership()":"79ba5097","ccipReceive((bytes32,uint64,bytes,bytes,(address,uint256)[]))":"85572ffb","getLatestMessageDetails()":"3394e6f4","getRouter()":"b0f479a1","owner()":"8da5cb5b","supportsInterface(bytes4)":"01ffc9a7","transferOwnership(address)":"f2fde38b","withdraw(address)":"51cff8d9","withdrawToken(address,address)":"3aeac4e1"},"id":79}