{"abi":[{"type":"function","name":"executeIsolated","inputs":[{"name":"executionId","type":"bytes32","internalType":"bytes32"},{"name":"target","type":"address","internalType":"address"},{"name":"data","type":"bytes","internalType":"bytes"}],"outputs":[],"stateMutability":"payable"}],"bytecode":{"object":"0x608060405234801561001057600080fd5b506104c1806100206000396000f3fe60806040526004361061001e5760003560e01c8063cc438ccb14610023575b600080fd5b61003d600480360381019061003891906102d6565b61003f565b005b600080600086815260200190815260200160002090508060020160009054906101000a900460ff1680156100765750806001015442105b6100b5576040517f08c379a00000000000000000000000000000000000000000000000000000000081526004016100ac906103a7565b60405180910390fd5b8460018190555060008473ffffffffffffffffffffffffffffffffffffffff1684846040516100e5929190610406565b600060405180830381855af49150503d8060008114610120576040519150601f19603f3d011682016040523d82523d6000602084013e610125565b606091505b5050905080610169576040517f08c379a00000000000000000000000000000000000000000000000000000000081526004016101609061046b565b60405180910390fd5b6000801b600181905550600080878152602001908152602001600020600080820160006101000a81549073ffffffffffffffffffffffffffffffffffffffff021916905560018201600090556002820160006101000a81549060ff02191690555050505050505050565b600080fd5b600080fd5b6000819050919050565b6101f0816101dd565b81146101fb57600080fd5b50565b60008135905061020d816101e7565b92915050565b600073ffffffffffffffffffffffffffffffffffffffff82169050919050565b600061023e82610213565b9050919050565b61024e81610233565b811461025957600080fd5b50565b60008135905061026b81610245565b92915050565b600080fd5b600080fd5b600080fd5b60008083601f84011261029657610295610271565b5b8235905067ffffffffffffffff8111156102b3576102b2610276565b5b6020830191508360018202830111156102cf576102ce61027b565b5b9250929050565b600080600080606085870312156102f0576102ef6101d3565b5b60006102fe878288016101fe565b945050602061030f8782880161025c565b935050604085013567ffffffffffffffff8111156103305761032f6101d8565b5b61033c87828801610280565b925092505092959194509250565b600082825260208201905092915050565b7f496e76616c696420657865637574696f6e000000000000000000000000000000600082015250565b600061039160118361034a565b915061039c8261035b565b602082019050919050565b600060208201905081810360008301526103c081610384565b9050919050565b600081905092915050565b82818337600083830152505050565b60006103ed83856103c7565b93506103fa8385846103d2565b82840190509392505050565b60006104138284866103e1565b91508190509392505050565b7f457865637574696f6e206661696c656400000000000000000000000000000000600082015250565b600061045560108361034a565b91506104608261041f565b602082019050919050565b6000602082019050818103600083015261048481610448565b905091905056fea26469706673582212208984bbce3d686ce8acd50a0073c649dee6d6bfdca67fb40413e8bac2d7fe636864736f6c63430008180033","linkReferences":{}},"methodIdentifiers":{"executeIsolated(bytes32,address,bytes)":"cc438ccb"},"id":88}