{"abi":[{"type":"function","name":"execute","inputs":[{"name":"target","type":"address","internalType":"address"},{"name":"data","type":"bytes","internalType":"bytes"}],"outputs":[],"stateMutability":"payable"}],"bytecode":{"object":"0x608060405234801561001057600080fd5b5061032d806100206000396000f3fe60806040526004361061001e5760003560e01c80631cff79cd14610023575b600080fd5b61003d600480360381019061003891906101c2565b61003f565b005b60008373ffffffffffffffffffffffffffffffffffffffff16348484604051610069929190610261565b60006040518083038185875af1925050503d80600081146100a6576040519150601f19603f3d011682016040523d82523d6000602084013e6100ab565b606091505b50509050806100ef576040517f08c379a00000000000000000000000000000000000000000000000000000000081526004016100e6906102d7565b60405180910390fd5b50505050565b600080fd5b600080fd5b600073ffffffffffffffffffffffffffffffffffffffff82169050919050565b600061012a826100ff565b9050919050565b61013a8161011f565b811461014557600080fd5b50565b60008135905061015781610131565b92915050565b600080fd5b600080fd5b600080fd5b60008083601f8401126101825761018161015d565b5b8235905067ffffffffffffffff81111561019f5761019e610162565b5b6020830191508360018202830111156101bb576101ba610167565b5b9250929050565b6000806000604084860312156101db576101da6100f5565b5b60006101e986828701610148565b935050602084013567ffffffffffffffff81111561020a576102096100fa565b5b6102168682870161016c565b92509250509250925092565b600081905092915050565b82818337600083830152505050565b60006102488385610222565b935061025583858461022d565b82840190509392505050565b600061026e82848661023c565b91508190509392505050565b600082825260208201905092915050565b7f457865637574696f6e206661696c656400000000000000000000000000000000600082015250565b60006102c160108361027a565b91506102cc8261028b565b602082019050919050565b600060208201905081810360008301526102f0816102b4565b905091905056fea2646970667358221220ebd1a8369fd8da143415d7ce5b845b32da9fd6f2da680cecd4539bc780d648fd64736f6c63430008180033","linkReferences":{}},"methodIdentifiers":{"execute(address,bytes)":"1cff79cd"},"id":88}