{"abi":[{"type":"function","name":"executeIsolated","inputs":[{"name":"target","type":"address","internalType":"address"},{"name":"data","type":"bytes","internalType":"bytes"},{"name":"tokens","type":"address[]","internalType":"address[]"},{"name":"amounts","type":"uint256[]","internalType":"uint256[]"}],"outputs":[],"stateMutability":"payable"}],"bytecode":{"object":"0x608060405234801561001057600080fd5b50610a7a806100206000396000f3fe60806040526004361061001e5760003560e01c8063f50fc99914610023575b600080fd5b61003d600480360381019061003891906104dd565b61003f565b005b600060405161004d906101b1565b604051809103906000f080158015610069573d6000803e3d6000fd5b50905060005b83518110156101385783818151811061008b5761008a61059d565b5b602002602001015173ffffffffffffffffffffffffffffffffffffffff1663a9059cbb838584815181106100c2576100c161059d565b5b60200260200101516040518363ffffffff1660e01b81526004016100e79291906105ea565b6020604051808303816000875af1158015610106573d6000803e3d6000fd5b505050506040513d601f19601f8201168201806040525081019061012a919061064b565b50808060010191505061006f565b508073ffffffffffffffffffffffffffffffffffffffff16631cff79cd348888886040518563ffffffff1660e01b8152600401610177939291906106c5565b6000604051808303818588803b15801561019057600080fd5b505af11580156101a4573d6000803e3d6000fd5b5050505050505050505050565b61034d806106f883390190565b6000604051905090565b600080fd5b600080fd5b600073ffffffffffffffffffffffffffffffffffffffff82169050919050565b60006101fd826101d2565b9050919050565b61020d816101f2565b811461021857600080fd5b50565b60008135905061022a81610204565b92915050565b600080fd5b600080fd5b600080fd5b60008083601f84011261025557610254610230565b5b8235905067ffffffffffffffff81111561027257610271610235565b5b60208301915083600182028301111561028e5761028d61023a565b5b9250929050565b6000601f19601f8301169050919050565b7f4e487b7100000000000000000000000000000000000000000000000000000000600052604160045260246000fd5b6102de82610295565b810181811067ffffffffffffffff821117156102fd576102fc6102a6565b5b80604052505050565b60006103106101be565b905061031c82826102d5565b919050565b600067ffffffffffffffff82111561033c5761033b6102a6565b5b602082029050602081019050919050565b600061036061035b84610321565b610306565b905080838252602082019050602084028301858111156103835761038261023a565b5b835b818110156103ac5780610398888261021b565b845260208401935050602081019050610385565b5050509392505050565b600082601f8301126103cb576103ca610230565b5b81356103db84826020860161034d565b91505092915050565b600067ffffffffffffffff8211156103ff576103fe6102a6565b5b602082029050602081019050919050565b6000819050919050565b61042381610410565b811461042e57600080fd5b50565b6000813590506104408161041a565b92915050565b6000610459610454846103e4565b610306565b9050808382526020820190506020840283018581111561047c5761047b61023a565b5b835b818110156104a557806104918882610431565b84526020840193505060208101905061047e565b5050509392505050565b600082601f8301126104c4576104c3610230565b5b81356104d4848260208601610446565b91505092915050565b6000806000806000608086880312156104f9576104f86101c8565b5b60006105078882890161021b565b955050602086013567ffffffffffffffff811115610528576105276101cd565b5b6105348882890161023f565b9450945050604086013567ffffffffffffffff811115610557576105566101cd565b5b610563888289016103b6565b925050606086013567ffffffffffffffff811115610584576105836101cd565b5b610590888289016104af565b9150509295509295909350565b7f4e487b7100000000000000000000000000000000000000000000000000000000600052603260045260246000fd5b6105d5816101f2565b82525050565b6105e481610410565b82525050565b60006040820190506105ff60008301856105cc565b61060c60208301846105db565b9392505050565b60008115159050919050565b61062881610613565b811461063357600080fd5b50565b6000815190506106458161061f565b92915050565b600060208284031215610661576106606101c8565b5b600061066f84828501610636565b91505092915050565b600082825260208201905092915050565b82818337600083830152505050565b60006106a48385610678565b93506106b1838584610689565b6106ba83610295565b840190509392505050565b60006040820190506106da60008301866105cc565b81810360208301526106ed818486610698565b905094935050505056fe608060405234801561001057600080fd5b5061032d806100206000396000f3fe60806040526004361061001e5760003560e01c80631cff79cd14610023575b600080fd5b61003d600480360381019061003891906101c2565b61003f565b005b60008373ffffffffffffffffffffffffffffffffffffffff16348484604051610069929190610261565b60006040518083038185875af1925050503d80600081146100a6576040519150601f19603f3d011682016040523d82523d6000602084013e6100ab565b606091505b50509050806100ef576040517f08c379a00000000000000000000000000000000000000000000000000000000081526004016100e6906102d7565b60405180910390fd5b50505050565b600080fd5b600080fd5b600073ffffffffffffffffffffffffffffffffffffffff82169050919050565b600061012a826100ff565b9050919050565b61013a8161011f565b811461014557600080fd5b50565b60008135905061015781610131565b92915050565b600080fd5b600080fd5b600080fd5b60008083601f8401126101825761018161015d565b5b8235905067ffffffffffffffff81111561019f5761019e610162565b5b6020830191508360018202830111156101bb576101ba610167565b5b9250929050565b6000806000604084860312156101db576101da6100f5565b5b60006101e986828701610148565b935050602084013567ffffffffffffffff81111561020a576102096100fa565b5b6102168682870161016c565b92509250509250925092565b600081905092915050565b82818337600083830152505050565b60006102488385610222565b935061025583858461022d565b82840190509392505050565b600061026e82848661023c565b91508190509392505050565b600082825260208201905092915050565b7f457865637574696f6e206661696c656400000000000000000000000000000000600082015250565b60006102c160108361027a565b91506102cc8261028b565b602082019050919050565b600060208201905081810360008301526102f0816102b4565b905091905056fea2646970667358221220ebd1a8369fd8da143415d7ce5b845b32da9fd6f2da680cecd4539bc780d648fd64736f6c63430008180033a264697066735822122071a300aeda29e2a4e90acfe7d0a7a7ed1bad53330bb05e43ddeed86a4c2b4e5e64736f6c63430008180033","linkReferences":{}},"methodIdentifiers":{"executeIsolated(address,bytes,address[],uint256[])":"f50fc999"},"id":88}