{"abi":[{"type":"function","name":"executeIsolated","inputs":[{"name":"executionId","type":"bytes32","internalType":"bytes32"},{"name":"target","type":"address","internalType":"address"},{"name":"data","type":"bytes","internalType":"bytes"}],"outputs":[],"stateMutability":"payable"},{"type":"function","name":"transferTokens","inputs":[{"name":"executionId","type":"bytes32","internalType":"bytes32"},{"name":"token","type":"address","internalType":"address"},{"name":"to","type":"address","internalType":"address"},{"name":"amount","type":"uint256","internalType":"uint256"}],"outputs":[],"stateMutability":"nonpayable"}],"bytecode":{"object":"0x608060405234801561001057600080fd5b506108c8806100206000396000f3fe6080604052600436106100295760003560e01c8063cbd157301461002e578063cc438ccb14610057575b600080fd5b34801561003a57600080fd5b5061005560048036038101906100509190610496565b610073565b005b610071600480360381019061006c9190610562565b61023c565b005b600080600086815260200190815260200160002090508060020160009054906101000a900460ff166100da576040517f08c379a00000000000000000000000000000000000000000000000000000000081526004016100d190610633565b60405180910390fd5b818160030160008673ffffffffffffffffffffffffffffffffffffffff1673ffffffffffffffffffffffffffffffffffffffff16815260200190815260200160002054101561015e576040517f08c379a00000000000000000000000000000000000000000000000000000000081526004016101559061069f565b60405180910390fd5b818160030160008673ffffffffffffffffffffffffffffffffffffffff1673ffffffffffffffffffffffffffffffffffffffff16815260200190815260200160002060008282546101af91906106ee565b925050819055508373ffffffffffffffffffffffffffffffffffffffff1663a9059cbb84846040518363ffffffff1660e01b81526004016101f1929190610740565b6020604051808303816000875af1158015610210573d6000803e3d6000fd5b505050506040513d601f19601f8201168201806040525081019061023491906107a1565b505050505050565b600080600086815260200190815260200160002090508060020160009054906101000a900460ff1680156102735750806001015442105b6102b2576040517f08c379a00000000000000000000000000000000000000000000000000000000081526004016102a990610633565b60405180910390fd5b60008473ffffffffffffffffffffffffffffffffffffffff163485856040516102dc92919061080d565b60006040518083038185875af1925050503d8060008114610319576040519150601f19603f3d011682016040523d82523d6000602084013e61031e565b606091505b5050905080610362576040517f08c379a000000000000000000000000000000000000000000000000000000000815260040161035990610872565b60405180910390fd5b600080878152602001908152602001600020600080820160006101000a81549073ffffffffffffffffffffffffffffffffffffffff021916905560018201600090556002820160006101000a81549060ff02191690555050505050505050565b600080fd5b600080fd5b6000819050919050565b6103df816103cc565b81146103ea57600080fd5b50565b6000813590506103fc816103d6565b92915050565b600073ffffffffffffffffffffffffffffffffffffffff82169050919050565b600061042d82610402565b9050919050565b61043d81610422565b811461044857600080fd5b50565b60008135905061045a81610434565b92915050565b6000819050919050565b61047381610460565b811461047e57600080fd5b50565b6000813590506104908161046a565b92915050565b600080600080608085870312156104b0576104af6103c2565b5b60006104be878288016103ed565b94505060206104cf8782880161044b565b93505060406104e08782880161044b565b92505060606104f187828801610481565b91505092959194509250565b600080fd5b600080fd5b600080fd5b60008083601f840112610522576105216104fd565b5b8235905067ffffffffffffffff81111561053f5761053e610502565b5b60208301915083600182028301111561055b5761055a610507565b5b9250929050565b6000806000806060858703121561057c5761057b6103c2565b5b600061058a878288016103ed565b945050602061059b8782880161044b565b935050604085013567ffffffffffffffff8111156105bc576105bb6103c7565b5b6105c88782880161050c565b925092505092959194509250565b600082825260208201905092915050565b7f496e76616c696420657865637574696f6e000000000000000000000000000000600082015250565b600061061d6011836105d6565b9150610628826105e7565b602082019050919050565b6000602082019050818103600083015261064c81610610565b9050919050565b7f496e73756666696369656e742062616c616e6365000000000000000000000000600082015250565b60006106896014836105d6565b915061069482610653565b602082019050919050565b600060208201905081810360008301526106b88161067c565b9050919050565b7f4e487b7100000000000000000000000000000000000000000000000000000000600052601160045260246000fd5b60006106f982610460565b915061070483610460565b925082820390508181111561071c5761071b6106bf565b5b92915050565b61072b81610422565b82525050565b61073a81610460565b82525050565b60006040820190506107556000830185610722565b6107626020830184610731565b9392505050565b60008115159050919050565b61077e81610769565b811461078957600080fd5b50565b60008151905061079b81610775565b92915050565b6000602082840312156107b7576107b66103c2565b5b60006107c58482850161078c565b91505092915050565b600081905092915050565b82818337600083830152505050565b60006107f483856107ce565b93506108018385846107d9565b82840190509392505050565b600061081a8284866107e8565b91508190509392505050565b7f457865637574696f6e206661696c656400000000000000000000000000000000600082015250565b600061085c6010836105d6565b915061086782610826565b602082019050919050565b6000602082019050818103600083015261088b8161084f565b905091905056fea26469706673582212207ed5d893699861f6c3e8b11dbf6d1828a74f589a7649682bb850840b85075d7964736f6c63430008180033","linkReferences":{}},"methodIdentifiers":{"executeIsolated(bytes32,address,bytes)":"cc438ccb","transferTokens(bytes32,address,address,uint256)":"cbd15730"},"id":88}