{"abi":[{"type":"function","name":"processTokens","inputs":[{"name":"token","type":"address","internalType":"address"},{"name":"amount","type":"uint256","internalType":"uint256"},{"name":"recipient","type":"address","internalType":"address"}],"outputs":[],"stateMutability":"nonpayable"}],"bytecode":{"object":"0x608060405234801561001057600080fd5b506102ae806100206000396000f3fe608060405234801561001057600080fd5b506004361061002b5760003560e01c80633e3bce4e14610030575b600080fd5b61004a6004803603810190610045919061016b565b61004c565b005b8273ffffffffffffffffffffffffffffffffffffffff166323b872dd3383856040518463ffffffff1660e01b8152600401610089939291906101dc565b6020604051808303816000875af11580156100a8573d6000803e3d6000fd5b505050506040513d601f19601f820116820180604052508101906100cc919061024b565b50505050565b600080fd5b600073ffffffffffffffffffffffffffffffffffffffff82169050919050565b6000610102826100d7565b9050919050565b610112816100f7565b811461011d57600080fd5b50565b60008135905061012f81610109565b92915050565b6000819050919050565b61014881610135565b811461015357600080fd5b50565b6000813590506101658161013f565b92915050565b600080600060608486031215610184576101836100d2565b5b600061019286828701610120565b93505060206101a386828701610156565b92505060406101b486828701610120565b9150509250925092565b6101c7816100f7565b82525050565b6101d681610135565b82525050565b60006060820190506101f160008301866101be565b6101fe60208301856101be565b61020b60408301846101cd565b949350505050565b60008115159050919050565b61022881610213565b811461023357600080fd5b50565b6000815190506102458161021f565b92915050565b600060208284031215610261576102606100d2565b5b600061026f84828501610236565b9150509291505056fea26469706673582212204f1cf4a0eeb26432850d0e71f014362e5f0110d5d8c4fe1c55106d2b2436853064736f6c63430008180033","linkReferences":{}},"methodIdentifiers":{"processTokens(address,uint256,address)":"3e3bce4e"},"id":88}