{"abi":[{"type":"constructor","inputs":[],"stateMutability":"nonpayable"},{"type":"function","name":"getNetworkDetails","inputs":[{"name":"chainId","type":"uint256","internalType":"uint256"}],"outputs":[{"name":"networkDetails","type":"tuple","internalType":"struct Register.NetworkDetails","components":[{"name":"chainSelector","type":"uint64","internalType":"uint64"},{"name":"routerAddress","type":"address","internalType":"address"},{"name":"linkAddress","type":"address","internalType":"address"},{"name":"wrappedNativeAddress","type":"address","internalType":"address"},{"name":"ccipBnMAddress","type":"address","internalType":"address"},{"name":"ccipLnMAddress","type":"address","internalType":"address"},{"name":"rmnProxyAddress","type":"address","internalType":"address"},{"name":"registryModuleOwnerCustomAddress","type":"address","internalType":"address"},{"name":"tokenAdminRegistryAddress","type":"address","internalType":"address"}]}],"stateMutability":"view"},{"type":"function","name":"setNetworkDetails","inputs":[{"name":"chainId","type":"uint256","internalType":"uint256"},{"name":"networkDetails","type":"tuple","internalType":"struct Register.NetworkDetails","components":[{"name":"chainSelector","type":"uint64","internalType":"uint64"},{"name":"routerAddress","type":"address","internalType":"address"},{"name":"linkAddress","type":"address","internalType":"address"},{"name":"wrappedNativeAddress","type":"address","internalType":"address"},{"name":"ccipBnMAddress","type":"address","internalType":"address"},{"name":"ccipLnMAddress","type":"address","internalType":"address"},{"name":"rmnProxyAddress","type":"address","internalType":"address"},{"name":"registryModuleOwnerCustomAddress","type":"address","internalType":"address"},{"name":"tokenAdminRegistryAddress","type":"address","internalType":"address"}]}],"outputs":[],"stateMutability":"nonpayable"}],"bytecode":{"object":"0x608060405234801561001057600080fd5b5060405180610120016040528067e1f4423f1bf587cd67ffffffffffffffff168152602001739c32fcb86bf0f4a1a8921a9fe46de3198bb884b273ffffffffffffffffffffffffffffffffffffffff168152602001730fd9e8d3af1aaee056eb9e802c3a762a667b190473ffffffffffffffffffffffffffffffffffffffff16815260200173360ad4f9a9a8efe9a8dcb5f461c4cc1047e1dcf973ffffffffffffffffffffffffffffffffffffffff16815260200173cab0ef91bee323d1a617c0a027ee753afd6997e473ffffffffffffffffffffffffffffffffffffffff168152602001733d357fb52253e86c8ee0f80f5ffe438fd9503ff273ffffffffffffffffffffffffffffffffffffffff168152602001737c1e545a40750ee8761282382d51e017bac68cbb73ffffffffffffffffffffffffffffffffffffffff1681526020017384ad5890a63957c960e0f19b0448a038a574936b73ffffffffffffffffffffffffffffffffffffffff168152602001731e73f6842d7afdd78957ac143d1f315404dd9e5b73ffffffffffffffffffffffffffffffffffffffff1681525060008062013882815260200190815260200160002060008201518160000160006101000a81548167ffffffffffffffff021916908367ffffffffffffffff16021790555060208201518160000160086101000a81548173ffffffffffffffffffffffffffffffffffffffff021916908373ffffffffffffffffffffffffffffffffffffffff16021790555060408201518160010160006101000a81548173ffffffffffffffffffffffffffffffffffffffff021916908373ffffffffffffffffffffffffffffffffffffffff16021790555060608201518160020160006101000a81548173ffffffffffffffffffffffffffffffffffffffff021916908373ffffffffffffffffffffffffffffffffffffffff16021790555060808201518160030160006101000a81548173ffffffffffffffffffffffffffffffffffffffff021916908373ffffffffffffffffffffffffffffffffffffffff16021790555060a08201518160040160006101000a81548173ffffffffffffffffffffffffffffffffffffffff021916908373ffffffffffffffffffffffffffffffffffffffff16021790555060c08201518160050160006101000a81548173ffffffffffffffffffffffffffffffffffffffff021916908373ffffffffffffffffffffffffffffffffffffffff16021790555060e08201518160060160006101000a81548173ffffffffffffffffffffffffffffffffffffffff021916908373ffffffffffffffffffffffffffffffffffffffff1602179055506101008201518160070160006101000a81548173ffffffffffffffffffffffffffffffffffffffff021916908373ffffffffffffffffffffffffffffffffffffffff16021790555090505060405180610120016040528067304611b6affba76a67ffffffffffffffff168152602001732a9c5afb0d0e4bab2bcdae109ec4b0c4be15a16573ffffffffffffffffffffffffffffffffffffffff16815260200173b1d4538b4571d411f07960ef2838ce337fe1e80e73ffffffffffffffffffffffffffffffffffffffff16815260200173e591bf0a0cf924a0674d7792db046b23cebf5f3473ffffffffffffffffffffffffffffffffffffffff16815260200173a8c0c11bf64af62cdca6f93d3769b88bdd7cb93d73ffffffffffffffffffffffffffffffffffffffff16815260200173139e99f0ab4084e14e6bb7daca289a91a2d9292773ffffffffffffffffffffffffffffffffffffffff168152602001739527e2d01a3064ef6b50c1da1c0cc523803bcff273ffffffffffffffffffffffffffffffffffffffff16815260200173e625f0b8b0ac86946035a7729aba124c8a64cf6973ffffffffffffffffffffffffffffffffffffffff168152602001738126be56454b628a88c17849b9ed99dd5a11bd2f73ffffffffffffffffffffffffffffffffffffffff1681525060008062066eee815260200190815260200160002060008201518160000160006101000a81548167ffffffffffffffff021916908367ffffffffffffffff16021790555060208201518160000160086101000a81548173ffffffffffffffffffffffffffffffffffffffff021916908373ffffffffffffffffffffffffffffffffffffffff16021790555060408201518160010160006101000a81548173ffffffffffffffffffffffffffffffffffffffff021916908373ffffffffffffffffffffffffffffffffffffffff16021790555060608201518160020160006101000a81548173ffffffffffffffffffffffffffffffffffffffff021916908373ffffffffffffffffffffffffffffffffffffffff16021790555060808201518160030160006101000a81548173ffffffffffffffffffffffffffffffffffffffff021916908373ffffffffffffffffffffffffffffffffffffffff16021790555060a08201518160040160006101000a81548173ffffffffffffffffffffffffffffffffffffffff021916908373ffffffffffffffffffffffffffffffffffffffff16021790555060c08201518160050160006101000a81548173ffffffffffffffffffffffffffffffffffffffff021916908373ffffffffffffffffffffffffffffffffffffffff16021790555060e08201518160060160006101000a81548173ffffffffffffffffffffffffffffffffffffffff021916908373ffffffffffffffffffffffffffffffffffffffff1602179055506101008201518160070160006101000a81548173ffffffffffffffffffffffffffffffffffffffff021916908373ffffffffffffffffffffffffffffffffffffffff160217905550905050604051806101200160405280678f90b8876dee653867ffffffffffffffff16815260200173d3b06cebf099ce7da4accf578aaebfdbd6e88a9373ffffffffffffffffffffffffffffffffffffffff16815260200173e4ab69c077896252fafbd49efd26b5d171a3241073ffffffffffffffffffffffffffffffffffffffff16815260200173420000000000000000000000000000000000000673ffffffffffffffffffffffffffffffffffffffff1681526020017388a2d74f47a237a62e7a51cdda67270ce381555e73ffffffffffffffffffffffffffffffffffffffff16815260200173a98fa8a008371b9408195e52734b1768c0d1cb5c73ffffffffffffffffffffffffffffffffffffffff1681526020017399360767a4705f68cccb9533195b761648d6d80773ffffffffffffffffffffffffffffffffffffffff168152602001738a55c61227f26a3e2f217842ecf20b52007baabe73ffffffffffffffffffffffffffffffffffffffff16815260200173736d0bbb318c1b27ff686cd19804094e66250e1773ffffffffffffffffffffffffffffffffffffffff1681525060008062014a34815260200190815260200160002060008201518160000160006101000a81548167ffffffffffffffff021916908367ffffffffffffffff16021790555060208201518160000160086101000a81548173ffffffffffffffffffffffffffffffffffffffff021916908373ffffffffffffffffffffffffffffffffffffffff16021790555060408201518160010160006101000a81548173ffffffffffffffffffffffffffffffffffffffff021916908373ffffffffffffffffffffffffffffffffffffffff16021790555060608201518160020160006101000a81548173ffffffffffffffffffffffffffffffffffffffff021916908373ffffffffffffffffffffffffffffffffffffffff16021790555060808201518160030160006101000a81548173ffffffffffffffffffffffffffffffffffffffff021916908373ffffffffffffffffffffffffffffffffffffffff16021790555060a08201518160040160006101000a81548173ffffffffffffffffffffffffffffffffffffffff021916908373ffffffffffffffffffffffffffffffffffffffff16021790555060c08201518160050160006101000a81548173ffffffffffffffffffffffffffffffffffffffff021916908373ffffffffffffffffffffffffffffffffffffffff16021790555060e08201518160060160006101000a81548173ffffffffffffffffffffffffffffffffffffffff021916908373ffffffffffffffffffffffffffffffffffffffff1602179055506101008201518160070160006101000a81548173ffffffffffffffffffffffffffffffffffffffff021916908373ffffffffffffffffffffffffffffffffffffffff160217905550905050604051806101200160405280671c22a382aebbc87967ffffffffffffffff16815260200173fb2f2a207dc428da81fbaffdde121761f8be119473ffffffffffffffffffffffffffffffffffffffff1681526020017302c359ebf98fc8bf793f970f9b8302bb373bdf3273ffffffffffffffffffffffffffffffffffffffff16815260200173420000000000000000000000000000000000002373ffffffffffffffffffffffffffffffffffffffff168152602001738d122c3e8ce9c8b62b87d3551bdfd8c259bb077173ffffffffffffffffffffffffffffffffffffffff1681526020017335347a2fc1f2a4c5eae03339040d0b83b09e6fda73ffffffffffffffffffffffffffffffffffffffff168152602001731cb6afb6f411f0469c3c0d5d46f6e8f7fd3eade073ffffffffffffffffffffffffffffffffffffffff16815260200173912f59e92467c54bbab49ed3a5d431504afba30c73ffffffffffffffffffffffffffffffffffffffff1681526020017398f1703b9c02f9ab8ba4cc209ee8d7b188bb43a873ffffffffffffffffffffffffffffffffffffffff16815250600080630a0c71fd815260200190815260200160002060008201518160000160006101000a81548167ffffffffffffffff021916908367ffffffffffffffff16021790555060208201518160000160086101000a81548173ffffffffffffffffffffffffffffffffffffffff021916908373ffffffffffffffffffffffffffffffffffffffff16021790555060408201518160010160006101000a81548173ffffffffffffffffffffffffffffffffffffffff021916908373ffffffffffffffffffffffffffffffffffffffff16021790555060608201518160020160006101000a81548173ffffffffffffffffffffffffffffffffffffffff021916908373ffffffffffffffffffffffffffffffffffffffff16021790555060808201518160030160006101000a81548173ffffffffffffffffffffffffffffffffffffffff021916908373ffffffffffffffffffffffffffffffffffffffff16021790555060a08201518160040160006101000a81548173ffffffffffffffffffffffffffffffffffffffff021916908373ffffffffffffffffffffffffffffffffffffffff16021790555060c08201518160050160006101000a81548173ffffffffffffffffffffffffffffffffffffffff021916908373ffffffffffffffffffffffffffffffffffffffff16021790555060e08201518160060160006101000a81548173ffffffffffffffffffffffffffffffffffffffff021916908373ffffffffffffffffffffffffffffffffffffffff1602179055506101008201518160070160006101000a81548173ffffffffffffffffffffffffffffffffffffffff021916908373ffffffffffffffffffffffffffffffffffffffff16021790555090505060405180610120016040528067b8159170038f96fb67ffffffffffffffff16815260200173e1053ae1857476f36a3c62580ff9b016e8ee8f6f73ffffffffffffffffffffffffffffffffffffffff1681526020017384b9b910527ad5c03a9ca831909e21e236ea7b0673ffffffffffffffffffffffffffffffffffffffff16815260200173ae13d989dac2f0debff460ac112a837c89baa7cd73ffffffffffffffffffffffffffffffffffffffff16815260200173bfa2acd33ed6eec0ed3cc06bf1ac38d22b36b9e973ffffffffffffffffffffffffffffffffffffffff1681526020017379a4fc27f69323660f5bfc12dee21c3cc14f590173ffffffffffffffffffffffffffffffffffffffff16815260200173a8c0c11bf64af62cdca6f93d3769b88bdd7cb93d73ffffffffffffffffffffffffffffffffffffffff16815260200173763685240370758c5ac6c5f7c22ab36684c0570e73ffffffffffffffffffffffffffffffffffffffff16815260200173f8f2a4466039ac8adf9944fd67dbb3bb13888f2b73ffffffffffffffffffffffffffffffffffffffff168152506000806061815260200190815260200160002060008201518160000160006101000a81548167ffffffffffffffff021916908367ffffffffffffffff16021790555060208201518160000160086101000a81548173ffffffffffffffffffffffffffffffffffffffff021916908373ffffffffffffffffffffffffffffffffffffffff16021790555060408201518160010160006101000a81548173ffffffffffffffffffffffffffffffffffffffff021916908373ffffffffffffffffffffffffffffffffffffffff16021790555060608201518160020160006101000a81548173ffffffffffffffffffffffffffffffffffffffff021916908373ffffffffffffffffffffffffffffffffffffffff16021790555060808201518160030160006101000a81548173ffffffffffffffffffffffffffffffffffffffff021916908373ffffffffffffffffffffffffffffffffffffffff16021790555060a08201518160040160006101000a81548173ffffffffffffffffffffffffffffffffffffffff021916908373ffffffffffffffffffffffffffffffffffffffff16021790555060c08201518160050160006101000a81548173ffffffffffffffffffffffffffffffffffffffff021916908373ffffffffffffffffffffffffffffffffffffffff16021790555060e08201518160060160006101000a81548173ffffffffffffffffffffffffffffffffffffffff021916908373ffffffffffffffffffffffffffffffffffffffff1602179055506101008201518160070160006101000a81548173ffffffffffffffffffffffffffffffffffffffff021916908373ffffffffffffffffffffffffffffffffffffffff16021790555090505060405180610120016040528067314b66b9a0a5001a67ffffffffffffffff16815260200173b00e95b773528e2ea724db06b75113f239d15dca73ffffffffffffffffffffffffffffffffffffffff1681526020017332e08557b14fad8908025619797221281d43907173ffffffffffffffffffffffffffffffffffffffff1681526020017399604d0e2efe7abfb58bde565b5330bb46ab3dca73ffffffffffffffffffffffffffffffffffffffff168152602001737e503dd1daf90117a1b79953321043d9e6815c7273ffffffffffffffffffffffffffffffffffffffff168152602001737f4e739d40e58bbd59dad388171d18e37b26326f73ffffffffffffffffffffffffffffffffffffffff168152602001737a394c616a7347dc91c40159929e1c9a435cb83a73ffffffffffffffffffffffffffffffffffffffff16815260200173a8c380ecd336401ee896df33b93f1c76b749c90273ffffffffffffffffffffffffffffffffffffffff168152602001735585040bed214fdc60c9ce8c3e8a9c52ce19f4ea73ffffffffffffffffffffffffffffffffffffffff1681525060008061aef3815260200190815260200160002060008201518160000160006101000a81548167ffffffffffffffff021916908367ffffffffffffffff16021790555060208201518160000160086101000a81548173ffffffffffffffffffffffffffffffffffffffff021916908373ffffffffffffffffffffffffffffffffffffffff16021790555060408201518160010160006101000a81548173ffffffffffffffffffffffffffffffffffffffff021916908373ffffffffffffffffffffffffffffffffffffffff16021790555060608201518160020160006101000a81548173ffffffffffffffffffffffffffffffffffffffff021916908373ffffffffffffffffffffffffffffffffffffffff16021790555060808201518160030160006101000a81548173ffffffffffffffffffffffffffffffffffffffff021916908373ffffffffffffffffffffffffffffffffffffffff16021790555060a08201518160040160006101000a81548173ffffffffffffffffffffffffffffffffffffffff021916908373ffffffffffffffffffffffffffffffffffffffff16021790555060c08201518160050160006101000a81548173ffffffffffffffffffffffffffffffffffffffff021916908373ffffffffffffffffffffffffffffffffffffffff16021790555060e08201518160060160006101000a81548173ffffffffffffffffffffffffffffffffffffffff021916908373ffffffffffffffffffffffffffffffffffffffff1602179055506101008201518160070160006101000a81548173ffffffffffffffffffffffffffffffffffffffff021916908373ffffffffffffffffffffffffffffffffffffffff16021790555090505060405180610120016040528067ccf0a31a221f3c9b67ffffffffffffffff16815260200173f694e193200268f9a4868e4aa017a0118c9a817773ffffffffffffffffffffffffffffffffffffffff168152602001730b9d5d9136855f6fec3c0993fee6e9ce8a29784673ffffffffffffffffffffffffffffffffffffffff16815260200173d00ae08403b9bbb9124bb305c09058e32c39a48c73ffffffffffffffffffffffffffffffffffffffff16815260200173d21341536c5cf5eb1bcb58f6723ce26e8d8e90e473ffffffffffffffffffffffffffffffffffffffff1681526020017370f5c5c40b873ea597776da2c21929a8282a3b3573ffffffffffffffffffffffffffffffffffffffff16815260200173ac8cfc3762a979628334a0e4c1026244498e821b73ffffffffffffffffffffffffffffffffffffffff1681526020017397300785af1ede1343db6d90706a35cf14aa3d8173ffffffffffffffffffffffffffffffffffffffff16815260200173a92053a4a3922084d992fd2835bdba4cac6877e673ffffffffffffffffffffffffffffffffffffffff1681525060008061a869815260200190815260200160002060008201518160000160006101000a81548167ffffffffffffffff021916908367ffffffffffffffff16021790555060208201518160000160086101000a81548173ffffffffffffffffffffffffffffffffffffffff021916908373ffffffffffffffffffffffffffffffffffffffff16021790555060408201518160010160006101000a81548173ffffffffffffffffffffffffffffffffffffffff021916908373ffffffffffffffffffffffffffffffffffffffff16021790555060608201518160020160006101000a81548173ffffffffffffffffffffffffffffffffffffffff021916908373ffffffffffffffffffffffffffffffffffffffff16021790555060808201518160030160006101000a81548173ffffffffffffffffffffffffffffffffffffffff021916908373ffffffffffffffffffffffffffffffffffffffff16021790555060a08201518160040160006101000a81548173ffffffffffffffffffffffffffffffffffffffff021916908373ffffffffffffffffffffffffffffffffffffffff16021790555060c08201518160050160006101000a81548173ffffffffffffffffffffffffffffffffffffffff021916908373ffffffffffffffffffffffffffffffffffffffff16021790555060e08201518160060160006101000a81548173ffffffffffffffffffffffffffffffffffffffff021916908373ffffffffffffffffffffffffffffffffffffffff1602179055506101008201518160070160006101000a81548173ffffffffffffffffffffffffffffffffffffffff021916908373ffffffffffffffffffffffffffffffffffffffff160217905550905050604051806101200160405280677b1e3d29ba0098b367ffffffffffffffff1681526020017319b1bac554111517831acadc0fd119d23bb1439173ffffffffffffffffffffffffffffffffffffffff16815260200173dca67fd8324990792c0bfae95903b8a64097754f73ffffffffffffffffffffffffffffffffffffffff1681526020017318c8a7ec7897177e4529065a7e7b0878358b3bff73ffffffffffffffffffffffffffffffffffffffff16815260200173a189971a2c5aca0dfc5ee7a2c44a2ae27b3cf38973ffffffffffffffffffffffffffffffffffffffff1681526020017330decd269277b8094c00b0bacc3acaf3ff4da7fb73ffffffffffffffffffffffffffffffffffffffff168152602001731be106fd3b104275b1e56bcaca554b8cbc5a257773ffffffffffffffffffffffffffffffffffffffff1681526020017302a254c97ca097fb09792bfe331e3fbe61f6af6a73ffffffffffffffffffffffffffffffffffffffff1681526020017375ada0256bea7956824b190419b52ba6660f9cf973ffffffffffffffffffffffffffffffffffffffff168152506000806127d8815260200190815260200160002060008201518160000160006101000a81548167ffffffffffffffff021916908367ffffffffffffffff16021790555060208201518160000160086101000a81548173ffffffffffffffffffffffffffffffffffffffff021916908373ffffffffffffffffffffffffffffffffffffffff16021790555060408201518160010160006101000a81548173ffffffffffffffffffffffffffffffffffffffff021916908373ffffffffffffffffffffffffffffffffffffffff16021790555060608201518160020160006101000a81548173ffffffffffffffffffffffffffffffffffffffff021916908373ffffffffffffffffffffffffffffffffffffffff16021790555060808201518160030160006101000a81548173ffffffffffffffffffffffffffffffffffffffff021916908373ffffffffffffffffffffffffffffffffffffffff16021790555060a08201518160040160006101000a81548173ffffffffffffffffffffffffffffffffffffffff021916908373ffffffffffffffffffffffffffffffffffffffff16021790555060c08201518160050160006101000a81548173ffffffffffffffffffffffffffffffffffffffff021916908373ffffffffffffffffffffffffffffffffffffffff16021790555060e08201518160060160006101000a81548173ffffffffffffffffffffffffffffffffffffffff021916908373ffffffffffffffffffffffffffffffffffffffff1602179055506101008201518160070160006101000a81548173ffffffffffffffffffffffffffffffffffffffff021916908373ffffffffffffffffffffffffffffffffffffffff1602179055509050506040518061012001604052806753227352338ed8a667ffffffffffffffff16815260200173a8c0c11bf64af62cdca6f93d3769b88bdd7cb93d73ffffffffffffffffffffffffffffffffffffffff16815260200173a75cca5b404ec6f4bb6ec4853d177fe7057085c873ffffffffffffffffffffffffffffffffffffffff16815260200173420000000000000000000000000000000000000173ffffffffffffffffffffffffffffffffffffffff168152602001736ac3e353d1ddda24d5a5416024d6e436b8817a4e73ffffffffffffffffffffffffffffffffffffffff16815260200173835fcbb6770e1246cfcf52f83cdcec3177d0bb6b73ffffffffffffffffffffffffffffffffffffffff16815260200173a930c1e0ff1e1005e8ef569aa81e6eebf466b1c373ffffffffffffffffffffffffffffffffffffffff16815260200173683995a22b3654556e9eea29c0b9df973be6d54973ffffffffffffffffffffffffffffffffffffffff16815260200173ae669d8217c00b02fb7a7d9902c897745f4f4c8373ffffffffffffffffffffffffffffffffffffffff16815250600080610936815260200190815260200160002060008201518160000160006101000a81548167ffffffffffffffff021916908367ffffffffffffffff16021790555060208201518160000160086101000a81548173ffffffffffffffffffffffffffffffffffffffff021916908373ffffffffffffffffffffffffffffffffffffffff16021790555060408201518160010160006101000a81548173ffffffffffffffffffffffffffffffffffffffff021916908373ffffffffffffffffffffffffffffffffffffffff16021790555060608201518160020160006101000a81548173ffffffffffffffffffffffffffffffffffffffff021916908373ffffffffffffffffffffffffffffffffffffffff16021790555060808201518160030160006101000a81548173ffffffffffffffffffffffffffffffffffffffff021916908373ffffffffffffffffffffffffffffffffffffffff16021790555060a08201518160040160006101000a81548173ffffffffffffffffffffffffffffffffffffffff021916908373ffffffffffffffffffffffffffffffffffffffff16021790555060c08201518160050160006101000a81548173ffffffffffffffffffffffffffffffffffffffff021916908373ffffffffffffffffffffffffffffffffffffffff16021790555060e08201518160060160006101000a81548173ffffffffffffffffffffffffffffffffffffffff021916908373ffffffffffffffffffffffffffffffffffffffff1602179055506101008201518160070160006101000a81548173ffffffffffffffffffffffffffffffffffffffff021916908373ffffffffffffffffffffffffffffffffffffffff16021790555090505060405180610120016040528067346d85e6634cf82167ffffffffffffffff16815260200173acdaba07ecad81dc634458b98673931dd9d3bc1473ffffffffffffffffffffffffffffffffffffffff168152602001739870d6a0e05f867eaae696e106741843f7fd116d73ffffffffffffffffffffffffffffffffffffffff168152602001735c48e07062ac4e2cf4b9a768a711aef18e8fbda073ffffffffffffffffffffffffffffffffffffffff1681526020017320aa09aab761e2e600d65c6929a9fd1e59821d3f73ffffffffffffffffffffffffffffffffffffffff16815260200173705b364cade0e515577f2646529e3a417473a15573ffffffffffffffffffffffffffffffffffffffff16815260200173fd66ebe7335e91ae6f4cccccdddf262ab5e35c7173ffffffffffffffffffffffffffffffffffffffff16815260200173a8942ff01de753bda1d39aca8774f0872eee508073ffffffffffffffffffffffffffffffffffffffff1681526020017331668c3e8f96415286e9e03592ad97e50e565f5273ffffffffffffffffffffffffffffffffffffffff1681525060008061e9fe815260200190815260200160002060008201518160000160006101000a81548167ffffffffffffffff021916908367ffffffffffffffff16021790555060208201518160000160086101000a81548173ffffffffffffffffffffffffffffffffffffffff021916908373ffffffffffffffffffffffffffffffffffffffff16021790555060408201518160010160006101000a81548173ffffffffffffffffffffffffffffffffffffffff021916908373ffffffffffffffffffffffffffffffffffffffff16021790555060608201518160020160006101000a81548173ffffffffffffffffffffffffffffffffffffffff021916908373ffffffffffffffffffffffffffffffffffffffff16021790555060808201518160030160006101000a81548173ffffffffffffffffffffffffffffffffffffffff021916908373ffffffffffffffffffffffffffffffffffffffff16021790555060a08201518160040160006101000a81548173ffffffffffffffffffffffffffffffffffffffff021916908373ffffffffffffffffffffffffffffffffffffffff16021790555060c08201518160050160006101000a81548173ffffffffffffffffffffffffffffffffffffffff021916908373ffffffffffffffffffffffffffffffffffffffff16021790555060e08201518160060160006101000a81548173ffffffffffffffffffffffffffffffffffffffff021916908373ffffffffffffffffffffffffffffffffffffffff1602179055506101008201518160070160006101000a81548173ffffffffffffffffffffffffffffffffffffffff021916908373ffffffffffffffffffffffffffffffffffffffff160217905550905050604051806101200160405280670b83117d05df77ed67ffffffffffffffff16815260200173c49ec0eb4beb48b8da4ccec51aa9a5bd0d0a4c4373ffffffffffffffffffffffffffffffffffffffff16815260200173925a4bfe64ae2bfac8a02b35f78e60c29743755d73ffffffffffffffffffffffffffffffffffffffff16815260200173420000000000000000000000000000000000000673ffffffffffffffffffffffffffffffffffffffff16815260200173b9d4e1141e67ecfedc8a8139b5229b7ff2bf16f573ffffffffffffffffffffffffffffffffffffffff1681526020017386f9eed8ead1534d87d23fbab247d764fc725d4973ffffffffffffffffffffffffffffffffffffffff16815260200173cbfd5e55619b4ee3e6e7fe3ceb0e78fdf7d82dfc73ffffffffffffffffffffffffffffffffffffffff168152602001734f4fe77a9dbede8c4ebfe51932c2e08a37c890ed73ffffffffffffffffffffffffffffffffffffffff16815260200173c89d4ff0cb206677a7555e52500879bfab73cc6873ffffffffffffffffffffffffffffffffffffffff16815250600080610397815260200190815260200160002060008201518160000160006101000a81548167ffffffffffffffff021916908367ffffffffffffffff16021790555060208201518160000160086101000a81548173ffffffffffffffffffffffffffffffffffffffff021916908373ffffffffffffffffffffffffffffffffffffffff16021790555060408201518160010160006101000a81548173ffffffffffffffffffffffffffffffffffffffff021916908373ffffffffffffffffffffffffffffffffffffffff16021790555060608201518160020160006101000a81548173ffffffffffffffffffffffffffffffffffffffff021916908373ffffffffffffffffffffffffffffffffffffffff16021790555060808201518160030160006101000a81548173ffffffffffffffffffffffffffffffffffffffff021916908373ffffffffffffffffffffffffffffffffffffffff16021790555060a08201518160040160006101000a81548173ffffffffffffffffffffffffffffffffffffffff021916908373ffffffffffffffffffffffffffffffffffffffff16021790555060c08201518160050160006101000a81548173ffffffffffffffffffffffffffffffffffffffff021916908373ffffffffffffffffffffffffffffffffffffffff16021790555060e08201518160060160006101000a81548173ffffffffffffffffffffffffffffffffffffffff021916908373ffffffffffffffffffffffffffffffffffffffff1602179055506101008201518160070160006101000a81548173ffffffffffffffffffffffffffffffffffffffff021916908373ffffffffffffffffffffffffffffffffffffffff1602179055509050506040518061012001604052806748810ec3e431431f67ffffffffffffffff16815260200173114a20a10b43d4115e5aeef7345a1a71d2a60c5773ffffffffffffffffffffffffffffffffffffffff16815260200173e4ab69c077896252fafbd49efd26b5d171a3241073ffffffffffffffffffffffffffffffffffffffff16815260200173420000000000000000000000000000000000000673ffffffffffffffffffffffffffffffffffffffff168152602001738af4204e30565df93352fe8e1de78925f6664da773ffffffffffffffffffffffffffffffffffffffff16815260200173044a6b4b561af69d2319a2f4be5ec327a6975d0a73ffffffffffffffffffffffffffffffffffffffff16815260200173b40a3109075965cc09e93719e33e748abf680dae73ffffffffffffffffffffffffffffffffffffffff1681526020017349c4ba01dc6f5090f9df43ab8f79449db91a0cbb73ffffffffffffffffffffffffffffffffffffffff168152602001731d702b1fa12f347f0921c722f9d9166f00deb67a73ffffffffffffffffffffffffffffffffffffffff1681525060008062aa37dc815260200190815260200160002060008201518160000160006101000a81548167ffffffffffffffff021916908367ffffffffffffffff16021790555060208201518160000160086101000a81548173ffffffffffffffffffffffffffffffffffffffff021916908373ffffffffffffffffffffffffffffffffffffffff16021790555060408201518160010160006101000a81548173ffffffffffffffffffffffffffffffffffffffff021916908373ffffffffffffffffffffffffffffffffffffffff16021790555060608201518160020160006101000a81548173ffffffffffffffffffffffffffffffffffffffff021916908373ffffffffffffffffffffffffffffffffffffffff16021790555060808201518160030160006101000a81548173ffffffffffffffffffffffffffffffffffffffff021916908373ffffffffffffffffffffffffffffffffffffffff16021790555060a08201518160040160006101000a81548173ffffffffffffffffffffffffffffffffffffffff021916908373ffffffffffffffffffffffffffffffffffffffff16021790555060c08201518160050160006101000a81548173ffffffffffffffffffffffffffffffffffffffff021916908373ffffffffffffffffffffffffffffffffffffffff16021790555060e08201518160060160006101000a81548173ffffffffffffffffffffffffffffffffffffffff021916908373ffffffffffffffffffffffffffffffffffffffff1602179055506101008201518160070160006101000a81548173ffffffffffffffffffffffffffffffffffffffff021916908373ffffffffffffffffffffffffffffffffffffffff16021790555090505060405180610120016040528067de41ba4fc9d91ad967ffffffffffffffff168152602001730bf3de8c5d3e8a2b34d2beeb17abfcebaf363a5973ffffffffffffffffffffffffffffffffffffffff16815260200173779877a7b0d9e8603169ddbd7836e478b462478973ffffffffffffffffffffffffffffffffffffffff16815260200173097d90c9d3e0b50ca60e1ae45f6a81010f9fb53473ffffffffffffffffffffffffffffffffffffffff16815260200173fd57b4ddbf88a4e07ff4e34c487b99af2fe82a0573ffffffffffffffffffffffffffffffffffffffff16815260200173466d489b6d36e7e3b824ef491c225f5830e81cc173ffffffffffffffffffffffffffffffffffffffff16815260200173ba3f6251de62ded61ff98590cb2fdf6871fbb99173ffffffffffffffffffffffffffffffffffffffff1681526020017362e731218d0d47305aba2be3751e7ee9e552079073ffffffffffffffffffffffffffffffffffffffff1681526020017395f29fee11c5c55d26cccf1db6772de953b37b8273ffffffffffffffffffffffffffffffffffffffff1681525060008062aa36a7815260200190815260200160002060008201518160000160006101000a81548167ffffffffffffffff021916908367ffffffffffffffff16021790555060208201518160000160086101000a81548173ffffffffffffffffffffffffffffffffffffffff021916908373ffffffffffffffffffffffffffffffffffffffff16021790555060408201518160010160006101000a81548173ffffffffffffffffffffffffffffffffffffffff021916908373ffffffffffffffffffffffffffffffffffffffff16021790555060608201518160020160006101000a81548173ffffffffffffffffffffffffffffffffffffffff021916908373ffffffffffffffffffffffffffffffffffffffff16021790555060808201518160030160006101000a81548173ffffffffffffffffffffffffffffffffffffffff021916908373ffffffffffffffffffffffffffffffffffffffff16021790555060a08201518160040160006101000a81548173ffffffffffffffffffffffffffffffffffffffff021916908373ffffffffffffffffffffffffffffffffffffffff16021790555060c08201518160050160006101000a81548173ffffffffffffffffffffffffffffffffffffffff021916908373ffffffffffffffffffffffffffffffffffffffff16021790555060e08201518160060160006101000a81548173ffffffffffffffffffffffffffffffffffffffff021916908373ffffffffffffffffffffffffffffffffffffffff1602179055506101008201518160070160006101000a81548173ffffffffffffffffffffffffffffffffffffffff021916908373ffffffffffffffffffffffffffffffffffffffff1602179055509050506040518061012001604052806780d9a45f8eaddf5b67ffffffffffffffff16815260200173a8c0c11bf64af62cdca6f93d3769b88bdd7cb93d73ffffffffffffffffffffffffffffffffffffffff168152602001733580c7a817ccd41f7e02143bfa411d4eeae7809373ffffffffffffffffffffffffffffffffffffffff16815260200173be3686643c05f00ec46e73da594c78098f7a9ae773ffffffffffffffffffffffffffffffffffffffff16815260200173f4e4057fbbc86915f4b2d63eeffe641c03294ffc73ffffffffffffffffffffffffffffffffffffffff16815260200173cb342ae3d65e3fedf8f912b0432e2b8f88514d5d73ffffffffffffffffffffffffffffffffffffffff16815260200173a930c1e0ff1e1005e8ef569aa81e6eebf466b1c373ffffffffffffffffffffffffffffffffffffffff168152602001737050bd352a5aacf774cf883f9345a0c10bdf3cd273ffffffffffffffffffffffffffffffffffffffff16815260200173ecf484bfcc51f24fcb31056c262a021baf688d9b73ffffffffffffffffffffffffffffffffffffffff16815250600080610458815260200190815260200160002060008201518160000160006101000a81548167ffffffffffffffff021916908367ffffffffffffffff16021790555060208201518160000160086101000a81548173ffffffffffffffffffffffffffffffffffffffff021916908373ffffffffffffffffffffffffffffffffffffffff16021790555060408201518160010160006101000a81548173ffffffffffffffffffffffffffffffffffffffff021916908373ffffffffffffffffffffffffffffffffffffffff16021790555060608201518160020160006101000a81548173ffffffffffffffffffffffffffffffffffffffff021916908373ffffffffffffffffffffffffffffffffffffffff16021790555060808201518160030160006101000a81548173ffffffffffffffffffffffffffffffffffffffff021916908373ffffffffffffffffffffffffffffffffffffffff16021790555060a08201518160040160006101000a81548173ffffffffffffffffffffffffffffffffffffffff021916908373ffffffffffffffffffffffffffffffffffffffff16021790555060c08201518160050160006101000a81548173ffffffffffffffffffffffffffffffffffffffff021916908373ffffffffffffffffffffffffffffffffffffffff16021790555060e08201518160060160006101000a81548173ffffffffffffffffffffffffffffffffffffffff021916908373ffffffffffffffffffffffffffffffffffffffff1602179055506101008201518160070160006101000a81548173ffffffffffffffffffffffffffffffffffffffff021916908373ffffffffffffffffffffffffffffffffffffffff160217905550905050604051806101200160405280675fbc02272fbf20b767ffffffffffffffff16815260200173a1fda8aa9a8c4b945c45ad30647b01f07d7a0b1673ffffffffffffffffffffffffffffffffffffffff1681526020017323a1afd896c8c8876af46adc38521f4432658d1e73ffffffffffffffffffffffffffffffffffffffff168152602001734317b2ecd41851173175005783322d29e9baee9e73ffffffffffffffffffffffffffffffffffffffff16815260200173ff6d0c1518a8104611f482eb2801caf4f13c9deb73ffffffffffffffffffffffffffffffffffffffff16815260200173bf8ea19505ab7eb266aed435b11bd56321bfb5c573ffffffffffffffffffffffffffffffffffffffff168152602001733da20fd3d8a8f8c1f1a5fd03648147143608c46773ffffffffffffffffffffffffffffffffffffffff168152602001733139687ee9938422f57933c3cdb3e21ee43c4d0f73ffffffffffffffffffffffffffffffffffffffff16815260200173c7777f12258014866c677bdb679d0b007405b7df73ffffffffffffffffffffffffffffffffffffffff1681525060008061012c815260200190815260200160002060008201518160000160006101000a81548167ffffffffffffffff021916908367ffffffffffffffff16021790555060208201518160000160086101000a81548173ffffffffffffffffffffffffffffffffffffffff021916908373ffffffffffffffffffffffffffffffffffffffff16021790555060408201518160010160006101000a81548173ffffffffffffffffffffffffffffffffffffffff021916908373ffffffffffffffffffffffffffffffffffffffff16021790555060608201518160020160006101000a81548173ffffffffffffffffffffffffffffffffffffffff021916908373ffffffffffffffffffffffffffffffffffffffff16021790555060808201518160030160006101000a81548173ffffffffffffffffffffffffffffffffffffffff021916908373ffffffffffffffffffffffffffffffffffffffff16021790555060a08201518160040160006101000a81548173ffffffffffffffffffffffffffffffffffffffff021916908373ffffffffffffffffffffffffffffffffffffffff16021790555060c08201518160050160006101000a81548173ffffffffffffffffffffffffffffffffffffffff021916908373ffffffffffffffffffffffffffffffffffffffff16021790555060e08201518160060160006101000a81548173ffffffffffffffffffffffffffffffffffffffff021916908373ffffffffffffffffffffffffffffffffffffffff1602179055506101008201518160070160006101000a81548173ffffffffffffffffffffffffffffffffffffffff021916908373ffffffffffffffffffffffffffffffffffffffff160217905550905050610b0780613e156000396000f3fe608060405234801561001057600080fd5b50600436106100365760003560e01c80630120615c1461003b578063bb610e011461006b575b600080fd5b61005560048036038101906100509190610763565b610087565b60405161006291906108ab565b60405180910390f35b61008560048036038101906100809190610a90565b610396565b005b61008f610618565b600080838152602001908152602001600020604051806101200160405290816000820160009054906101000a900467ffffffffffffffff1667ffffffffffffffff1667ffffffffffffffff1681526020016000820160089054906101000a900473ffffffffffffffffffffffffffffffffffffffff1673ffffffffffffffffffffffffffffffffffffffff1673ffffffffffffffffffffffffffffffffffffffff1681526020016001820160009054906101000a900473ffffffffffffffffffffffffffffffffffffffff1673ffffffffffffffffffffffffffffffffffffffff1673ffffffffffffffffffffffffffffffffffffffff1681526020016002820160009054906101000a900473ffffffffffffffffffffffffffffffffffffffff1673ffffffffffffffffffffffffffffffffffffffff1673ffffffffffffffffffffffffffffffffffffffff1681526020016003820160009054906101000a900473ffffffffffffffffffffffffffffffffffffffff1673ffffffffffffffffffffffffffffffffffffffff1673ffffffffffffffffffffffffffffffffffffffff1681526020016004820160009054906101000a900473ffffffffffffffffffffffffffffffffffffffff1673ffffffffffffffffffffffffffffffffffffffff1673ffffffffffffffffffffffffffffffffffffffff1681526020016005820160009054906101000a900473ffffffffffffffffffffffffffffffffffffffff1673ffffffffffffffffffffffffffffffffffffffff1673ffffffffffffffffffffffffffffffffffffffff1681526020016006820160009054906101000a900473ffffffffffffffffffffffffffffffffffffffff1673ffffffffffffffffffffffffffffffffffffffff1673ffffffffffffffffffffffffffffffffffffffff1681526020016007820160009054906101000a900473ffffffffffffffffffffffffffffffffffffffff1673ffffffffffffffffffffffffffffffffffffffff1673ffffffffffffffffffffffffffffffffffffffff16815250509050919050565b8060008084815260200190815260200160002060008201518160000160006101000a81548167ffffffffffffffff021916908367ffffffffffffffff16021790555060208201518160000160086101000a81548173ffffffffffffffffffffffffffffffffffffffff021916908373ffffffffffffffffffffffffffffffffffffffff16021790555060408201518160010160006101000a81548173ffffffffffffffffffffffffffffffffffffffff021916908373ffffffffffffffffffffffffffffffffffffffff16021790555060608201518160020160006101000a81548173ffffffffffffffffffffffffffffffffffffffff021916908373ffffffffffffffffffffffffffffffffffffffff16021790555060808201518160030160006101000a81548173ffffffffffffffffffffffffffffffffffffffff021916908373ffffffffffffffffffffffffffffffffffffffff16021790555060a08201518160040160006101000a81548173ffffffffffffffffffffffffffffffffffffffff021916908373ffffffffffffffffffffffffffffffffffffffff16021790555060c08201518160050160006101000a81548173ffffffffffffffffffffffffffffffffffffffff021916908373ffffffffffffffffffffffffffffffffffffffff16021790555060e08201518160060160006101000a81548173ffffffffffffffffffffffffffffffffffffffff021916908373ffffffffffffffffffffffffffffffffffffffff1602179055506101008201518160070160006101000a81548173ffffffffffffffffffffffffffffffffffffffff021916908373ffffffffffffffffffffffffffffffffffffffff1602179055509050505050565b604051806101200160405280600067ffffffffffffffff168152602001600073ffffffffffffffffffffffffffffffffffffffff168152602001600073ffffffffffffffffffffffffffffffffffffffff168152602001600073ffffffffffffffffffffffffffffffffffffffff168152602001600073ffffffffffffffffffffffffffffffffffffffff168152602001600073ffffffffffffffffffffffffffffffffffffffff168152602001600073ffffffffffffffffffffffffffffffffffffffff168152602001600073ffffffffffffffffffffffffffffffffffffffff168152602001600073ffffffffffffffffffffffffffffffffffffffff1681525090565b6000604051905090565b600080fd5b6000819050919050565b6107408161072d565b811461074b57600080fd5b50565b60008135905061075d81610737565b92915050565b60006020828403121561077957610778610728565b5b60006107878482850161074e565b91505092915050565b600067ffffffffffffffff82169050919050565b6107ad81610790565b82525050565b600073ffffffffffffffffffffffffffffffffffffffff82169050919050565b60006107de826107b3565b9050919050565b6107ee816107d3565b82525050565b6101208201600082015161080b60008501826107a4565b50602082015161081e60208501826107e5565b50604082015161083160408501826107e5565b50606082015161084460608501826107e5565b50608082015161085760808501826107e5565b5060a082015161086a60a08501826107e5565b5060c082015161087d60c08501826107e5565b5060e082015161089060e08501826107e5565b506101008201516108a56101008501826107e5565b50505050565b6000610120820190506108c160008301846107f4565b92915050565b600080fd5b6000601f19601f8301169050919050565b7f4e487b7100000000000000000000000000000000000000000000000000000000600052604160045260246000fd5b610915826108cc565b810181811067ffffffffffffffff82111715610934576109336108dd565b5b80604052505050565b600061094761071e565b9050610953828261090c565b919050565b61096181610790565b811461096c57600080fd5b50565b60008135905061097e81610958565b92915050565b61098d816107d3565b811461099857600080fd5b50565b6000813590506109aa81610984565b92915050565b600061012082840312156109c7576109c66108c7565b5b6109d261012061093d565b905060006109e28482850161096f565b60008301525060206109f68482850161099b565b6020830152506040610a0a8482850161099b565b6040830152506060610a1e8482850161099b565b6060830152506080610a328482850161099b565b60808301525060a0610a468482850161099b565b60a08301525060c0610a5a8482850161099b565b60c08301525060e0610a6e8482850161099b565b60e083015250610100610a838482850161099b565b6101008301525092915050565b6000806101408385031215610aa857610aa7610728565b5b6000610ab68582860161074e565b9250506020610ac7858286016109b0565b915050925092905056fea2646970667358221220a41ac86c5c3f2119a991306dc63f40b7cc17f25f4b29e2a328af235de5eaf79d64736f6c63430008180033","linkReferences":{}},"methodIdentifiers":{"getNetworkDetails(uint256)":"0120615c","setNetworkDetails(uint256,(uint64,address,address,address,address,address,address,address,address))":"bb610e01"},"id":97}