{"abi":[{"type":"constructor","inputs":[{"name":"router","type":"address","internalType":"address"},{"name":"link","type":"address","internalType":"address"}],"stateMutability":"nonpayable"},{"type":"receive","stateMutability":"payable"},{"type":"function","name":"acceptOwnership","inputs":[],"outputs":[],"stateMutability":"nonpayable"},{"type":"function","name":"owner","inputs":[],"outputs":[{"name":"","type":"address","internalType":"address"}],"stateMutability":"view"},{"type":"function","name":"send","inputs":[{"name":"destinationChainSelector","type":"uint64","internalType":"uint64"},{"name":"receiver","type":"address","internalType":"address"},{"name":"tokensToSendDetails","type":"tuple[]","internalType":"struct Client.EVMTokenAmount[]","components":[{"name":"token","type":"address","internalType":"address"},{"name":"amount","type":"uint256","internalType":"uint256"}]},{"name":"payFeesIn","type":"uint8","internalType":"enum BasicTokenSender.PayFeesIn"}],"outputs":[],"stateMutability":"nonpayable"},{"type":"function","name":"transferOwnership","inputs":[{"name":"to","type":"address","internalType":"address"}],"outputs":[],"stateMutability":"nonpayable"},{"type":"function","name":"withdraw","inputs":[{"name":"beneficiary","type":"address","internalType":"address"}],"outputs":[],"stateMutability":"nonpayable"},{"type":"function","name":"withdrawToken","inputs":[{"name":"beneficiary","type":"address","internalType":"address"},{"name":"token","type":"address","internalType":"address"}],"outputs":[],"stateMutability":"nonpayable"},{"type":"event","name":"MessageSent","inputs":[{"name":"messageId","type":"bytes32","indexed":false,"internalType":"bytes32"}],"anonymous":false},{"type":"event","name":"OwnershipTransferRequested","inputs":[{"name":"from","type":"address","indexed":true,"internalType":"address"},{"name":"to","type":"address","indexed":true,"internalType":"address"}],"anonymous":false},{"type":"event","name":"OwnershipTransferred","inputs":[{"name":"from","type":"address","indexed":true,"internalType":"address"},{"name":"to","type":"address","indexed":true,"internalType":"address"}],"anonymous":false},{"type":"error","name":"FailedToWithdrawEth","inputs":[{"name":"owner","type":"address","internalType":"address"},{"name":"target","type":"address","internalType":"address"},{"name":"value","type":"uint256","internalType":"uint256"}]}],"bytecode":{"object":"0x60c06040523480156200001157600080fd5b50604051620021133803806200211383398181016040528101906200003791906200033f565b338060008073ffffffffffffffffffffffffffffffffffffffff168273ffffffffffffffffffffffffffffffffffffffff1603620000ac576040517f08c379a0000000000000000000000000000000000000000000000000000000008152600401620000a390620003e7565b60405180910390fd5b816000806101000a81548173ffffffffffffffffffffffffffffffffffffffff021916908373ffffffffffffffffffffffffffffffffffffffff160217905550600073ffffffffffffffffffffffffffffffffffffffff168173ffffffffffffffffffffffffffffffffffffffff161462000133576200013281620001a660201b60201c565b5b5050508173ffffffffffffffffffffffffffffffffffffffff1660808173ffffffffffffffffffffffffffffffffffffffff16815250508073ffffffffffffffffffffffffffffffffffffffff1660a08173ffffffffffffffffffffffffffffffffffffffff168152505050506200047b565b3373ffffffffffffffffffffffffffffffffffffffff168173ffffffffffffffffffffffffffffffffffffffff160362000217576040517f08c379a00000000000000000000000000000000000000000000000000000000081526004016200020e9062000459565b60405180910390fd5b80600160006101000a81548173ffffffffffffffffffffffffffffffffffffffff021916908373ffffffffffffffffffffffffffffffffffffffff1602179055508073ffffffffffffffffffffffffffffffffffffffff1660008054906101000a900473ffffffffffffffffffffffffffffffffffffffff1673ffffffffffffffffffffffffffffffffffffffff167fed8889f560326eb138920d842192f0eb3dd22b4f139c87a2c57538e05bae127860405160405180910390a350565b600080fd5b600073ffffffffffffffffffffffffffffffffffffffff82169050919050565b60006200030782620002da565b9050919050565b6200031981620002fa565b81146200032557600080fd5b50565b60008151905062000339816200030e565b92915050565b60008060408385031215620003595762000358620002d5565b5b6000620003698582860162000328565b92505060206200037c8582860162000328565b9150509250929050565b600082825260208201905092915050565b7f43616e6e6f7420736574206f776e657220746f207a65726f0000000000000000600082015250565b6000620003cf60188362000386565b9150620003dc8262000397565b602082019050919050565b600060208201905081810360008301526200040281620003c0565b9050919050565b7f43616e6e6f74207472616e7366657220746f2073656c66000000000000000000600082015250565b60006200044160178362000386565b91506200044e8262000409565b602082019050919050565b60006020820190508181036000830152620004748162000432565b9050919050565b60805160a051611c4f620004c4600039600081816106650152610795015260008181610539015281816106ca015281816107d10152818161085401526108f90152611c4f6000f3fe6080604052600436106100595760003560e01c80633aeac4e11461006557806351cff8d91461008e57806379ba5097146100b75780638da5cb5b146100ce578063b6d2440c146100f9578063f2fde38b1461012257610060565b3661006057005b600080fd5b34801561007157600080fd5b5061008c6004803603810190610087919061103e565b61014b565b005b34801561009a57600080fd5b506100b560048036038101906100b0919061107e565b610201565b005b3480156100c357600080fd5b506100cc6102c5565b005b3480156100da57600080fd5b506100e361045a565b6040516100f091906110ba565b60405180910390f35b34801561010557600080fd5b50610120600480360381019061011b919061131e565b610483565b005b34801561012e57600080fd5b506101496004803603810190610144919061107e565b6109da565b005b6101536109ee565b60008173ffffffffffffffffffffffffffffffffffffffff166370a08231306040518263ffffffff1660e01b815260040161018e91906110ba565b602060405180830381865afa1580156101ab573d6000803e3d6000fd5b505050506040513d601f19601f820116820180604052508101906101cf91906113b6565b90506101fc83828473ffffffffffffffffffffffffffffffffffffffff16610a7e9092919063ffffffff16565b505050565b6102096109ee565b600047905060008273ffffffffffffffffffffffffffffffffffffffff168260405161023490611414565b60006040518083038185875af1925050503d8060008114610271576040519150601f19603f3d011682016040523d82523d6000602084013e610276565b606091505b50509050806102c0573383836040517f9d11f5630000000000000000000000000000000000000000000000000000000081526004016102b793929190611438565b60405180910390fd5b505050565b600160009054906101000a900473ffffffffffffffffffffffffffffffffffffffff1673ffffffffffffffffffffffffffffffffffffffff163373ffffffffffffffffffffffffffffffffffffffff1614610355576040517f08c379a000000000000000000000000000000000000000000000000000000000815260040161034c906114cc565b60405180910390fd5b60008060009054906101000a900473ffffffffffffffffffffffffffffffffffffffff169050336000806101000a81548173ffffffffffffffffffffffffffffffffffffffff021916908373ffffffffffffffffffffffffffffffffffffffff1602179055506000600160006101000a81548173ffffffffffffffffffffffffffffffffffffffff021916908373ffffffffffffffffffffffffffffffffffffffff1602179055503373ffffffffffffffffffffffffffffffffffffffff168173ffffffffffffffffffffffffffffffffffffffff167f8be0079c531659141344cd1fd0a4f28419497f9722a3daafe3b4186f6b6457e060405160405180910390a350565b60008060009054906101000a900473ffffffffffffffffffffffffffffffffffffffff16905090565b60008251905060005b818110156105e3576104fd33308684815181106104ac576104ab6114ec565b5b6020026020010151602001518785815181106104cb576104ca6114ec565b5b60200260200101516000015173ffffffffffffffffffffffffffffffffffffffff16610b04909392919063ffffffff16565b8381815181106105105761050f6114ec565b5b60200260200101516000015173ffffffffffffffffffffffffffffffffffffffff1663095ea7b37f000000000000000000000000000000000000000000000000000000000000000086848151811061056b5761056a6114ec565b5b6020026020010151602001516040518363ffffffff1660e01b815260040161059492919061151b565b6020604051808303816000875af11580156105b3573d6000803e3d6000fd5b505050506040513d601f19601f820116820180604052508101906105d7919061157c565b5080600101905061048c565b5060006040518060a001604052808660405160200161060291906110ba565b6040516020818303038152906040528152602001604051806020016040528060008152508152602001858152602001600180811115610644576106436115a9565b5b856001811115610657576106566115a9565b5b14610663576000610685565b7f00000000000000000000000000000000000000000000000000000000000000005b73ffffffffffffffffffffffffffffffffffffffff1681526020016106c160405180604001604052806000815260200160011515815250610b8d565b815250905060007f000000000000000000000000000000000000000000000000000000000000000073ffffffffffffffffffffffffffffffffffffffff166320487ded88846040518363ffffffff1660e01b81526004016107239291906117ed565b602060405180830381865afa158015610740573d6000803e3d6000fd5b505050506040513d601f19601f8201168201806040525081019061076491906113b6565b9050600060018081111561077b5761077a6115a9565b5b85600181111561078e5761078d6115a9565b5b036108f7577f000000000000000000000000000000000000000000000000000000000000000073ffffffffffffffffffffffffffffffffffffffff1663095ea7b37f0000000000000000000000000000000000000000000000000000000000000000846040518363ffffffff1660e01b815260040161080e92919061151b565b6020604051808303816000875af115801561082d573d6000803e3d6000fd5b505050506040513d601f19601f82011682018060405250810190610851919061157c565b507f000000000000000000000000000000000000000000000000000000000000000073ffffffffffffffffffffffffffffffffffffffff166396f4e9f989856040518363ffffffff1660e01b81526004016108ad9291906117ed565b6020604051808303816000875af11580156108cc573d6000803e3d6000fd5b505050506040513d601f19601f820116820180604052508101906108f09190611853565b9050610999565b7f000000000000000000000000000000000000000000000000000000000000000073ffffffffffffffffffffffffffffffffffffffff166396f4e9f9838a866040518463ffffffff1660e01b81526004016109539291906117ed565b60206040518083038185885af1158015610971573d6000803e3d6000fd5b50505050506040513d601f19601f820116820180604052508101906109969190611853565b90505b7f54791b38f3859327992a1ca0590ad3c0f08feba98d1a4f56ab0dca74d203392a816040516109c8919061188f565b60405180910390a15050505050505050565b6109e26109ee565b6109eb81610c0c565b50565b60008054906101000a900473ffffffffffffffffffffffffffffffffffffffff1673ffffffffffffffffffffffffffffffffffffffff163373ffffffffffffffffffffffffffffffffffffffff1614610a7c576040517f08c379a0000000000000000000000000000000000000000000000000000000008152600401610a73906118f6565b60405180910390fd5b565b610aff8363a9059cbb60e01b8484604051602401610a9d92919061151b565b604051602081830303815290604052907bffffffffffffffffffffffffffffffffffffffffffffffffffffffff19166020820180517bffffffffffffffffffffffffffffffffffffffffffffffffffffffff8381831617835250505050610d38565b505050565b610b87846323b872dd60e01b858585604051602401610b2593929190611438565b604051602081830303815290604052907bffffffffffffffffffffffffffffffffffffffffffffffffffffffff19166020820180517bffffffffffffffffffffffffffffffffffffffffffffffffffffffff8381831617835250505050610d38565b50505050565b606063181dcf1060e01b82604051602401610ba89190611954565b604051602081830303815290604052907bffffffffffffffffffffffffffffffffffffffffffffffffffffffff19166020820180517bffffffffffffffffffffffffffffffffffffffffffffffffffffffff83818316178352505050509050919050565b3373ffffffffffffffffffffffffffffffffffffffff168173ffffffffffffffffffffffffffffffffffffffff1603610c7a576040517f08c379a0000000000000000000000000000000000000000000000000000000008152600401610c71906119bb565b60405180910390fd5b80600160006101000a81548173ffffffffffffffffffffffffffffffffffffffff021916908373ffffffffffffffffffffffffffffffffffffffff1602179055508073ffffffffffffffffffffffffffffffffffffffff1660008054906101000a900473ffffffffffffffffffffffffffffffffffffffff1673ffffffffffffffffffffffffffffffffffffffff167fed8889f560326eb138920d842192f0eb3dd22b4f139c87a2c57538e05bae127860405160405180910390a350565b6000610d9a826040518060400160405280602081526020017f5361666545524332303a206c6f772d6c6576656c2063616c6c206661696c65648152508573ffffffffffffffffffffffffffffffffffffffff16610dff9092919063ffffffff16565b9050600081511115610dfa5780806020019051810190610dba919061157c565b610df9576040517f08c379a0000000000000000000000000000000000000000000000000000000008152600401610df090611a4d565b60405180910390fd5b5b505050565b6060610e0e8484600085610e17565b90509392505050565b606082471015610e5c576040517f08c379a0000000000000000000000000000000000000000000000000000000008152600401610e5390611adf565b60405180910390fd5b6000808673ffffffffffffffffffffffffffffffffffffffff168587604051610e859190611b30565b60006040518083038185875af1925050503d8060008114610ec2576040519150601f19603f3d011682016040523d82523d6000602084013e610ec7565b606091505b5091509150610ed887838387610ee4565b92505050949350505050565b60608315610f46576000835103610f3e57610efe85610f59565b610f3d576040517f08c379a0000000000000000000000000000000000000000000000000000000008152600401610f3490611b93565b60405180910390fd5b5b829050610f51565b610f508383610f7c565b5b949350505050565b6000808273ffffffffffffffffffffffffffffffffffffffff163b119050919050565b600082511115610f8f5781518083602001fd5b806040517f08c379a0000000000000000000000000000000000000000000000000000000008152600401610fc39190611bf7565b60405180910390fd5b6000604051905090565b600080fd5b600080fd5b600073ffffffffffffffffffffffffffffffffffffffff82169050919050565b600061100b82610fe0565b9050919050565b61101b81611000565b811461102657600080fd5b50565b60008135905061103881611012565b92915050565b6000806040838503121561105557611054610fd6565b5b600061106385828601611029565b925050602061107485828601611029565b9150509250929050565b60006020828403121561109457611093610fd6565b5b60006110a284828501611029565b91505092915050565b6110b481611000565b82525050565b60006020820190506110cf60008301846110ab565b92915050565b600067ffffffffffffffff82169050919050565b6110f2816110d5565b81146110fd57600080fd5b50565b60008135905061110f816110e9565b92915050565b600080fd5b6000601f19601f8301169050919050565b7f4e487b7100000000000000000000000000000000000000000000000000000000600052604160045260246000fd5b6111638261111a565b810181811067ffffffffffffffff821117156111825761118161112b565b5b80604052505050565b6000611195610fcc565b90506111a1828261115a565b919050565b600067ffffffffffffffff8211156111c1576111c061112b565b5b602082029050602081019050919050565b600080fd5b600080fd5b6000819050919050565b6111ef816111dc565b81146111fa57600080fd5b50565b60008135905061120c816111e6565b92915050565b600060408284031215611228576112276111d7565b5b611232604061118b565b9050600061124284828501611029565b6000830152506020611256848285016111fd565b60208301525092915050565b6000611275611270846111a6565b61118b565b90508083825260208201905060408402830185811115611298576112976111d2565b5b835b818110156112c157806112ad8882611212565b84526020840193505060408101905061129a565b5050509392505050565b600082601f8301126112e0576112df611115565b5b81356112f0848260208601611262565b91505092915050565b6002811061130657600080fd5b50565b600081359050611318816112f9565b92915050565b6000806000806080858703121561133857611337610fd6565b5b600061134687828801611100565b945050602061135787828801611029565b935050604085013567ffffffffffffffff81111561137857611377610fdb565b5b611384878288016112cb565b925050606061139587828801611309565b91505092959194509250565b6000815190506113b0816111e6565b92915050565b6000602082840312156113cc576113cb610fd6565b5b60006113da848285016113a1565b91505092915050565b600081905092915050565b50565b60006113fe6000836113e3565b9150611409826113ee565b600082019050919050565b600061141f826113f1565b9150819050919050565b611432816111dc565b82525050565b600060608201905061144d60008301866110ab565b61145a60208301856110ab565b6114676040830184611429565b949350505050565b600082825260208201905092915050565b7f4d7573742062652070726f706f736564206f776e657200000000000000000000600082015250565b60006114b660168361146f565b91506114c182611480565b602082019050919050565b600060208201905081810360008301526114e5816114a9565b9050919050565b7f4e487b7100000000000000000000000000000000000000000000000000000000600052603260045260246000fd5b600060408201905061153060008301856110ab565b61153d6020830184611429565b9392505050565b60008115159050919050565b61155981611544565b811461156457600080fd5b50565b60008151905061157681611550565b92915050565b60006020828403121561159257611591610fd6565b5b60006115a084828501611567565b91505092915050565b7f4e487b7100000000000000000000000000000000000000000000000000000000600052602160045260246000fd5b6115e1816110d5565b82525050565b600081519050919050565b600082825260208201905092915050565b60005b83811015611621578082015181840152602081019050611606565b60008484015250505050565b6000611638826115e7565b61164281856115f2565b9350611652818560208601611603565b61165b8161111a565b840191505092915050565b600081519050919050565b600082825260208201905092915050565b6000819050602082019050919050565b61169b81611000565b82525050565b6116aa816111dc565b82525050565b6040820160008201516116c66000850182611692565b5060208201516116d960208501826116a1565b50505050565b60006116eb83836116b0565b60408301905092915050565b6000602082019050919050565b600061170f82611666565b6117198185611671565b935061172483611682565b8060005b8381101561175557815161173c88826116df565b9750611747836116f7565b925050600181019050611728565b5085935050505092915050565b600060a083016000830151848203600086015261177f828261162d565b91505060208301518482036020860152611799828261162d565b915050604083015184820360408601526117b38282611704565b91505060608301516117c86060860182611692565b50608083015184820360808601526117e0828261162d565b9150508091505092915050565b600060408201905061180260008301856115d8565b81810360208301526118148184611762565b90509392505050565b6000819050919050565b6118308161181d565b811461183b57600080fd5b50565b60008151905061184d81611827565b92915050565b60006020828403121561186957611868610fd6565b5b60006118778482850161183e565b91505092915050565b6118898161181d565b82525050565b60006020820190506118a46000830184611880565b92915050565b7f4f6e6c792063616c6c61626c65206279206f776e657200000000000000000000600082015250565b60006118e060168361146f565b91506118eb826118aa565b602082019050919050565b6000602082019050818103600083015261190f816118d3565b9050919050565b61191f81611544565b82525050565b60408201600082015161193b60008501826116a1565b50602082015161194e6020850182611916565b50505050565b60006040820190506119696000830184611925565b92915050565b7f43616e6e6f74207472616e7366657220746f2073656c66000000000000000000600082015250565b60006119a560178361146f565b91506119b08261196f565b602082019050919050565b600060208201905081810360008301526119d481611998565b9050919050565b7f5361666545524332303a204552433230206f7065726174696f6e20646964206e60008201527f6f74207375636365656400000000000000000000000000000000000000000000602082015250565b6000611a37602a8361146f565b9150611a42826119db565b604082019050919050565b60006020820190508181036000830152611a6681611a2a565b9050919050565b7f416464726573733a20696e73756666696369656e742062616c616e636520666f60008201527f722063616c6c0000000000000000000000000000000000000000000000000000602082015250565b6000611ac960268361146f565b9150611ad482611a6d565b604082019050919050565b60006020820190508181036000830152611af881611abc565b9050919050565b6000611b0a826115e7565b611b1481856113e3565b9350611b24818560208601611603565b80840191505092915050565b6000611b3c8284611aff565b915081905092915050565b7f416464726573733a2063616c6c20746f206e6f6e2d636f6e7472616374000000600082015250565b6000611b7d601d8361146f565b9150611b8882611b47565b602082019050919050565b60006020820190508181036000830152611bac81611b70565b9050919050565b600081519050919050565b6000611bc982611bb3565b611bd3818561146f565b9350611be3818560208601611603565b611bec8161111a565b840191505092915050565b60006020820190508181036000830152611c118184611bbe565b90509291505056fea2646970667358221220e4fa3c2190138b71ffde68f79079d261772e429d27941247206e6fb579926baf64736f6c63430008180033","linkReferences":{}},"methodIdentifiers":{"acceptOwnership()":"79ba5097","owner()":"8da5cb5b","send(uint64,address,(address,uint256)[],uint8)":"b6d2440c","transferOwnership(address)":"f2fde38b","withdraw(address)":"51cff8d9","withdrawToken(address,address)":"3aeac4e1"},"id":81}