{"abi":[{"type":"function","name":"excludeArtifacts","inputs":[],"outputs":[{"name":"excludedArtifacts_","type":"string[]","internalType":"string[]"}],"stateMutability":"view"},{"type":"function","name":"excludeContracts","inputs":[],"outputs":[{"name":"excludedContracts_","type":"address[]","internalType":"address[]"}],"stateMutability":"view"},{"type":"function","name":"excludeSenders","inputs":[],"outputs":[{"name":"excludedSenders_","type":"address[]","internalType":"address[]"}],"stateMutability":"view"},{"type":"function","name":"targetArtifactSelectors","inputs":[],"outputs":[{"name":"targetedArtifactSelectors_","type":"tuple[]","internalType":"struct StdInvariant.FuzzSelector[]","components":[{"name":"addr","type":"address","internalType":"address"},{"name":"selectors","type":"bytes4[]","internalType":"bytes4[]"}]}],"stateMutability":"view"},{"type":"function","name":"targetArtifacts","inputs":[],"outputs":[{"name":"targetedArtifacts_","type":"string[]","internalType":"string[]"}],"stateMutability":"view"},{"type":"function","name":"targetContracts","inputs":[],"outputs":[{"name":"targetedContracts_","type":"address[]","internalType":"address[]"}],"stateMutability":"view"},{"type":"function","name":"targetSelectors","inputs":[],"outputs":[{"name":"targetedSelectors_","type":"tuple[]","internalType":"struct StdInvariant.FuzzSelector[]","components":[{"name":"addr","type":"address","internalType":"address"},{"name":"selectors","type":"bytes4[]","internalType":"bytes4[]"}]}],"stateMutability":"view"},{"type":"function","name":"targetSenders","inputs":[],"outputs":[{"name":"targetedSenders_","type":"address[]","internalType":"address[]"}],"stateMutability":"view"}],"bytecode":{"object":"0x608060405234801561001057600080fd5b50610d2c806100206000396000f3fe608060405234801561001057600080fd5b50600436106100885760003560e01c806385226c811161005b57806385226c8114610105578063916a17c614610123578063b5508aa914610141578063e20c9f711461015f57610088565b80631ed7831c1461008d5780633e5e3c23146100ab5780633f7286f4146100c957806366d9a9a0146100e7575b600080fd5b61009561017d565b6040516100a291906108f5565b60405180910390f35b6100b361020b565b6040516100c091906108f5565b60405180910390f35b6100d1610299565b6040516100de91906108f5565b60405180910390f35b6100ef610327565b6040516100fc9190610b00565b60405180910390f35b61010d610476565b60405161011a9190610c74565b60405180910390f35b61012b61054f565b6040516101389190610b00565b60405180910390f35b61014961069e565b6040516101569190610c74565b60405180910390f35b610167610777565b60405161017491906108f5565b60405180910390f35b6060600180548060200260200160405190810160405280929190818152602001828054801561020157602002820191906000526020600020905b8160009054906101000a900473ffffffffffffffffffffffffffffffffffffffff1673ffffffffffffffffffffffffffffffffffffffff16815260200190600101908083116101b7575b5050505050905090565b6060600380548060200260200160405190810160405280929190818152602001828054801561028f57602002820191906000526020600020905b8160009054906101000a900473ffffffffffffffffffffffffffffffffffffffff1673ffffffffffffffffffffffffffffffffffffffff1681526020019060010190808311610245575b5050505050905090565b6060600280548060200260200160405190810160405280929190818152602001828054801561031d57602002820191906000526020600020905b8160009054906101000a900473ffffffffffffffffffffffffffffffffffffffff1673ffffffffffffffffffffffffffffffffffffffff16815260200190600101908083116102d3575b5050505050905090565b60606006805480602002602001604051908101604052809291908181526020016000905b8282101561046d57838290600052602060002090600202016040518060400160405290816000820160009054906101000a900473ffffffffffffffffffffffffffffffffffffffff1673ffffffffffffffffffffffffffffffffffffffff1673ffffffffffffffffffffffffffffffffffffffff1681526020016001820180548060200260200160405190810160405280929190818152602001828054801561045557602002820191906000526020600020906000905b82829054906101000a900460e01b7bffffffffffffffffffffffffffffffffffffffffffffffffffffffff1916815260200190600401906020826003010492830192600103820291508084116104025790505b5050505050815250508152602001906001019061034b565b50505050905090565b60606005805480602002602001604051908101604052809291908181526020016000905b828210156105465783829060005260206000200180546104b990610cc5565b80601f01602080910402602001604051908101604052809291908181526020018280546104e590610cc5565b80156105325780601f1061050757610100808354040283529160200191610532565b820191906000526020600020905b81548152906001019060200180831161051557829003601f168201915b50505050508152602001906001019061049a565b50505050905090565b60606007805480602002602001604051908101604052809291908181526020016000905b8282101561069557838290600052602060002090600202016040518060400160405290816000820160009054906101000a900473ffffffffffffffffffffffffffffffffffffffff1673ffffffffffffffffffffffffffffffffffffffff1673ffffffffffffffffffffffffffffffffffffffff1681526020016001820180548060200260200160405190810160405280929190818152602001828054801561067d57602002820191906000526020600020906000905b82829054906101000a900460e01b7bffffffffffffffffffffffffffffffffffffffffffffffffffffffff19168152602001906004019060208260030104928301926001038202915080841161062a5790505b50505050508152505081526020019060010190610573565b50505050905090565b60606004805480602002602001604051908101604052809291908181526020016000905b8282101561076e5783829060005260206000200180546106e190610cc5565b80601f016020809104026020016040519081016040528092919081815260200182805461070d90610cc5565b801561075a5780601f1061072f5761010080835404028352916020019161075a565b820191906000526020600020905b81548152906001019060200180831161073d57829003601f168201915b5050505050815260200190600101906106c2565b50505050905090565b606060008054806020026020016040519081016040528092919081815260200182805480156107fb57602002820191906000526020600020905b8160009054906101000a900473ffffffffffffffffffffffffffffffffffffffff1673ffffffffffffffffffffffffffffffffffffffff16815260200190600101908083116107b1575b5050505050905090565b600081519050919050565b600082825260208201905092915050565b6000819050602082019050919050565b600073ffffffffffffffffffffffffffffffffffffffff82169050919050565b600061085c82610831565b9050919050565b61086c81610851565b82525050565b600061087e8383610863565b60208301905092915050565b6000602082019050919050565b60006108a282610805565b6108ac8185610810565b93506108b783610821565b8060005b838110156108e85781516108cf8882610872565b97506108da8361088a565b9250506001810190506108bb565b5085935050505092915050565b6000602082019050818103600083015261090f8184610897565b905092915050565b600081519050919050565b600082825260208201905092915050565b6000819050602082019050919050565b600081519050919050565b600082825260208201905092915050565b6000819050602082019050919050565b60007fffffffff0000000000000000000000000000000000000000000000000000000082169050919050565b6109a48161096f565b82525050565b60006109b6838361099b565b60208301905092915050565b6000602082019050919050565b60006109da82610943565b6109e4818561094e565b93506109ef8361095f565b8060005b83811015610a20578151610a0788826109aa565b9750610a12836109c2565b9250506001810190506109f3565b5085935050505092915050565b6000604083016000830151610a456000860182610863565b5060208301518482036020860152610a5d82826109cf565b9150508091505092915050565b6000610a768383610a2d565b905092915050565b6000602082019050919050565b6000610a9682610917565b610aa08185610922565b935083602082028501610ab285610933565b8060005b85811015610aee5784840389528151610acf8582610a6a565b9450610ada83610a7e565b925060208a01995050600181019050610ab6565b50829750879550505050505092915050565b60006020820190508181036000830152610b1a8184610a8b565b905092915050565b600081519050919050565b600082825260208201905092915050565b6000819050602082019050919050565b600081519050919050565b600082825260208201905092915050565b60005b83811015610b88578082015181840152602081019050610b6d565b60008484015250505050565b6000601f19601f8301169050919050565b6000610bb082610b4e565b610bba8185610b59565b9350610bca818560208601610b6a565b610bd381610b94565b840191505092915050565b6000610bea8383610ba5565b905092915050565b6000602082019050919050565b6000610c0a82610b22565b610c148185610b2d565b935083602082028501610c2685610b3e565b8060005b85811015610c625784840389528151610c438582610bde565b9450610c4e83610bf2565b925060208a01995050600181019050610c2a565b50829750879550505050505092915050565b60006020820190508181036000830152610c8e8184610bff565b905092915050565b7f4e487b7100000000000000000000000000000000000000000000000000000000600052602260045260246000fd5b60006002820490506001821680610cdd57607f821691505b602082108103610cf057610cef610c96565b5b5091905056fea264697066735822122002e148a26ed9f9f93cad89f0e972b9d1a81ef960f1aef60543d8c0ba580d5d4764736f6c63430008180033","linkReferences":{}},"methodIdentifiers":{"excludeArtifacts()":"b5508aa9","excludeContracts()":"e20c9f71","excludeSenders()":"1ed7831c","targetArtifactSelectors()":"66d9a9a0","targetArtifacts()":"85226c81","targetContracts()":"3f7286f4","targetSelectors()":"916a17c6","targetSenders()":"3e5e3c23"},"id":44}