{"abi":[{"type":"constructor","inputs":[{"name":"router","type":"address","internalType":"address"},{"name":"link","type":"address","internalType":"address"}],"stateMutability":"nonpayable"},{"type":"receive","stateMutability":"payable"},{"type":"function","name":"acceptOwnership","inputs":[],"outputs":[],"stateMutability":"nonpayable"},{"type":"function","name":"owner","inputs":[],"outputs":[{"name":"","type":"address","internalType":"address"}],"stateMutability":"view"},{"type":"function","name":"send","inputs":[{"name":"destinationChainSelector","type":"uint64","internalType":"uint64"},{"name":"receiver","type":"address","internalType":"address"},{"name":"messageText","type":"string","internalType":"string"},{"name":"payFeesIn","type":"uint8","internalType":"enum BasicMessageSender.PayFeesIn"}],"outputs":[{"name":"messageId","type":"bytes32","internalType":"bytes32"}],"stateMutability":"nonpayable"},{"type":"function","name":"transferOwnership","inputs":[{"name":"to","type":"address","internalType":"address"}],"outputs":[],"stateMutability":"nonpayable"},{"type":"function","name":"withdraw","inputs":[{"name":"beneficiary","type":"address","internalType":"address"}],"outputs":[],"stateMutability":"nonpayable"},{"type":"function","name":"withdrawToken","inputs":[{"name":"beneficiary","type":"address","internalType":"address"},{"name":"token","type":"address","internalType":"address"}],"outputs":[],"stateMutability":"nonpayable"},{"type":"event","name":"MessageSent","inputs":[{"name":"messageId","type":"bytes32","indexed":false,"internalType":"bytes32"}],"anonymous":false},{"type":"event","name":"OwnershipTransferRequested","inputs":[{"name":"from","type":"address","indexed":true,"internalType":"address"},{"name":"to","type":"address","indexed":true,"internalType":"address"}],"anonymous":false},{"type":"event","name":"OwnershipTransferred","inputs":[{"name":"from","type":"address","indexed":true,"internalType":"address"},{"name":"to","type":"address","indexed":true,"internalType":"address"}],"anonymous":false},{"type":"error","name":"FailedToWithdrawEth","inputs":[{"name":"owner","type":"address","internalType":"address"},{"name":"target","type":"address","internalType":"address"},{"name":"value","type":"uint256","internalType":"uint256"}]}],"bytecode":{"object":"0x60c06040523480156200001157600080fd5b5060405162001f1f38038062001f1f83398181016040528101906200003791906200033f565b338060008073ffffffffffffffffffffffffffffffffffffffff168273ffffffffffffffffffffffffffffffffffffffff1603620000ac576040517f08c379a0000000000000000000000000000000000000000000000000000000008152600401620000a390620003e7565b60405180910390fd5b816000806101000a81548173ffffffffffffffffffffffffffffffffffffffff021916908373ffffffffffffffffffffffffffffffffffffffff160217905550600073ffffffffffffffffffffffffffffffffffffffff168173ffffffffffffffffffffffffffffffffffffffff161462000133576200013281620001a660201b60201c565b5b5050508173ffffffffffffffffffffffffffffffffffffffff1660808173ffffffffffffffffffffffffffffffffffffffff16815250508073ffffffffffffffffffffffffffffffffffffffff1660a08173ffffffffffffffffffffffffffffffffffffffff168152505050506200047b565b3373ffffffffffffffffffffffffffffffffffffffff168173ffffffffffffffffffffffffffffffffffffffff160362000217576040517f08c379a00000000000000000000000000000000000000000000000000000000081526004016200020e9062000459565b60405180910390fd5b80600160006101000a81548173ffffffffffffffffffffffffffffffffffffffff021916908373ffffffffffffffffffffffffffffffffffffffff1602179055508073ffffffffffffffffffffffffffffffffffffffff1660008054906101000a900473ffffffffffffffffffffffffffffffffffffffff1673ffffffffffffffffffffffffffffffffffffffff167fed8889f560326eb138920d842192f0eb3dd22b4f139c87a2c57538e05bae127860405160405180910390a350565b600080fd5b600073ffffffffffffffffffffffffffffffffffffffff82169050919050565b60006200030782620002da565b9050919050565b6200031981620002fa565b81146200032557600080fd5b50565b60008151905062000339816200030e565b92915050565b60008060408385031215620003595762000358620002d5565b5b6000620003698582860162000328565b92505060206200037c8582860162000328565b9150509250929050565b600082825260208201905092915050565b7f43616e6e6f7420736574206f776e657220746f207a65726f0000000000000000600082015250565b6000620003cf60188362000386565b9150620003dc8262000397565b602082019050919050565b600060208201905081810360008301526200040281620003c0565b9050919050565b7f43616e6e6f74207472616e7366657220746f2073656c66000000000000000000600082015250565b60006200044160178362000386565b91506200044e8262000409565b602082019050919050565b60006020820190508181036000830152620004748162000432565b9050919050565b60805160a051611a62620004bd6000396000818161024501526103750152600081816102ac015281816103b10152818161043401526104d90152611a626000f3fe6080604052600436106100595760003560e01c80632c101b17146100655780633aeac4e1146100a257806351cff8d9146100cb57806379ba5097146100f45780638da5cb5b1461010b578063f2fde38b1461013657610060565b3661006057005b600080fd5b34801561007157600080fd5b5061008c600480360381019061008791906110a8565b61015f565b6040516100999190611144565b60405180910390f35b3480156100ae57600080fd5b506100c960048036038101906100c4919061115f565b6105ba565b005b3480156100d757600080fd5b506100f260048036038101906100ed919061119f565b610670565b005b34801561010057600080fd5b50610109610734565b005b34801561011757600080fd5b506101206108c9565b60405161012d91906111db565b60405180910390f35b34801561014257600080fd5b5061015d6004803603810190610158919061119f565b6108f2565b005b6000806040518060a001604052808660405160200161017e91906111db565b6040516020818303038152906040528152602001856040516020016101a39190611275565b6040516020818303038152906040528152602001600067ffffffffffffffff8111156101d2576101d1610f58565b5b60405190808252806020026020018201604052801561020b57816020015b6101f8610e5b565b8152602001906001900390816101f05790505b50815260200160018081111561022457610223611297565b5b85600181111561023757610236611297565b5b14610243576000610265565b7f00000000000000000000000000000000000000000000000000000000000000005b73ffffffffffffffffffffffffffffffffffffffff1681526020016102a3604051806040016040528062030d40815260200160011515815250610906565b815250905060007f000000000000000000000000000000000000000000000000000000000000000073ffffffffffffffffffffffffffffffffffffffff166320487ded88846040518363ffffffff1660e01b81526004016103059291906114bb565b602060405180830381865afa158015610322573d6000803e3d6000fd5b505050506040513d601f19601f820116820180604052508101906103469190611517565b905060018081111561035b5761035a611297565b5b84600181111561036e5761036d611297565b5b036104d7577f000000000000000000000000000000000000000000000000000000000000000073ffffffffffffffffffffffffffffffffffffffff1663095ea7b37f0000000000000000000000000000000000000000000000000000000000000000836040518363ffffffff1660e01b81526004016103ee929190611553565b6020604051808303816000875af115801561040d573d6000803e3d6000fd5b505050506040513d601f19601f8201168201806040525081019061043191906115b4565b507f000000000000000000000000000000000000000000000000000000000000000073ffffffffffffffffffffffffffffffffffffffff166396f4e9f988846040518363ffffffff1660e01b815260040161048d9291906114bb565b6020604051808303816000875af11580156104ac573d6000803e3d6000fd5b505050506040513d601f19601f820116820180604052508101906104d0919061160d565b9250610579565b7f000000000000000000000000000000000000000000000000000000000000000073ffffffffffffffffffffffffffffffffffffffff166396f4e9f98289856040518463ffffffff1660e01b81526004016105339291906114bb565b60206040518083038185885af1158015610551573d6000803e3d6000fd5b50505050506040513d601f19601f82011682018060405250810190610576919061160d565b92505b7f54791b38f3859327992a1ca0590ad3c0f08feba98d1a4f56ab0dca74d203392a836040516105a89190611144565b60405180910390a15050949350505050565b6105c2610985565b60008173ffffffffffffffffffffffffffffffffffffffff166370a08231306040518263ffffffff1660e01b81526004016105fd91906111db565b602060405180830381865afa15801561061a573d6000803e3d6000fd5b505050506040513d601f19601f8201168201806040525081019061063e9190611517565b905061066b83828473ffffffffffffffffffffffffffffffffffffffff16610a159092919063ffffffff16565b505050565b610678610985565b600047905060008273ffffffffffffffffffffffffffffffffffffffff16826040516106a39061166b565b60006040518083038185875af1925050503d80600081146106e0576040519150601f19603f3d011682016040523d82523d6000602084013e6106e5565b606091505b505090508061072f573383836040517f9d11f56300000000000000000000000000000000000000000000000000000000815260040161072693929190611680565b60405180910390fd5b505050565b600160009054906101000a900473ffffffffffffffffffffffffffffffffffffffff1673ffffffffffffffffffffffffffffffffffffffff163373ffffffffffffffffffffffffffffffffffffffff16146107c4576040517f08c379a00000000000000000000000000000000000000000000000000000000081526004016107bb90611703565b60405180910390fd5b60008060009054906101000a900473ffffffffffffffffffffffffffffffffffffffff169050336000806101000a81548173ffffffffffffffffffffffffffffffffffffffff021916908373ffffffffffffffffffffffffffffffffffffffff1602179055506000600160006101000a81548173ffffffffffffffffffffffffffffffffffffffff021916908373ffffffffffffffffffffffffffffffffffffffff1602179055503373ffffffffffffffffffffffffffffffffffffffff168173ffffffffffffffffffffffffffffffffffffffff167f8be0079c531659141344cd1fd0a4f28419497f9722a3daafe3b4186f6b6457e060405160405180910390a350565b60008060009054906101000a900473ffffffffffffffffffffffffffffffffffffffff16905090565b6108fa610985565b61090381610a9b565b50565b606063181dcf1060e01b826040516024016109219190611761565b604051602081830303815290604052907bffffffffffffffffffffffffffffffffffffffffffffffffffffffff19166020820180517bffffffffffffffffffffffffffffffffffffffffffffffffffffffff83818316178352505050509050919050565b60008054906101000a900473ffffffffffffffffffffffffffffffffffffffff1673ffffffffffffffffffffffffffffffffffffffff163373ffffffffffffffffffffffffffffffffffffffff1614610a13576040517f08c379a0000000000000000000000000000000000000000000000000000000008152600401610a0a906117c8565b60405180910390fd5b565b610a968363a9059cbb60e01b8484604051602401610a34929190611553565b604051602081830303815290604052907bffffffffffffffffffffffffffffffffffffffffffffffffffffffff19166020820180517bffffffffffffffffffffffffffffffffffffffffffffffffffffffff8381831617835250505050610bc7565b505050565b3373ffffffffffffffffffffffffffffffffffffffff168173ffffffffffffffffffffffffffffffffffffffff1603610b09576040517f08c379a0000000000000000000000000000000000000000000000000000000008152600401610b0090611834565b60405180910390fd5b80600160006101000a81548173ffffffffffffffffffffffffffffffffffffffff021916908373ffffffffffffffffffffffffffffffffffffffff1602179055508073ffffffffffffffffffffffffffffffffffffffff1660008054906101000a900473ffffffffffffffffffffffffffffffffffffffff1673ffffffffffffffffffffffffffffffffffffffff167fed8889f560326eb138920d842192f0eb3dd22b4f139c87a2c57538e05bae127860405160405180910390a350565b6000610c29826040518060400160405280602081526020017f5361666545524332303a206c6f772d6c6576656c2063616c6c206661696c65648152508573ffffffffffffffffffffffffffffffffffffffff16610c8e9092919063ffffffff16565b9050600081511115610c895780806020019051810190610c4991906115b4565b610c88576040517f08c379a0000000000000000000000000000000000000000000000000000000008152600401610c7f906118c6565b60405180910390fd5b5b505050565b6060610c9d8484600085610ca6565b90509392505050565b606082471015610ceb576040517f08c379a0000000000000000000000000000000000000000000000000000000008152600401610ce290611958565b60405180910390fd5b6000808673ffffffffffffffffffffffffffffffffffffffff168587604051610d1491906119a9565b60006040518083038185875af1925050503d8060008114610d51576040519150601f19603f3d011682016040523d82523d6000602084013e610d56565b606091505b5091509150610d6787838387610d73565b92505050949350505050565b60608315610dd5576000835103610dcd57610d8d85610de8565b610dcc576040517f08c379a0000000000000000000000000000000000000000000000000000000008152600401610dc390611a0c565b60405180910390fd5b5b829050610de0565b610ddf8383610e0b565b5b949350505050565b6000808273ffffffffffffffffffffffffffffffffffffffff163b119050919050565b600082511115610e1e5781518083602001fd5b806040517f08c379a0000000000000000000000000000000000000000000000000000000008152600401610e529190611275565b60405180910390fd5b6040518060400160405280600073ffffffffffffffffffffffffffffffffffffffff168152602001600081525090565b6000604051905090565b600080fd5b600080fd5b600067ffffffffffffffff82169050919050565b610ebc81610e9f565b8114610ec757600080fd5b50565b600081359050610ed981610eb3565b92915050565b600073ffffffffffffffffffffffffffffffffffffffff82169050919050565b6000610f0a82610edf565b9050919050565b610f1a81610eff565b8114610f2557600080fd5b50565b600081359050610f3781610f11565b92915050565b600080fd5b600080fd5b6000601f19601f8301169050919050565b7f4e487b7100000000000000000000000000000000000000000000000000000000600052604160045260246000fd5b610f9082610f47565b810181811067ffffffffffffffff82111715610faf57610fae610f58565b5b80604052505050565b6000610fc2610e8b565b9050610fce8282610f87565b919050565b600067ffffffffffffffff821115610fee57610fed610f58565b5b610ff782610f47565b9050602081019050919050565b82818337600083830152505050565b600061102661102184610fd3565b610fb8565b90508281526020810184848401111561104257611041610f42565b5b61104d848285611004565b509392505050565b600082601f83011261106a57611069610f3d565b5b813561107a848260208601611013565b91505092915050565b6002811061109057600080fd5b50565b6000813590506110a281611083565b92915050565b600080600080608085870312156110c2576110c1610e95565b5b60006110d087828801610eca565b94505060206110e187828801610f28565b935050604085013567ffffffffffffffff81111561110257611101610e9a565b5b61110e87828801611055565b925050606061111f87828801611093565b91505092959194509250565b6000819050919050565b61113e8161112b565b82525050565b60006020820190506111596000830184611135565b92915050565b6000806040838503121561117657611175610e95565b5b600061118485828601610f28565b925050602061119585828601610f28565b9150509250929050565b6000602082840312156111b5576111b4610e95565b5b60006111c384828501610f28565b91505092915050565b6111d581610eff565b82525050565b60006020820190506111f060008301846111cc565b92915050565b600081519050919050565b600082825260208201905092915050565b60005b83811015611230578082015181840152602081019050611215565b60008484015250505050565b6000611247826111f6565b6112518185611201565b9350611261818560208601611212565b61126a81610f47565b840191505092915050565b6000602082019050818103600083015261128f818461123c565b905092915050565b7f4e487b7100000000000000000000000000000000000000000000000000000000600052602160045260246000fd5b6112cf81610e9f565b82525050565b600081519050919050565b600082825260208201905092915050565b60006112fc826112d5565b61130681856112e0565b9350611316818560208601611212565b61131f81610f47565b840191505092915050565b600081519050919050565b600082825260208201905092915050565b6000819050602082019050919050565b61135f81610eff565b82525050565b6000819050919050565b61137881611365565b82525050565b6040820160008201516113946000850182611356565b5060208201516113a7602085018261136f565b50505050565b60006113b9838361137e565b60408301905092915050565b6000602082019050919050565b60006113dd8261132a565b6113e78185611335565b93506113f283611346565b8060005b8381101561142357815161140a88826113ad565b9750611415836113c5565b9250506001810190506113f6565b5085935050505092915050565b600060a083016000830151848203600086015261144d82826112f1565b9150506020830151848203602086015261146782826112f1565b9150506040830151848203604086015261148182826113d2565b91505060608301516114966060860182611356565b50608083015184820360808601526114ae82826112f1565b9150508091505092915050565b60006040820190506114d060008301856112c6565b81810360208301526114e28184611430565b90509392505050565b6114f481611365565b81146114ff57600080fd5b50565b600081519050611511816114eb565b92915050565b60006020828403121561152d5761152c610e95565b5b600061153b84828501611502565b91505092915050565b61154d81611365565b82525050565b600060408201905061156860008301856111cc565b6115756020830184611544565b9392505050565b60008115159050919050565b6115918161157c565b811461159c57600080fd5b50565b6000815190506115ae81611588565b92915050565b6000602082840312156115ca576115c9610e95565b5b60006115d88482850161159f565b91505092915050565b6115ea8161112b565b81146115f557600080fd5b50565b600081519050611607816115e1565b92915050565b60006020828403121561162357611622610e95565b5b6000611631848285016115f8565b91505092915050565b600081905092915050565b50565b600061165560008361163a565b915061166082611645565b600082019050919050565b600061167682611648565b9150819050919050565b600060608201905061169560008301866111cc565b6116a260208301856111cc565b6116af6040830184611544565b949350505050565b7f4d7573742062652070726f706f736564206f776e657200000000000000000000600082015250565b60006116ed601683611201565b91506116f8826116b7565b602082019050919050565b6000602082019050818103600083015261171c816116e0565b9050919050565b61172c8161157c565b82525050565b604082016000820151611748600085018261136f565b50602082015161175b6020850182611723565b50505050565b60006040820190506117766000830184611732565b92915050565b7f4f6e6c792063616c6c61626c65206279206f776e657200000000000000000000600082015250565b60006117b2601683611201565b91506117bd8261177c565b602082019050919050565b600060208201905081810360008301526117e1816117a5565b9050919050565b7f43616e6e6f74207472616e7366657220746f2073656c66000000000000000000600082015250565b600061181e601783611201565b9150611829826117e8565b602082019050919050565b6000602082019050818103600083015261184d81611811565b9050919050565b7f5361666545524332303a204552433230206f7065726174696f6e20646964206e60008201527f6f74207375636365656400000000000000000000000000000000000000000000602082015250565b60006118b0602a83611201565b91506118bb82611854565b604082019050919050565b600060208201905081810360008301526118df816118a3565b9050919050565b7f416464726573733a20696e73756666696369656e742062616c616e636520666f60008201527f722063616c6c0000000000000000000000000000000000000000000000000000602082015250565b6000611942602683611201565b915061194d826118e6565b604082019050919050565b6000602082019050818103600083015261197181611935565b9050919050565b6000611983826112d5565b61198d818561163a565b935061199d818560208601611212565b80840191505092915050565b60006119b58284611978565b915081905092915050565b7f416464726573733a2063616c6c20746f206e6f6e2d636f6e7472616374000000600082015250565b60006119f6601d83611201565b9150611a01826119c0565b602082019050919050565b60006020820190508181036000830152611a25816119e9565b905091905056fea2646970667358221220aa9832fb9dd74a73b2eb7ddeb6f4f21e0083d0e9ae72267bd2d6c3f2c419ce0464736f6c63430008180033","linkReferences":{}},"methodIdentifiers":{"acceptOwnership()":"79ba5097","owner()":"8da5cb5b","send(uint64,address,string,uint8)":"2c101b17","transferOwnership(address)":"f2fde38b","withdraw(address)":"51cff8d9","withdrawToken(address,address)":"3aeac4e1"},"id":80}