{"abi":[{"type":"receive","stateMutability":"payable"},{"type":"function","name":"addTrackedToken","inputs":[{"name":"token","type":"address","internalType":"address"}],"outputs":[],"stateMutability":"nonpayable"},{"type":"function","name":"deadline","inputs":[],"outputs":[{"name":"","type":"uint256","internalType":"uint256"}],"stateMutability":"view"},{"type":"function","name":"executeAndCleanup","inputs":[{"name":"target","type":"address","internalType":"address"},{"name":"data","type":"bytes","internalType":"bytes"}],"outputs":[],"stateMutability":"payable"},{"type":"function","name":"executeWithValueAndCleanup","inputs":[{"name":"targets","type":"address[]","internalType":"address[]"},{"name":"values","type":"uint256[]","internalType":"uint256[]"},{"name":"datas","type":"bytes[]","internalType":"bytes[]"}],"outputs":[{"name":"results","type":"tuple[]","internalType":"struct EnhancedExecutorTemplate.CallResult[]","components":[{"name":"success","type":"bool","internalType":"bool"},{"name":"returnData","type":"bytes","internalType":"bytes"}]}],"stateMutability":"payable"},{"type":"function","name":"getTokenBalance","inputs":[{"name":"token","type":"address","internalType":"address"}],"outputs":[{"name":"","type":"uint256","internalType":"uint256"}],"stateMutability":"view"},{"type":"function","name":"getTrackedTokens","inputs":[],"outputs":[{"name":"","type":"address[]","internalType":"address[]"}],"stateMutability":"view"},{"type":"function","name":"initialize","inputs":[{"name":"_deadline","type":"uint256","internalType":"uint256"}],"outputs":[],"stateMutability":"nonpayable"},{"type":"function","name":"multicallAndCleanup","inputs":[{"name":"calls","type":"tuple[]","internalType":"struct EnhancedExecutorTemplate.Call[]","components":[{"name":"target","type":"address","internalType":"address"},{"name":"value","type":"uint256","internalType":"uint256"},{"name":"data","type":"bytes","internalType":"bytes"}]}],"outputs":[{"name":"results","type":"tuple[]","internalType":"struct EnhancedExecutorTemplate.CallResult[]","components":[{"name":"success","type":"bool","internalType":"bool"},{"name":"returnData","type":"bytes","internalType":"bytes"}]}],"stateMutability":"payable"},{"type":"function","name":"multicallTolerantAndCleanup","inputs":[{"name":"calls","type":"tuple[]","internalType":"struct EnhancedExecutorTemplate.Call[]","components":[{"name":"target","type":"address","internalType":"address"},{"name":"value","type":"uint256","internalType":"uint256"},{"name":"data","type":"bytes","internalType":"bytes"}]},{"name":"requireAllSuccess","type":"bool","internalType":"bool"}],"outputs":[{"name":"results","type":"tuple[]","internalType":"struct EnhancedExecutorTemplate.CallResult[]","components":[{"name":"success","type":"bool","internalType":"bool"},{"name":"returnData","type":"bytes","internalType":"bytes"}]}],"stateMutability":"payable"},{"type":"function","name":"recoverTokens","inputs":[],"outputs":[],"stateMutability":"nonpayable"},{"type":"function","name":"trackedTokens","inputs":[{"name":"","type":"uint256","internalType":"uint256"}],"outputs":[{"name":"","type":"address","internalType":"address"}],"stateMutability":"view"},{"type":"function","name":"yieldMax","inputs":[],"outputs":[{"name":"","type":"address","internalType":"address"}],"stateMutability":"view"},{"type":"event","name":"CallExecuted","inputs":[{"name":"target","type":"address","indexed":true,"internalType":"address"},{"name":"value","type":"uint256","indexed":false,"internalType":"uint256"},{"name":"success","type":"bool","indexed":false,"internalType":"bool"},{"name":"returnData","type":"bytes","indexed":false,"internalType":"bytes"}],"anonymous":false},{"type":"event","name":"MulticallExecuted","inputs":[{"name":"callCount","type":"uint256","indexed":false,"internalType":"uint256"},{"name":"successCount","type":"uint256","indexed":false,"internalType":"uint256"}],"anonymous":false},{"type":"error","name":"AlreadyInitialized","inputs":[]},{"type":"error","name":"DeadlineExceeded","inputs":[]},{"type":"error","name":"ExecutionFailed","inputs":[{"name":"callIndex","type":"uint256","internalType":"uint256"},{"name":"reason","type":"bytes","internalType":"bytes"}]},{"type":"error","name":"InsufficientValue","inputs":[]},{"type":"error","name":"NotInitialized","inputs":[]},{"type":"error","name":"Unauthorized","inputs":[]}],"bytecode":{"object":"0x608060405234801561001057600080fd5b50612be9806100206000396000f3fe6080604052600436106100ab5760003560e01c806389d804611161006457806389d80461146101d357806389dcfbb1146101fe578063990a6b2614610227578063b77f39fe14610257578063de3823681461026e578063fe4b84df1461029e576100b2565b806329659918146100b757806329dcb0cf146100e75780633aecd0e314610112578063695def4c1461014f57806375f7ba331461017a5780638305368a14610196576100b2565b366100b257005b600080fd5b6100d160048036038101906100cc9190611b16565b6102c7565b6040516100de9190611d0d565b60405180910390f35b3480156100f357600080fd5b506100fc61068e565b6040516101099190611d48565b60405180910390f35b34801561011e57600080fd5b5061013960048036038101906101349190611dc1565b610694565b6040516101469190611d48565b60405180910390f35b34801561015b57600080fd5b50610164610717565b6040516101719190611eac565b60405180910390f35b610194600480360381019061018f9190611f24565b6107a5565b005b3480156101a257600080fd5b506101bd60048036038101906101b89190611fb0565b6109de565b6040516101ca9190611fec565b60405180910390f35b3480156101df57600080fd5b506101e8610a1d565b6040516101f59190611fec565b60405180910390f35b34801561020a57600080fd5b5061022560048036038101906102209190611dc1565b610a41565b005b610241600480360381019061023c9190612033565b610b35565b60405161024e9190611d0d565b60405180910390f35b34801561026357600080fd5b5061026c610f47565b005b61028860048036038101906102839190612195565b611037565b6040516102959190611d0d565b60405180910390f35b3480156102aa57600080fd5b506102c560048036038101906102c09190611fb0565b6114aa565b005b606060008054906101000a900473ffffffffffffffffffffffffffffffffffffffff1673ffffffffffffffffffffffffffffffffffffffff163373ffffffffffffffffffffffffffffffffffffffff161461034e576040517f82b4290000000000000000000000000000000000000000000000000000000000815260040160405180910390fd5b600260009054906101000a900460ff16610394576040517f87138d5c00000000000000000000000000000000000000000000000000000000815260040160405180910390fd5b60015442106103cf576040517f559895a300000000000000000000000000000000000000000000000000000000815260040160405180910390fd5b6000805b84849050811015610421578484828181106103f1576103f0612249565b5b90506020028101906104039190612287565b602001358261041291906122de565b915080806001019150506103d3565b503481111561045c576040517f1101129400000000000000000000000000000000000000000000000000000000815260040160405180910390fd5b8383905067ffffffffffffffff81111561047957610478612312565b5b6040519080825280602002602001820160405280156104b257816020015b61049f611a81565b8152602001906001900390816104975790505b5091506000805b858590508110156106265760008686838181106104d9576104d8612249565b5b90506020028101906104eb9190612287565b6104f4906124cc565b9050600080826000015173ffffffffffffffffffffffffffffffffffffffff168360200151846040015160405161052b919061251b565b60006040518083038185875af1925050503d8060008114610568576040519150601f19603f3d011682016040523d82523d6000602084013e61056d565b606091505b5091509150604051806040016040528083151581526020018281525087858151811061059c5761059b612249565b5b602002602001018190525081156105bc5784806105b890612532565b9550505b826000015173ffffffffffffffffffffffffffffffffffffffff167ffd7972559eaed6c1a376e5822b130f9eb3066b368fb0a27c7d8e582df293de3f8460200151848460405161060e939291906125d3565b60405180910390a250505080806001019150506104b9565b507f1c49275e1ba60aa1d9f67a2446a4f2c4fe8cc75ba18c7993618cfd5d0112395c858590508260405161065b929190612611565b60405180910390a161066b611556565b6000600260006101000a81548160ff021916908315150217905550505092915050565b60015481565b60008173ffffffffffffffffffffffffffffffffffffffff166370a08231306040518263ffffffff1660e01b81526004016106cf9190611fec565b602060405180830381865afa1580156106ec573d6000803e3d6000fd5b505050506040513d601f19601f82011682018060405250810190610710919061264f565b9050919050565b6060600380548060200260200160405190810160405280929190818152602001828054801561079b57602002820191906000526020600020905b8160009054906101000a900473ffffffffffffffffffffffffffffffffffffffff1673ffffffffffffffffffffffffffffffffffffffff1681526020019060010190808311610751575b5050505050905090565b60008054906101000a900473ffffffffffffffffffffffffffffffffffffffff1673ffffffffffffffffffffffffffffffffffffffff163373ffffffffffffffffffffffffffffffffffffffff161461082a576040517f82b4290000000000000000000000000000000000000000000000000000000000815260040160405180910390fd5b600260009054906101000a900460ff16610870576040517f87138d5c00000000000000000000000000000000000000000000000000000000815260040160405180910390fd5b60015442106108ab576040517f559895a300000000000000000000000000000000000000000000000000000000815260040160405180910390fd5b6000808473ffffffffffffffffffffffffffffffffffffffff163485856040516108d69291906126a1565b60006040518083038185875af1925050503d8060008114610913576040519150601f19603f3d011682016040523d82523d6000602084013e610918565b606091505b509150915081610962576000816040517f2c4029e90000000000000000000000000000000000000000000000000000000081526004016109599291906126ff565b60405180910390fd5b8473ffffffffffffffffffffffffffffffffffffffff167ffd7972559eaed6c1a376e5822b130f9eb3066b368fb0a27c7d8e582df293de3f3484846040516109ac939291906125d3565b60405180910390a26109bc611556565b6000600260006101000a81548160ff0219169083151502179055505050505050565b600381815481106109ee57600080fd5b906000526020600020016000915054906101000a900473ffffffffffffffffffffffffffffffffffffffff1681565b60008054906101000a900473ffffffffffffffffffffffffffffffffffffffff1681565b60008054906101000a900473ffffffffffffffffffffffffffffffffffffffff1673ffffffffffffffffffffffffffffffffffffffff163373ffffffffffffffffffffffffffffffffffffffff1614610acf576040517f08c379a0000000000000000000000000000000000000000000000000000000008152600401610ac69061278c565b60405180910390fd5b6003819080600181540180825580915050600190039060005260206000200160009091909190916101000a81548173ffffffffffffffffffffffffffffffffffffffff021916908373ffffffffffffffffffffffffffffffffffffffff16021790555050565b606060008054906101000a900473ffffffffffffffffffffffffffffffffffffffff1673ffffffffffffffffffffffffffffffffffffffff163373ffffffffffffffffffffffffffffffffffffffff1614610bbc576040517f82b4290000000000000000000000000000000000000000000000000000000000815260040160405180910390fd5b600260009054906101000a900460ff16610c02576040517f87138d5c00000000000000000000000000000000000000000000000000000000815260040160405180910390fd5b6001544210610c3d576040517f559895a300000000000000000000000000000000000000000000000000000000815260040160405180910390fd5b6000805b85859050811015610c8f57858582818110610c5f57610c5e612249565b5b9050602002810190610c719190612287565b6020013582610c8091906122de565b91508080600101915050610c41565b5034811115610cca576040517f1101129400000000000000000000000000000000000000000000000000000000815260040160405180910390fd5b8484905067ffffffffffffffff811115610ce757610ce6612312565b5b604051908082528060200260200182016040528015610d2057816020015b610d0d611a81565b815260200190600190039081610d055790505b5091506000805b86869050811015610ede576000878783818110610d4757610d46612249565b5b9050602002810190610d599190612287565b610d62906124cc565b9050600080826000015173ffffffffffffffffffffffffffffffffffffffff1683602001518460400151604051610d99919061251b565b60006040518083038185875af1925050503d8060008114610dd6576040519150601f19603f3d011682016040523d82523d6000602084013e610ddb565b606091505b50915091506040518060400160405280831515815260200182815250878581518110610e0a57610e09612249565b5b60200260200101819052508115610e2e578480610e2690612532565b955050610e74565b8715610e735783816040517f2c4029e9000000000000000000000000000000000000000000000000000000008152600401610e6a9291906127ac565b60405180910390fd5b5b826000015173ffffffffffffffffffffffffffffffffffffffff167ffd7972559eaed6c1a376e5822b130f9eb3066b368fb0a27c7d8e582df293de3f84602001518484604051610ec6939291906125d3565b60405180910390a25050508080600101915050610d27565b507f1c49275e1ba60aa1d9f67a2446a4f2c4fe8cc75ba18c7993618cfd5d0112395c8686905082604051610f13929190612611565b60405180910390a1610f23611556565b6000600260006101000a81548160ff02191690831515021790555050509392505050565b60008054906101000a900473ffffffffffffffffffffffffffffffffffffffff1673ffffffffffffffffffffffffffffffffffffffff163373ffffffffffffffffffffffffffffffffffffffff1614610fcc576040517f82b4290000000000000000000000000000000000000000000000000000000000815260040160405180910390fd5b600260009054906101000a900460ff16611012576040517f87138d5c00000000000000000000000000000000000000000000000000000000815260040160405180910390fd5b61101a611556565b6000600260006101000a81548160ff021916908315150217905550565b606060008054906101000a900473ffffffffffffffffffffffffffffffffffffffff1673ffffffffffffffffffffffffffffffffffffffff163373ffffffffffffffffffffffffffffffffffffffff16146110be576040517f82b4290000000000000000000000000000000000000000000000000000000000815260040160405180910390fd5b600260009054906101000a900460ff16611104576040517f87138d5c00000000000000000000000000000000000000000000000000000000815260040160405180910390fd5b600154421061113f576040517f559895a300000000000000000000000000000000000000000000000000000000815260040160405180910390fd5b848490508787905014801561115957508282905085859050145b611198576040517f08c379a000000000000000000000000000000000000000000000000000000000815260040161118f90612828565b60405180910390fd5b6000805b868690508110156111db578686828181106111ba576111b9612249565b5b90506020020135826111cc91906122de565b9150808060010191505061119c565b5034811115611216576040517f1101129400000000000000000000000000000000000000000000000000000000815260040160405180910390fd5b8787905067ffffffffffffffff81111561123357611232612312565b5b60405190808252806020026020018201604052801561126c57816020015b611259611a81565b8152602001906001900390816112515790505b5091506000805b8989905081101561143e576000808b8b8481811061129457611293612249565b5b90506020020160208101906112a99190611dc1565b73ffffffffffffffffffffffffffffffffffffffff168a8a858181106112d2576112d1612249565b5b905060200201358989868181106112ec576112eb612249565b5b90506020028101906112fe9190612848565b60405161130c9291906126a1565b60006040518083038185875af1925050503d8060008114611349576040519150601f19603f3d011682016040523d82523d6000602084013e61134e565b606091505b5091509150604051806040016040528083151581526020018281525086848151811061137d5761137c612249565b5b6020026020010181905250811561139d57838061139990612532565b9450505b8b8b848181106113b0576113af612249565b5b90506020020160208101906113c59190611dc1565b73ffffffffffffffffffffffffffffffffffffffff167ffd7972559eaed6c1a376e5822b130f9eb3066b368fb0a27c7d8e582df293de3f8b8b8681811061140f5761140e612249565b5b905060200201358484604051611427939291906125d3565b60405180910390a250508080600101915050611273565b507f1c49275e1ba60aa1d9f67a2446a4f2c4fe8cc75ba18c7993618cfd5d0112395c8989905082604051611473929190612611565b60405180910390a1611483611556565b6000600260006101000a81548160ff02191690831515021790555050509695505050505050565b600260009054906101000a900460ff16156114f1576040517f0dc149f000000000000000000000000000000000000000000000000000000000815260040160405180910390fd5b336000806101000a81548173ffffffffffffffffffffffffffffffffffffffff021916908373ffffffffffffffffffffffffffffffffffffffff160217905550806001819055506001600260006101000a81548160ff02191690831515021790555050565b60005b60038054905081101561168b5760006003828154811061157c5761157b612249565b5b9060005260206000200160009054906101000a900473ffffffffffffffffffffffffffffffffffffffff16905060008173ffffffffffffffffffffffffffffffffffffffff166370a08231306040518263ffffffff1660e01b81526004016115e49190611fec565b602060405180830381865afa158015611601573d6000803e3d6000fd5b505050506040513d601f19601f82011682018060405250810190611625919061264f565b9050600081111561167c5761167b60008054906101000a900473ffffffffffffffffffffffffffffffffffffffff16828473ffffffffffffffffffffffffffffffffffffffff166117669092919063ffffffff16565b5b50508080600101915050611559565b5060004711156117645760008060009054906101000a900473ffffffffffffffffffffffffffffffffffffffff1673ffffffffffffffffffffffffffffffffffffffff16476040516116dc906128d1565b60006040518083038185875af1925050503d8060008114611719576040519150601f19603f3d011682016040523d82523d6000602084013e61171e565b606091505b5050905080611762576040517f08c379a000000000000000000000000000000000000000000000000000000000815260040161175990612932565b60405180910390fd5b505b565b6117e78363a9059cbb60e01b8484604051602401611785929190612952565b604051602081830303815290604052907bffffffffffffffffffffffffffffffffffffffffffffffffffffffff19166020820180517bffffffffffffffffffffffffffffffffffffffffffffffffffffffff83818316178352505050506117ec565b505050565b600061184e826040518060400160405280602081526020017f5361666545524332303a206c6f772d6c6576656c2063616c6c206661696c65648152508573ffffffffffffffffffffffffffffffffffffffff166118b49092919063ffffffff16565b905060008151148061187057508080602001905181019061186f9190612990565b5b6118af576040517f08c379a00000000000000000000000000000000000000000000000000000000081526004016118a690612a2f565b60405180910390fd5b505050565b60606118c384846000856118cc565b90509392505050565b606082471015611911576040517f08c379a000000000000000000000000000000000000000000000000000000000815260040161190890612ac1565b60405180910390fd5b6000808673ffffffffffffffffffffffffffffffffffffffff16858760405161193a919061251b565b60006040518083038185875af1925050503d8060008114611977576040519150601f19603f3d011682016040523d82523d6000602084013e61197c565b606091505b509150915061198d87838387611999565b92505050949350505050565b606083156119fb5760008351036119f3576119b385611a0e565b6119f2576040517f08c379a00000000000000000000000000000000000000000000000000000000081526004016119e990612b2d565b60405180910390fd5b5b829050611a06565b611a058383611a31565b5b949350505050565b6000808273ffffffffffffffffffffffffffffffffffffffff163b119050919050565b600082511115611a445781518083602001fd5b806040517f08c379a0000000000000000000000000000000000000000000000000000000008152600401611a789190612b91565b60405180910390fd5b6040518060400160405280600015158152602001606081525090565b6000604051905090565b600080fd5b600080fd5b600080fd5b600080fd5b600080fd5b60008083601f840112611ad657611ad5611ab1565b5b8235905067ffffffffffffffff811115611af357611af2611ab6565b5b602083019150836020820283011115611b0f57611b0e611abb565b5b9250929050565b60008060208385031215611b2d57611b2c611aa7565b5b600083013567ffffffffffffffff811115611b4b57611b4a611aac565b5b611b5785828601611ac0565b92509250509250929050565b600081519050919050565b600082825260208201905092915050565b6000819050602082019050919050565b60008115159050919050565b611ba481611b8f565b82525050565b600081519050919050565b600082825260208201905092915050565b60005b83811015611be4578082015181840152602081019050611bc9565b60008484015250505050565b6000601f19601f8301169050919050565b6000611c0c82611baa565b611c168185611bb5565b9350611c26818560208601611bc6565b611c2f81611bf0565b840191505092915050565b6000604083016000830151611c526000860182611b9b565b5060208301518482036020860152611c6a8282611c01565b9150508091505092915050565b6000611c838383611c3a565b905092915050565b6000602082019050919050565b6000611ca382611b63565b611cad8185611b6e565b935083602082028501611cbf85611b7f565b8060005b85811015611cfb5784840389528151611cdc8582611c77565b9450611ce783611c8b565b925060208a01995050600181019050611cc3565b50829750879550505050505092915050565b60006020820190508181036000830152611d278184611c98565b905092915050565b6000819050919050565b611d4281611d2f565b82525050565b6000602082019050611d5d6000830184611d39565b92915050565b600073ffffffffffffffffffffffffffffffffffffffff82169050919050565b6000611d8e82611d63565b9050919050565b611d9e81611d83565b8114611da957600080fd5b50565b600081359050611dbb81611d95565b92915050565b600060208284031215611dd757611dd6611aa7565b5b6000611de584828501611dac565b91505092915050565b600081519050919050565b600082825260208201905092915050565b6000819050602082019050919050565b611e2381611d83565b82525050565b6000611e358383611e1a565b60208301905092915050565b6000602082019050919050565b6000611e5982611dee565b611e638185611df9565b9350611e6e83611e0a565b8060005b83811015611e9f578151611e868882611e29565b9750611e9183611e41565b925050600181019050611e72565b5085935050505092915050565b60006020820190508181036000830152611ec68184611e4e565b905092915050565b60008083601f840112611ee457611ee3611ab1565b5b8235905067ffffffffffffffff811115611f0157611f00611ab6565b5b602083019150836001820283011115611f1d57611f1c611abb565b5b9250929050565b600080600060408486031215611f3d57611f3c611aa7565b5b6000611f4b86828701611dac565b935050602084013567ffffffffffffffff811115611f6c57611f6b611aac565b5b611f7886828701611ece565b92509250509250925092565b611f8d81611d2f565b8114611f9857600080fd5b50565b600081359050611faa81611f84565b92915050565b600060208284031215611fc657611fc5611aa7565b5b6000611fd484828501611f9b565b91505092915050565b611fe681611d83565b82525050565b60006020820190506120016000830184611fdd565b92915050565b61201081611b8f565b811461201b57600080fd5b50565b60008135905061202d81612007565b92915050565b60008060006040848603121561204c5761204b611aa7565b5b600084013567ffffffffffffffff81111561206a57612069611aac565b5b61207686828701611ac0565b935093505060206120898682870161201e565b9150509250925092565b60008083601f8401126120a9576120a8611ab1565b5b8235905067ffffffffffffffff8111156120c6576120c5611ab6565b5b6020830191508360208202830111156120e2576120e1611abb565b5b9250929050565b60008083601f8401126120ff576120fe611ab1565b5b8235905067ffffffffffffffff81111561211c5761211b611ab6565b5b60208301915083602082028301111561213857612137611abb565b5b9250929050565b60008083601f84011261215557612154611ab1565b5b8235905067ffffffffffffffff81111561217257612171611ab6565b5b60208301915083602082028301111561218e5761218d611abb565b5b9250929050565b600080600080600080606087890312156121b2576121b1611aa7565b5b600087013567ffffffffffffffff8111156121d0576121cf611aac565b5b6121dc89828a01612093565b9650965050602087013567ffffffffffffffff8111156121ff576121fe611aac565b5b61220b89828a016120e9565b9450945050604087013567ffffffffffffffff81111561222e5761222d611aac565b5b61223a89828a0161213f565b92509250509295509295509295565b7f4e487b7100000000000000000000000000000000000000000000000000000000600052603260045260246000fd5b600080fd5b600080fd5b600080fd5b6000823560016060038336030381126122a3576122a2612278565b5b80830191505092915050565b7f4e487b7100000000000000000000000000000000000000000000000000000000600052601160045260246000fd5b60006122e982611d2f565b91506122f483611d2f565b925082820190508082111561230c5761230b6122af565b5b92915050565b7f4e487b7100000000000000000000000000000000000000000000000000000000600052604160045260246000fd5b600080fd5b61234f82611bf0565b810181811067ffffffffffffffff8211171561236e5761236d612312565b5b80604052505050565b6000612381611a9d565b905061238d8282612346565b919050565b600080fd5b600080fd5b600067ffffffffffffffff8211156123b7576123b6612312565b5b6123c082611bf0565b9050602081019050919050565b82818337600083830152505050565b60006123ef6123ea8461239c565b612377565b90508281526020810184848401111561240b5761240a612397565b5b6124168482856123cd565b509392505050565b600082601f83011261243357612432611ab1565b5b81356124438482602086016123dc565b91505092915050565b60006060828403121561246257612461612341565b5b61246c6060612377565b9050600061247c84828501611dac565b600083015250602061249084828501611f9b565b602083015250604082013567ffffffffffffffff8111156124b4576124b3612392565b5b6124c08482850161241e565b60408301525092915050565b60006124d8368361244c565b9050919050565b600081905092915050565b60006124f582611baa565b6124ff81856124df565b935061250f818560208601611bc6565b80840191505092915050565b600061252782846124ea565b915081905092915050565b600061253d82611d2f565b91507fffffffffffffffffffffffffffffffffffffffffffffffffffffffffffffffff820361256f5761256e6122af565b5b600182019050919050565b61258381611b8f565b82525050565b600082825260208201905092915050565b60006125a582611baa565b6125af8185612589565b93506125bf818560208601611bc6565b6125c881611bf0565b840191505092915050565b60006060820190506125e86000830186611d39565b6125f5602083018561257a565b8181036040830152612607818461259a565b9050949350505050565b60006040820190506126266000830185611d39565b6126336020830184611d39565b9392505050565b60008151905061264981611f84565b92915050565b60006020828403121561266557612664611aa7565b5b60006126738482850161263a565b91505092915050565b600061268883856124df565b93506126958385846123cd565b82840190509392505050565b60006126ae82848661267c565b91508190509392505050565b6000819050919050565b6000819050919050565b60006126e96126e46126df846126ba565b6126c4565b611d2f565b9050919050565b6126f9816126ce565b82525050565b600060408201905061271460008301856126f0565b8181036020830152612726818461259a565b90509392505050565b600082825260208201905092915050565b7f4f6e6c79205969656c644d61782063616e2061646420746f6b656e7300000000600082015250565b6000612776601c8361272f565b915061278182612740565b602082019050919050565b600060208201905081810360008301526127a581612769565b9050919050565b60006040820190506127c16000830185611d39565b81810360208301526127d3818461259a565b90509392505050565b7f4172726179206c656e677468206d69736d617463680000000000000000000000600082015250565b600061281260158361272f565b915061281d826127dc565b602082019050919050565b6000602082019050818103600083015261284181612805565b9050919050565b6000808335600160200384360303811261286557612864612278565b5b80840192508235915067ffffffffffffffff8211156128875761288661227d565b5b6020830192506001820236038313156128a3576128a2612282565b5b509250929050565b50565b60006128bb6000836124df565b91506128c6826128ab565b600082019050919050565b60006128dc826128ae565b9150819050919050565b7f455448207472616e73666572206661696c656400000000000000000000000000600082015250565b600061291c60138361272f565b9150612927826128e6565b602082019050919050565b6000602082019050818103600083015261294b8161290f565b9050919050565b60006040820190506129676000830185611fdd565b6129746020830184611d39565b9392505050565b60008151905061298a81612007565b92915050565b6000602082840312156129a6576129a5611aa7565b5b60006129b48482850161297b565b91505092915050565b7f5361666545524332303a204552433230206f7065726174696f6e20646964206e60008201527f6f74207375636365656400000000000000000000000000000000000000000000602082015250565b6000612a19602a8361272f565b9150612a24826129bd565b604082019050919050565b60006020820190508181036000830152612a4881612a0c565b9050919050565b7f416464726573733a20696e73756666696369656e742062616c616e636520666f60008201527f722063616c6c0000000000000000000000000000000000000000000000000000602082015250565b6000612aab60268361272f565b9150612ab682612a4f565b604082019050919050565b60006020820190508181036000830152612ada81612a9e565b9050919050565b7f416464726573733a2063616c6c20746f206e6f6e2d636f6e7472616374000000600082015250565b6000612b17601d8361272f565b9150612b2282612ae1565b602082019050919050565b60006020820190508181036000830152612b4681612b0a565b9050919050565b600081519050919050565b6000612b6382612b4d565b612b6d818561272f565b9350612b7d818560208601611bc6565b612b8681611bf0565b840191505092915050565b60006020820190508181036000830152612bab8184612b58565b90509291505056fea2646970667358221220b63b67943aa5cbf0b08af5eba65aa8a2eeeff84251a9d8aa3a7ff0aa726fba8d64736f6c63430008180033","linkReferences":{}},"methodIdentifiers":{"addTrackedToken(address)":"89dcfbb1","deadline()":"29dcb0cf","executeAndCleanup(address,bytes)":"75f7ba33","executeWithValueAndCleanup(address[],uint256[],bytes[])":"de382368","getTokenBalance(address)":"3aecd0e3","getTrackedTokens()":"695def4c","initialize(uint256)":"fe4b84df","multicallAndCleanup((address,uint256,bytes)[])":"29659918","multicallTolerantAndCleanup((address,uint256,bytes)[],bool)":"990a6b26","recoverTokens()":"b77f39fe","trackedTokens(uint256)":"8305368a","yieldMax()":"89d80461"},"id":87}