{"abi":[{"type":"function","name":"APTOS_PRECOMPILE_SPACE","inputs":[],"outputs":[{"name":"","type":"uint256","internalType":"uint256"}],"stateMutability":"view"},{"type":"function","name":"CHAIN_FAMILY_SELECTOR_APTOS","inputs":[],"outputs":[{"name":"","type":"bytes4","internalType":"bytes4"}],"stateMutability":"view"},{"type":"function","name":"CHAIN_FAMILY_SELECTOR_EVM","inputs":[],"outputs":[{"name":"","type":"bytes4","internalType":"bytes4"}],"stateMutability":"view"},{"type":"function","name":"CHAIN_FAMILY_SELECTOR_SUI","inputs":[],"outputs":[{"name":"","type":"bytes4","internalType":"bytes4"}],"stateMutability":"view"},{"type":"function","name":"CHAIN_FAMILY_SELECTOR_SVM","inputs":[],"outputs":[{"name":"","type":"bytes4","internalType":"bytes4"}],"stateMutability":"view"},{"type":"function","name":"EVM_PRECOMPILE_SPACE","inputs":[],"outputs":[{"name":"","type":"uint256","internalType":"uint256"}],"stateMutability":"view"},{"type":"function","name":"GAS_ESTIMATION_SENDER","inputs":[],"outputs":[{"name":"","type":"address","internalType":"address"}],"stateMutability":"view"},{"type":"function","name":"GAS_PRICE_BITS","inputs":[],"outputs":[{"name":"","type":"uint8","internalType":"uint8"}],"stateMutability":"view"},{"type":"function","name":"MESSAGE_FIXED_BYTES","inputs":[],"outputs":[{"name":"","type":"uint256","internalType":"uint256"}],"stateMutability":"view"},{"type":"function","name":"MESSAGE_FIXED_BYTES_PER_TOKEN","inputs":[],"outputs":[{"name":"","type":"uint256","internalType":"uint256"}],"stateMutability":"view"},{"type":"error","name":"Invalid32ByteAddress","inputs":[{"name":"encodedAddress","type":"bytes","internalType":"bytes"}]},{"type":"error","name":"InvalidEVMAddress","inputs":[{"name":"encodedAddress","type":"bytes","internalType":"bytes"}]}],"bytecode":{"object":"0x61038b610053600b82828239805160001a607314610046577f4e487b7100000000000000000000000000000000000000000000000000000000600052600060045260246000fd5b30600052607381538281f3fe73000000000000000000000000000000000000000030146080604052600436106100a85760003560e01c80637a4bb232116100705780637a4bb23214610143578063958d009914610161578063a60821ca1461017f578063dc47c58b1461019d578063fb633e9c146101bb576100a8565b806313dd3f64146100ad57806318994e7a146100cb578063192c8288146100e95780632a91a92b14610107578063608c703914610125575b600080fd5b6100b56101d9565b6040516100c29190610251565b60405180910390f35b6100d36101de565b6040516100e09190610251565b60405180910390f35b6100f16101e4565b6040516100fe9190610251565b60405180910390f35b61010f6101ea565b60405161011c91906102a7565b60405180910390f35b61012d6101f5565b60405161013a9190610303565b60405180910390f35b61014b61020c565b604051610158919061033a565b60405180910390f35b610169610211565b60405161017691906102a7565b60405180910390f35b61018761021c565b60405161019491906102a7565b60405180910390f35b6101a5610227565b6040516101b29190610251565b60405180910390f35b6101c361022d565b6040516101d091906102a7565b60405180910390f35b600b81565b6101e081565b61040081565b63ac77ffec60e01b81565b72c11c11c11c11c11c11c11c11c11c11c11c11c181565b607081565b631e10bdc460e01b81565b63c4e0595360e01b81565b61012081565b632812d52c60e01b81565b6000819050919050565b61024b81610238565b82525050565b60006020820190506102666000830184610242565b92915050565b60007fffffffff0000000000000000000000000000000000000000000000000000000082169050919050565b6102a18161026c565b82525050565b60006020820190506102bc6000830184610298565b92915050565b600073ffffffffffffffffffffffffffffffffffffffff82169050919050565b60006102ed826102c2565b9050919050565b6102fd816102e2565b82525050565b600060208201905061031860008301846102f4565b92915050565b600060ff82169050919050565b6103348161031e565b82525050565b600060208201905061034f600083018461032b565b9291505056fea26469706673582212203451083b969398aa6c5504974b5e23413a2bdcfa466e98114c18239bb050b7a164736f6c63430008180033","linkReferences":{}},"methodIdentifiers":{"APTOS_PRECOMPILE_SPACE()":"13dd3f64","CHAIN_FAMILY_SELECTOR_APTOS()":"2a91a92b","CHAIN_FAMILY_SELECTOR_EVM()":"fb633e9c","CHAIN_FAMILY_SELECTOR_SUI()":"a60821ca","CHAIN_FAMILY_SELECTOR_SVM()":"958d0099","EVM_PRECOMPILE_SPACE()":"192c8288","GAS_ESTIMATION_SENDER()":"608c7039","GAS_PRICE_BITS()":"7a4bb232","MESSAGE_FIXED_BYTES()":"18994e7a","MESSAGE_FIXED_BYTES_PER_TOKEN()":"dc47c58b"},"id":7}