{"abi":[{"type":"function","name":"processTokens","inputs":[{"name":"token","type":"address","internalType":"address"},{"name":"amount","type":"uint256","internalType":"uint256"},{"name":"recipient","type":"address","internalType":"address"}],"outputs":[],"stateMutability":"nonpayable"},{"type":"event","name":"TokensProcessed","inputs":[{"name":"sender","type":"address","indexed":true,"internalType":"address"},{"name":"token","type":"address","indexed":true,"internalType":"address"},{"name":"amount","type":"uint256","indexed":false,"internalType":"uint256"},{"name":"recipient","type":"address","indexed":true,"internalType":"address"}],"anonymous":false}],"bytecode":{"object":"0x608060405234801561001057600080fd5b50610520806100206000396000f3fe608060405234801561001057600080fd5b506004361061002b5760003560e01c80633e3bce4e14610030575b600080fd5b61004a6004803603810190610045919061030b565b61004c565b005b60003073ffffffffffffffffffffffffffffffffffffffff1663778715b86040518163ffffffff1660e01b8152600401602060405180830381865afa158015610099573d6000803e3d6000fd5b505050506040513d601f19601f820116820180604052508101906100bd9190610373565b905060003073ffffffffffffffffffffffffffffffffffffffff16633aecd0e3866040518263ffffffff1660e01b81526004016100fa91906103af565b602060405180830381865afa158015610117573d6000803e3d6000fd5b505050506040513d601f19601f8201168201806040525081019061013b91906103df565b905083811015610180576040517f08c379a000000000000000000000000000000000000000000000000000000000815260040161017790610469565b60405180910390fd5b3073ffffffffffffffffffffffffffffffffffffffff1663ba4cd8be8685876040518463ffffffff1660e01b81526004016101bd93929190610498565b600060405180830381600087803b1580156101d757600080fd5b505af11580156101eb573d6000803e3d6000fd5b505050508273ffffffffffffffffffffffffffffffffffffffff168573ffffffffffffffffffffffffffffffffffffffff168373ffffffffffffffffffffffffffffffffffffffff167fd3d894b66835701abcde49cce68e0155207b4ce12f954bb02fbdfe2246b140588760405161026391906104cf565b60405180910390a45050505050565b600080fd5b600073ffffffffffffffffffffffffffffffffffffffff82169050919050565b60006102a282610277565b9050919050565b6102b281610297565b81146102bd57600080fd5b50565b6000813590506102cf816102a9565b92915050565b6000819050919050565b6102e8816102d5565b81146102f357600080fd5b50565b600081359050610305816102df565b92915050565b60008060006060848603121561032457610323610272565b5b6000610332868287016102c0565b9350506020610343868287016102f6565b9250506040610354868287016102c0565b9150509250925092565b60008151905061036d816102a9565b92915050565b60006020828403121561038957610388610272565b5b60006103978482850161035e565b91505092915050565b6103a981610297565b82525050565b60006020820190506103c460008301846103a0565b92915050565b6000815190506103d9816102df565b92915050565b6000602082840312156103f5576103f4610272565b5b6000610403848285016103ca565b91505092915050565b600082825260208201905092915050565b7f496e73756666696369656e7420746f6b656e7300000000000000000000000000600082015250565b600061045360138361040c565b915061045e8261041d565b602082019050919050565b6000602082019050818103600083015261048281610446565b9050919050565b610492816102d5565b82525050565b60006060820190506104ad60008301866103a0565b6104ba60208301856103a0565b6104c76040830184610489565b949350505050565b60006020820190506104e46000830184610489565b9291505056fea264697066735822122041d8f4b5a73f47994b79467e94bfd4fa49fb2032ce2fe5e967ee2266eb87761964736f6c63430008180033","linkReferences":{}},"methodIdentifiers":{"processTokens(address,uint256,address)":"3e3bce4e"},"id":86}