{"abi":[{"type":"function","name":"allowlistedDestinationChains","inputs":[{"name":"","type":"uint64","internalType":"uint64"}],"outputs":[{"name":"","type":"bool","internalType":"bool"}],"stateMutability":"view"},{"type":"function","name":"executeInIsolation","inputs":[{"name":"target","type":"address","internalType":"address"},{"name":"data","type":"bytes","internalType":"bytes"}],"outputs":[],"stateMutability":"payable"},{"type":"function","name":"getExecutionSender","inputs":[],"outputs":[{"name":"","type":"address","internalType":"address"}],"stateMutability":"view"},{"type":"function","name":"getExecutionValue","inputs":[],"outputs":[{"name":"","type":"uint256","internalType":"uint256"}],"stateMutability":"view"},{"type":"function","name":"getTokenBalance","inputs":[{"name":"token","type":"address","internalType":"address"}],"outputs":[{"name":"","type":"uint256","internalType":"uint256"}],"stateMutability":"view"},{"type":"function","name":"owner","inputs":[],"outputs":[{"name":"","type":"address","internalType":"address"}],"stateMutability":"view"},{"type":"function","name":"transferTokensFromExecution","inputs":[{"name":"token","type":"address","internalType":"address"},{"name":"to","type":"address","internalType":"address"},{"name":"amount","type":"uint256","internalType":"uint256"}],"outputs":[],"stateMutability":"nonpayable"}],"bytecode":{"object":"0x608060405234801561001057600080fd5b50611605806100206000396000f3fe6080604052600436106100705760003560e01c8063778715b81161004e578063778715b81461010b5780638da5cb5b14610136578063ba4cd8be14610161578063f784e9b91461018a57610070565b80633aecd0e31461007557806352d61eb1146100b257806375c67c66146100ce575b600080fd5b34801561008157600080fd5b5061009c60048036038101906100979190610d6f565b6101b5565b6040516100a99190610db5565b60405180910390f35b6100cc60048036038101906100c79190610e35565b61031a565b005b3480156100da57600080fd5b506100f560048036038101906100f09190610ed5565b610511565b6040516101029190610f1d565b60405180910390f35b34801561011757600080fd5b50610120610531565b60405161012d9190610f47565b60405180910390f35b34801561014257600080fd5b5061014b610677565b6040516101589190610f47565b60405180910390f35b34801561016d57600080fd5b5061018860048036038101906101839190610f8e565b61069b565b005b34801561019657600080fd5b5061019f6108c7565b6040516101ac9190610db5565b60405180910390f35b60008060001b600354036101fe576040517f08c379a00000000000000000000000000000000000000000000000000000000081526004016101f59061103e565b60405180910390fd5b60026000600354815260200190815260200160002060050160009054906101000a900460ff16610263576040517f08c379a000000000000000000000000000000000000000000000000000000000815260040161025a906110aa565b60405180910390fd5b6002600060035481526020019081526020016000206003015442106102bd576040517f08c379a00000000000000000000000000000000000000000000000000000000081526004016102b490611116565b60405180910390fd5b60026000600354815260200190815260200160002060040160008373ffffffffffffffffffffffffffffffffffffffff1673ffffffffffffffffffffffffffffffffffffffff168152602001908152602001600020549050919050565b6000801b60035403610361576040517f08c379a00000000000000000000000000000000000000000000000000000000081526004016103589061103e565b60405180910390fd5b60026000600354815260200190815260200160002060050160009054906101000a900460ff166103c6576040517f08c379a00000000000000000000000000000000000000000000000000000000081526004016103bd906110aa565b60405180910390fd5b600260006003548152602001908152602001600020600301544210610420576040517f08c379a000000000000000000000000000000000000000000000000000000000815260040161041790611116565b60405180910390fd5b3073ffffffffffffffffffffffffffffffffffffffff163373ffffffffffffffffffffffffffffffffffffffff161461048e576040517f08c379a000000000000000000000000000000000000000000000000000000000815260040161048590611182565b60405180910390fd5b6000808473ffffffffffffffffffffffffffffffffffffffff1684846040516104b89291906111e1565b600060405180830381855af49150503d80600081146104f3576040519150601f19603f3d011682016040523d82523d6000602084013e6104f8565b606091505b50915091508161050a57805160208201fd5b5050505050565b60016020528060005260406000206000915054906101000a900460ff1681565b60008060001b6003540361057a576040517f08c379a00000000000000000000000000000000000000000000000000000000081526004016105719061103e565b60405180910390fd5b60026000600354815260200190815260200160002060050160009054906101000a900460ff166105df576040517f08c379a00000000000000000000000000000000000000000000000000000000081526004016105d6906110aa565b60405180910390fd5b600260006003548152602001908152602001600020600301544210610639576040517f08c379a000000000000000000000000000000000000000000000000000000000815260040161063090611116565b60405180910390fd5b60026000600354815260200190815260200160002060010160009054906101000a900473ffffffffffffffffffffffffffffffffffffffff16905090565b60008054906101000a900473ffffffffffffffffffffffffffffffffffffffff1681565b6000801b600354036106e2576040517f08c379a00000000000000000000000000000000000000000000000000000000081526004016106d99061103e565b60405180910390fd5b60026000600354815260200190815260200160002060050160009054906101000a900460ff16610747576040517f08c379a000000000000000000000000000000000000000000000000000000000815260040161073e906110aa565b60405180910390fd5b6002600060035481526020019081526020016000206003015442106107a1576040517f08c379a000000000000000000000000000000000000000000000000000000000815260040161079890611116565b60405180910390fd5b60006002600060035481526020019081526020016000209050818160040160008673ffffffffffffffffffffffffffffffffffffffff1673ffffffffffffffffffffffffffffffffffffffff16815260200190815260200160002054101561083e576040517f08c379a000000000000000000000000000000000000000000000000000000000815260040161083590611246565b60405180910390fd5b818160040160008673ffffffffffffffffffffffffffffffffffffffff1673ffffffffffffffffffffffffffffffffffffffff168152602001908152602001600020600082825461088f9190611295565b925050819055506108c183838673ffffffffffffffffffffffffffffffffffffffff166109ed9092919063ffffffff16565b50505050565b60008060001b60035403610910576040517f08c379a00000000000000000000000000000000000000000000000000000000081526004016109079061103e565b60405180910390fd5b60026000600354815260200190815260200160002060050160009054906101000a900460ff16610975576040517f08c379a000000000000000000000000000000000000000000000000000000000815260040161096c906110aa565b60405180910390fd5b6002600060035481526020019081526020016000206003015442106109cf576040517f08c379a00000000000000000000000000000000000000000000000000000000081526004016109c690611116565b60405180910390fd5b60026000600354815260200190815260200160002060020154905090565b610a6e8363a9059cbb60e01b8484604051602401610a0c9291906112c9565b604051602081830303815290604052907bffffffffffffffffffffffffffffffffffffffffffffffffffffffff19166020820180517bffffffffffffffffffffffffffffffffffffffffffffffffffffffff8381831617835250505050610a73565b505050565b6000610ad5826040518060400160405280602081526020017f5361666545524332303a206c6f772d6c6576656c2063616c6c206661696c65648152508573ffffffffffffffffffffffffffffffffffffffff16610b3a9092919063ffffffff16565b9050600081511115610b355780806020019051810190610af5919061131e565b610b34576040517f08c379a0000000000000000000000000000000000000000000000000000000008152600401610b2b906113bd565b60405180910390fd5b5b505050565b6060610b498484600085610b52565b90509392505050565b606082471015610b97576040517f08c379a0000000000000000000000000000000000000000000000000000000008152600401610b8e9061144f565b60405180910390fd5b6000808673ffffffffffffffffffffffffffffffffffffffff168587604051610bc091906114d5565b60006040518083038185875af1925050503d8060008114610bfd576040519150601f19603f3d011682016040523d82523d6000602084013e610c02565b606091505b5091509150610c1387838387610c1f565b92505050949350505050565b60608315610c81576000835103610c7957610c3985610c94565b610c78576040517f08c379a0000000000000000000000000000000000000000000000000000000008152600401610c6f90611538565b60405180910390fd5b5b829050610c8c565b610c8b8383610cb7565b5b949350505050565b6000808273ffffffffffffffffffffffffffffffffffffffff163b119050919050565b600082511115610cca5781518083602001fd5b806040517f08c379a0000000000000000000000000000000000000000000000000000000008152600401610cfe91906115ad565b60405180910390fd5b600080fd5b600080fd5b600073ffffffffffffffffffffffffffffffffffffffff82169050919050565b6000610d3c82610d11565b9050919050565b610d4c81610d31565b8114610d5757600080fd5b50565b600081359050610d6981610d43565b92915050565b600060208284031215610d8557610d84610d07565b5b6000610d9384828501610d5a565b91505092915050565b6000819050919050565b610daf81610d9c565b82525050565b6000602082019050610dca6000830184610da6565b92915050565b600080fd5b600080fd5b600080fd5b60008083601f840112610df557610df4610dd0565b5b8235905067ffffffffffffffff811115610e1257610e11610dd5565b5b602083019150836001820283011115610e2e57610e2d610dda565b5b9250929050565b600080600060408486031215610e4e57610e4d610d07565b5b6000610e5c86828701610d5a565b935050602084013567ffffffffffffffff811115610e7d57610e7c610d0c565b5b610e8986828701610ddf565b92509250509250925092565b600067ffffffffffffffff82169050919050565b610eb281610e95565b8114610ebd57600080fd5b50565b600081359050610ecf81610ea9565b92915050565b600060208284031215610eeb57610eea610d07565b5b6000610ef984828501610ec0565b91505092915050565b60008115159050919050565b610f1781610f02565b82525050565b6000602082019050610f326000830184610f0e565b92915050565b610f4181610d31565b82525050565b6000602082019050610f5c6000830184610f38565b92915050565b610f6b81610d9c565b8114610f7657600080fd5b50565b600081359050610f8881610f62565b92915050565b600080600060608486031215610fa757610fa6610d07565b5b6000610fb586828701610d5a565b9350506020610fc686828701610d5a565b9250506040610fd786828701610f79565b9150509250925092565b600082825260208201905092915050565b7f4e6f2061637469766520657865637574696f6e00000000000000000000000000600082015250565b6000611028601383610fe1565b915061103382610ff2565b602082019050919050565b600060208201905081810360008301526110578161101b565b9050919050565b7f457865637574696f6e206e6f7420616374697665000000000000000000000000600082015250565b6000611094601483610fe1565b915061109f8261105e565b602082019050919050565b600060208201905081810360008301526110c381611087565b9050919050565b7f457865637574696f6e2065787069726564000000000000000000000000000000600082015250565b6000611100601183610fe1565b915061110b826110ca565b602082019050919050565b6000602082019050818103600083015261112f816110f3565b9050919050565b7f496e7465726e616c206f6e6c7900000000000000000000000000000000000000600082015250565b600061116c600d83610fe1565b915061117782611136565b602082019050919050565b6000602082019050818103600083015261119b8161115f565b9050919050565b600081905092915050565b82818337600083830152505050565b60006111c883856111a2565b93506111d58385846111ad565b82840190509392505050565b60006111ee8284866111bc565b91508190509392505050565b7f496e73756666696369656e742062616c616e6365000000000000000000000000600082015250565b6000611230601483610fe1565b915061123b826111fa565b602082019050919050565b6000602082019050818103600083015261125f81611223565b9050919050565b7f4e487b7100000000000000000000000000000000000000000000000000000000600052601160045260246000fd5b60006112a082610d9c565b91506112ab83610d9c565b92508282039050818111156112c3576112c2611266565b5b92915050565b60006040820190506112de6000830185610f38565b6112eb6020830184610da6565b9392505050565b6112fb81610f02565b811461130657600080fd5b50565b600081519050611318816112f2565b92915050565b60006020828403121561133457611333610d07565b5b600061134284828501611309565b91505092915050565b7f5361666545524332303a204552433230206f7065726174696f6e20646964206e60008201527f6f74207375636365656400000000000000000000000000000000000000000000602082015250565b60006113a7602a83610fe1565b91506113b28261134b565b604082019050919050565b600060208201905081810360008301526113d68161139a565b9050919050565b7f416464726573733a20696e73756666696369656e742062616c616e636520666f60008201527f722063616c6c0000000000000000000000000000000000000000000000000000602082015250565b6000611439602683610fe1565b9150611444826113dd565b604082019050919050565b600060208201905081810360008301526114688161142c565b9050919050565b600081519050919050565b60005b8381101561149857808201518184015260208101905061147d565b60008484015250505050565b60006114af8261146f565b6114b981856111a2565b93506114c981856020860161147a565b80840191505092915050565b60006114e182846114a4565b915081905092915050565b7f416464726573733a2063616c6c20746f206e6f6e2d636f6e7472616374000000600082015250565b6000611522601d83610fe1565b915061152d826114ec565b602082019050919050565b6000602082019050818103600083015261155181611515565b9050919050565b600081519050919050565b6000601f19601f8301169050919050565b600061157f82611558565b6115898185610fe1565b935061159981856020860161147a565b6115a281611563565b840191505092915050565b600060208201905081810360008301526115c78184611574565b90509291505056fea26469706673582212206de0d8940b5e6822200d8d49ae3488b1ad2aa3832942524ac9025dfc2e6c1be664736f6c63430008180033","linkReferences":{}},"methodIdentifiers":{"allowlistedDestinationChains(uint64)":"75c67c66","executeInIsolation(address,bytes)":"52d61eb1","getExecutionSender()":"778715b8","getExecutionValue()":"f784e9b9","getTokenBalance(address)":"3aecd0e3","owner()":"8da5cb5b","transferTokensFromExecution(address,address,uint256)":"ba4cd8be"},"id":86}