{"abi":[{"type":"function","name":"echo","inputs":[{"name":"msg_","type":"string","internalType":"string"}],"outputs":[],"stateMutability":"payable"},{"type":"event","name":"Echo","inputs":[{"name":"msg","type":"string","indexed":false,"internalType":"string"},{"name":"amount","type":"uint256","indexed":false,"internalType":"uint256"}],"anonymous":false}],"bytecode":{"object":"0x608060405234801561001057600080fd5b50610219806100206000396000f3fe60806040526004361061001e5760003560e01c8063f15da72914610023575b600080fd5b61003d600480360381019061003891906100ed565b61003f565b005b7fcaf432cb38a3a6f6c9bdd5b57f1a5388e0f452215b40290524727e0a7a523da1828234604051610072939291906101b1565b60405180910390a15050565b600080fd5b600080fd5b600080fd5b600080fd5b600080fd5b60008083601f8401126100ad576100ac610088565b5b8235905067ffffffffffffffff8111156100ca576100c961008d565b5b6020830191508360018202830111156100e6576100e5610092565b5b9250929050565b600080602083850312156101045761010361007e565b5b600083013567ffffffffffffffff81111561012257610121610083565b5b61012e85828601610097565b92509250509250929050565b600082825260208201905092915050565b82818337600083830152505050565b6000601f19601f8301169050919050565b6000610177838561013a565b935061018483858461014b565b61018d8361015a565b840190509392505050565b6000819050919050565b6101ab81610198565b82525050565b600060408201905081810360008301526101cc81858761016b565b90506101db60208301846101a2565b94935050505056fea26469706673582212202078dd32822a2e32d50709e1cb3aca1b28a06757372fd9811ed2365be8fd1de464736f6c63430008180033","linkReferences":{}},"methodIdentifiers":{"echo(string)":"f15da729"},"id":33}