{"abi":[{"type":"receive","stateMutability":"payable"},{"type":"function","name":"addTrackedToken","inputs":[{"name":"token","type":"address","internalType":"address"}],"outputs":[],"stateMutability":"nonpayable"},{"type":"function","name":"deadline","inputs":[],"outputs":[{"name":"","type":"uint256","internalType":"uint256"}],"stateMutability":"view"},{"type":"function","name":"executeAndCleanup","inputs":[{"name":"data","type":"bytes","internalType":"bytes"}],"outputs":[],"stateMutability":"payable"},{"type":"function","name":"initialize","inputs":[{"name":"_target","type":"address","internalType":"address"},{"name":"_deadline","type":"uint256","internalType":"uint256"}],"outputs":[],"stateMutability":"nonpayable"},{"type":"function","name":"isInitialized","inputs":[],"outputs":[{"name":"","type":"bool","internalType":"bool"}],"stateMutability":"view"},{"type":"function","name":"recoverTokens","inputs":[{"name":"","type":"address","internalType":"address"}],"outputs":[],"stateMutability":"nonpayable"},{"type":"function","name":"target","inputs":[],"outputs":[{"name":"","type":"address","internalType":"address"}],"stateMutability":"view"},{"type":"function","name":"trackedTokens","inputs":[{"name":"","type":"uint256","internalType":"uint256"}],"outputs":[{"name":"","type":"address","internalType":"address"}],"stateMutability":"view"},{"type":"function","name":"yieldMax","inputs":[],"outputs":[{"name":"","type":"address","internalType":"address"}],"stateMutability":"view"},{"type":"error","name":"AlreadyInitialized","inputs":[]},{"type":"error","name":"DeadlineExceeded","inputs":[]},{"type":"error","name":"ExecutionFailed","inputs":[]},{"type":"error","name":"NotInitialized","inputs":[]},{"type":"error","name":"Unauthorized","inputs":[]}],"bytecode":{"object":"0x608060405234801561001057600080fd5b506115b0806100206000396000f3fe60806040526004361061008a5760003560e01c80638305368a116100595780638305368a1461013157806389d804611461016e57806389dcfbb114610199578063cd6dc687146101c2578063d4b83992146101eb57610091565b806304d9c7961461009657806316114acd146100b257806329dcb0cf146100db578063392e53cd1461010657610091565b3661009157005b600080fd5b6100b060048036038101906100ab9190610e82565b610216565b005b3480156100be57600080fd5b506100d960048036038101906100d49190610f2d565b610566565b005b3480156100e757600080fd5b506100f0610657565b6040516100fd9190610f73565b60405180910390f35b34801561011257600080fd5b5061011b61065d565b6040516101289190610fa9565b60405180910390f35b34801561013d57600080fd5b5061015860048036038101906101539190610ff0565b610674565b604051610165919061102c565b60405180910390f35b34801561017a57600080fd5b506101836106b3565b604051610190919061102c565b60405180910390f35b3480156101a557600080fd5b506101c060048036038101906101bb9190610f2d565b6106d7565b005b3480156101ce57600080fd5b506101e960048036038101906101e49190611047565b6107cb565b005b3480156101f757600080fd5b506102006108b9565b60405161020d919061102c565b60405180910390f35b60008054906101000a900473ffffffffffffffffffffffffffffffffffffffff1673ffffffffffffffffffffffffffffffffffffffff163373ffffffffffffffffffffffffffffffffffffffff161461029b576040517f82b4290000000000000000000000000000000000000000000000000000000000815260040160405180910390fd5b600360009054906101000a900460ff166102e1576040517f87138d5c00000000000000000000000000000000000000000000000000000000815260040160405180910390fd5b600254421061031c576040517f559895a300000000000000000000000000000000000000000000000000000000815260040160405180910390fd5b60008060009054906101000a900473ffffffffffffffffffffffffffffffffffffffff1673ffffffffffffffffffffffffffffffffffffffff16635310fb51600160009054906101000a900473ffffffffffffffffffffffffffffffffffffffff166040518263ffffffff1660e01b815260040161039a919061102c565b602060405180830381865afa1580156103b7573d6000803e3d6000fd5b505050506040513d601f19601f820116820180604052508101906103db91906110b3565b1561047457600160009054906101000a900473ffffffffffffffffffffffffffffffffffffffff1673ffffffffffffffffffffffffffffffffffffffff16838360405161042992919061111f565b600060405180830381855af49150503d8060008114610464576040519150601f19603f3d011682016040523d82523d6000602084013e610469565b606091505b505080915050610507565b600160009054906101000a900473ffffffffffffffffffffffffffffffffffffffff1673ffffffffffffffffffffffffffffffffffffffff163484846040516104be92919061111f565b60006040518083038185875af1925050503d80600081146104fb576040519150601f19603f3d011682016040523d82523d6000602084013e610500565b606091505b5050809150505b8061053e576040517facfdb44400000000000000000000000000000000000000000000000000000000815260040160405180910390fd5b6105466108df565b6000600360006101000a81548160ff021916908315150217905550505050565b60008054906101000a900473ffffffffffffffffffffffffffffffffffffffff1673ffffffffffffffffffffffffffffffffffffffff163373ffffffffffffffffffffffffffffffffffffffff16146105eb576040517f82b4290000000000000000000000000000000000000000000000000000000000815260040160405180910390fd5b600360009054906101000a900460ff16610631576040517f87138d5c00000000000000000000000000000000000000000000000000000000815260040160405180910390fd5b6106396108df565b6000600360006101000a81548160ff02191690831515021790555050565b60025481565b6000600360009054906101000a900460ff16905090565b6004818154811061068457600080fd5b906000526020600020016000915054906101000a900473ffffffffffffffffffffffffffffffffffffffff1681565b60008054906101000a900473ffffffffffffffffffffffffffffffffffffffff1681565b60008054906101000a900473ffffffffffffffffffffffffffffffffffffffff1673ffffffffffffffffffffffffffffffffffffffff163373ffffffffffffffffffffffffffffffffffffffff1614610765576040517f08c379a000000000000000000000000000000000000000000000000000000000815260040161075c90611195565b60405180910390fd5b6004819080600181540180825580915050600190039060005260206000200160009091909190916101000a81548173ffffffffffffffffffffffffffffffffffffffff021916908373ffffffffffffffffffffffffffffffffffffffff16021790555050565b600360009054906101000a900460ff1615610812576040517f0dc149f000000000000000000000000000000000000000000000000000000000815260040160405180910390fd5b336000806101000a81548173ffffffffffffffffffffffffffffffffffffffff021916908373ffffffffffffffffffffffffffffffffffffffff16021790555081600160006101000a81548173ffffffffffffffffffffffffffffffffffffffff021916908373ffffffffffffffffffffffffffffffffffffffff160217905550806002819055506001600360006101000a81548160ff0219169083151502179055505050565b600160009054906101000a900473ffffffffffffffffffffffffffffffffffffffff1681565b60005b600480549050811015610a1457600060048281548110610905576109046111b5565b5b9060005260206000200160009054906101000a900473ffffffffffffffffffffffffffffffffffffffff16905060008173ffffffffffffffffffffffffffffffffffffffff166370a08231306040518263ffffffff1660e01b815260040161096d919061102c565b602060405180830381865afa15801561098a573d6000803e3d6000fd5b505050506040513d601f19601f820116820180604052508101906109ae91906111f9565b90506000811115610a0557610a0460008054906101000a900473ffffffffffffffffffffffffffffffffffffffff16828473ffffffffffffffffffffffffffffffffffffffff16610a1f9092919063ffffffff16565b5b505080806001019150506108e2565b50610a1d610aa5565b565b610aa08363a9059cbb60e01b8484604051602401610a3e929190611226565b604051602081830303815290604052907bffffffffffffffffffffffffffffffffffffffffffffffffffffffff19166020820180517bffffffffffffffffffffffffffffffffffffffffffffffffffffffff8381831617835250505050610b7f565b505050565b6000471115610b7d5760008060009054906101000a900473ffffffffffffffffffffffffffffffffffffffff1673ffffffffffffffffffffffffffffffffffffffff1647604051610af590611275565b60006040518083038185875af1925050503d8060008114610b32576040519150601f19603f3d011682016040523d82523d6000602084013e610b37565b606091505b5050905080610b7b576040517f08c379a0000000000000000000000000000000000000000000000000000000008152600401610b72906112d6565b60405180910390fd5b505b565b6000610be1826040518060400160405280602081526020017f5361666545524332303a206c6f772d6c6576656c2063616c6c206661696c65648152508573ffffffffffffffffffffffffffffffffffffffff16610c469092919063ffffffff16565b9050600081511115610c415780806020019051810190610c0191906110b3565b610c40576040517f08c379a0000000000000000000000000000000000000000000000000000000008152600401610c3790611368565b60405180910390fd5b5b505050565b6060610c558484600085610c5e565b90509392505050565b606082471015610ca3576040517f08c379a0000000000000000000000000000000000000000000000000000000008152600401610c9a906113fa565b60405180910390fd5b6000808673ffffffffffffffffffffffffffffffffffffffff168587604051610ccc9190611480565b60006040518083038185875af1925050503d8060008114610d09576040519150601f19603f3d011682016040523d82523d6000602084013e610d0e565b606091505b5091509150610d1f87838387610d2b565b92505050949350505050565b60608315610d8d576000835103610d8557610d4585610da0565b610d84576040517f08c379a0000000000000000000000000000000000000000000000000000000008152600401610d7b906114e3565b60405180910390fd5b5b829050610d98565b610d978383610dc3565b5b949350505050565b6000808273ffffffffffffffffffffffffffffffffffffffff163b119050919050565b600082511115610dd65781518083602001fd5b806040517f08c379a0000000000000000000000000000000000000000000000000000000008152600401610e0a9190611558565b60405180910390fd5b600080fd5b600080fd5b600080fd5b600080fd5b600080fd5b60008083601f840112610e4257610e41610e1d565b5b8235905067ffffffffffffffff811115610e5f57610e5e610e22565b5b602083019150836001820283011115610e7b57610e7a610e27565b5b9250929050565b60008060208385031215610e9957610e98610e13565b5b600083013567ffffffffffffffff811115610eb757610eb6610e18565b5b610ec385828601610e2c565b92509250509250929050565b600073ffffffffffffffffffffffffffffffffffffffff82169050919050565b6000610efa82610ecf565b9050919050565b610f0a81610eef565b8114610f1557600080fd5b50565b600081359050610f2781610f01565b92915050565b600060208284031215610f4357610f42610e13565b5b6000610f5184828501610f18565b91505092915050565b6000819050919050565b610f6d81610f5a565b82525050565b6000602082019050610f886000830184610f64565b92915050565b60008115159050919050565b610fa381610f8e565b82525050565b6000602082019050610fbe6000830184610f9a565b92915050565b610fcd81610f5a565b8114610fd857600080fd5b50565b600081359050610fea81610fc4565b92915050565b60006020828403121561100657611005610e13565b5b600061101484828501610fdb565b91505092915050565b61102681610eef565b82525050565b6000602082019050611041600083018461101d565b92915050565b6000806040838503121561105e5761105d610e13565b5b600061106c85828601610f18565b925050602061107d85828601610fdb565b9150509250929050565b61109081610f8e565b811461109b57600080fd5b50565b6000815190506110ad81611087565b92915050565b6000602082840312156110c9576110c8610e13565b5b60006110d78482850161109e565b91505092915050565b600081905092915050565b82818337600083830152505050565b600061110683856110e0565b93506111138385846110eb565b82840190509392505050565b600061112c8284866110fa565b91508190509392505050565b600082825260208201905092915050565b7f4f6e6c79205969656c644d61782063616e2061646420746f6b656e7300000000600082015250565b600061117f601c83611138565b915061118a82611149565b602082019050919050565b600060208201905081810360008301526111ae81611172565b9050919050565b7f4e487b7100000000000000000000000000000000000000000000000000000000600052603260045260246000fd5b6000815190506111f381610fc4565b92915050565b60006020828403121561120f5761120e610e13565b5b600061121d848285016111e4565b91505092915050565b600060408201905061123b600083018561101d565b6112486020830184610f64565b9392505050565b50565b600061125f6000836110e0565b915061126a8261124f565b600082019050919050565b600061128082611252565b9150819050919050565b7f455448207472616e73666572206661696c656400000000000000000000000000600082015250565b60006112c0601383611138565b91506112cb8261128a565b602082019050919050565b600060208201905081810360008301526112ef816112b3565b9050919050565b7f5361666545524332303a204552433230206f7065726174696f6e20646964206e60008201527f6f74207375636365656400000000000000000000000000000000000000000000602082015250565b6000611352602a83611138565b915061135d826112f6565b604082019050919050565b6000602082019050818103600083015261138181611345565b9050919050565b7f416464726573733a20696e73756666696369656e742062616c616e636520666f60008201527f722063616c6c0000000000000000000000000000000000000000000000000000602082015250565b60006113e4602683611138565b91506113ef82611388565b604082019050919050565b60006020820190508181036000830152611413816113d7565b9050919050565b600081519050919050565b60005b83811015611443578082015181840152602081019050611428565b60008484015250505050565b600061145a8261141a565b61146481856110e0565b9350611474818560208601611425565b80840191505092915050565b600061148c828461144f565b915081905092915050565b7f416464726573733a2063616c6c20746f206e6f6e2d636f6e7472616374000000600082015250565b60006114cd601d83611138565b91506114d882611497565b602082019050919050565b600060208201905081810360008301526114fc816114c0565b9050919050565b600081519050919050565b6000601f19601f8301169050919050565b600061152a82611503565b6115348185611138565b9350611544818560208601611425565b61154d8161150e565b840191505092915050565b60006020820190508181036000830152611572818461151f565b90509291505056fea26469706673582212201438b489f99268cb9905752a826b74573f2285377e70779c9a7bb736e746dac364736f6c63430008180033","linkReferences":{}},"methodIdentifiers":{"addTrackedToken(address)":"89dcfbb1","deadline()":"29dcb0cf","executeAndCleanup(bytes)":"04d9c796","initialize(address,uint256)":"cd6dc687","isInitialized()":"392e53cd","recoverTokens(address)":"16114acd","target()":"d4b83992","trackedTokens(uint256)":"8305368a","yieldMax()":"89d80461"},"id":33}