{"abi":[{"type":"function","name":"echoAndUseTokens","inputs":[{"name":"msg_","type":"string","internalType":"string"},{"name":"token","type":"address","internalType":"address"},{"name":"amount","type":"uint256","internalType":"uint256"},{"name":"from","type":"address","internalType":"address"},{"name":"to","type":"address","internalType":"address"}],"outputs":[],"stateMutability":"payable"},{"type":"function","name":"transferTokens","inputs":[{"name":"token","type":"address","internalType":"address"},{"name":"amount","type":"uint256","internalType":"uint256"},{"name":"to","type":"address","internalType":"address"}],"outputs":[],"stateMutability":"nonpayable"},{"type":"function","name":"useAndTransferTokens","inputs":[{"name":"token","type":"address","internalType":"address"},{"name":"amount","type":"uint256","internalType":"uint256"},{"name":"from","type":"address","internalType":"address"},{"name":"to","type":"address","internalType":"address"}],"outputs":[],"stateMutability":"nonpayable"},{"type":"function","name":"useApprovedTokens","inputs":[{"name":"token","type":"address","internalType":"address"},{"name":"amount","type":"uint256","internalType":"uint256"},{"name":"from","type":"address","internalType":"address"}],"outputs":[],"stateMutability":"nonpayable"},{"type":"event","name":"Echo","inputs":[{"name":"msg","type":"string","indexed":false,"internalType":"string"},{"name":"amount","type":"uint256","indexed":false,"internalType":"uint256"}],"anonymous":false},{"type":"event","name":"TokensTransferred","inputs":[{"name":"token","type":"address","indexed":true,"internalType":"address"},{"name":"amount","type":"uint256","indexed":false,"internalType":"uint256"},{"name":"to","type":"address","indexed":true,"internalType":"address"}],"anonymous":false},{"type":"event","name":"TokensUsed","inputs":[{"name":"token","type":"address","indexed":true,"internalType":"address"},{"name":"amount","type":"uint256","indexed":false,"internalType":"uint256"},{"name":"from","type":"address","indexed":true,"internalType":"address"}],"anonymous":false}],"bytecode":{"object":"0x608060405234801561001057600080fd5b50610f48806100206000396000f3fe60806040526004361061003f5760003560e01c80634af350eb146100445780638e4c1d5a1461006d578063e755a4d714610096578063ef413107146100bf575b600080fd5b34801561005057600080fd5b5061006b6004803603810190610066919061094d565b6100db565b005b34801561007957600080fd5b50610094600480360381019061008f919061094d565b610170565b005b3480156100a257600080fd5b506100bd60048036038101906100b891906109a0565b610207565b005b6100d960048036038101906100d49190610a6c565b61032f565b005b61010681838573ffffffffffffffffffffffffffffffffffffffff1661050c9092919063ffffffff16565b8073ffffffffffffffffffffffffffffffffffffffff168373ffffffffffffffffffffffffffffffffffffffff167f2dc85ecd41a2e25618af6e007abb3ce1ee081d7934fdb986d94c9cb2e0763bef846040516101639190610b15565b60405180910390a3505050565b61019d8130848673ffffffffffffffffffffffffffffffffffffffff16610592909392919063ffffffff16565b8073ffffffffffffffffffffffffffffffffffffffff168373ffffffffffffffffffffffffffffffffffffffff167fcc8b24fc71bf2009f864cafae7d009a67fcab73710924efec75df37c2d7b0e41846040516101fa9190610b15565b60405180910390a3505050565b6102348230858773ffffffffffffffffffffffffffffffffffffffff16610592909392919063ffffffff16565b8173ffffffffffffffffffffffffffffffffffffffff168473ffffffffffffffffffffffffffffffffffffffff167fcc8b24fc71bf2009f864cafae7d009a67fcab73710924efec75df37c2d7b0e41856040516102919190610b15565b60405180910390a36102c481848673ffffffffffffffffffffffffffffffffffffffff1661050c9092919063ffffffff16565b8073ffffffffffffffffffffffffffffffffffffffff168473ffffffffffffffffffffffffffffffffffffffff167f2dc85ecd41a2e25618af6e007abb3ce1ee081d7934fdb986d94c9cb2e0763bef856040516103219190610b15565b60405180910390a350505050565b60008311801561036c5750600073ffffffffffffffffffffffffffffffffffffffff168473ffffffffffffffffffffffffffffffffffffffff1614155b156104c95761039e8230858773ffffffffffffffffffffffffffffffffffffffff16610592909392919063ffffffff16565b8173ffffffffffffffffffffffffffffffffffffffff168473ffffffffffffffffffffffffffffffffffffffff167fcc8b24fc71bf2009f864cafae7d009a67fcab73710924efec75df37c2d7b0e41856040516103fb9190610b15565b60405180910390a3600073ffffffffffffffffffffffffffffffffffffffff168173ffffffffffffffffffffffffffffffffffffffff16146104c85761046281848673ffffffffffffffffffffffffffffffffffffffff1661050c9092919063ffffffff16565b8073ffffffffffffffffffffffffffffffffffffffff168473ffffffffffffffffffffffffffffffffffffffff167f2dc85ecd41a2e25618af6e007abb3ce1ee081d7934fdb986d94c9cb2e0763bef856040516104bf9190610b15565b60405180910390a35b5b7fcaf432cb38a3a6f6c9bdd5b57f1a5388e0f452215b40290524727e0a7a523da18686346040516104fc93929190610b8e565b60405180910390a1505050505050565b61058d8363a9059cbb60e01b848460405160240161052b929190610bcf565b604051602081830303815290604052907bffffffffffffffffffffffffffffffffffffffffffffffffffffffff19166020820180517bffffffffffffffffffffffffffffffffffffffffffffffffffffffff838183161783525050505061061b565b505050565b610615846323b872dd60e01b8585856040516024016105b393929190610bf8565b604051602081830303815290604052907bffffffffffffffffffffffffffffffffffffffffffffffffffffffff19166020820180517bffffffffffffffffffffffffffffffffffffffffffffffffffffffff838183161783525050505061061b565b50505050565b600061067d826040518060400160405280602081526020017f5361666545524332303a206c6f772d6c6576656c2063616c6c206661696c65648152508573ffffffffffffffffffffffffffffffffffffffff166106e29092919063ffffffff16565b90506000815111156106dd578080602001905181019061069d9190610c67565b6106dc576040517f08c379a00000000000000000000000000000000000000000000000000000000081526004016106d390610d06565b60405180910390fd5b5b505050565b60606106f184846000856106fa565b90509392505050565b60608247101561073f576040517f08c379a000000000000000000000000000000000000000000000000000000000815260040161073690610d98565b60405180910390fd5b6000808673ffffffffffffffffffffffffffffffffffffffff1685876040516107689190610e29565b60006040518083038185875af1925050503d80600081146107a5576040519150601f19603f3d011682016040523d82523d6000602084013e6107aa565b606091505b50915091506107bb878383876107c7565b92505050949350505050565b60608315610829576000835103610821576107e18561083c565b610820576040517f08c379a000000000000000000000000000000000000000000000000000000000815260040161081790610e8c565b60405180910390fd5b5b829050610834565b610833838361085f565b5b949350505050565b6000808273ffffffffffffffffffffffffffffffffffffffff163b119050919050565b6000825111156108725781518083602001fd5b806040517f08c379a00000000000000000000000000000000000000000000000000000000081526004016108a69190610ef0565b60405180910390fd5b600080fd5b600080fd5b600073ffffffffffffffffffffffffffffffffffffffff82169050919050565b60006108e4826108b9565b9050919050565b6108f4816108d9565b81146108ff57600080fd5b50565b600081359050610911816108eb565b92915050565b6000819050919050565b61092a81610917565b811461093557600080fd5b50565b60008135905061094781610921565b92915050565b600080600060608486031215610966576109656108af565b5b600061097486828701610902565b935050602061098586828701610938565b925050604061099686828701610902565b9150509250925092565b600080600080608085870312156109ba576109b96108af565b5b60006109c887828801610902565b94505060206109d987828801610938565b93505060406109ea87828801610902565b92505060606109fb87828801610902565b91505092959194509250565b600080fd5b600080fd5b600080fd5b60008083601f840112610a2c57610a2b610a07565b5b8235905067ffffffffffffffff811115610a4957610a48610a0c565b5b602083019150836001820283011115610a6557610a64610a11565b5b9250929050565b60008060008060008060a08789031215610a8957610a886108af565b5b600087013567ffffffffffffffff811115610aa757610aa66108b4565b5b610ab389828a01610a16565b96509650506020610ac689828a01610902565b9450506040610ad789828a01610938565b9350506060610ae889828a01610902565b9250506080610af989828a01610902565b9150509295509295509295565b610b0f81610917565b82525050565b6000602082019050610b2a6000830184610b06565b92915050565b600082825260208201905092915050565b82818337600083830152505050565b6000601f19601f8301169050919050565b6000610b6d8385610b30565b9350610b7a838584610b41565b610b8383610b50565b840190509392505050565b60006040820190508181036000830152610ba9818587610b61565b9050610bb86020830184610b06565b949350505050565b610bc9816108d9565b82525050565b6000604082019050610be46000830185610bc0565b610bf16020830184610b06565b9392505050565b6000606082019050610c0d6000830186610bc0565b610c1a6020830185610bc0565b610c276040830184610b06565b949350505050565b60008115159050919050565b610c4481610c2f565b8114610c4f57600080fd5b50565b600081519050610c6181610c3b565b92915050565b600060208284031215610c7d57610c7c6108af565b5b6000610c8b84828501610c52565b91505092915050565b7f5361666545524332303a204552433230206f7065726174696f6e20646964206e60008201527f6f74207375636365656400000000000000000000000000000000000000000000602082015250565b6000610cf0602a83610b30565b9150610cfb82610c94565b604082019050919050565b60006020820190508181036000830152610d1f81610ce3565b9050919050565b7f416464726573733a20696e73756666696369656e742062616c616e636520666f60008201527f722063616c6c0000000000000000000000000000000000000000000000000000602082015250565b6000610d82602683610b30565b9150610d8d82610d26565b604082019050919050565b60006020820190508181036000830152610db181610d75565b9050919050565b600081519050919050565b600081905092915050565b60005b83811015610dec578082015181840152602081019050610dd1565b60008484015250505050565b6000610e0382610db8565b610e0d8185610dc3565b9350610e1d818560208601610dce565b80840191505092915050565b6000610e358284610df8565b915081905092915050565b7f416464726573733a2063616c6c20746f206e6f6e2d636f6e7472616374000000600082015250565b6000610e76601d83610b30565b9150610e8182610e40565b602082019050919050565b60006020820190508181036000830152610ea581610e69565b9050919050565b600081519050919050565b6000610ec282610eac565b610ecc8185610b30565b9350610edc818560208601610dce565b610ee581610b50565b840191505092915050565b60006020820190508181036000830152610f0a8184610eb7565b90509291505056fea2646970667358221220b359a18ac1bb9f0b42a7d5dcf6ace86cd4225cfcae45b8b32f37919f0291ea2a64736f6c63430008180033","linkReferences":{}},"methodIdentifiers":{"echoAndUseTokens(string,address,uint256,address,address)":"ef413107","transferTokens(address,uint256,address)":"4af350eb","useAndTransferTokens(address,uint256,address,address)":"e755a4d7","useApprovedTokens(address,uint256,address)":"8e4c1d5a"},"id":33}