{"abi":[{"type":"constructor","inputs":[{"name":"router","type":"address","internalType":"address"}],"stateMutability":"nonpayable"},{"type":"receive","stateMutability":"payable"},{"type":"function","name":"MAX_GAS_LIMIT","inputs":[],"outputs":[{"name":"","type":"uint256","internalType":"uint256"}],"stateMutability":"view"},{"type":"function","name":"MIN_GAS_LIMIT","inputs":[],"outputs":[{"name":"","type":"uint256","internalType":"uint256"}],"stateMutability":"view"},{"type":"function","name":"allowlistDestinationChain","inputs":[{"name":"_destinationChainSelector","type":"uint64","internalType":"uint64"},{"name":"allowed","type":"bool","internalType":"bool"}],"outputs":[],"stateMutability":"nonpayable"},{"type":"function","name":"allowlistSourceChain","inputs":[{"name":"_sourceChainSelector","type":"uint64","internalType":"uint64"},{"name":"allowed","type":"bool","internalType":"bool"}],"outputs":[],"stateMutability":"nonpayable"},{"type":"function","name":"allowlistedDestinationChains","inputs":[{"name":"","type":"uint64","internalType":"uint64"}],"outputs":[{"name":"","type":"bool","internalType":"bool"}],"stateMutability":"view"},{"type":"function","name":"allowlistedSourceChains","inputs":[{"name":"","type":"uint64","internalType":"uint64"}],"outputs":[{"name":"","type":"bool","internalType":"bool"}],"stateMutability":"view"},{"type":"function","name":"ccipReceive","inputs":[{"name":"any2EvmMessage","type":"tuple","internalType":"struct Client.Any2EVMMessage","components":[{"name":"messageId","type":"bytes32","internalType":"bytes32"},{"name":"sourceChainSelector","type":"uint64","internalType":"uint64"},{"name":"sender","type":"bytes","internalType":"bytes"},{"name":"data","type":"bytes","internalType":"bytes"},{"name":"destTokenAmounts","type":"tuple[]","internalType":"struct Client.EVMTokenAmount[]","components":[{"name":"token","type":"address","internalType":"address"},{"name":"amount","type":"uint256","internalType":"uint256"}]}]}],"outputs":[],"stateMutability":"nonpayable"},{"type":"function","name":"emergencyWithdraw","inputs":[{"name":"beneficiary","type":"address","internalType":"address"}],"outputs":[],"stateMutability":"nonpayable"},{"type":"function","name":"emergencyWithdrawToken","inputs":[{"name":"beneficiary","type":"address","internalType":"address"},{"name":"token","type":"address","internalType":"address"}],"outputs":[],"stateMutability":"nonpayable"},{"type":"function","name":"estimateFee","inputs":[{"name":"destinationChainSelector","type":"uint64","internalType":"uint64"},{"name":"receiver","type":"address","internalType":"address"},{"name":"targetContract","type":"address","internalType":"address"},{"name":"value","type":"uint256","internalType":"uint256"},{"name":"tokenAddresses","type":"address[]","internalType":"address[]"},{"name":"tokenAmounts","type":"uint256[]","internalType":"uint256[]"},{"name":"callData","type":"bytes","internalType":"bytes"},{"name":"gasLimit","type":"uint256","internalType":"uint256"}],"outputs":[{"name":"","type":"uint256","internalType":"uint256"}],"stateMutability":"view"},{"type":"function","name":"getFailedMessages","inputs":[{"name":"offset","type":"uint256","internalType":"uint256"},{"name":"limit","type":"uint256","internalType":"uint256"}],"outputs":[{"name":"","type":"tuple[]","internalType":"struct YieldMaxCCIP.FailedMessage[]","components":[{"name":"messageId","type":"bytes32","internalType":"bytes32"},{"name":"errorCode","type":"uint8","internalType":"enum YieldMaxCCIP.ErrorCode"}]}],"stateMutability":"view"},{"type":"function","name":"getRouter","inputs":[],"outputs":[{"name":"","type":"address","internalType":"address"}],"stateMutability":"view"},{"type":"function","name":"isMulticallContract","inputs":[{"name":"","type":"address","internalType":"address"}],"outputs":[{"name":"","type":"bool","internalType":"bool"}],"stateMutability":"view"},{"type":"function","name":"owner","inputs":[],"outputs":[{"name":"","type":"address","internalType":"address"}],"stateMutability":"view"},{"type":"function","name":"pendingEscrowERC20","inputs":[{"name":"","type":"address","internalType":"address"},{"name":"","type":"address","internalType":"address"}],"outputs":[{"name":"","type":"uint256","internalType":"uint256"}],"stateMutability":"view"},{"type":"function","name":"pendingEscrowNative","inputs":[{"name":"","type":"address","internalType":"address"}],"outputs":[{"name":"","type":"uint256","internalType":"uint256"}],"stateMutability":"view"},{"type":"function","name":"predictExecutorAddress","inputs":[{"name":"sender","type":"address","internalType":"address"}],"outputs":[{"name":"","type":"address","internalType":"address"}],"stateMutability":"view"},{"type":"function","name":"processMessage","inputs":[{"name":"any2EvmMessage","type":"tuple","internalType":"struct Client.Any2EVMMessage","components":[{"name":"messageId","type":"bytes32","internalType":"bytes32"},{"name":"sourceChainSelector","type":"uint64","internalType":"uint64"},{"name":"sender","type":"bytes","internalType":"bytes"},{"name":"data","type":"bytes","internalType":"bytes"},{"name":"destTokenAmounts","type":"tuple[]","internalType":"struct Client.EVMTokenAmount[]","components":[{"name":"token","type":"address","internalType":"address"},{"name":"amount","type":"uint256","internalType":"uint256"}]}]}],"outputs":[],"stateMutability":"nonpayable"},{"type":"function","name":"rescueERC20Escrow","inputs":[{"name":"token","type":"address","internalType":"address"}],"outputs":[],"stateMutability":"nonpayable"},{"type":"function","name":"rescueEscrow","inputs":[],"outputs":[],"stateMutability":"nonpayable"},{"type":"function","name":"retryFailedMessage","inputs":[{"name":"messageId","type":"bytes32","internalType":"bytes32"},{"name":"tokenReceiver","type":"address","internalType":"address"}],"outputs":[],"stateMutability":"nonpayable"},{"type":"function","name":"s_messageContents","inputs":[{"name":"messageId","type":"bytes32","internalType":"bytes32"}],"outputs":[{"name":"messageId","type":"bytes32","internalType":"bytes32"},{"name":"sourceChainSelector","type":"uint64","internalType":"uint64"},{"name":"sender","type":"bytes","internalType":"bytes"},{"name":"data","type":"bytes","internalType":"bytes"}],"stateMutability":"view"},{"type":"function","name":"sendCrossChainExecution","inputs":[{"name":"destinationChainSelector","type":"uint64","internalType":"uint64"},{"name":"receiver","type":"address","internalType":"address"},{"name":"targetContract","type":"address","internalType":"address"},{"name":"value","type":"uint256","internalType":"uint256"},{"name":"tokenAddresses","type":"address[]","internalType":"address[]"},{"name":"tokenAmounts","type":"uint256[]","internalType":"uint256[]"},{"name":"callData","type":"bytes","internalType":"bytes"},{"name":"gasLimit","type":"uint256","internalType":"uint256"}],"outputs":[],"stateMutability":"payable"},{"type":"function","name":"setMulticallContract","inputs":[{"name":"contractAddress","type":"address","internalType":"address"},{"name":"_isMulticall","type":"bool","internalType":"bool"}],"outputs":[],"stateMutability":"nonpayable"},{"type":"function","name":"supportsInterface","inputs":[{"name":"interfaceId","type":"bytes4","internalType":"bytes4"}],"outputs":[{"name":"","type":"bool","internalType":"bool"}],"stateMutability":"view"},{"type":"function","name":"transferOwnership","inputs":[{"name":"newOwner","type":"address","internalType":"address"}],"outputs":[],"stateMutability":"nonpayable"},{"type":"function","name":"usedPayloads","inputs":[{"name":"","type":"bytes32","internalType":"bytes32"}],"outputs":[{"name":"","type":"bool","internalType":"bool"}],"stateMutability":"view"},{"type":"event","name":"CrossTxExecuted","inputs":[{"name":"sender","type":"address","indexed":true,"internalType":"address"},{"name":"target","type":"address","indexed":true,"internalType":"address"},{"name":"value","type":"uint256","indexed":false,"internalType":"uint256"},{"name":"data","type":"bytes","indexed":false,"internalType":"bytes"}],"anonymous":false},{"type":"event","name":"ERC20EscrowRescued","inputs":[{"name":"user","type":"address","indexed":true,"internalType":"address"},{"name":"token","type":"address","indexed":false,"internalType":"address"},{"name":"amount","type":"uint256","indexed":false,"internalType":"uint256"}],"anonymous":false},{"type":"event","name":"ERC20Received","inputs":[{"name":"token","type":"address","indexed":true,"internalType":"address"},{"name":"sender","type":"address","indexed":true,"internalType":"address"},{"name":"amount","type":"uint256","indexed":false,"internalType":"uint256"}],"anonymous":false},{"type":"event","name":"EscrowRescued","inputs":[{"name":"user","type":"address","indexed":true,"internalType":"address"},{"name":"amount","type":"uint256","indexed":false,"internalType":"uint256"}],"anonymous":false},{"type":"event","name":"ExecutorCreated","inputs":[{"name":"executor","type":"address","indexed":true,"internalType":"address"},{"name":"target","type":"address","indexed":true,"internalType":"address"},{"name":"deadline","type":"uint256","indexed":false,"internalType":"uint256"}],"anonymous":false},{"type":"event","name":"ExecutorExecuted","inputs":[{"name":"executor","type":"address","indexed":true,"internalType":"address"},{"name":"success","type":"bool","indexed":false,"internalType":"bool"}],"anonymous":false},{"type":"event","name":"ExecutorReused","inputs":[{"name":"executor","type":"address","indexed":true,"internalType":"address"},{"name":"target","type":"address","indexed":true,"internalType":"address"},{"name":"deadline","type":"uint256","indexed":false,"internalType":"uint256"}],"anonymous":false},{"type":"event","name":"MessageFailed","inputs":[{"name":"messageId","type":"bytes32","indexed":true,"internalType":"bytes32"},{"name":"reason","type":"bytes","indexed":false,"internalType":"bytes"}],"anonymous":false},{"type":"event","name":"MessageRecovered","inputs":[{"name":"messageId","type":"bytes32","indexed":true,"internalType":"bytes32"}],"anonymous":false},{"type":"event","name":"OwnershipTransferred","inputs":[{"name":"previousOwner","type":"address","indexed":true,"internalType":"address"},{"name":"newOwner","type":"address","indexed":true,"internalType":"address"}],"anonymous":false},{"type":"error","name":"DestinationChainNotAllowlisted","inputs":[{"name":"destinationChainSelector","type":"uint64","internalType":"uint64"}]},{"type":"error","name":"GasLimitTooHigh","inputs":[{"name":"provided","type":"uint256","internalType":"uint256"},{"name":"maximum","type":"uint256","internalType":"uint256"}]},{"type":"error","name":"GasLimitTooLow","inputs":[{"name":"provided","type":"uint256","internalType":"uint256"},{"name":"minimum","type":"uint256","internalType":"uint256"}]},{"type":"error","name":"InvalidRouter","inputs":[{"name":"router","type":"address","internalType":"address"}]},{"type":"error","name":"MessageNotFailed","inputs":[{"name":"messageId","type":"bytes32","internalType":"bytes32"}]},{"type":"error","name":"NotEnoughBalance","inputs":[{"name":"currentBalance","type":"uint256","internalType":"uint256"},{"name":"calculatedFees","type":"uint256","internalType":"uint256"}]},{"type":"error","name":"OnlySelf","inputs":[]},{"type":"error","name":"SourceChainNotAllowed","inputs":[{"name":"sourceChainSelector","type":"uint64","internalType":"uint64"}]},{"type":"error","name":"Unauthorized","inputs":[]}],"bytecode":{"object":"0x60e06040523480156200001157600080fd5b506040516200786a3803806200786a8339818101604052810190620000379190620002fb565b80600073ffffffffffffffffffffffffffffffffffffffff168173ffffffffffffffffffffffffffffffffffffffff1603620000ad5760006040517fd7f73334000000000000000000000000000000000000000000000000000000008152600401620000a491906200033e565b60405180910390fd5b8073ffffffffffffffffffffffffffffffffffffffff1660808173ffffffffffffffffffffffffffffffffffffffff1681525050508073ffffffffffffffffffffffffffffffffffffffff1660a08173ffffffffffffffffffffffffffffffffffffffff1681525050336000806101000a81548173ffffffffffffffffffffffffffffffffffffffff021916908373ffffffffffffffffffffffffffffffffffffffff160217905550604051620001649062000283565b604051809103906000f08015801562000181573d6000803e3d6000fd5b5073ffffffffffffffffffffffffffffffffffffffff1660c08173ffffffffffffffffffffffffffffffffffffffff16815250506001600a600073ca11bde05977b3631167028862be2a173976ca1173ffffffffffffffffffffffffffffffffffffffff1673ffffffffffffffffffffffffffffffffffffffff16815260200190815260200160002060006101000a81548160ff0219169083151502179055503373ffffffffffffffffffffffffffffffffffffffff16600073ffffffffffffffffffffffffffffffffffffffff167f8be0079c531659141344cd1fd0a4f28419497f9722a3daafe3b4186f6b6457e060405160405180910390a3506200035b565b6115d0806200629a83390190565b600080fd5b600073ffffffffffffffffffffffffffffffffffffffff82169050919050565b6000620002c38262000296565b9050919050565b620002d581620002b6565b8114620002e157600080fd5b50565b600081519050620002f581620002ca565b92915050565b60006020828403121562000314576200031362000291565b5b60006200032484828501620002e4565b91505092915050565b6200033881620002b6565b82525050565b60006020820190506200035560008301846200032d565b92915050565b60805160a05160c051615eec620003ae600039600081816115150152818161303c015261309e01526000818161081c0152818161229701528181612432015261258e015260006118b90152615eec6000f3fe6080604052600436106101a05760003560e01c806388f97c0d116100ec578063b0f479a11161008a578063d8fc07c511610064578063d8fc07c514610621578063db04fa491461064a578063e3f5aa5114610673578063f2fde38b1461069e576101a7565b8063b0f479a11461058d578063cf6730f8146105b8578063d0d1fc3d146105e1576101a7565b8063900153be116100c6578063900153be146104e757806396d3b83d1461052457806398673a431461054d578063a0f8d3ec14610564576101a7565b806388f97c0d146104425780638d9d89fe1461047f5780638da5cb5b146104bc576101a7565b806350e70fa2116101595780636ff1c9bc116101335780636ff1c9bc1461038857806375c67c66146103b15780637ce1ffeb146103ee57806385572ffb14610419576101a7565b806350e70fa2146102e55780635310fb5114610322578063682458bd1461035f576101a7565b806301ffc9a7146101ac5780630abfbda3146101e957806327c7dad914610226578063335592ba14610263578063369f7f661461027f5780634030d521146102a8576101a7565b366101a757005b600080fd5b3480156101b857600080fd5b506101d360048036038101906101ce91906138f2565b6106c7565b6040516101e0919061393a565b60405180910390f35b3480156101f557600080fd5b50610210600480360381019061020b91906139b3565b610799565b60405161021d91906139f9565b60405180910390f35b34801561023257600080fd5b5061024d60048036038101906102489190613b91565b6107b1565b60405161025a91906139f9565b60405180910390f35b61027d60048036038101906102789190613b91565b6108c8565b005b34801561028b57600080fd5b506102a660048036038101906102a19190613cdf565b6109bd565b005b3480156102b457600080fd5b506102cf60048036038101906102ca9190613d1f565b610dd5565b6040516102dc919061393a565b60405180910390f35b3480156102f157600080fd5b5061030c60048036038101906103079190613d4c565b610df5565b604051610319919061393a565b60405180910390f35b34801561032e57600080fd5b50610349600480360381019061034491906139b3565b610e15565b604051610356919061393a565b60405180910390f35b34801561036b57600080fd5b5061038660048036038101906103819190613d79565b610e35565b005b34801561039457600080fd5b506103af60048036038101906103aa91906139b3565b610fab565b005b3480156103bd57600080fd5b506103d860048036038101906103d39190613d1f565b611129565b6040516103e5919061393a565b60405180910390f35b3480156103fa57600080fd5b50610403611149565b60405161041091906139f9565b60405180910390f35b34801561042557600080fd5b50610440600480360381019061043b9190613ddd565b61114f565b005b34801561044e57600080fd5b5061046960048036038101906104649190613d79565b611384565b60405161047691906139f9565b60405180910390f35b34801561048b57600080fd5b506104a660048036038101906104a19190613e26565b6113a9565b6040516104b39190613fca565b60405180910390f35b3480156104c857600080fd5b506104d16114de565b6040516104de9190613ffb565b60405180910390f35b3480156104f357600080fd5b5061050e600480360381019061050991906139b3565b611502565b60405161051b9190613ffb565b60405180910390f35b34801561053057600080fd5b5061054b60048036038101906105469190614042565b611543565b005b34801561055957600080fd5b5061056261160b565b005b34801561057057600080fd5b5061058b60048036038101906105869190614082565b6117d5565b005b34801561059957600080fd5b506105a26118b5565b6040516105af9190613ffb565b60405180910390f35b3480156105c457600080fd5b506105df60048036038101906105da9190613ddd565b6118dd565b005b3480156105ed57600080fd5b5061060860048036038101906106039190613d4c565b6119e1565b6040516106189493929190614170565b60405180910390f35b34801561062d57600080fd5b50610648600480360381019061064391906139b3565b611b35565b005b34801561065657600080fd5b50610671600480360381019061066c9190614042565b611cfa565b005b34801561067f57600080fd5b50610688611dc2565b60405161069591906139f9565b60405180910390f35b3480156106aa57600080fd5b506106c560048036038101906106c091906139b3565b611dc9565b005b60007f85572ffb000000000000000000000000000000000000000000000000000000007bffffffffffffffffffffffffffffffffffffffffffffffffffffffff1916827bffffffffffffffffffffffffffffffffffffffffffffffffffffffff1916148061079257507f01ffc9a7000000000000000000000000000000000000000000000000000000007bffffffffffffffffffffffffffffffffffffffffffffffffffffffff1916827bffffffffffffffffffffffffffffffffffffffffffffffffffffffff1916145b9050919050565b60046020528060005260406000206000915090505481565b60008585905088889050146107fb576040517f08c379a00000000000000000000000000000000000000000000000000000000081526004016107f290614220565b60405180910390fd5b61080482611f7a565b60006108188c8c8c8c8c8c8c8c8c8c612015565b90507f000000000000000000000000000000000000000000000000000000000000000073ffffffffffffffffffffffffffffffffffffffff166320487ded8e836040518363ffffffff1660e01b8152600401610875929190614411565b602060405180830381865afa158015610892573d6000803e3d6000fd5b505050506040513d601f19601f820116820180604052508101906108b69190614456565b9150509b9a5050505050505050505050565b8a600160008267ffffffffffffffff1667ffffffffffffffff16815260200190815260200160002060009054906101000a900460ff1661093f57806040517f0a503cdb0000000000000000000000000000000000000000000000000000000081526004016109369190614483565b60405180910390fd5b858590508888905014610987576040517f08c379a000000000000000000000000000000000000000000000000000000000815260040161097e90614220565b60405180910390fd5b61099082611f7a565b61099c888888886121d7565b6109af8c8c8c8c8c8c8c8c8c8c8c612418565b505050505050505050505050565b60008054906101000a900473ffffffffffffffffffffffffffffffffffffffff1673ffffffffffffffffffffffffffffffffffffffff163373ffffffffffffffffffffffffffffffffffffffff1614610a42576040517f82b4290000000000000000000000000000000000000000000000000000000000815260040160405180910390fd5b600180811115610a5557610a54613ea1565b5b610a698360076126a890919063ffffffff16565b14610aab57816040517fb6e78260000000000000000000000000000000000000000000000000000000008152600401610aa2919061449e565b60405180910390fd5b610ad48260006001811115610ac357610ac2613ea1565b5b60076126c29092919063ffffffff16565b506000600660008481526020019081526020016000206040518060a0016040529081600082015481526020016001820160009054906101000a900467ffffffffffffffff1667ffffffffffffffff1667ffffffffffffffff168152602001600282018054610b41906144e8565b80601f0160208091040260200160405190810160405280929190818152602001828054610b6d906144e8565b8015610bba5780601f10610b8f57610100808354040283529160200191610bba565b820191906000526020600020905b815481529060010190602001808311610b9d57829003601f168201915b50505050508152602001600382018054610bd3906144e8565b80601f0160208091040260200160405190810160405280929190818152602001828054610bff906144e8565b8015610c4c5780601f10610c2157610100808354040283529160200191610c4c565b820191906000526020600020905b815481529060010190602001808311610c2f57829003601f168201915b5050505050815260200160048201805480602002602001604051908101604052809291908181526020016000905b82821015610d0c57838290600052602060002090600202016040518060400160405290816000820160009054906101000a900473ffffffffffffffffffffffffffffffffffffffff1673ffffffffffffffffffffffffffffffffffffffff1673ffffffffffffffffffffffffffffffffffffffff16815260200160018201548152505081526020019060010190610c7a565b5050505081525050905060005b816080015151811015610da257610d958383608001518381518110610d4157610d40614519565b5b60200260200101516020015184608001518481518110610d6457610d63614519565b5b60200260200101516000015173ffffffffffffffffffffffffffffffffffffffff166126de9092919063ffffffff16565b8080600101915050610d19565b50827fef3bf8c64bc480286c4f3503b870ceb23e648d2d902e31fb7bb46680da6de8ad60405160405180910390a2505050565b60026020528060005260406000206000915054906101000a900460ff1681565b60036020528060005260406000206000915054906101000a900460ff1681565b600a6020528060005260406000206000915054906101000a900460ff1681565b60008054906101000a900473ffffffffffffffffffffffffffffffffffffffff1673ffffffffffffffffffffffffffffffffffffffff163373ffffffffffffffffffffffffffffffffffffffff1614610eba576040517f82b4290000000000000000000000000000000000000000000000000000000000815260040160405180910390fd5b60008173ffffffffffffffffffffffffffffffffffffffff166370a08231306040518263ffffffff1660e01b8152600401610ef59190613ffb565b602060405180830381865afa158015610f12573d6000803e3d6000fd5b505050506040513d601f19601f82011682018060405250810190610f369190614456565b905060008111610f7b576040517f08c379a0000000000000000000000000000000000000000000000000000000008152600401610f7290614594565b60405180910390fd5b610fa683828473ffffffffffffffffffffffffffffffffffffffff166126de9092919063ffffffff16565b505050565b60008054906101000a900473ffffffffffffffffffffffffffffffffffffffff1673ffffffffffffffffffffffffffffffffffffffff163373ffffffffffffffffffffffffffffffffffffffff1614611030576040517f82b4290000000000000000000000000000000000000000000000000000000000815260040160405180910390fd5b600047905060008111611078576040517f08c379a000000000000000000000000000000000000000000000000000000000815260040161106f90614594565b60405180910390fd5b60008273ffffffffffffffffffffffffffffffffffffffff168260405161109e906145e5565b60006040518083038185875af1925050503d80600081146110db576040519150601f19603f3d011682016040523d82523d6000602084013e6110e0565b606091505b5050905080611124576040517f08c379a000000000000000000000000000000000000000000000000000000000815260040161111b90614646565b60405180910390fd5b505050565b60016020528060005260406000206000915054906101000a900460ff1681565b61520881565b6111576118b5565b73ffffffffffffffffffffffffffffffffffffffff163373ffffffffffffffffffffffffffffffffffffffff16146111c657336040517fd7f733340000000000000000000000000000000000000000000000000000000081526004016111bd9190613ffb565b60405180910390fd5b8060200160208101906111d99190613d1f565b600260008267ffffffffffffffff1667ffffffffffffffff16815260200190815260200160002060009054906101000a900460ff1661124f57806040517f213c26780000000000000000000000000000000000000000000000000000000081526004016112469190614483565b60405180910390fd5b3073ffffffffffffffffffffffffffffffffffffffff1663cf6730f8836040518263ffffffff1660e01b8152600401611288919061496a565b600060405180830381600087803b1580156112a257600080fd5b505af19250505080156112b3575060015b61137f573d80600081146112e3576040519150601f19603f3d011682016040523d82523d6000602084013e6112e8565b606091505b50611315836000013560018081111561130457611303613ea1565b5b60076126c29092919063ffffffff16565b50826006600085600001358152602001908152602001600020818161133a919061527f565b90505082600001357f55bc02a9ef6f146737edeeb425738006f67f077e7138de3bf84a15bde1a5b56f82604051611371919061528d565b60405180910390a250611380565b5b5050565b6005602052816000526040600020602052806000526040600020600091509150505481565b606060006113b76007612764565b905060008184866113c891906152af565b116113d357836113e0565b84826113df91906152e3565b5b905060008167ffffffffffffffff8111156113fe576113fd614b8a565b5b60405190808252806020026020018201604052801561143757816020015b6114246137e2565b81526020019060019003908161141c5790505b50905060005b828110156114d157600080611467838a61145791906152af565b600761277990919063ffffffff16565b91509150604051806040016040528083815260200182600181111561148f5761148e613ea1565b5b60018111156114a1576114a0613ea1565b5b8152508484815181106114b7576114b6614519565b5b60200260200101819052505050808060010191505061143d565b5080935050505092915050565b60008054906101000a900473ffffffffffffffffffffffffffffffffffffffff1681565b60008061150e836127a2565b905061153b7f000000000000000000000000000000000000000000000000000000000000000082306127d4565b915050919050565b60008054906101000a900473ffffffffffffffffffffffffffffffffffffffff1673ffffffffffffffffffffffffffffffffffffffff163373ffffffffffffffffffffffffffffffffffffffff16146115c8576040517f82b4290000000000000000000000000000000000000000000000000000000000815260040160405180910390fd5b80600160008467ffffffffffffffff1667ffffffffffffffff16815260200190815260200160002060006101000a81548160ff0219169083151502179055505050565b6000600460003373ffffffffffffffffffffffffffffffffffffffff1673ffffffffffffffffffffffffffffffffffffffff16815260200190815260200160002054905060008111611692576040517f08c379a000000000000000000000000000000000000000000000000000000000815260040161168990615363565b60405180910390fd5b6000600460003373ffffffffffffffffffffffffffffffffffffffff1673ffffffffffffffffffffffffffffffffffffffff1681526020019081526020016000208190555060003373ffffffffffffffffffffffffffffffffffffffff16826040516116fd906145e5565b60006040518083038185875af1925050503d806000811461173a576040519150601f19603f3d011682016040523d82523d6000602084013e61173f565b606091505b5050905080611783576040517f08c379a000000000000000000000000000000000000000000000000000000000815260040161177a90614646565b60405180910390fd5b3373ffffffffffffffffffffffffffffffffffffffff167f3da9e600cae32854cd793da2577e397071de103e0fd1cdd7a8a22ef8c606af8d836040516117c991906139f9565b60405180910390a25050565b60008054906101000a900473ffffffffffffffffffffffffffffffffffffffff1673ffffffffffffffffffffffffffffffffffffffff163373ffffffffffffffffffffffffffffffffffffffff161461185a576040517f82b4290000000000000000000000000000000000000000000000000000000000815260040160405180910390fd5b80600a60008473ffffffffffffffffffffffffffffffffffffffff1673ffffffffffffffffffffffffffffffffffffffff16815260200190815260200160002060006101000a81548160ff0219169083151502179055505050565b60007f0000000000000000000000000000000000000000000000000000000000000000905090565b3073ffffffffffffffffffffffffffffffffffffffff163373ffffffffffffffffffffffffffffffffffffffff1614611942576040517f14d4a4e800000000000000000000000000000000000000000000000000000000815260040160405180910390fd5b8060200160208101906119559190613d1f565b600260008267ffffffffffffffff1667ffffffffffffffff16815260200190815260200160002060009054906101000a900460ff166119cb57806040517f213c26780000000000000000000000000000000000000000000000000000000081526004016119c29190614483565b60405180910390fd5b6119dd826119d890615672565b612835565b5050565b60066020528060005260406000206000915090508060000154908060010160009054906101000a900467ffffffffffffffff1690806002018054611a24906144e8565b80601f0160208091040260200160405190810160405280929190818152602001828054611a50906144e8565b8015611a9d5780601f10611a7257610100808354040283529160200191611a9d565b820191906000526020600020905b815481529060010190602001808311611a8057829003601f168201915b505050505090806003018054611ab2906144e8565b80601f0160208091040260200160405190810160405280929190818152602001828054611ade906144e8565b8015611b2b5780601f10611b0057610100808354040283529160200191611b2b565b820191906000526020600020905b815481529060010190602001808311611b0e57829003601f168201915b5050505050905084565b6000600560003373ffffffffffffffffffffffffffffffffffffffff1673ffffffffffffffffffffffffffffffffffffffff16815260200190815260200160002060008373ffffffffffffffffffffffffffffffffffffffff1673ffffffffffffffffffffffffffffffffffffffff16815260200190815260200160002054905060008111611bf9576040517f08c379a0000000000000000000000000000000000000000000000000000000008152600401611bf0906156d1565b60405180910390fd5b6000600560003373ffffffffffffffffffffffffffffffffffffffff1673ffffffffffffffffffffffffffffffffffffffff16815260200190815260200160002060008473ffffffffffffffffffffffffffffffffffffffff1673ffffffffffffffffffffffffffffffffffffffff16815260200190815260200160002081905550611ca633828473ffffffffffffffffffffffffffffffffffffffff166126de9092919063ffffffff16565b3373ffffffffffffffffffffffffffffffffffffffff167fd315af580d6ae8f3a8f6b07e65a051dfec1c634628045bad5ba9db633500163d8383604051611cee9291906156f1565b60405180910390a25050565b60008054906101000a900473ffffffffffffffffffffffffffffffffffffffff1673ffffffffffffffffffffffffffffffffffffffff163373ffffffffffffffffffffffffffffffffffffffff1614611d7f576040517f82b4290000000000000000000000000000000000000000000000000000000000815260040160405180910390fd5b80600260008467ffffffffffffffff1667ffffffffffffffff16815260200190815260200160002060006101000a81548160ff0219169083151502179055505050565b624c4b4081565b60008054906101000a900473ffffffffffffffffffffffffffffffffffffffff1673ffffffffffffffffffffffffffffffffffffffff163373ffffffffffffffffffffffffffffffffffffffff1614611e4e576040517f82b4290000000000000000000000000000000000000000000000000000000000815260040160405180910390fd5b600073ffffffffffffffffffffffffffffffffffffffff168173ffffffffffffffffffffffffffffffffffffffff1603611ebd576040517f08c379a0000000000000000000000000000000000000000000000000000000008152600401611eb490615766565b60405180910390fd5b8073ffffffffffffffffffffffffffffffffffffffff1660008054906101000a900473ffffffffffffffffffffffffffffffffffffffff1673ffffffffffffffffffffffffffffffffffffffff167f8be0079c531659141344cd1fd0a4f28419497f9722a3daafe3b4186f6b6457e060405160405180910390a3806000806101000a81548173ffffffffffffffffffffffffffffffffffffffff021916908373ffffffffffffffffffffffffffffffffffffffff16021790555050565b615208811015611fc557806152086040517f17d4de7e000000000000000000000000000000000000000000000000000000008152600401611fbc929190615786565b60405180910390fd5b624c4b408111156120125780624c4b406040517f51956f2e000000000000000000000000000000000000000000000000000000008152600401612009929190615786565b60405180910390fd5b50565b61201d613811565b60008888905067ffffffffffffffff81111561203c5761203b614b8a565b5b60405190808252806020026020018201604052801561207557816020015b612062613856565b81526020019060019003908161205a5790505b50905060005b8989905081101561211c5760405180604001604052808b8b848181106120a4576120a3614519565b5b90506020020160208101906120b991906139b3565b73ffffffffffffffffffffffffffffffffffffffff1681526020018989848181106120e7576120e6614519565b5b9050602002013581525082828151811061210457612103614519565b5b6020026020010181905250808060010191505061207b565b5060008b8b8787336040516020016121389594939291906157dc565b60405160208183030381529060405290506040518060a001604052808e6040516020016121659190613ffb565b6040516020818303038152906040528152602001828152602001838152602001600073ffffffffffffffffffffffffffffffffffffffff1681526020016121c2604051806040016040528088815260200160001515815250612c57565b815250925050509a9950505050505050505050565b60005b848490508110156124115761225233308585858181106121fd576121fc614519565b5b9050602002013588888681811061221757612216614519565b5b905060200201602081019061222c91906139b3565b73ffffffffffffffffffffffffffffffffffffffff16612cd6909392919063ffffffff16565b84848281811061226557612264614519565b5b905060200201602081019061227a91906139b3565b73ffffffffffffffffffffffffffffffffffffffff1663095ea7b37f00000000000000000000000000000000000000000000000000000000000000008585858181106122c9576122c8614519565b5b905060200201356040518363ffffffff1660e01b81526004016122ed9291906156f1565b6020604051808303816000875af115801561230c573d6000803e3d6000fd5b505050506040513d601f19601f82011682018060405250810190612330919061583f565b5082828281811061234457612343614519565b5b90506020020135600560003373ffffffffffffffffffffffffffffffffffffffff1673ffffffffffffffffffffffffffffffffffffffff168152602001908152602001600020600087878581811061239f5761239e614519565b5b90506020020160208101906123b491906139b3565b73ffffffffffffffffffffffffffffffffffffffff1673ffffffffffffffffffffffffffffffffffffffff16815260200190815260200160002060008282546123fd91906152af565b9250508190555080806001019150506121da565b5050505050565b600061242c8b8b8b8b8b8b8b8b8b8b612015565b905060007f000000000000000000000000000000000000000000000000000000000000000073ffffffffffffffffffffffffffffffffffffffff166320487ded8e846040518363ffffffff1660e01b815260040161248b929190614411565b602060405180830381865afa1580156124a8573d6000803e3d6000fd5b505050506040513d601f19601f820116820180604052508101906124cc9190614456565b905089816124da91906152af565b34101561252b57348a826124ee91906152af565b6040517f8f0f4206000000000000000000000000000000000000000000000000000000008152600401612522929190615786565b60405180910390fd5b808a61253791906152af565b600460003373ffffffffffffffffffffffffffffffffffffffff1673ffffffffffffffffffffffffffffffffffffffff168152602001908152602001600020600082825461258591906152af565b925050819055507f000000000000000000000000000000000000000000000000000000000000000073ffffffffffffffffffffffffffffffffffffffff166396f4e9f9828f856040518463ffffffff1660e01b81526004016125e8929190614411565b60206040518083038185885af1158015612606573d6000803e3d6000fd5b50505050506040513d601f19601f8201168201806040525081019061262b9190615881565b50808a61263891906152af565b600460003373ffffffffffffffffffffffffffffffffffffffff1673ffffffffffffffffffffffffffffffffffffffff168152602001908152602001600020600082825461268691906152e3565b9250508190555061269989898989612d5f565b50505050505050505050505050565b60006126b78360000183612e54565b60001c905092915050565b60006126d584600001848460001b612ed0565b90509392505050565b61275f8363a9059cbb60e01b84846040516024016126fd9291906156f1565b604051602081830303815290604052907bffffffffffffffffffffffffffffffffffffffffffffffffffffffff19166020820180517bffffffffffffffffffffffffffffffffffffffffffffffffffffffff8381831617835250505050612f0b565b505050565b600061277282600001612fd2565b9050919050565b60008060008061278c8660000186612fe7565b91509150818160001c9350935050509250929050565b600081306040516020016127b79291906158ae565b604051602081830303815290604052805190602001209050919050565b60006040518260388201526f5af43d82803e903d91602b57fd5bf3ff6024820152846014820152733d602d80600a3d3981f3363d3d373d3d3d363d7381528360588201526037600c8201206078820152605560438201209150509392505050565b600081606001518051906020012090506003600082815260200190815260200160002060009054906101000a900460ff16156128a6576040517f08c379a000000000000000000000000000000000000000000000000000000000815260040161289d90615923565b60405180910390fd5b60016003600083815260200190815260200160002060006101000a81548160ff02191690831515021790555060008060008085606001518060200190518101906128f091906159f1565b935093509350935060006129048286613027565b905060005b876080015151811015612a6e5760008860800151828151811061292f5761292e614519565b5b602002602001015160000151905060008960800151838151811061295657612955614519565b5b60200260200101516020015190508473ffffffffffffffffffffffffffffffffffffffff168273ffffffffffffffffffffffffffffffffffffffff167f12ca2fe53ea3195be662b13326c0b58c013414d9d62c4f1c8f9e9471e7a574ed836040516129c191906139f9565b60405180910390a36129f484828473ffffffffffffffffffffffffffffffffffffffff166126de9092919063ffffffff16565b8373ffffffffffffffffffffffffffffffffffffffff166389dcfbb1836040518263ffffffff1660e01b8152600401612a2d9190613ffb565b600060405180830381600087803b158015612a4757600080fd5b505af1158015612a5b573d6000803e3d6000fd5b5050505050508080600101915050612909565b508073ffffffffffffffffffffffffffffffffffffffff166304d9c79685856040518363ffffffff1660e01b8152600401612aa9919061528d565b6000604051808303818588803b158015612ac257600080fd5b505af193505050508015612ad4575060015b612b97578073ffffffffffffffffffffffffffffffffffffffff167fd2de47b256c687704862da676c8838274da682985dc1e9228746f1c9fee7119f6000604051612b1f919061393a565b60405180910390a28073ffffffffffffffffffffffffffffffffffffffff166316114acd306040518263ffffffff1660e01b8152600401612b609190613ffb565b600060405180830381600087803b158015612b7a57600080fd5b505af1158015612b8e573d6000803e3d6000fd5b50505050612c4e565b8073ffffffffffffffffffffffffffffffffffffffff167fd2de47b256c687704862da676c8838274da682985dc1e9228746f1c9fee7119f6001604051612bde919061393a565b60405180910390a28473ffffffffffffffffffffffffffffffffffffffff168273ffffffffffffffffffffffffffffffffffffffff167f33958d28ef7d4dd844c1229a0bb44249ddee37cb8046e745f364812fce04d5eb8686604051612c45929190615a74565b60405180910390a35b50505050505050565b606063181dcf1060e01b82604051602401612c729190615ae2565b604051602081830303815290604052907bffffffffffffffffffffffffffffffffffffffffffffffffffffffff19166020820180517bffffffffffffffffffffffffffffffffffffffffffffffffffffffff83818316178352505050509050919050565b612d59846323b872dd60e01b858585604051602401612cf793929190615afd565b604051602081830303815290604052907bffffffffffffffffffffffffffffffffffffffffffffffffffffffff19166020820180517bffffffffffffffffffffffffffffffffffffffffffffffffffffffff8381831617835250505050612f0b565b50505050565b60005b84849050811015612e4d57828282818110612d8057612d7f614519565b5b90506020020135600560003373ffffffffffffffffffffffffffffffffffffffff1673ffffffffffffffffffffffffffffffffffffffff1681526020019081526020016000206000878785818110612ddb57612dda614519565b5b9050602002016020810190612df091906139b3565b73ffffffffffffffffffffffffffffffffffffffff1673ffffffffffffffffffffffffffffffffffffffff1681526020019081526020016000206000828254612e3991906152e3565b925050819055508080600101915050612d62565b5050505050565b6000808360020160008481526020019081526020016000205490506000801b81141580612e875750612e868484613410565b5b612ec6576040517f08c379a0000000000000000000000000000000000000000000000000000000008152600401612ebd90615b80565b60405180910390fd5b8091505092915050565b60008184600201600085815260200190815260200160002081905550612f02838560000161343090919063ffffffff16565b90509392505050565b6000612f6d826040518060400160405280602081526020017f5361666545524332303a206c6f772d6c6576656c2063616c6c206661696c65648152508573ffffffffffffffffffffffffffffffffffffffff166134479092919063ffffffff16565b9050600081511115612fcd5780806020019051810190612f8d919061583f565b612fcc576040517f08c379a0000000000000000000000000000000000000000000000000000000008152600401612fc390615c12565b60405180910390fd5b5b505050565b6000612fe08260000161345f565b9050919050565b6000806000613002848660000161347490919063ffffffff16565b9050808560020160008381526020019081526020016000205492509250509250929050565b600080613033846127a2565b905060006130627f000000000000000000000000000000000000000000000000000000000000000083306127d4565b90506000808273ffffffffffffffffffffffffffffffffffffffff163b1190506000610e104261309291906152af565b90508161319f576130c37f00000000000000000000000000000000000000000000000000000000000000008561348b565b92508294508473ffffffffffffffffffffffffffffffffffffffff1663cd6dc68787836040518363ffffffff1660e01b81526004016131039291906156f1565b600060405180830381600087803b15801561311d57600080fd5b505af1158015613131573d6000803e3d6000fd5b505050508573ffffffffffffffffffffffffffffffffffffffff168573ffffffffffffffffffffffffffffffffffffffff167f66db9b1592d358369ecac2c5c21ce2910d9d949ee833808e14990fcd58bef45a8360405161319291906139f9565b60405180910390a3613406565b8294508473ffffffffffffffffffffffffffffffffffffffff1663392e53cd6040518163ffffffff1660e01b8152600401602060405180830381865afa1580156131ed573d6000803e3d6000fd5b505050506040513d601f19601f82011682018060405250810190613211919061583f565b15613333578473ffffffffffffffffffffffffffffffffffffffff166329dcb0cf6040518163ffffffff1660e01b8152600401602060405180830381865afa158015613261573d6000803e3d6000fd5b505050506040513d601f19601f820116820180604052508101906132859190614456565b4210156132c7576040517f08c379a00000000000000000000000000000000000000000000000000000000081526004016132be90615c7e565b60405180910390fd5b8473ffffffffffffffffffffffffffffffffffffffff166316114acd306040518263ffffffff1660e01b81526004016133009190613ffb565b600060405180830381600087803b15801561331a57600080fd5b505af115801561332e573d6000803e3d6000fd5b505050505b8473ffffffffffffffffffffffffffffffffffffffff1663cd6dc68787836040518363ffffffff1660e01b815260040161336e9291906156f1565b600060405180830381600087803b15801561338857600080fd5b505af115801561339c573d6000803e3d6000fd5b505050508573ffffffffffffffffffffffffffffffffffffffff168573ffffffffffffffffffffffffffffffffffffffff167f7b41f87f7eb187c4d00fd8a8e1c67a0a8f973562914defc4a815dafc11567b3c836040516133fd91906139f9565b60405180910390a35b5050505092915050565b6000613428828460000161354790919063ffffffff16565b905092915050565b600061343f836000018361355e565b905092915050565b606061345684846000856135ce565b90509392505050565b600061346d8260000161369b565b9050919050565b600061348383600001836136ac565b905092915050565b6000763d602d80600a3d3981f3363d3d373d3d3d363d730000008360601b60e81c176000526e5af43d82803e903d91602b57fd5bf38360781b1760205281603760096000f59050600073ffffffffffffffffffffffffffffffffffffffff168173ffffffffffffffffffffffffffffffffffffffff1603613541576040517f08c379a000000000000000000000000000000000000000000000000000000000815260040161353890615cea565b60405180910390fd5b92915050565b600061355683600001836136d7565b905092915050565b600061356a83836136d7565b6135c35782600001829080600181540180825580915050600190039060005260206000200160009091909190915055826000018054905083600101600084815260200190815260200160002081905550600190506135c8565b600090505b92915050565b606082471015613613576040517f08c379a000000000000000000000000000000000000000000000000000000000815260040161360a90615d7c565b60405180910390fd5b6000808673ffffffffffffffffffffffffffffffffffffffff16858760405161363c9190615dcd565b60006040518083038185875af1925050503d8060008114613679576040519150601f19603f3d011682016040523d82523d6000602084013e61367e565b606091505b509150915061368f878383876136fa565b92505050949350505050565b600081600001805490509050919050565b60008260000182815481106136c4576136c3614519565b5b9060005260206000200154905092915050565b600080836001016000848152602001908152602001600020541415905092915050565b6060831561375c576000835103613754576137148561376f565b613753576040517f08c379a000000000000000000000000000000000000000000000000000000000815260040161374a90615e30565b60405180910390fd5b5b829050613767565b6137668383613792565b5b949350505050565b6000808273ffffffffffffffffffffffffffffffffffffffff163b119050919050565b6000825111156137a55781518083602001fd5b806040517f08c379a00000000000000000000000000000000000000000000000000000000081526004016137d99190615e94565b60405180910390fd5b6040518060400160405280600080191681526020016000600181111561380b5761380a613ea1565b5b81525090565b6040518060a00160405280606081526020016060815260200160608152602001600073ffffffffffffffffffffffffffffffffffffffff168152602001606081525090565b6040518060400160405280600073ffffffffffffffffffffffffffffffffffffffff168152602001600081525090565b6000604051905090565b600080fd5b600080fd5b60007fffffffff0000000000000000000000000000000000000000000000000000000082169050919050565b6138cf8161389a565b81146138da57600080fd5b50565b6000813590506138ec816138c6565b92915050565b60006020828403121561390857613907613890565b5b6000613916848285016138dd565b91505092915050565b60008115159050919050565b6139348161391f565b82525050565b600060208201905061394f600083018461392b565b92915050565b600073ffffffffffffffffffffffffffffffffffffffff82169050919050565b600061398082613955565b9050919050565b61399081613975565b811461399b57600080fd5b50565b6000813590506139ad81613987565b92915050565b6000602082840312156139c9576139c8613890565b5b60006139d78482850161399e565b91505092915050565b6000819050919050565b6139f3816139e0565b82525050565b6000602082019050613a0e60008301846139ea565b92915050565b600067ffffffffffffffff82169050919050565b613a3181613a14565b8114613a3c57600080fd5b50565b600081359050613a4e81613a28565b92915050565b613a5d816139e0565b8114613a6857600080fd5b50565b600081359050613a7a81613a54565b92915050565b600080fd5b600080fd5b600080fd5b60008083601f840112613aa557613aa4613a80565b5b8235905067ffffffffffffffff811115613ac257613ac1613a85565b5b602083019150836020820283011115613ade57613add613a8a565b5b9250929050565b60008083601f840112613afb57613afa613a80565b5b8235905067ffffffffffffffff811115613b1857613b17613a85565b5b602083019150836020820283011115613b3457613b33613a8a565b5b9250929050565b60008083601f840112613b5157613b50613a80565b5b8235905067ffffffffffffffff811115613b6e57613b6d613a85565b5b602083019150836001820283011115613b8a57613b89613a8a565b5b9250929050565b60008060008060008060008060008060006101008c8e031215613bb757613bb6613890565b5b6000613bc58e828f01613a3f565b9b50506020613bd68e828f0161399e565b9a50506040613be78e828f0161399e565b9950506060613bf88e828f01613a6b565b98505060808c013567ffffffffffffffff811115613c1957613c18613895565b5b613c258e828f01613a8f565b975097505060a08c013567ffffffffffffffff811115613c4857613c47613895565b5b613c548e828f01613ae5565b955095505060c08c013567ffffffffffffffff811115613c7757613c76613895565b5b613c838e828f01613b3b565b935093505060e0613c968e828f01613a6b565b9150509295989b509295989b9093969950565b6000819050919050565b613cbc81613ca9565b8114613cc757600080fd5b50565b600081359050613cd981613cb3565b92915050565b60008060408385031215613cf657613cf5613890565b5b6000613d0485828601613cca565b9250506020613d158582860161399e565b9150509250929050565b600060208284031215613d3557613d34613890565b5b6000613d4384828501613a3f565b91505092915050565b600060208284031215613d6257613d61613890565b5b6000613d7084828501613cca565b91505092915050565b60008060408385031215613d9057613d8f613890565b5b6000613d9e8582860161399e565b9250506020613daf8582860161399e565b9150509250929050565b600080fd5b600060a08284031215613dd457613dd3613db9565b5b81905092915050565b600060208284031215613df357613df2613890565b5b600082013567ffffffffffffffff811115613e1157613e10613895565b5b613e1d84828501613dbe565b91505092915050565b60008060408385031215613e3d57613e3c613890565b5b6000613e4b85828601613a6b565b9250506020613e5c85828601613a6b565b9150509250929050565b600081519050919050565b600082825260208201905092915050565b6000819050602082019050919050565b613e9b81613ca9565b82525050565b7f4e487b7100000000000000000000000000000000000000000000000000000000600052602160045260246000fd5b60028110613ee157613ee0613ea1565b5b50565b6000819050613ef282613ed0565b919050565b6000613f0282613ee4565b9050919050565b613f1281613ef7565b82525050565b604082016000820151613f2e6000850182613e92565b506020820151613f416020850182613f09565b50505050565b6000613f538383613f18565b60408301905092915050565b6000602082019050919050565b6000613f7782613e66565b613f818185613e71565b9350613f8c83613e82565b8060005b83811015613fbd578151613fa48882613f47565b9750613faf83613f5f565b925050600181019050613f90565b5085935050505092915050565b60006020820190508181036000830152613fe48184613f6c565b905092915050565b613ff581613975565b82525050565b60006020820190506140106000830184613fec565b92915050565b61401f8161391f565b811461402a57600080fd5b50565b60008135905061403c81614016565b92915050565b6000806040838503121561405957614058613890565b5b600061406785828601613a3f565b92505060206140788582860161402d565b9150509250929050565b6000806040838503121561409957614098613890565b5b60006140a78582860161399e565b92505060206140b88582860161402d565b9150509250929050565b6140cb81613ca9565b82525050565b6140da81613a14565b82525050565b600081519050919050565b600082825260208201905092915050565b60005b8381101561411a5780820151818401526020810190506140ff565b60008484015250505050565b6000601f19601f8301169050919050565b6000614142826140e0565b61414c81856140eb565b935061415c8185602086016140fc565b61416581614126565b840191505092915050565b600060808201905061418560008301876140c2565b61419260208301866140d1565b81810360408301526141a48185614137565b905081810360608301526141b88184614137565b905095945050505050565b600082825260208201905092915050565b7f546f6b656e20696e707574206d69736d61746368000000000000000000000000600082015250565b600061420a6014836141c3565b9150614215826141d4565b602082019050919050565b60006020820190508181036000830152614239816141fd565b9050919050565b600082825260208201905092915050565b600061425c826140e0565b6142668185614240565b93506142768185602086016140fc565b61427f81614126565b840191505092915050565b600081519050919050565b600082825260208201905092915050565b6000819050602082019050919050565b6142bf81613975565b82525050565b6142ce816139e0565b82525050565b6040820160008201516142ea60008501826142b6565b5060208201516142fd60208501826142c5565b50505050565b600061430f83836142d4565b60408301905092915050565b6000602082019050919050565b60006143338261428a565b61433d8185614295565b9350614348836142a6565b8060005b838110156143795781516143608882614303565b975061436b8361431b565b92505060018101905061434c565b5085935050505092915050565b600060a08301600083015184820360008601526143a38282614251565b915050602083015184820360208601526143bd8282614251565b915050604083015184820360408601526143d78282614328565b91505060608301516143ec60608601826142b6565b50608083015184820360808601526144048282614251565b9150508091505092915050565b600060408201905061442660008301856140d1565b81810360208301526144388184614386565b90509392505050565b60008151905061445081613a54565b92915050565b60006020828403121561446c5761446b613890565b5b600061447a84828501614441565b91505092915050565b600060208201905061449860008301846140d1565b92915050565b60006020820190506144b360008301846140c2565b92915050565b7f4e487b7100000000000000000000000000000000000000000000000000000000600052602260045260246000fd5b6000600282049050600182168061450057607f821691505b602082108103614513576145126144b9565b5b50919050565b7f4e487b7100000000000000000000000000000000000000000000000000000000600052603260045260246000fd5b7f4e6f7468696e6720746f20776974686472617700000000000000000000000000600082015250565b600061457e6013836141c3565b915061458982614548565b602082019050919050565b600060208201905081810360008301526145ad81614571565b9050919050565b600081905092915050565b50565b60006145cf6000836145b4565b91506145da826145bf565b600082019050919050565b60006145f0826145c2565b9150819050919050565b7f5769746864726177206661696c65640000000000000000000000000000000000600082015250565b6000614630600f836141c3565b915061463b826145fa565b602082019050919050565b6000602082019050818103600083015261465f81614623565b9050919050565b60006146756020840184613cca565b905092915050565b600061468c6020840184613a3f565b905092915050565b61469d81613a14565b82525050565b600080fd5b600080fd5b600080fd5b600080833560016020038436030381126146cf576146ce6146ad565b5b83810192508235915060208301925067ffffffffffffffff8211156146f7576146f66146a3565b5b60018202360383131561470d5761470c6146a8565b5b509250929050565b82818337600083830152505050565b60006147308385614240565b935061473d838584614715565b61474683614126565b840190509392505050565b6000808335600160200384360303811261476e5761476d6146ad565b5b83810192508235915060208301925067ffffffffffffffff821115614796576147956146a3565b5b6040820236038313156147ac576147ab6146a8565b5b509250929050565b6000819050919050565b60006147cd602084018461399e565b905092915050565b60006147e46020840184613a6b565b905092915050565b604082016147fd60008301836147be565b61480a60008501826142b6565b5061481860208301836147d5565b61482560208501826142c5565b50505050565b600061483783836147ec565b60408301905092915050565b600082905092915050565b6000604082019050919050565b60006148678385614295565b9350614872826147b4565b8060005b858110156148ab576148888284614843565b614892888261482b565b975061489d8361484e565b925050600181019050614876565b5085925050509392505050565b600060a083016148cb6000840184614666565b6148d86000860182613e92565b506148e6602084018461467d565b6148f36020860182614694565b5061490160408401846146b2565b8583036040870152614914838284614724565b9250505061492560608401846146b2565b8583036060870152614938838284614724565b925050506149496080840184614751565b858303608087015261495c83828461485b565b925050508091505092915050565b6000602082019050818103600083015261498481846148b8565b905092915050565b7f4e487b7100000000000000000000000000000000000000000000000000000000600052600060045260246000fd5b600081356149c881613cb3565b80915050919050565b60008160001b9050919050565b60007fffffffffffffffffffffffffffffffffffffffffffffffffffffffffffffffff614a0a846149d1565b9350801983169250808416831791505092915050565b6000614a2b82613ca9565b9050919050565b60008160001c9050919050565b6000614a4a82614a32565b9050919050565b614a5a82614a20565b614a6d614a6682614a3f565b83546149de565b8255505050565b60008135614a8181613a28565b80915050919050565b600067ffffffffffffffff614a9e846149d1565b9350801983169250808416831791505092915050565b6000819050919050565b6000614ad9614ad4614acf84613a14565b614ab4565b613a14565b9050919050565b6000819050919050565b614af382614abe565b614b06614aff82614ae0565b8354614a8a565b8255505050565b600080fd5b600080fd5b600080fd5b60008083356001602003843603038112614b3957614b38614b0d565b5b80840192508235915067ffffffffffffffff821115614b5b57614b5a614b12565b5b602083019250600182023603831315614b7757614b76614b17565b5b509250929050565b600082905092915050565b7f4e487b7100000000000000000000000000000000000000000000000000000000600052604160045260246000fd5b60008190508160005260206000209050919050565b60006020601f8301049050919050565b600082821b905092915050565b600060088302614c1b7fffffffffffffffffffffffffffffffffffffffffffffffffffffffffffffffff82614bde565b614c258683614bde565b95508019841693508086168417925050509392505050565b6000614c58614c53614c4e846139e0565b614ab4565b6139e0565b9050919050565b6000819050919050565b614c7283614c3d565b614c86614c7e82614c5f565b848454614beb565b825550505050565b600090565b614c9b614c8e565b614ca6818484614c69565b505050565b5b81811015614cca57614cbf600082614c93565b600181019050614cac565b5050565b601f821115614d0f57614ce081614bb9565b614ce984614bce565b81016020851015614cf8578190505b614d0c614d0485614bce565b830182614cab565b50505b505050565b600082821c905092915050565b6000614d3260001984600802614d14565b1980831691505092915050565b6000614d4b8383614d21565b9150826002028217905092915050565b614d658383614b7f565b67ffffffffffffffff811115614d7e57614d7d614b8a565b5b614d8882546144e8565b614d93828285614cce565b6000601f831160018114614dc25760008415614db0578287013590505b614dba8582614d3f565b865550614e22565b601f198416614dd086614bb9565b60005b82811015614df857848901358255600182019150602085019450602081019050614dd3565b86831015614e155784890135614e11601f891682614d21565b8355505b6001600288020188555050505b50505050505050565b614e36838383614d5b565b505050565b60008083356001602003843603038112614e5857614e57614b0d565b5b80840192508235915067ffffffffffffffff821115614e7a57614e79614b12565b5b602083019250604082023603831315614e9657614e95614b17565b5b509250929050565b600081549050919050565b7f4e487b7100000000000000000000000000000000000000000000000000000000600052601160045260246000fd5b6000614ee3826139e0565b9150614eee836139e0565b9250828202614efc816139e0565b91508282048414831517614f1357614f12614ea9565b5b5092915050565b6000819050614f2a826002614ed8565b9050919050565b60008190508160005260206000209050919050565b600080820155614f5a600060018301614c93565b50565b60008214614f6e57614f6d61498c565b5b614f7781614f46565b5050565b5b81811015614f9a57614f8f600082614f5d565b600281019050614f7c565b5050565b81831015614fd757614faf82614f1a565b614fb884614f1a565b614fc183614f31565b818101838201614fd18183614f7b565b50505050505b505050565b68010000000000000000821115614ff657614ff5614b8a565b5b614fff81614e9e565b82825561500d838284614f9e565b505050565b600082905092915050565b6000813561502a81613987565b80915050919050565b600073ffffffffffffffffffffffffffffffffffffffff615053846149d1565b9350801983169250808416831791505092915050565b600061508461507f61507a84613955565b614ab4565b613955565b9050919050565b600061509682615069565b9050919050565b60006150a88261508b565b9050919050565b6000819050919050565b6150c28261509d565b6150d56150ce826150af565b8354615033565b8255505050565b600081356150e981613a54565b80915050919050565b6150fb82614c3d565b61510e61510782614c5f565b83546149de565b8255505050565b6000810160008301806151278161501d565b905061513381846150b9565b505050600181016020830180615148816150dc565b905061515481846150f2565b5050505050565b6151658282615115565b5050565b6151738383615012565b61517d8183614fdc565b615186836147b4565b61518f83614f31565b60005b838110156151bd57826151a5818461515b565b60408401935060028301925050600181019050615192565b50505050505050565b6151d1838383615169565b505050565b6000810160008301806151e8816149bb565b90506151f48184614a51565b50505060018101602083018061520981614a74565b90506152158184614aea565b505050600281016040830161522a8185614b1c565b615235818386614e2b565b50505050600381016060830161524b8185614b1c565b615256818386614e2b565b50505050600481016080830161526c8185614e3b565b6152778183866151c6565b505050505050565b61528982826151d6565b5050565b600060208201905081810360008301526152a78184614137565b905092915050565b60006152ba826139e0565b91506152c5836139e0565b92508282019050808211156152dd576152dc614ea9565b5b92915050565b60006152ee826139e0565b91506152f9836139e0565b925082820390508181111561531157615310614ea9565b5b92915050565b7f4e6f206e617469766520657363726f7720746f20726573637565000000000000600082015250565b600061534d601a836141c3565b915061535882615317565b602082019050919050565b6000602082019050818103600083015261537c81615340565b9050919050565b600080fd5b61539182614126565b810181811067ffffffffffffffff821117156153b0576153af614b8a565b5b80604052505050565b60006153c3613886565b90506153cf8282615388565b919050565b600080fd5b600080fd5b600067ffffffffffffffff8211156153f9576153f8614b8a565b5b61540282614126565b9050602081019050919050565b600061542261541d846153de565b6153b9565b90508281526020810184848401111561543e5761543d6153d9565b5b615449848285614715565b509392505050565b600082601f83011261546657615465613a80565b5b813561547684826020860161540f565b91505092915050565b600067ffffffffffffffff82111561549a57615499614b8a565b5b602082029050602081019050919050565b6000604082840312156154c1576154c0615383565b5b6154cb60406153b9565b905060006154db8482850161399e565b60008301525060206154ef84828501613a6b565b60208301525092915050565b600061550e6155098461547f565b6153b9565b9050808382526020820190506040840283018581111561553157615530613a8a565b5b835b8181101561555a578061554688826154ab565b845260208401935050604081019050615533565b5050509392505050565b600082601f83011261557957615578613a80565b5b81356155898482602086016154fb565b91505092915050565b600060a082840312156155a8576155a7615383565b5b6155b260a06153b9565b905060006155c284828501613cca565b60008301525060206155d684828501613a3f565b602083015250604082013567ffffffffffffffff8111156155fa576155f96153d4565b5b61560684828501615451565b604083015250606082013567ffffffffffffffff81111561562a576156296153d4565b5b61563684828501615451565b606083015250608082013567ffffffffffffffff81111561565a576156596153d4565b5b61566684828501615564565b60808301525092915050565b600061567e3683615592565b9050919050565b7f4e6f20746f6b656e20657363726f7720746f2072657363756500000000000000600082015250565b60006156bb6019836141c3565b91506156c682615685565b602082019050919050565b600060208201905081810360008301526156ea816156ae565b9050919050565b60006040820190506157066000830185613fec565b61571360208301846139ea565b9392505050565b7f4e6577206f776e65722063616e6e6f74206265207a65726f2061646472657373600082015250565b60006157506020836141c3565b915061575b8261571a565b602082019050919050565b6000602082019050818103600083015261577f81615743565b9050919050565b600060408201905061579b60008301856139ea565b6157a860208301846139ea565b9392505050565b60006157bb83856140eb565b93506157c8838584614715565b6157d183614126565b840190509392505050565b60006080820190506157f16000830188613fec565b6157fe60208301876139ea565b81810360408301526158118185876157af565b90506158206060830184613fec565b9695505050505050565b60008151905061583981614016565b92915050565b60006020828403121561585557615854613890565b5b60006158638482850161582a565b91505092915050565b60008151905061587b81613cb3565b92915050565b60006020828403121561589757615896613890565b5b60006158a58482850161586c565b91505092915050565b60006040820190506158c36000830185613fec565b6158d06020830184613fec565b9392505050565b7f5265706c61792064657465637465640000000000000000000000000000000000600082015250565b600061590d600f836141c3565b9150615918826158d7565b602082019050919050565b6000602082019050818103600083015261593c81615900565b9050919050565b600061594e82613955565b9050919050565b61595e81615943565b811461596957600080fd5b50565b60008151905061597b81615955565b92915050565b600061599461598f846153de565b6153b9565b9050828152602081018484840111156159b0576159af6153d9565b5b6159bb8482856140fc565b509392505050565b600082601f8301126159d8576159d7613a80565b5b81516159e8848260208601615981565b91505092915050565b60008060008060808587031215615a0b57615a0a613890565b5b6000615a198782880161596c565b9450506020615a2a87828801614441565b935050604085015167ffffffffffffffff811115615a4b57615a4a613895565b5b615a57878288016159c3565b9250506060615a688782880161596c565b91505092959194509250565b6000604082019050615a8960008301856139ea565b8181036020830152615a9b8184614137565b90509392505050565b615aad8161391f565b82525050565b604082016000820151615ac960008501826142c5565b506020820151615adc6020850182615aa4565b50505050565b6000604082019050615af76000830184615ab3565b92915050565b6000606082019050615b126000830186613fec565b615b1f6020830185613fec565b615b2c60408301846139ea565b949350505050565b7f456e756d657261626c654d61703a206e6f6e6578697374656e74206b65790000600082015250565b6000615b6a601e836141c3565b9150615b7582615b34565b602082019050919050565b60006020820190508181036000830152615b9981615b5d565b9050919050565b7f5361666545524332303a204552433230206f7065726174696f6e20646964206e60008201527f6f74207375636365656400000000000000000000000000000000000000000000602082015250565b6000615bfc602a836141c3565b9150615c0782615ba0565b604082019050919050565b60006020820190508181036000830152615c2b81615bef565b9050919050565b7f4578656375746f72207374696c6c206275737900000000000000000000000000600082015250565b6000615c686013836141c3565b9150615c7382615c32565b602082019050919050565b60006020820190508181036000830152615c9781615c5b565b9050919050565b7f455243313136373a2063726561746532206661696c6564000000000000000000600082015250565b6000615cd46017836141c3565b9150615cdf82615c9e565b602082019050919050565b60006020820190508181036000830152615d0381615cc7565b9050919050565b7f416464726573733a20696e73756666696369656e742062616c616e636520666f60008201527f722063616c6c0000000000000000000000000000000000000000000000000000602082015250565b6000615d666026836141c3565b9150615d7182615d0a565b604082019050919050565b60006020820190508181036000830152615d9581615d59565b9050919050565b6000615da7826140e0565b615db181856145b4565b9350615dc18185602086016140fc565b80840191505092915050565b6000615dd98284615d9c565b915081905092915050565b7f416464726573733a2063616c6c20746f206e6f6e2d636f6e7472616374000000600082015250565b6000615e1a601d836141c3565b9150615e2582615de4565b602082019050919050565b60006020820190508181036000830152615e4981615e0d565b9050919050565b600081519050919050565b6000615e6682615e50565b615e7081856141c3565b9350615e808185602086016140fc565b615e8981614126565b840191505092915050565b60006020820190508181036000830152615eae8184615e5b565b90509291505056fea26469706673582212203ee904d16b128c59fc9a46b0384723430bcfdc542be21a878d75a57da754c0ef64736f6c63430008180033608060405234801561001057600080fd5b506115b0806100206000396000f3fe60806040526004361061008a5760003560e01c80638305368a116100595780638305368a1461013157806389d804611461016e57806389dcfbb114610199578063cd6dc687146101c2578063d4b83992146101eb57610091565b806304d9c7961461009657806316114acd146100b257806329dcb0cf146100db578063392e53cd1461010657610091565b3661009157005b600080fd5b6100b060048036038101906100ab9190610e82565b610216565b005b3480156100be57600080fd5b506100d960048036038101906100d49190610f2d565b610566565b005b3480156100e757600080fd5b506100f0610657565b6040516100fd9190610f73565b60405180910390f35b34801561011257600080fd5b5061011b61065d565b6040516101289190610fa9565b60405180910390f35b34801561013d57600080fd5b5061015860048036038101906101539190610ff0565b610674565b604051610165919061102c565b60405180910390f35b34801561017a57600080fd5b506101836106b3565b604051610190919061102c565b60405180910390f35b3480156101a557600080fd5b506101c060048036038101906101bb9190610f2d565b6106d7565b005b3480156101ce57600080fd5b506101e960048036038101906101e49190611047565b6107cb565b005b3480156101f757600080fd5b506102006108b9565b60405161020d919061102c565b60405180910390f35b60008054906101000a900473ffffffffffffffffffffffffffffffffffffffff1673ffffffffffffffffffffffffffffffffffffffff163373ffffffffffffffffffffffffffffffffffffffff161461029b576040517f82b4290000000000000000000000000000000000000000000000000000000000815260040160405180910390fd5b600360009054906101000a900460ff166102e1576040517f87138d5c00000000000000000000000000000000000000000000000000000000815260040160405180910390fd5b600254421061031c576040517f559895a300000000000000000000000000000000000000000000000000000000815260040160405180910390fd5b60008060009054906101000a900473ffffffffffffffffffffffffffffffffffffffff1673ffffffffffffffffffffffffffffffffffffffff16635310fb51600160009054906101000a900473ffffffffffffffffffffffffffffffffffffffff166040518263ffffffff1660e01b815260040161039a919061102c565b602060405180830381865afa1580156103b7573d6000803e3d6000fd5b505050506040513d601f19601f820116820180604052508101906103db91906110b3565b1561047457600160009054906101000a900473ffffffffffffffffffffffffffffffffffffffff1673ffffffffffffffffffffffffffffffffffffffff16838360405161042992919061111f565b600060405180830381855af49150503d8060008114610464576040519150601f19603f3d011682016040523d82523d6000602084013e610469565b606091505b505080915050610507565b600160009054906101000a900473ffffffffffffffffffffffffffffffffffffffff1673ffffffffffffffffffffffffffffffffffffffff163484846040516104be92919061111f565b60006040518083038185875af1925050503d80600081146104fb576040519150601f19603f3d011682016040523d82523d6000602084013e610500565b606091505b5050809150505b8061053e576040517facfdb44400000000000000000000000000000000000000000000000000000000815260040160405180910390fd5b6105466108df565b6000600360006101000a81548160ff021916908315150217905550505050565b60008054906101000a900473ffffffffffffffffffffffffffffffffffffffff1673ffffffffffffffffffffffffffffffffffffffff163373ffffffffffffffffffffffffffffffffffffffff16146105eb576040517f82b4290000000000000000000000000000000000000000000000000000000000815260040160405180910390fd5b600360009054906101000a900460ff16610631576040517f87138d5c00000000000000000000000000000000000000000000000000000000815260040160405180910390fd5b6106396108df565b6000600360006101000a81548160ff02191690831515021790555050565b60025481565b6000600360009054906101000a900460ff16905090565b6004818154811061068457600080fd5b906000526020600020016000915054906101000a900473ffffffffffffffffffffffffffffffffffffffff1681565b60008054906101000a900473ffffffffffffffffffffffffffffffffffffffff1681565b60008054906101000a900473ffffffffffffffffffffffffffffffffffffffff1673ffffffffffffffffffffffffffffffffffffffff163373ffffffffffffffffffffffffffffffffffffffff1614610765576040517f08c379a000000000000000000000000000000000000000000000000000000000815260040161075c90611195565b60405180910390fd5b6004819080600181540180825580915050600190039060005260206000200160009091909190916101000a81548173ffffffffffffffffffffffffffffffffffffffff021916908373ffffffffffffffffffffffffffffffffffffffff16021790555050565b600360009054906101000a900460ff1615610812576040517f0dc149f000000000000000000000000000000000000000000000000000000000815260040160405180910390fd5b336000806101000a81548173ffffffffffffffffffffffffffffffffffffffff021916908373ffffffffffffffffffffffffffffffffffffffff16021790555081600160006101000a81548173ffffffffffffffffffffffffffffffffffffffff021916908373ffffffffffffffffffffffffffffffffffffffff160217905550806002819055506001600360006101000a81548160ff0219169083151502179055505050565b600160009054906101000a900473ffffffffffffffffffffffffffffffffffffffff1681565b60005b600480549050811015610a1457600060048281548110610905576109046111b5565b5b9060005260206000200160009054906101000a900473ffffffffffffffffffffffffffffffffffffffff16905060008173ffffffffffffffffffffffffffffffffffffffff166370a08231306040518263ffffffff1660e01b815260040161096d919061102c565b602060405180830381865afa15801561098a573d6000803e3d6000fd5b505050506040513d601f19601f820116820180604052508101906109ae91906111f9565b90506000811115610a0557610a0460008054906101000a900473ffffffffffffffffffffffffffffffffffffffff16828473ffffffffffffffffffffffffffffffffffffffff16610a1f9092919063ffffffff16565b5b505080806001019150506108e2565b50610a1d610aa5565b565b610aa08363a9059cbb60e01b8484604051602401610a3e929190611226565b604051602081830303815290604052907bffffffffffffffffffffffffffffffffffffffffffffffffffffffff19166020820180517bffffffffffffffffffffffffffffffffffffffffffffffffffffffff8381831617835250505050610b7f565b505050565b6000471115610b7d5760008060009054906101000a900473ffffffffffffffffffffffffffffffffffffffff1673ffffffffffffffffffffffffffffffffffffffff1647604051610af590611275565b60006040518083038185875af1925050503d8060008114610b32576040519150601f19603f3d011682016040523d82523d6000602084013e610b37565b606091505b5050905080610b7b576040517f08c379a0000000000000000000000000000000000000000000000000000000008152600401610b72906112d6565b60405180910390fd5b505b565b6000610be1826040518060400160405280602081526020017f5361666545524332303a206c6f772d6c6576656c2063616c6c206661696c65648152508573ffffffffffffffffffffffffffffffffffffffff16610c469092919063ffffffff16565b9050600081511115610c415780806020019051810190610c0191906110b3565b610c40576040517f08c379a0000000000000000000000000000000000000000000000000000000008152600401610c3790611368565b60405180910390fd5b5b505050565b6060610c558484600085610c5e565b90509392505050565b606082471015610ca3576040517f08c379a0000000000000000000000000000000000000000000000000000000008152600401610c9a906113fa565b60405180910390fd5b6000808673ffffffffffffffffffffffffffffffffffffffff168587604051610ccc9190611480565b60006040518083038185875af1925050503d8060008114610d09576040519150601f19603f3d011682016040523d82523d6000602084013e610d0e565b606091505b5091509150610d1f87838387610d2b565b92505050949350505050565b60608315610d8d576000835103610d8557610d4585610da0565b610d84576040517f08c379a0000000000000000000000000000000000000000000000000000000008152600401610d7b906114e3565b60405180910390fd5b5b829050610d98565b610d978383610dc3565b5b949350505050565b6000808273ffffffffffffffffffffffffffffffffffffffff163b119050919050565b600082511115610dd65781518083602001fd5b806040517f08c379a0000000000000000000000000000000000000000000000000000000008152600401610e0a9190611558565b60405180910390fd5b600080fd5b600080fd5b600080fd5b600080fd5b600080fd5b60008083601f840112610e4257610e41610e1d565b5b8235905067ffffffffffffffff811115610e5f57610e5e610e22565b5b602083019150836001820283011115610e7b57610e7a610e27565b5b9250929050565b60008060208385031215610e9957610e98610e13565b5b600083013567ffffffffffffffff811115610eb757610eb6610e18565b5b610ec385828601610e2c565b92509250509250929050565b600073ffffffffffffffffffffffffffffffffffffffff82169050919050565b6000610efa82610ecf565b9050919050565b610f0a81610eef565b8114610f1557600080fd5b50565b600081359050610f2781610f01565b92915050565b600060208284031215610f4357610f42610e13565b5b6000610f5184828501610f18565b91505092915050565b6000819050919050565b610f6d81610f5a565b82525050565b6000602082019050610f886000830184610f64565b92915050565b60008115159050919050565b610fa381610f8e565b82525050565b6000602082019050610fbe6000830184610f9a565b92915050565b610fcd81610f5a565b8114610fd857600080fd5b50565b600081359050610fea81610fc4565b92915050565b60006020828403121561100657611005610e13565b5b600061101484828501610fdb565b91505092915050565b61102681610eef565b82525050565b6000602082019050611041600083018461101d565b92915050565b6000806040838503121561105e5761105d610e13565b5b600061106c85828601610f18565b925050602061107d85828601610fdb565b9150509250929050565b61109081610f8e565b811461109b57600080fd5b50565b6000815190506110ad81611087565b92915050565b6000602082840312156110c9576110c8610e13565b5b60006110d78482850161109e565b91505092915050565b600081905092915050565b82818337600083830152505050565b600061110683856110e0565b93506111138385846110eb565b82840190509392505050565b600061112c8284866110fa565b91508190509392505050565b600082825260208201905092915050565b7f4f6e6c79205969656c644d61782063616e2061646420746f6b656e7300000000600082015250565b600061117f601c83611138565b915061118a82611149565b602082019050919050565b600060208201905081810360008301526111ae81611172565b9050919050565b7f4e487b7100000000000000000000000000000000000000000000000000000000600052603260045260246000fd5b6000815190506111f381610fc4565b92915050565b60006020828403121561120f5761120e610e13565b5b600061121d848285016111e4565b91505092915050565b600060408201905061123b600083018561101d565b6112486020830184610f64565b9392505050565b50565b600061125f6000836110e0565b915061126a8261124f565b600082019050919050565b600061128082611252565b9150819050919050565b7f455448207472616e73666572206661696c656400000000000000000000000000600082015250565b60006112c0601383611138565b91506112cb8261128a565b602082019050919050565b600060208201905081810360008301526112ef816112b3565b9050919050565b7f5361666545524332303a204552433230206f7065726174696f6e20646964206e60008201527f6f74207375636365656400000000000000000000000000000000000000000000602082015250565b6000611352602a83611138565b915061135d826112f6565b604082019050919050565b6000602082019050818103600083015261138181611345565b9050919050565b7f416464726573733a20696e73756666696369656e742062616c616e636520666f60008201527f722063616c6c0000000000000000000000000000000000000000000000000000602082015250565b60006113e4602683611138565b91506113ef82611388565b604082019050919050565b60006020820190508181036000830152611413816113d7565b9050919050565b600081519050919050565b60005b83811015611443578082015181840152602081019050611428565b60008484015250505050565b600061145a8261141a565b61146481856110e0565b9350611474818560208601611425565b80840191505092915050565b600061148c828461144f565b915081905092915050565b7f416464726573733a2063616c6c20746f206e6f6e2d636f6e7472616374000000600082015250565b60006114cd601d83611138565b91506114d882611497565b602082019050919050565b600060208201905081810360008301526114fc816114c0565b9050919050565b600081519050919050565b6000601f19601f8301169050919050565b600061152a82611503565b6115348185611138565b9350611544818560208601611425565b61154d8161150e565b840191505092915050565b60006020820190508181036000830152611572818461151f565b90509291505056fea26469706673582212201438b489f99268cb9905752a826b74573f2285377e70779c9a7bb736e746dac364736f6c63430008180033","linkReferences":{}},"methodIdentifiers":{"MAX_GAS_LIMIT()":"e3f5aa51","MIN_GAS_LIMIT()":"7ce1ffeb","allowlistDestinationChain(uint64,bool)":"96d3b83d","allowlistSourceChain(uint64,bool)":"db04fa49","allowlistedDestinationChains(uint64)":"75c67c66","allowlistedSourceChains(uint64)":"4030d521","ccipReceive((bytes32,uint64,bytes,bytes,(address,uint256)[]))":"85572ffb","emergencyWithdraw(address)":"6ff1c9bc","emergencyWithdrawToken(address,address)":"682458bd","estimateFee(uint64,address,address,uint256,address[],uint256[],bytes,uint256)":"27c7dad9","getFailedMessages(uint256,uint256)":"8d9d89fe","getRouter()":"b0f479a1","isMulticallContract(address)":"5310fb51","owner()":"8da5cb5b","pendingEscrowERC20(address,address)":"88f97c0d","pendingEscrowNative(address)":"0abfbda3","predictExecutorAddress(address)":"900153be","processMessage((bytes32,uint64,bytes,bytes,(address,uint256)[]))":"cf6730f8","rescueERC20Escrow(address)":"d8fc07c5","rescueEscrow()":"98673a43","retryFailedMessage(bytes32,address)":"369f7f66","s_messageContents(bytes32)":"d0d1fc3d","sendCrossChainExecution(uint64,address,address,uint256,address[],uint256[],bytes,uint256)":"335592ba","setMulticallContract(address,bool)":"a0f8d3ec","supportsInterface(bytes4)":"01ffc9a7","transferOwnership(address)":"f2fde38b","usedPayloads(bytes32)":"50e70fa2"},"id":33}