{"abi":[{"type":"constructor","inputs":[{"name":"token","type":"address","internalType":"contract IERC20"},{"name":"localTokenDecimals","type":"uint8","internalType":"uint8"},{"name":"allowlist","type":"address[]","internalType":"address[]"},{"name":"rmnProxy","type":"address","internalType":"address"},{"name":"acceptLiquidity","type":"bool","internalType":"bool"},{"name":"router","type":"address","internalType":"address"}],"stateMutability":"nonpayable"},{"type":"function","name":"acceptOwnership","inputs":[],"outputs":[],"stateMutability":"nonpayable"},{"type":"function","name":"addRemotePool","inputs":[{"name":"remoteChainSelector","type":"uint64","internalType":"uint64"},{"name":"remotePoolAddress","type":"bytes","internalType":"bytes"}],"outputs":[],"stateMutability":"nonpayable"},{"type":"function","name":"applyAllowListUpdates","inputs":[{"name":"removes","type":"address[]","internalType":"address[]"},{"name":"adds","type":"address[]","internalType":"address[]"}],"outputs":[],"stateMutability":"nonpayable"},{"type":"function","name":"applyChainUpdates","inputs":[{"name":"remoteChainSelectorsToRemove","type":"uint64[]","internalType":"uint64[]"},{"name":"chainsToAdd","type":"tuple[]","internalType":"struct TokenPool.ChainUpdate[]","components":[{"name":"remoteChainSelector","type":"uint64","internalType":"uint64"},{"name":"remotePoolAddresses","type":"bytes[]","internalType":"bytes[]"},{"name":"remoteTokenAddress","type":"bytes","internalType":"bytes"},{"name":"outboundRateLimiterConfig","type":"tuple","internalType":"struct RateLimiter.Config","components":[{"name":"isEnabled","type":"bool","internalType":"bool"},{"name":"capacity","type":"uint128","internalType":"uint128"},{"name":"rate","type":"uint128","internalType":"uint128"}]},{"name":"inboundRateLimiterConfig","type":"tuple","internalType":"struct RateLimiter.Config","components":[{"name":"isEnabled","type":"bool","internalType":"bool"},{"name":"capacity","type":"uint128","internalType":"uint128"},{"name":"rate","type":"uint128","internalType":"uint128"}]}]}],"outputs":[],"stateMutability":"nonpayable"},{"type":"function","name":"canAcceptLiquidity","inputs":[],"outputs":[{"name":"","type":"bool","internalType":"bool"}],"stateMutability":"view"},{"type":"function","name":"getAllowList","inputs":[],"outputs":[{"name":"","type":"address[]","internalType":"address[]"}],"stateMutability":"view"},{"type":"function","name":"getAllowListEnabled","inputs":[],"outputs":[{"name":"","type":"bool","internalType":"bool"}],"stateMutability":"view"},{"type":"function","name":"getCurrentInboundRateLimiterState","inputs":[{"name":"remoteChainSelector","type":"uint64","internalType":"uint64"}],"outputs":[{"name":"","type":"tuple","internalType":"struct RateLimiter.TokenBucket","components":[{"name":"tokens","type":"uint128","internalType":"uint128"},{"name":"lastUpdated","type":"uint32","internalType":"uint32"},{"name":"isEnabled","type":"bool","internalType":"bool"},{"name":"capacity","type":"uint128","internalType":"uint128"},{"name":"rate","type":"uint128","internalType":"uint128"}]}],"stateMutability":"view"},{"type":"function","name":"getCurrentOutboundRateLimiterState","inputs":[{"name":"remoteChainSelector","type":"uint64","internalType":"uint64"}],"outputs":[{"name":"","type":"tuple","internalType":"struct RateLimiter.TokenBucket","components":[{"name":"tokens","type":"uint128","internalType":"uint128"},{"name":"lastUpdated","type":"uint32","internalType":"uint32"},{"name":"isEnabled","type":"bool","internalType":"bool"},{"name":"capacity","type":"uint128","internalType":"uint128"},{"name":"rate","type":"uint128","internalType":"uint128"}]}],"stateMutability":"view"},{"type":"function","name":"getRateLimitAdmin","inputs":[],"outputs":[{"name":"","type":"address","internalType":"address"}],"stateMutability":"view"},{"type":"function","name":"getRebalancer","inputs":[],"outputs":[{"name":"","type":"address","internalType":"address"}],"stateMutability":"view"},{"type":"function","name":"getRemotePools","inputs":[{"name":"remoteChainSelector","type":"uint64","internalType":"uint64"}],"outputs":[{"name":"","type":"bytes[]","internalType":"bytes[]"}],"stateMutability":"view"},{"type":"function","name":"getRemoteToken","inputs":[{"name":"remoteChainSelector","type":"uint64","internalType":"uint64"}],"outputs":[{"name":"","type":"bytes","internalType":"bytes"}],"stateMutability":"view"},{"type":"function","name":"getRmnProxy","inputs":[],"outputs":[{"name":"rmnProxy","type":"address","internalType":"address"}],"stateMutability":"view"},{"type":"function","name":"getRouter","inputs":[],"outputs":[{"name":"router","type":"address","internalType":"address"}],"stateMutability":"view"},{"type":"function","name":"getSupportedChains","inputs":[],"outputs":[{"name":"","type":"uint64[]","internalType":"uint64[]"}],"stateMutability":"view"},{"type":"function","name":"getToken","inputs":[],"outputs":[{"name":"token","type":"address","internalType":"contract IERC20"}],"stateMutability":"view"},{"type":"function","name":"getTokenDecimals","inputs":[],"outputs":[{"name":"decimals","type":"uint8","internalType":"uint8"}],"stateMutability":"view"},{"type":"function","name":"isRemotePool","inputs":[{"name":"remoteChainSelector","type":"uint64","internalType":"uint64"},{"name":"remotePoolAddress","type":"bytes","internalType":"bytes"}],"outputs":[{"name":"","type":"bool","internalType":"bool"}],"stateMutability":"view"},{"type":"function","name":"isSupportedChain","inputs":[{"name":"remoteChainSelector","type":"uint64","internalType":"uint64"}],"outputs":[{"name":"","type":"bool","internalType":"bool"}],"stateMutability":"view"},{"type":"function","name":"isSupportedToken","inputs":[{"name":"token","type":"address","internalType":"address"}],"outputs":[{"name":"","type":"bool","internalType":"bool"}],"stateMutability":"view"},{"type":"function","name":"lockOrBurn","inputs":[{"name":"lockOrBurnIn","type":"tuple","internalType":"struct Pool.LockOrBurnInV1","components":[{"name":"receiver","type":"bytes","internalType":"bytes"},{"name":"remoteChainSelector","type":"uint64","internalType":"uint64"},{"name":"originalSender","type":"address","internalType":"address"},{"name":"amount","type":"uint256","internalType":"uint256"},{"name":"localToken","type":"address","internalType":"address"}]}],"outputs":[{"name":"","type":"tuple","internalType":"struct Pool.LockOrBurnOutV1","components":[{"name":"destTokenAddress","type":"bytes","internalType":"bytes"},{"name":"destPoolData","type":"bytes","internalType":"bytes"}]}],"stateMutability":"nonpayable"},{"type":"function","name":"owner","inputs":[],"outputs":[{"name":"","type":"address","internalType":"address"}],"stateMutability":"view"},{"type":"function","name":"provideLiquidity","inputs":[{"name":"amount","type":"uint256","internalType":"uint256"}],"outputs":[],"stateMutability":"nonpayable"},{"type":"function","name":"releaseOrMint","inputs":[{"name":"releaseOrMintIn","type":"tuple","internalType":"struct Pool.ReleaseOrMintInV1","components":[{"name":"originalSender","type":"bytes","internalType":"bytes"},{"name":"remoteChainSelector","type":"uint64","internalType":"uint64"},{"name":"receiver","type":"address","internalType":"address"},{"name":"amount","type":"uint256","internalType":"uint256"},{"name":"localToken","type":"address","internalType":"address"},{"name":"sourcePoolAddress","type":"bytes","internalType":"bytes"},{"name":"sourcePoolData","type":"bytes","internalType":"bytes"},{"name":"offchainTokenData","type":"bytes","internalType":"bytes"}]}],"outputs":[{"name":"","type":"tuple","internalType":"struct Pool.ReleaseOrMintOutV1","components":[{"name":"destinationAmount","type":"uint256","internalType":"uint256"}]}],"stateMutability":"nonpayable"},{"type":"function","name":"removeRemotePool","inputs":[{"name":"remoteChainSelector","type":"uint64","internalType":"uint64"},{"name":"remotePoolAddress","type":"bytes","internalType":"bytes"}],"outputs":[],"stateMutability":"nonpayable"},{"type":"function","name":"setChainRateLimiterConfig","inputs":[{"name":"remoteChainSelector","type":"uint64","internalType":"uint64"},{"name":"outboundConfig","type":"tuple","internalType":"struct RateLimiter.Config","components":[{"name":"isEnabled","type":"bool","internalType":"bool"},{"name":"capacity","type":"uint128","internalType":"uint128"},{"name":"rate","type":"uint128","internalType":"uint128"}]},{"name":"inboundConfig","type":"tuple","internalType":"struct RateLimiter.Config","components":[{"name":"isEnabled","type":"bool","internalType":"bool"},{"name":"capacity","type":"uint128","internalType":"uint128"},{"name":"rate","type":"uint128","internalType":"uint128"}]}],"outputs":[],"stateMutability":"nonpayable"},{"type":"function","name":"setChainRateLimiterConfigs","inputs":[{"name":"remoteChainSelectors","type":"uint64[]","internalType":"uint64[]"},{"name":"outboundConfigs","type":"tuple[]","internalType":"struct RateLimiter.Config[]","components":[{"name":"isEnabled","type":"bool","internalType":"bool"},{"name":"capacity","type":"uint128","internalType":"uint128"},{"name":"rate","type":"uint128","internalType":"uint128"}]},{"name":"inboundConfigs","type":"tuple[]","internalType":"struct RateLimiter.Config[]","components":[{"name":"isEnabled","type":"bool","internalType":"bool"},{"name":"capacity","type":"uint128","internalType":"uint128"},{"name":"rate","type":"uint128","internalType":"uint128"}]}],"outputs":[],"stateMutability":"nonpayable"},{"type":"function","name":"setRateLimitAdmin","inputs":[{"name":"rateLimitAdmin","type":"address","internalType":"address"}],"outputs":[],"stateMutability":"nonpayable"},{"type":"function","name":"setRebalancer","inputs":[{"name":"rebalancer","type":"address","internalType":"address"}],"outputs":[],"stateMutability":"nonpayable"},{"type":"function","name":"setRouter","inputs":[{"name":"newRouter","type":"address","internalType":"address"}],"outputs":[],"stateMutability":"nonpayable"},{"type":"function","name":"supportsInterface","inputs":[{"name":"interfaceId","type":"bytes4","internalType":"bytes4"}],"outputs":[{"name":"","type":"bool","internalType":"bool"}],"stateMutability":"pure"},{"type":"function","name":"transferLiquidity","inputs":[{"name":"from","type":"address","internalType":"address"},{"name":"amount","type":"uint256","internalType":"uint256"}],"outputs":[],"stateMutability":"nonpayable"},{"type":"function","name":"transferOwnership","inputs":[{"name":"to","type":"address","internalType":"address"}],"outputs":[],"stateMutability":"nonpayable"},{"type":"function","name":"typeAndVersion","inputs":[],"outputs":[{"name":"","type":"string","internalType":"string"}],"stateMutability":"view"},{"type":"function","name":"withdrawLiquidity","inputs":[{"name":"amount","type":"uint256","internalType":"uint256"}],"outputs":[],"stateMutability":"nonpayable"},{"type":"event","name":"AllowListAdd","inputs":[{"name":"sender","type":"address","indexed":false,"internalType":"address"}],"anonymous":false},{"type":"event","name":"AllowListRemove","inputs":[{"name":"sender","type":"address","indexed":false,"internalType":"address"}],"anonymous":false},{"type":"event","name":"Burned","inputs":[{"name":"sender","type":"address","indexed":true,"internalType":"address"},{"name":"amount","type":"uint256","indexed":false,"internalType":"uint256"}],"anonymous":false},{"type":"event","name":"ChainAdded","inputs":[{"name":"remoteChainSelector","type":"uint64","indexed":false,"internalType":"uint64"},{"name":"remoteToken","type":"bytes","indexed":false,"internalType":"bytes"},{"name":"outboundRateLimiterConfig","type":"tuple","indexed":false,"internalType":"struct RateLimiter.Config","components":[{"name":"isEnabled","type":"bool","internalType":"bool"},{"name":"capacity","type":"uint128","internalType":"uint128"},{"name":"rate","type":"uint128","internalType":"uint128"}]},{"name":"inboundRateLimiterConfig","type":"tuple","indexed":false,"internalType":"struct RateLimiter.Config","components":[{"name":"isEnabled","type":"bool","internalType":"bool"},{"name":"capacity","type":"uint128","internalType":"uint128"},{"name":"rate","type":"uint128","internalType":"uint128"}]}],"anonymous":false},{"type":"event","name":"ChainConfigured","inputs":[{"name":"remoteChainSelector","type":"uint64","indexed":false,"internalType":"uint64"},{"name":"outboundRateLimiterConfig","type":"tuple","indexed":false,"internalType":"struct RateLimiter.Config","components":[{"name":"isEnabled","type":"bool","internalType":"bool"},{"name":"capacity","type":"uint128","internalType":"uint128"},{"name":"rate","type":"uint128","internalType":"uint128"}]},{"name":"inboundRateLimiterConfig","type":"tuple","indexed":false,"internalType":"struct RateLimiter.Config","components":[{"name":"isEnabled","type":"bool","internalType":"bool"},{"name":"capacity","type":"uint128","internalType":"uint128"},{"name":"rate","type":"uint128","internalType":"uint128"}]}],"anonymous":false},{"type":"event","name":"ChainRemoved","inputs":[{"name":"remoteChainSelector","type":"uint64","indexed":false,"internalType":"uint64"}],"anonymous":false},{"type":"event","name":"ConfigChanged","inputs":[{"name":"config","type":"tuple","indexed":false,"internalType":"struct RateLimiter.Config","components":[{"name":"isEnabled","type":"bool","internalType":"bool"},{"name":"capacity","type":"uint128","internalType":"uint128"},{"name":"rate","type":"uint128","internalType":"uint128"}]}],"anonymous":false},{"type":"event","name":"LiquidityAdded","inputs":[{"name":"provider","type":"address","indexed":true,"internalType":"address"},{"name":"amount","type":"uint256","indexed":true,"internalType":"uint256"}],"anonymous":false},{"type":"event","name":"LiquidityRemoved","inputs":[{"name":"provider","type":"address","indexed":true,"internalType":"address"},{"name":"amount","type":"uint256","indexed":true,"internalType":"uint256"}],"anonymous":false},{"type":"event","name":"LiquidityTransferred","inputs":[{"name":"from","type":"address","indexed":true,"internalType":"address"},{"name":"amount","type":"uint256","indexed":false,"internalType":"uint256"}],"anonymous":false},{"type":"event","name":"Locked","inputs":[{"name":"sender","type":"address","indexed":true,"internalType":"address"},{"name":"amount","type":"uint256","indexed":false,"internalType":"uint256"}],"anonymous":false},{"type":"event","name":"Minted","inputs":[{"name":"sender","type":"address","indexed":true,"internalType":"address"},{"name":"recipient","type":"address","indexed":true,"internalType":"address"},{"name":"amount","type":"uint256","indexed":false,"internalType":"uint256"}],"anonymous":false},{"type":"event","name":"OwnershipTransferRequested","inputs":[{"name":"from","type":"address","indexed":true,"internalType":"address"},{"name":"to","type":"address","indexed":true,"internalType":"address"}],"anonymous":false},{"type":"event","name":"OwnershipTransferred","inputs":[{"name":"from","type":"address","indexed":true,"internalType":"address"},{"name":"to","type":"address","indexed":true,"internalType":"address"}],"anonymous":false},{"type":"event","name":"RateLimitAdminSet","inputs":[{"name":"rateLimitAdmin","type":"address","indexed":false,"internalType":"address"}],"anonymous":false},{"type":"event","name":"Released","inputs":[{"name":"sender","type":"address","indexed":true,"internalType":"address"},{"name":"recipient","type":"address","indexed":true,"internalType":"address"},{"name":"amount","type":"uint256","indexed":false,"internalType":"uint256"}],"anonymous":false},{"type":"event","name":"RemotePoolAdded","inputs":[{"name":"remoteChainSelector","type":"uint64","indexed":true,"internalType":"uint64"},{"name":"remotePoolAddress","type":"bytes","indexed":false,"internalType":"bytes"}],"anonymous":false},{"type":"event","name":"RemotePoolRemoved","inputs":[{"name":"remoteChainSelector","type":"uint64","indexed":true,"internalType":"uint64"},{"name":"remotePoolAddress","type":"bytes","indexed":false,"internalType":"bytes"}],"anonymous":false},{"type":"event","name":"RouterUpdated","inputs":[{"name":"oldRouter","type":"address","indexed":false,"internalType":"address"},{"name":"newRouter","type":"address","indexed":false,"internalType":"address"}],"anonymous":false},{"type":"event","name":"TokensConsumed","inputs":[{"name":"tokens","type":"uint256","indexed":false,"internalType":"uint256"}],"anonymous":false},{"type":"error","name":"AggregateValueMaxCapacityExceeded","inputs":[{"name":"capacity","type":"uint256","internalType":"uint256"},{"name":"requested","type":"uint256","internalType":"uint256"}]},{"type":"error","name":"AggregateValueRateLimitReached","inputs":[{"name":"minWaitInSeconds","type":"uint256","internalType":"uint256"},{"name":"available","type":"uint256","internalType":"uint256"}]},{"type":"error","name":"AllowListNotEnabled","inputs":[]},{"type":"error","name":"BucketOverfilled","inputs":[]},{"type":"error","name":"CallerIsNotARampOnRouter","inputs":[{"name":"caller","type":"address","internalType":"address"}]},{"type":"error","name":"CannotTransferToSelf","inputs":[]},{"type":"error","name":"ChainAlreadyExists","inputs":[{"name":"chainSelector","type":"uint64","internalType":"uint64"}]},{"type":"error","name":"ChainNotAllowed","inputs":[{"name":"remoteChainSelector","type":"uint64","internalType":"uint64"}]},{"type":"error","name":"CursedByRMN","inputs":[]},{"type":"error","name":"DisabledNonZeroRateLimit","inputs":[{"name":"config","type":"tuple","internalType":"struct RateLimiter.Config","components":[{"name":"isEnabled","type":"bool","internalType":"bool"},{"name":"capacity","type":"uint128","internalType":"uint128"},{"name":"rate","type":"uint128","internalType":"uint128"}]}]},{"type":"error","name":"InsufficientLiquidity","inputs":[]},{"type":"error","name":"InvalidDecimalArgs","inputs":[{"name":"expected","type":"uint8","internalType":"uint8"},{"name":"actual","type":"uint8","internalType":"uint8"}]},{"type":"error","name":"InvalidRateLimitRate","inputs":[{"name":"rateLimiterConfig","type":"tuple","internalType":"struct RateLimiter.Config","components":[{"name":"isEnabled","type":"bool","internalType":"bool"},{"name":"capacity","type":"uint128","internalType":"uint128"},{"name":"rate","type":"uint128","internalType":"uint128"}]}]},{"type":"error","name":"InvalidRemoteChainDecimals","inputs":[{"name":"sourcePoolData","type":"bytes","internalType":"bytes"}]},{"type":"error","name":"InvalidRemotePoolForChain","inputs":[{"name":"remoteChainSelector","type":"uint64","internalType":"uint64"},{"name":"remotePoolAddress","type":"bytes","internalType":"bytes"}]},{"type":"error","name":"InvalidSourcePoolAddress","inputs":[{"name":"sourcePoolAddress","type":"bytes","internalType":"bytes"}]},{"type":"error","name":"InvalidToken","inputs":[{"name":"token","type":"address","internalType":"address"}]},{"type":"error","name":"LiquidityNotAccepted","inputs":[]},{"type":"error","name":"MismatchedArrayLengths","inputs":[]},{"type":"error","name":"MustBeProposedOwner","inputs":[]},{"type":"error","name":"NonExistentChain","inputs":[{"name":"remoteChainSelector","type":"uint64","internalType":"uint64"}]},{"type":"error","name":"OnlyCallableByOwner","inputs":[]},{"type":"error","name":"OverflowDetected","inputs":[{"name":"remoteDecimals","type":"uint8","internalType":"uint8"},{"name":"localDecimals","type":"uint8","internalType":"uint8"},{"name":"remoteAmount","type":"uint256","internalType":"uint256"}]},{"type":"error","name":"OwnerCannotBeZero","inputs":[]},{"type":"error","name":"PoolAlreadyAdded","inputs":[{"name":"remoteChainSelector","type":"uint64","internalType":"uint64"},{"name":"remotePoolAddress","type":"bytes","internalType":"bytes"}]},{"type":"error","name":"RateLimitMustBeDisabled","inputs":[]},{"type":"error","name":"SenderNotAllowed","inputs":[{"name":"sender","type":"address","internalType":"address"}]},{"type":"error","name":"TokenMaxCapacityExceeded","inputs":[{"name":"capacity","type":"uint256","internalType":"uint256"},{"name":"requested","type":"uint256","internalType":"uint256"},{"name":"tokenAddress","type":"address","internalType":"address"}]},{"type":"error","name":"TokenRateLimitReached","inputs":[{"name":"minWaitInSeconds","type":"uint256","internalType":"uint256"},{"name":"available","type":"uint256","internalType":"uint256"},{"name":"tokenAddress","type":"address","internalType":"address"}]},{"type":"error","name":"Unauthorized","inputs":[{"name":"caller","type":"address","internalType":"address"}]},{"type":"error","name":"ZeroAddressNotAllowed","inputs":[]}],"bytecode":{"object":"0x6101206040523480156200001257600080fd5b506040516200774b3803806200774b833981810160405281019062000038919062000bbd565b85858585843360008073ffffffffffffffffffffffffffffffffffffffff168273ffffffffffffffffffffffffffffffffffffffff1603620000a6576040517f9b15e16f00000000000000000000000000000000000000000000000000000000815260040160405180910390fd5b81600160006101000a81548173ffffffffffffffffffffffffffffffffffffffff021916908373ffffffffffffffffffffffffffffffffffffffff160217905550600073ffffffffffffffffffffffffffffffffffffffff168173ffffffffffffffffffffffffffffffffffffffff16146200012e576200012d816200041860201b60201c565b5b5050600073ffffffffffffffffffffffffffffffffffffffff168573ffffffffffffffffffffffffffffffffffffffff161480620001985750600073ffffffffffffffffffffffffffffffffffffffff168173ffffffffffffffffffffffffffffffffffffffff16145b80620001d05750600073ffffffffffffffffffffffffffffffffffffffff168273ffffffffffffffffffffffffffffffffffffffff16145b1562000208576040517f8579befe00000000000000000000000000000000000000000000000000000000815260040160405180910390fd5b8473ffffffffffffffffffffffffffffffffffffffff1660808173ffffffffffffffffffffffffffffffffffffffff16815250508173ffffffffffffffffffffffffffffffffffffffff1660c08173ffffffffffffffffffffffffffffffffffffffff16815250508473ffffffffffffffffffffffffffffffffffffffff1663313ce5676040518163ffffffff1660e01b8152600401602060405180830381865afa925050508015620002db57506040513d601f19601f82011682018060405250810190620002d8919062000c78565b60015b1562000332578060ff168560ff1614620003305784816040517f655a7c0e0000000000000000000000000000000000000000000000000000000081526004016200032792919062000cbb565b60405180910390fd5b505b8360ff1660a08160ff168152505080600460006101000a81548173ffffffffffffffffffffffffffffffffffffffff021916908373ffffffffffffffffffffffffffffffffffffffff1602179055506000835111151560e08115158152505060e05115620003fa57620003f9600067ffffffffffffffff811115620003bc57620003bb620009f0565b5b604051908082528060200260200182016040528015620003eb5781602001602082028036833780820191505090505b50846200053d60201b60201c565b5b50505050508115156101008115158152505050505050505062000de8565b3373ffffffffffffffffffffffffffffffffffffffff168173ffffffffffffffffffffffffffffffffffffffff16036200047e576040517fdad89dca00000000000000000000000000000000000000000000000000000000815260040160405180910390fd5b806000806101000a81548173ffffffffffffffffffffffffffffffffffffffff021916908373ffffffffffffffffffffffffffffffffffffffff1602179055508073ffffffffffffffffffffffffffffffffffffffff16600160009054906101000a900473ffffffffffffffffffffffffffffffffffffffff1673ffffffffffffffffffffffffffffffffffffffff167fed8889f560326eb138920d842192f0eb3dd22b4f139c87a2c57538e05bae127860405160405180910390a350565b60e05162000577576040517f35f4a7b300000000000000000000000000000000000000000000000000000000815260040160405180910390fd5b60005b8251811015620006095760008382815181106200059c576200059b62000ce8565b5b60200260200101519050620005bc816002620006de60201b90919060201c565b15620005fc577f800671136ab6cfee9fbe5ed1fb7ca417811aca3cf864800d127b927adedf756681604051620005f3919062000d28565b60405180910390a15b508060010190506200057a565b5060005b8151811015620006d95760008282815181106200062f576200062e62000ce8565b5b60200260200101519050600073ffffffffffffffffffffffffffffffffffffffff168173ffffffffffffffffffffffffffffffffffffffff1603620006755750620006cd565b6200068b8160026200071660201b90919060201c565b15620006cb577f2640d4d76caf8bf478aabfa982fa4e1c4eb71a37f93cd15e80dbc657911546d881604051620006c2919062000d28565b60405180910390a15b505b8060010190506200060d565b505050565b60006200070e836000018373ffffffffffffffffffffffffffffffffffffffff1660001b6200074e60201b60201c565b905092915050565b600062000746836000018373ffffffffffffffffffffffffffffffffffffffff1660001b6200087260201b60201c565b905092915050565b600080836001016000848152602001908152602001600020549050600081146200086657600060018262000783919062000d7e565b90506000600186600001805490506200079d919062000d7e565b905080821462000813576000866000018281548110620007c257620007c162000ce8565b5b9060005260206000200154905080876000018481548110620007e957620007e862000ce8565b5b90600052602060002001819055508387600101600083815260200190815260200160002081905550505b856000018054806200082a576200082962000db9565b5b6001900381819060005260206000200160009055905585600101600086815260200190815260200160002060009055600193505050506200086c565b60009150505b92915050565b6000620008868383620008ec60201b60201c565b620008e1578260000182908060018154018082558091505060019003906000526020600020016000909190919091505582600001805490508360010160008481526020019081526020016000208190555060019050620008e6565b600090505b92915050565b600080836001016000848152602001908152602001600020541415905092915050565b6000604051905090565b600080fd5b600080fd5b600073ffffffffffffffffffffffffffffffffffffffff82169050919050565b6000620009508262000923565b9050919050565b6000620009648262000943565b9050919050565b620009768162000957565b81146200098257600080fd5b50565b60008151905062000996816200096b565b92915050565b600060ff82169050919050565b620009b4816200099c565b8114620009c057600080fd5b50565b600081519050620009d481620009a9565b92915050565b600080fd5b6000601f19601f8301169050919050565b7f4e487b7100000000000000000000000000000000000000000000000000000000600052604160045260246000fd5b62000a2a82620009df565b810181811067ffffffffffffffff8211171562000a4c5762000a4b620009f0565b5b80604052505050565b600062000a616200090f565b905062000a6f828262000a1f565b919050565b600067ffffffffffffffff82111562000a925762000a91620009f0565b5b602082029050602081019050919050565b600080fd5b62000ab38162000943565b811462000abf57600080fd5b50565b60008151905062000ad38162000aa8565b92915050565b600062000af062000aea8462000a74565b62000a55565b9050808382526020820190506020840283018581111562000b165762000b1562000aa3565b5b835b8181101562000b43578062000b2e888262000ac2565b84526020840193505060208101905062000b18565b5050509392505050565b600082601f83011262000b655762000b64620009da565b5b815162000b7784826020860162000ad9565b91505092915050565b60008115159050919050565b62000b978162000b80565b811462000ba357600080fd5b50565b60008151905062000bb78162000b8c565b92915050565b60008060008060008060c0878903121562000bdd5762000bdc62000919565b5b600062000bed89828a0162000985565b965050602062000c0089828a01620009c3565b955050604087015167ffffffffffffffff81111562000c245762000c236200091e565b5b62000c3289828a0162000b4d565b945050606062000c4589828a0162000ac2565b935050608062000c5889828a0162000ba6565b92505060a062000c6b89828a0162000ac2565b9150509295509295509295565b60006020828403121562000c915762000c9062000919565b5b600062000ca184828501620009c3565b91505092915050565b62000cb5816200099c565b82525050565b600060408201905062000cd2600083018562000caa565b62000ce1602083018462000caa565b9392505050565b7f4e487b7100000000000000000000000000000000000000000000000000000000600052603260045260246000fd5b62000d228162000943565b82525050565b600060208201905062000d3f600083018462000d17565b92915050565b6000819050919050565b7f4e487b7100000000000000000000000000000000000000000000000000000000600052601160045260246000fd5b600062000d8b8262000d45565b915062000d988362000d45565b925082820390508181111562000db35762000db262000d4f565b5b92915050565b7f4e487b7100000000000000000000000000000000000000000000000000000000600052603160045260246000fd5b60805160a05160c05160e0516101005161689962000eb2600039600081816118640152612534015260008181611ce301528181612e280152613e28015260008181611cbb015281816128da015261329e015260008181610a0d01528181612a8e01528181612b6801528181612b9d01528181612bcd01528181612c0801528181612c8b01528181612d0601526133e90152600081816107ee015281816108c50152818161098d015281816109b50152818161262301528181613a98015261400301526168996000f3fe608060405234801561001057600080fd5b506004361061021c5760003560e01c8063962d402011610125578063c0d78655116100ad578063dc0bd9711161007c578063dc0bd9711461064f578063e0351e131461066d578063e8a1da171461068b578063eb521a4c146106a7578063f2fde38b146106c35761021c565b8063c0d78655146105c9578063c4bffe2b146105e5578063c75eea9c14610603578063cf7401f3146106335761021c565b8063acfecf91116100f4578063acfecf9114610511578063af58d59f1461052d578063b0f479a11461055d578063b79465801461057b578063bb98546b146105ab5761021c565b8063962d4020146104775780639a4575b914610493578063a42a7b8b146104c3578063a7cd63b7146104f35761021c565b806354c8a4f3116101a85780636d3d1a58116101775780636d3d1a58146103e557806379ba5097146104035780637d54534e1461040d5780638926f54f146104295780638da5cb5b146104595761021c565b806354c8a4f31461037557806362ddd3c41461039157806366320087146103ad5780636cfd1553146103c95761021c565b8063240028e8116101ef578063240028e8146102a957806324f65ee7146102d957806339077537146102f7578063432a6ba3146103275780634c5ef0ed146103455761021c565b806301ffc9a7146102215780630a861f2a14610251578063181f5a771461026d57806321df0da71461028b575b600080fd5b61023b600480360381019061023691906149ec565b6106df565b6040516102489190614a34565b60405180910390f35b61026b60048036038101906102669190614a85565b610759565b005b610275610950565b6040516102829190614b42565b60405180910390f35b610293610989565b6040516102a09190614be3565b60405180910390f35b6102c360048036038101906102be9190614c3c565b6109b1565b6040516102d09190614a34565b60405180910390f35b6102e1610a09565b6040516102ee9190614c85565b60405180910390f35b610311600480360381019061030c9190614cc5565b610a31565b60405161031e9190614d39565b60405180910390f35b61032f610b80565b60405161033c9190614d63565b60405180910390f35b61035f600480360381019061035a9190614e23565b610baa565b60405161036c9190614a34565b60405180910390f35b61038f600480360381019061038a9190614ed9565b610c08565b005b6103ab60048036038101906103a69190614e23565b610ca2565b005b6103c760048036038101906103c29190614f5a565b610d47565b005b6103e360048036038101906103de9190614c3c565b610e0c565b005b6103ed610e58565b6040516103fa9190614d63565b60405180910390f35b61040b610e82565b005b61042760048036038101906104229190614c3c565b61100d565b005b610443600480360381019061043e9190614f9a565b611090565b6040516104509190614a34565b60405180910390f35b6104616110b7565b60405161046e9190614d63565b60405180910390f35b610491600480360381019061048c9190615073565b6110e1565b005b6104ad60048036038101906104a89190615146565b6112aa565b6040516104ba9190615228565b60405180910390f35b6104dd60048036038101906104d89190614f9a565b61134a565b6040516104ea919061530c565b60405180910390f35b6104fb6114cb565b60405161050891906153ec565b60405180910390f35b61052b60048036038101906105269190614e23565b6114dc565b005b61054760048036038101906105429190614f9a565b61160f565b60405161055491906154cf565b60405180910390f35b61056561177a565b6040516105729190614d63565b60405180910390f35b61059560048036038101906105909190614f9a565b6117a4565b6040516105a29190615534565b60405180910390f35b6105b3611860565b6040516105c09190614a34565b60405180910390f35b6105e360048036038101906105de9190614c3c565b611888565b005b6105ed61199b565b6040516105fa9190615614565b60405180910390f35b61061d60048036038101906106189190614f9a565b611a69565b60405161062a91906154cf565b60405180910390f35b61064d60048036038101906106489190615777565b611bd4565b005b610657611cb7565b6040516106649190614d63565b60405180910390f35b610675611cdf565b6040516106829190614a34565b60405180910390f35b6106a560048036038101906106a09190615820565b611d07565b005b6106c160048036038101906106bc9190614a85565b612532565b005b6106dd60048036038101906106d89190614c3c565b6126af565b005b60007fe1d40566000000000000000000000000000000000000000000000000000000007bffffffffffffffffffffffffffffffffffffffffffffffffffffffff1916827bffffffffffffffffffffffffffffffffffffffffffffffffffffffff191614806107525750610751826126c3565b5b9050919050565b3373ffffffffffffffffffffffffffffffffffffffff16600a60009054906101000a900473ffffffffffffffffffffffffffffffffffffffff1673ffffffffffffffffffffffffffffffffffffffff16146107eb57336040517f8e4a23d60000000000000000000000000000000000000000000000000000000081526004016107e29190614d63565b60405180910390fd5b807f000000000000000000000000000000000000000000000000000000000000000073ffffffffffffffffffffffffffffffffffffffff166370a08231306040518263ffffffff1660e01b81526004016108459190614d63565b602060405180830381865afa158015610862573d6000803e3d6000fd5b505050506040513d601f19601f8201168201806040525081019061088691906158b6565b10156108be576040517fbb55fd2700000000000000000000000000000000000000000000000000000000815260040160405180910390fd5b61090933827f000000000000000000000000000000000000000000000000000000000000000073ffffffffffffffffffffffffffffffffffffffff166127e49092919063ffffffff16565b803373ffffffffffffffffffffffffffffffffffffffff167fc2c3f06e49b9f15e7b4af9055e183b0d73362e033ad82a07dec9bf984017171960405160405180910390a350565b6040518060400160405280601a81526020017f4c6f636b52656c65617365546f6b656e506f6f6c20312e352e3100000000000081525081565b60007f0000000000000000000000000000000000000000000000000000000000000000905090565b60007f000000000000000000000000000000000000000000000000000000000000000073ffffffffffffffffffffffffffffffffffffffff168273ffffffffffffffffffffffffffffffffffffffff16149050919050565b60007f0000000000000000000000000000000000000000000000000000000000000000905090565b610a3961484b565b610a428261286a565b6000610aac8360600135610aa7858060c00190610a5f91906158f2565b8080601f016020809104026020016040519081016040528093929190818152602001838380828437600081840152601f19601f82011690508083019250505050505050612a82565b612b64565b9050610af2836040016020810190610ac49190614c3c565b82610acd610989565b73ffffffffffffffffffffffffffffffffffffffff166127e49092919063ffffffff16565b826040016020810190610b059190614c3c565b73ffffffffffffffffffffffffffffffffffffffff163373ffffffffffffffffffffffffffffffffffffffff167f2d87480f50083e2b2759522a8fdda59802650a8055e609a7772cf70c07748f5283604051610b619190615964565b60405180910390a3604051806020016040528082815250915050919050565b6000600a60009054906101000a900473ffffffffffffffffffffffffffffffffffffffff16905090565b6000610bff8383604051610bbf9291906159be565b6040518091039020600760008767ffffffffffffffff1667ffffffffffffffff168152602001908152602001600020600501612d8690919063ffffffff16565b90509392505050565b610c10612d9d565b610c9c848480806020026020016040519081016040528093929190818152602001838360200280828437600081840152601f19601f82011690508083019250505050505050838380806020026020016040519081016040528093929190818152602001838360200280828437600081840152601f19601f82011690508083019250505050505050612e26565b50505050565b610caa612d9d565b610cb383611090565b610cf457826040517f1e670e4b000000000000000000000000000000000000000000000000000000008152600401610ceb91906159e6565b60405180910390fd5b610d428383838080601f016020809104026020016040519081016040528093929190818152602001838380828437600081840152601f19601f82011690508083019250505050505050612fce565b505050565b610d4f612d9d565b8173ffffffffffffffffffffffffffffffffffffffff16630a861f2a826040518263ffffffff1660e01b8152600401610d889190615964565b600060405180830381600087803b158015610da257600080fd5b505af1158015610db6573d6000803e3d6000fd5b505050508173ffffffffffffffffffffffffffffffffffffffff167f6fa7abcf1345d1d478e5ea0da6b5f26a90eadb0546ef15ed3833944fbfd1db6282604051610e009190615964565b60405180910390a25050565b610e14612d9d565b80600a60006101000a81548173ffffffffffffffffffffffffffffffffffffffff021916908373ffffffffffffffffffffffffffffffffffffffff16021790555050565b6000600960009054906101000a900473ffffffffffffffffffffffffffffffffffffffff16905090565b60008054906101000a900473ffffffffffffffffffffffffffffffffffffffff1673ffffffffffffffffffffffffffffffffffffffff163373ffffffffffffffffffffffffffffffffffffffff1614610f07576040517f02b543c600000000000000000000000000000000000000000000000000000000815260040160405180910390fd5b6000600160009054906101000a900473ffffffffffffffffffffffffffffffffffffffff16905033600160006101000a81548173ffffffffffffffffffffffffffffffffffffffff021916908373ffffffffffffffffffffffffffffffffffffffff16021790555060008060006101000a81548173ffffffffffffffffffffffffffffffffffffffff021916908373ffffffffffffffffffffffffffffffffffffffff1602179055503373ffffffffffffffffffffffffffffffffffffffff168173ffffffffffffffffffffffffffffffffffffffff167f8be0079c531659141344cd1fd0a4f28419497f9722a3daafe3b4186f6b6457e060405160405180910390a350565b611015612d9d565b80600960006101000a81548173ffffffffffffffffffffffffffffffffffffffff021916908373ffffffffffffffffffffffffffffffffffffffff1602179055507f44676b5284b809a22248eba0da87391d79098be38bb03154be88a58bf4d09174816040516110859190614d63565b60405180910390a150565b60006110b08267ffffffffffffffff1660056130fc90919063ffffffff16565b9050919050565b6000600160009054906101000a900473ffffffffffffffffffffffffffffffffffffffff16905090565b600960009054906101000a900473ffffffffffffffffffffffffffffffffffffffff1673ffffffffffffffffffffffffffffffffffffffff163373ffffffffffffffffffffffffffffffffffffffff161415801561117257506111426110b7565b73ffffffffffffffffffffffffffffffffffffffff163373ffffffffffffffffffffffffffffffffffffffff1614155b156111b457336040517f8e4a23d60000000000000000000000000000000000000000000000000000000081526004016111ab9190614d63565b60405180910390fd5b83839050868690501415806111cf5750818190508686905014155b15611206576040517f568efce200000000000000000000000000000000000000000000000000000000815260040160405180910390fd5b60005b868690508110156112a15761129687878381811061122a57611229615a01565b5b905060200201602081019061123f9190614f9a565b86868481811061125257611251615a01565b5b9050606002018036038101906112689190615a30565b85858581811061127b5761127a615a01565b5b9050606002018036038101906112919190615a30565b613116565b806001019050611209565b50505050505050565b6112b261485e565b6112bb8261322e565b3373ffffffffffffffffffffffffffffffffffffffff167f9f1ec8c880f76798e7b793325d625e9b60e4082a553c98f42b6cda368dd6000883606001356040516113059190615964565b60405180910390a2604051806040016040528061133384602001602081019061132e9190614f9a565b6117a4565b81526020016113406133e5565b8152509050919050565b60606000611380600760008567ffffffffffffffff1667ffffffffffffffff16815260200190815260200160002060050161342c565b90506000815167ffffffffffffffff81111561139f5761139e61563b565b5b6040519080825280602002602001820160405280156113d257816020015b60608152602001906001900390816113bd5790505b50905060005b82518110156114c057600860008483815181106113f8576113f7615a01565b5b60200260200101518152602001908152602001600020805461141990615a8c565b80601f016020809104026020016040519081016040528092919081815260200182805461144590615a8c565b80156114925780601f1061146757610100808354040283529160200191611492565b820191906000526020600020905b81548152906001019060200180831161147557829003601f168201915b50505050508282815181106114aa576114a9615a01565b5b60200260200101819052508060010190506113d8565b508092505050919050565b60606114d7600261344d565b905090565b6114e4612d9d565b6114ed83611090565b61152e57826040517f1e670e4b00000000000000000000000000000000000000000000000000000000815260040161152591906159e6565b60405180910390fd5b61158182826040516115419291906159be565b6040518091039020600760008667ffffffffffffffff1667ffffffffffffffff16815260200190815260200160002060050161346e90919063ffffffff16565b6115c6578282826040517f74f23c7c0000000000000000000000000000000000000000000000000000000081526004016115bd93929190615aea565b60405180910390fd5b8267ffffffffffffffff167f52d00ee4d9bd51b40168f2afc5848837288ce258784ad914278791464b3f4d768383604051611602929190615b1c565b60405180910390a2505050565b611617614878565b611773600760008467ffffffffffffffff1667ffffffffffffffff1681526020019081526020016000206002016040518060a00160405290816000820160009054906101000a90046fffffffffffffffffffffffffffffffff166fffffffffffffffffffffffffffffffff166fffffffffffffffffffffffffffffffff1681526020016000820160109054906101000a900463ffffffff1663ffffffff1663ffffffff1681526020016000820160149054906101000a900460ff161515151581526020016001820160009054906101000a90046fffffffffffffffffffffffffffffffff166fffffffffffffffffffffffffffffffff166fffffffffffffffffffffffffffffffff1681526020016001820160109054906101000a90046fffffffffffffffffffffffffffffffff166fffffffffffffffffffffffffffffffff166fffffffffffffffffffffffffffffffff1681525050613485565b9050919050565b6000600460009054906101000a900473ffffffffffffffffffffffffffffffffffffffff16905090565b6060600760008367ffffffffffffffff1667ffffffffffffffff16815260200190815260200160002060040180546117db90615a8c565b80601f016020809104026020016040519081016040528092919081815260200182805461180790615a8c565b80156118545780601f1061182957610100808354040283529160200191611854565b820191906000526020600020905b81548152906001019060200180831161183757829003601f168201915b50505050509050919050565b60007f0000000000000000000000000000000000000000000000000000000000000000905090565b611890612d9d565b600073ffffffffffffffffffffffffffffffffffffffff168173ffffffffffffffffffffffffffffffffffffffff16036118f6576040517f8579befe00000000000000000000000000000000000000000000000000000000815260040160405180910390fd5b6000600460009054906101000a900473ffffffffffffffffffffffffffffffffffffffff16905081600460006101000a81548173ffffffffffffffffffffffffffffffffffffffff021916908373ffffffffffffffffffffffffffffffffffffffff1602179055507f02dc5c233404867c793b749c6d644beb2277536d18a7e7974d3f238e4c6f1684818360405161198f929190615b40565b60405180910390a15050565b606060006119a9600561353f565b90506000815167ffffffffffffffff8111156119c8576119c761563b565b5b6040519080825280602002602001820160405280156119f65781602001602082028036833780820191505090505b50905060005b8251811015611a6057828181518110611a1857611a17615a01565b5b6020026020010151828281518110611a3357611a32615a01565b5b602002602001019067ffffffffffffffff16908167ffffffffffffffff16815250508060010190506119fc565b50809250505090565b611a71614878565b611bcd600760008467ffffffffffffffff1667ffffffffffffffff1681526020019081526020016000206000016040518060a00160405290816000820160009054906101000a90046fffffffffffffffffffffffffffffffff166fffffffffffffffffffffffffffffffff166fffffffffffffffffffffffffffffffff1681526020016000820160109054906101000a900463ffffffff1663ffffffff1663ffffffff1681526020016000820160149054906101000a900460ff161515151581526020016001820160009054906101000a90046fffffffffffffffffffffffffffffffff166fffffffffffffffffffffffffffffffff166fffffffffffffffffffffffffffffffff1681526020016001820160109054906101000a90046fffffffffffffffffffffffffffffffff166fffffffffffffffffffffffffffffffff166fffffffffffffffffffffffffffffffff1681525050613485565b9050919050565b600960009054906101000a900473ffffffffffffffffffffffffffffffffffffffff1673ffffffffffffffffffffffffffffffffffffffff163373ffffffffffffffffffffffffffffffffffffffff1614158015611c655750611c356110b7565b73ffffffffffffffffffffffffffffffffffffffff163373ffffffffffffffffffffffffffffffffffffffff1614155b15611ca757336040517f8e4a23d6000000000000000000000000000000000000000000000000000000008152600401611c9e9190614d63565b60405180910390fd5b611cb2838383613116565b505050565b60007f0000000000000000000000000000000000000000000000000000000000000000905090565b60007f0000000000000000000000000000000000000000000000000000000000000000905090565b611d0f612d9d565b60005b8484905081101561201f576000858583818110611d3257611d31615a01565b5b9050602002016020810190611d479190614f9a565b9050611d678167ffffffffffffffff16600561356090919063ffffffff16565b611da857806040517f1e670e4b000000000000000000000000000000000000000000000000000000008152600401611d9f91906159e6565b60405180910390fd5b6000611ddc600760008467ffffffffffffffff1667ffffffffffffffff16815260200190815260200160002060050161342c565b905060005b8151811015611e4c57611e40828281518110611e0057611dff615a01565b5b6020026020010151600760008667ffffffffffffffff1667ffffffffffffffff16815260200190815260200160002060050161346e90919063ffffffff16565b50806001019050611de1565b50600760008367ffffffffffffffff1667ffffffffffffffff1681526020019081526020016000206000808201600080820160006101000a8154906fffffffffffffffffffffffffffffffff02191690556000820160106101000a81549063ffffffff02191690556000820160146101000a81549060ff02191690556001820160006101000a8154906fffffffffffffffffffffffffffffffff02191690556001820160106101000a8154906fffffffffffffffffffffffffffffffff0219169055505060028201600080820160006101000a8154906fffffffffffffffffffffffffffffffff02191690556000820160106101000a81549063ffffffff02191690556000820160146101000a81549060ff02191690556001820160006101000a8154906fffffffffffffffffffffffffffffffff02191690556001820160106101000a8154906fffffffffffffffffffffffffffffffff02191690555050600482016000611fbb91906148e5565b60058201600080820160008082016000611fd59190614925565b5050505050507f5204aec90a3c794d8e90fded8b46ae9c7c552803e7e832e0c1d358396d8599168260405161200a91906159e6565b60405180910390a15050806001019050611d12565b5060005b8282905081101561252b57600083838381811061204357612042615a01565b5b90506020028101906120559190615b69565b61205e90615dde565b905061206f8160600151600061357a565b61207e8160800151600061357a565b6000816040015151036120bd576040517f8579befe00000000000000000000000000000000000000000000000000000000815260040160405180910390fd5b6120df816000015167ffffffffffffffff1660056136d890919063ffffffff16565b6121245780600001516040517f1d5ad3c500000000000000000000000000000000000000000000000000000000815260040161211b91906159e6565b60405180910390fd5b600060076000836000015167ffffffffffffffff1667ffffffffffffffff16815260200190815260200160002090506040518060a001604052808360600151602001516fffffffffffffffffffffffffffffffff1681526020014263ffffffff168152602001836060015160000151151581526020018360600151602001516fffffffffffffffffffffffffffffffff1681526020018360600151604001516fffffffffffffffffffffffffffffffff168152508160000160008201518160000160006101000a8154816fffffffffffffffffffffffffffffffff02191690836fffffffffffffffffffffffffffffffff16021790555060208201518160000160106101000a81548163ffffffff021916908363ffffffff16021790555060408201518160000160146101000a81548160ff02191690831515021790555060608201518160010160006101000a8154816fffffffffffffffffffffffffffffffff02191690836fffffffffffffffffffffffffffffffff16021790555060808201518160010160106101000a8154816fffffffffffffffffffffffffffffffff02191690836fffffffffffffffffffffffffffffffff1602179055509050506040518060a001604052808360800151602001516fffffffffffffffffffffffffffffffff1681526020014263ffffffff168152602001836080015160000151151581526020018360800151602001516fffffffffffffffffffffffffffffffff1681526020018360800151604001516fffffffffffffffffffffffffffffffff168152508160020160008201518160000160006101000a8154816fffffffffffffffffffffffffffffffff02191690836fffffffffffffffffffffffffffffffff16021790555060208201518160000160106101000a81548163ffffffff021916908363ffffffff16021790555060408201518160000160146101000a81548160ff02191690831515021790555060608201518160010160006101000a8154816fffffffffffffffffffffffffffffffff02191690836fffffffffffffffffffffffffffffffff16021790555060808201518160010160106101000a8154816fffffffffffffffffffffffffffffffff02191690836fffffffffffffffffffffffffffffffff16021790555090505081604001518160040190816124889190615f93565b5060005b8260200151518110156124d0576124c58360000151846020015183815181106124b8576124b7615a01565b5b6020026020010151612fce565b80600101905061248c565b507f8d340f17e19058004c20453540862a9c62778504476f6756755cb33bcd6c38c2826000015183604001518460600151856080015160405161251694939291906160a7565b60405180910390a15050806001019050612023565b5050505050565b7f0000000000000000000000000000000000000000000000000000000000000000612589576040517fe93f8fa400000000000000000000000000000000000000000000000000000000815260040160405180910390fd5b3373ffffffffffffffffffffffffffffffffffffffff16600a60009054906101000a900473ffffffffffffffffffffffffffffffffffffffff1673ffffffffffffffffffffffffffffffffffffffff161461261b57336040517f8e4a23d60000000000000000000000000000000000000000000000000000000081526004016126129190614d63565b60405180910390fd5b6126683330837f000000000000000000000000000000000000000000000000000000000000000073ffffffffffffffffffffffffffffffffffffffff166136f2909392919063ffffffff16565b803373ffffffffffffffffffffffffffffffffffffffff167fc17cea59c2955cb181b03393209566960365771dbba9dc3d510180e7cb31208860405160405180910390a350565b6126b7612d9d565b6126c08161377b565b50565b600063aff2afbf60e01b7bffffffffffffffffffffffffffffffffffffffffffffffffffffffff1916827bffffffffffffffffffffffffffffffffffffffffffffffffffffffff1916148061277557507f0e64dd29000000000000000000000000000000000000000000000000000000007bffffffffffffffffffffffffffffffffffffffffffffffffffffffff1916827bffffffffffffffffffffffffffffffffffffffffffffffffffffffff1916145b806127dd57507f01ffc9a7000000000000000000000000000000000000000000000000000000007bffffffffffffffffffffffffffffffffffffffffffffffffffffffff1916827bffffffffffffffffffffffffffffffffffffffffffffffffffffffff1916145b9050919050565b6128658363a9059cbb60e01b84846040516024016128039291906160f4565b604051602081830303815290604052907bffffffffffffffffffffffffffffffffffffffffffffffffffffffff19166020820180517bffffffffffffffffffffffffffffffffffffffffffffffffffffffff838183161783525050505061389f565b505050565b6128858160800160208101906128809190614c3c565b6109b1565b6128d85780608001602081019061289c9190614c3c565b6040517f961c9a4f0000000000000000000000000000000000000000000000000000000081526004016128cf9190614d63565b60405180910390fd5b7f000000000000000000000000000000000000000000000000000000000000000073ffffffffffffffffffffffffffffffffffffffff16632cbc26bb8260200160208101906129279190614f9a565b67ffffffffffffffff1660801b6040518263ffffffff1660e01b81526004016129509190616158565b602060405180830381865afa15801561296d573d6000803e3d6000fd5b505050506040513d601f19601f820116820180604052508101906129919190616188565b156129c8576040517f53ad11d800000000000000000000000000000000000000000000000000000000815260040160405180910390fd5b6129e38160200160208101906129de9190614f9a565b613966565b612a0e8160200160208101906129f99190614f9a565b828060a00190612a0991906158f2565b610baa565b612a5f57808060a00190612a2291906158f2565b6040517f24eb47e5000000000000000000000000000000000000000000000000000000008152600401612a56929190615b1c565b60405180910390fd5b612a7f816020016020810190612a759190614f9a565b8260600135613a92565b50565b600080825103612ab4577f00000000000000000000000000000000000000000000000000000000000000009050612b5f565b6020825114612afa57816040517f953576f7000000000000000000000000000000000000000000000000000000008152600401612af19190615534565b60405180910390fd5b600082806020019051810190612b1091906158b6565b905060ff8016811115612b5a57826040517f953576f7000000000000000000000000000000000000000000000000000000008152600401612b519190615534565b60405180910390fd5b809150505b919050565b60007f000000000000000000000000000000000000000000000000000000000000000060ff168260ff1603612b9b57829050612d80565b7f000000000000000000000000000000000000000000000000000000000000000060ff168260ff161115612c865760007f000000000000000000000000000000000000000000000000000000000000000083612bf791906161e4565b9050604d8160ff161115612c6657827f0000000000000000000000000000000000000000000000000000000000000000856040517fa9cb113d000000000000000000000000000000000000000000000000000000008152600401612c5d93929190616219565b60405180910390fd5b80600a612c739190616383565b84612c7e91906163fd565b915050612d80565b6000827f0000000000000000000000000000000000000000000000000000000000000000612cb491906161e4565b9050604d8160ff161180612cfe575080600a612cd09190616383565b7fffffffffffffffffffffffffffffffffffffffffffffffffffffffffffffffff612cfb91906163fd565b84115b15612d6457827f0000000000000000000000000000000000000000000000000000000000000000856040517fa9cb113d000000000000000000000000000000000000000000000000000000008152600401612d5b93929190616219565b60405180910390fd5b80600a612d719190616383565b84612d7c919061642e565b9150505b92915050565b6000612d958360000183613af4565b905092915050565b600160009054906101000a900473ffffffffffffffffffffffffffffffffffffffff1673ffffffffffffffffffffffffffffffffffffffff163373ffffffffffffffffffffffffffffffffffffffff1614612e24576040517f2b5c74de00000000000000000000000000000000000000000000000000000000815260040160405180910390fd5b565b7f0000000000000000000000000000000000000000000000000000000000000000612e7d576040517f35f4a7b300000000000000000000000000000000000000000000000000000000815260040160405180910390fd5b60005b8251811015612f05576000838281518110612e9e57612e9d615a01565b5b60200260200101519050612ebc816002613b1790919063ffffffff16565b15612ef9577f800671136ab6cfee9fbe5ed1fb7ca417811aca3cf864800d127b927adedf756681604051612ef09190614d63565b60405180910390a15b50806001019050612e80565b5060005b8151811015612fc9576000828281518110612f2757612f26615a01565b5b60200260200101519050600073ffffffffffffffffffffffffffffffffffffffff168173ffffffffffffffffffffffffffffffffffffffff1603612f6b5750612fbe565b612f7f816002613b4790919063ffffffff16565b15612fbc577f2640d4d76caf8bf478aabfa982fa4e1c4eb71a37f93cd15e80dbc657911546d881604051612fb39190614d63565b60405180910390a15b505b806001019050612f09565b505050565b6000815103613009576040517f8579befe00000000000000000000000000000000000000000000000000000000815260040160405180910390fd5b60008180519060200120905061305181600760008667ffffffffffffffff1667ffffffffffffffff168152602001908152602001600020600501613b7790919063ffffffff16565b6130945782826040517f393b8ad200000000000000000000000000000000000000000000000000000000815260040161308b929190616470565b60405180910390fd5b816008600083815260200190815260200160002090816130b49190615f93565b508267ffffffffffffffff167f7d628c9a1796743d365ab521a8b2a4686e419b3269919dc9145ea2ce853b54ea836040516130ef9190615534565b60405180910390a2505050565b600061310e836000018360001b613af4565b905092915050565b61311f83611090565b61316057826040517f1e670e4b00000000000000000000000000000000000000000000000000000000815260040161315791906159e6565b60405180910390fd5b61316b82600061357a565b6131a782600760008667ffffffffffffffff1667ffffffffffffffff168152602001908152602001600020600001613b8e90919063ffffffff16565b6131b281600061357a565b6131ee81600760008667ffffffffffffffff1667ffffffffffffffff168152602001908152602001600020600201613b8e90919063ffffffff16565b7f0350d63aa5f270e01729d00d627eeb8f3429772b1818c016c66a588a864f912b838383604051613221939291906164a0565b60405180910390a1505050565b6132498160800160208101906132449190614c3c565b6109b1565b61329c578060800160208101906132609190614c3c565b6040517f961c9a4f0000000000000000000000000000000000000000000000000000000081526004016132939190614d63565b60405180910390fd5b7f000000000000000000000000000000000000000000000000000000000000000073ffffffffffffffffffffffffffffffffffffffff16632cbc26bb8260200160208101906132eb9190614f9a565b67ffffffffffffffff1660801b6040518263ffffffff1660e01b81526004016133149190616158565b602060405180830381865afa158015613331573d6000803e3d6000fd5b505050506040513d601f19601f820116820180604052508101906133559190616188565b1561338c576040517f53ad11d800000000000000000000000000000000000000000000000000000000815260040160405180910390fd5b6133a78160400160208101906133a29190614c3c565b613e26565b6133c28160200160208101906133bd9190614f9a565b613ea5565b6133e28160200160208101906133d89190614f9a565b8260600135613ffd565b50565b60607f00000000000000000000000000000000000000000000000000000000000000006040516020016134189190614c85565b604051602081830303815290604052905090565b6060600061343c8360000161405f565b905060608190508092505050919050565b6060600061345d8360000161405f565b905060608190508092505050919050565b600061347d83600001836140bb565b905092915050565b61348d614878565b6134f082606001516fffffffffffffffffffffffffffffffff1683600001516fffffffffffffffffffffffffffffffff16846020015163ffffffff16426134d491906164d7565b85608001516fffffffffffffffffffffffffffffffff166141cf565b82600001906fffffffffffffffffffffffffffffffff1690816fffffffffffffffffffffffffffffffff168152505042826020019063ffffffff16908163ffffffff1681525050819050919050565b6060600061354f8360000161405f565b905060608190508092505050919050565b6000613572836000018360001b6140bb565b905092915050565b8160000151156136545781602001516fffffffffffffffffffffffffffffffff1682604001516fffffffffffffffffffffffffffffffff161015806135d55750600082604001516fffffffffffffffffffffffffffffffff16145b1561361757816040517f8020d12400000000000000000000000000000000000000000000000000000000815260040161360e919061650b565b60405180910390fd5b801561364f576040517f433fc33d00000000000000000000000000000000000000000000000000000000815260040160405180910390fd5b6136d4565b600082604001516fffffffffffffffffffffffffffffffff161415806136915750600082602001516fffffffffffffffffffffffffffffffff1614155b156136d357816040517fd68af9cc0000000000000000000000000000000000000000000000000000000081526004016136ca919061650b565b60405180910390fd5b5b5050565b60006136ea836000018360001b6141fb565b905092915050565b613775846323b872dd60e01b85858560405160240161371393929190616526565b604051602081830303815290604052907bffffffffffffffffffffffffffffffffffffffffffffffffffffffff19166020820180517bffffffffffffffffffffffffffffffffffffffffffffffffffffffff838183161783525050505061389f565b50505050565b3373ffffffffffffffffffffffffffffffffffffffff168173ffffffffffffffffffffffffffffffffffffffff16036137e0576040517fdad89dca00000000000000000000000000000000000000000000000000000000815260040160405180910390fd5b806000806101000a81548173ffffffffffffffffffffffffffffffffffffffff021916908373ffffffffffffffffffffffffffffffffffffffff1602179055508073ffffffffffffffffffffffffffffffffffffffff16600160009054906101000a900473ffffffffffffffffffffffffffffffffffffffff1673ffffffffffffffffffffffffffffffffffffffff167fed8889f560326eb138920d842192f0eb3dd22b4f139c87a2c57538e05bae127860405160405180910390a350565b6000613901826040518060400160405280602081526020017f5361666545524332303a206c6f772d6c6576656c2063616c6c206661696c65648152508573ffffffffffffffffffffffffffffffffffffffff1661426b9092919063ffffffff16565b905060008151111561396157808060200190518101906139219190616188565b613960576040517f08c379a0000000000000000000000000000000000000000000000000000000008152600401613957906165cf565b60405180910390fd5b5b505050565b61396f81611090565b6139b057806040517fa9902c7e0000000000000000000000000000000000000000000000000000000081526004016139a791906159e6565b60405180910390fd5b600460009054906101000a900473ffffffffffffffffffffffffffffffffffffffff1673ffffffffffffffffffffffffffffffffffffffff166383826b2b82336040518363ffffffff1660e01b8152600401613a0d9291906165ef565b602060405180830381865afa158015613a2a573d6000803e3d6000fd5b505050506040513d601f19601f82011682018060405250810190613a4e9190616188565b613a8f57336040517f728fe07b000000000000000000000000000000000000000000000000000000008152600401613a869190614d63565b60405180910390fd5b50565b613af0817f0000000000000000000000000000000000000000000000000000000000000000600760008667ffffffffffffffff1667ffffffffffffffff1681526020019081526020016000206002016142839092919063ffffffff16565b5050565b600080836001016000848152602001908152602001600020541415905092915050565b6000613b3f836000018373ffffffffffffffffffffffffffffffffffffffff1660001b6140bb565b905092915050565b6000613b6f836000018373ffffffffffffffffffffffffffffffffffffffff1660001b6141fb565b905092915050565b6000613b8683600001836141fb565b905092915050565b60008260000160109054906101000a900463ffffffff1663ffffffff1642613bb691906164d7565b905060008114613cc057613c628360010160009054906101000a90046fffffffffffffffffffffffffffffffff166fffffffffffffffffffffffffffffffff168460000160009054906101000a90046fffffffffffffffffffffffffffffffff166fffffffffffffffffffffffffffffffff16838660010160109054906101000a90046fffffffffffffffffffffffffffffffff166fffffffffffffffffffffffffffffffff166141cf565b8360000160006101000a8154816fffffffffffffffffffffffffffffffff02191690836fffffffffffffffffffffffffffffffff160217905550428360000160106101000a81548163ffffffff021916908363ffffffff1602179055505b613d1282602001516fffffffffffffffffffffffffffffffff168460000160009054906101000a90046fffffffffffffffffffffffffffffffff166fffffffffffffffffffffffffffffffff1661464d565b8360000160006101000a8154816fffffffffffffffffffffffffffffffff02191690836fffffffffffffffffffffffffffffffff16021790555081600001518360000160146101000a81548160ff02191690831515021790555081602001518360010160006101000a8154816fffffffffffffffffffffffffffffffff02191690836fffffffffffffffffffffffffffffffff16021790555081604001518360010160106101000a8154816fffffffffffffffffffffffffffffffff02191690836fffffffffffffffffffffffffffffffff1602179055507f9ea3374b67bf275e6bb9c8ae68f9cae023e1c528b4b27e092f0bb209d3531c1982604051613e19919061650b565b60405180910390a1505050565b7f000000000000000000000000000000000000000000000000000000000000000015613ea257613e6081600261466690919063ffffffff16565b613ea157806040517fd0d25976000000000000000000000000000000000000000000000000000000008152600401613e989190614d63565b60405180910390fd5b5b50565b613eae81611090565b613eef57806040517fa9902c7e000000000000000000000000000000000000000000000000000000008152600401613ee691906159e6565b60405180910390fd5b600460009054906101000a900473ffffffffffffffffffffffffffffffffffffffff1673ffffffffffffffffffffffffffffffffffffffff1663a8d87a3b826040518263ffffffff1660e01b8152600401613f4a91906159e6565b602060405180830381865afa158015613f67573d6000803e3d6000fd5b505050506040513d601f19601f82011682018060405250810190613f8b919061662d565b73ffffffffffffffffffffffffffffffffffffffff163373ffffffffffffffffffffffffffffffffffffffff1614613ffa57336040517f728fe07b000000000000000000000000000000000000000000000000000000008152600401613ff19190614d63565b60405180910390fd5b50565b61405b817f0000000000000000000000000000000000000000000000000000000000000000600760008667ffffffffffffffff1667ffffffffffffffff1681526020019081526020016000206000016142839092919063ffffffff16565b5050565b6060816000018054806020026020016040519081016040528092919081815260200182805480156140af57602002820191906000526020600020905b81548152602001906001019080831161409b575b50505050509050919050565b600080836001016000848152602001908152602001600020549050600081146141c35760006001826140ed91906164d7565b905060006001866000018054905061410591906164d7565b905080821461417457600086600001828154811061412657614125615a01565b5b906000526020600020015490508087600001848154811061414a57614149615a01565b5b90600052602060002001819055508387600101600083815260200190815260200160002081905550505b856000018054806141885761418761665a565b5b6001900381819060005260206000200160009055905585600101600086815260200190815260200160002060009055600193505050506141c9565b60009150505b92915050565b60006141f18583856141e1919061642e565b866141ec9190616689565b61464d565b9050949350505050565b60006142078383613af4565b614260578260000182908060018154018082558091505060019003906000526020600020016000909190919091505582600001805490508360010160008481526020019081526020016000208190555060019050614265565b600090505b92915050565b606061427a8484600085614696565b90509392505050565b8260000160149054906101000a900460ff1615806142a15750600082145b6146485760008360000160009054906101000a90046fffffffffffffffffffffffffffffffff166fffffffffffffffffffffffffffffffff16905060008460010160009054906101000a90046fffffffffffffffffffffffffffffffff166fffffffffffffffffffffffffffffffff16905060008560000160109054906101000a900463ffffffff1663ffffffff164261433b91906164d7565b9050600081146143e3578183111561437f576040517f9725942a00000000000000000000000000000000000000000000000000000000815260040160405180910390fd5b6143bd8284838960010160109054906101000a90046fffffffffffffffffffffffffffffffff166fffffffffffffffffffffffffffffffff166141cf565b9250428660000160106101000a81548163ffffffff021916908363ffffffff1602179055505b8482101561449f57600073ffffffffffffffffffffffffffffffffffffffff168473ffffffffffffffffffffffffffffffffffffffff160361445e5781856040517ff94ebcd10000000000000000000000000000000000000000000000000000000081526004016144559291906166bd565b60405180910390fd5b8185856040517f1a76572a000000000000000000000000000000000000000000000000000000008152600401614496939291906166e6565b60405180910390fd5b848310156145c45760008660010160109054906101000a90046fffffffffffffffffffffffffffffffff166fffffffffffffffffffffffffffffffff1690506000816001836144ee91906164d7565b86896144fa91906164d7565b6145049190616689565b61450e91906163fd565b9050600073ffffffffffffffffffffffffffffffffffffffff168673ffffffffffffffffffffffffffffffffffffffff16036145835780856040517f15279c0800000000000000000000000000000000000000000000000000000000815260040161457a9291906166bd565b60405180910390fd5b8085876040517fd0c8d23a0000000000000000000000000000000000000000000000000000000081526004016145bb939291906166e6565b60405180910390fd5b84836145d091906164d7565b9250828660000160006101000a8154816fffffffffffffffffffffffffffffffff02191690836fffffffffffffffffffffffffffffffff1602179055507f1871cdf8010e63f2eb8384381a68dfa7416dc571a5517e66e88b2d2d0c0a690a8560405161463c9190615964565b60405180910390a15050505b505050565b600081831061465c578161465e565b825b905092915050565b600061468e836000018373ffffffffffffffffffffffffffffffffffffffff1660001b613af4565b905092915050565b6060824710156146db576040517f08c379a00000000000000000000000000000000000000000000000000000000081526004016146d29061678f565b60405180910390fd5b6000808673ffffffffffffffffffffffffffffffffffffffff16858760405161470491906167e0565b60006040518083038185875af1925050503d8060008114614741576040519150601f19603f3d011682016040523d82523d6000602084013e614746565b606091505b509150915061475787838387614763565b92505050949350505050565b606083156147c55760008351036147bd5761477d856147d8565b6147bc576040517f08c379a00000000000000000000000000000000000000000000000000000000081526004016147b390616843565b60405180910390fd5b5b8290506147d0565b6147cf83836147fb565b5b949350505050565b6000808273ffffffffffffffffffffffffffffffffffffffff163b119050919050565b60008251111561480e5781518083602001fd5b806040517f08c379a00000000000000000000000000000000000000000000000000000000081526004016148429190614b42565b60405180910390fd5b6040518060200160405280600081525090565b604051806040016040528060608152602001606081525090565b6040518060a0016040528060006fffffffffffffffffffffffffffffffff168152602001600063ffffffff16815260200160001515815260200160006fffffffffffffffffffffffffffffffff16815260200160006fffffffffffffffffffffffffffffffff1681525090565b5080546148f190615a8c565b6000825580601f106149035750614922565b601f0160209004906000526020600020908101906149219190614946565b5b50565b50805460008255906000526020600020908101906149439190614963565b50565b5b8082111561495f576000816000905550600101614947565b5090565b5b8082111561497c576000816000905550600101614964565b5090565b6000604051905090565b600080fd5b600080fd5b60007fffffffff0000000000000000000000000000000000000000000000000000000082169050919050565b6149c981614994565b81146149d457600080fd5b50565b6000813590506149e6816149c0565b92915050565b600060208284031215614a0257614a0161498a565b5b6000614a10848285016149d7565b91505092915050565b60008115159050919050565b614a2e81614a19565b82525050565b6000602082019050614a496000830184614a25565b92915050565b6000819050919050565b614a6281614a4f565b8114614a6d57600080fd5b50565b600081359050614a7f81614a59565b92915050565b600060208284031215614a9b57614a9a61498a565b5b6000614aa984828501614a70565b91505092915050565b600081519050919050565b600082825260208201905092915050565b60005b83811015614aec578082015181840152602081019050614ad1565b60008484015250505050565b6000601f19601f8301169050919050565b6000614b1482614ab2565b614b1e8185614abd565b9350614b2e818560208601614ace565b614b3781614af8565b840191505092915050565b60006020820190508181036000830152614b5c8184614b09565b905092915050565b600073ffffffffffffffffffffffffffffffffffffffff82169050919050565b6000819050919050565b6000614ba9614ba4614b9f84614b64565b614b84565b614b64565b9050919050565b6000614bbb82614b8e565b9050919050565b6000614bcd82614bb0565b9050919050565b614bdd81614bc2565b82525050565b6000602082019050614bf86000830184614bd4565b92915050565b6000614c0982614b64565b9050919050565b614c1981614bfe565b8114614c2457600080fd5b50565b600081359050614c3681614c10565b92915050565b600060208284031215614c5257614c5161498a565b5b6000614c6084828501614c27565b91505092915050565b600060ff82169050919050565b614c7f81614c69565b82525050565b6000602082019050614c9a6000830184614c76565b92915050565b600080fd5b60006101008284031215614cbc57614cbb614ca0565b5b81905092915050565b600060208284031215614cdb57614cda61498a565b5b600082013567ffffffffffffffff811115614cf957614cf861498f565b5b614d0584828501614ca5565b91505092915050565b614d1781614a4f565b82525050565b602082016000820151614d336000850182614d0e565b50505050565b6000602082019050614d4e6000830184614d1d565b92915050565b614d5d81614bfe565b82525050565b6000602082019050614d786000830184614d54565b92915050565b600067ffffffffffffffff82169050919050565b614d9b81614d7e565b8114614da657600080fd5b50565b600081359050614db881614d92565b92915050565b600080fd5b600080fd5b600080fd5b60008083601f840112614de357614de2614dbe565b5b8235905067ffffffffffffffff811115614e0057614dff614dc3565b5b602083019150836001820283011115614e1c57614e1b614dc8565b5b9250929050565b600080600060408486031215614e3c57614e3b61498a565b5b6000614e4a86828701614da9565b935050602084013567ffffffffffffffff811115614e6b57614e6a61498f565b5b614e7786828701614dcd565b92509250509250925092565b60008083601f840112614e9957614e98614dbe565b5b8235905067ffffffffffffffff811115614eb657614eb5614dc3565b5b602083019150836020820283011115614ed257614ed1614dc8565b5b9250929050565b60008060008060408587031215614ef357614ef261498a565b5b600085013567ffffffffffffffff811115614f1157614f1061498f565b5b614f1d87828801614e83565b9450945050602085013567ffffffffffffffff811115614f4057614f3f61498f565b5b614f4c87828801614e83565b925092505092959194509250565b60008060408385031215614f7157614f7061498a565b5b6000614f7f85828601614c27565b9250506020614f9085828601614a70565b9150509250929050565b600060208284031215614fb057614faf61498a565b5b6000614fbe84828501614da9565b91505092915050565b60008083601f840112614fdd57614fdc614dbe565b5b8235905067ffffffffffffffff811115614ffa57614ff9614dc3565b5b60208301915083602082028301111561501657615015614dc8565b5b9250929050565b60008083601f84011261503357615032614dbe565b5b8235905067ffffffffffffffff8111156150505761504f614dc3565b5b60208301915083606082028301111561506c5761506b614dc8565b5b9250929050565b600080600080600080606087890312156150905761508f61498a565b5b600087013567ffffffffffffffff8111156150ae576150ad61498f565b5b6150ba89828a01614fc7565b9650965050602087013567ffffffffffffffff8111156150dd576150dc61498f565b5b6150e989828a0161501d565b9450945050604087013567ffffffffffffffff81111561510c5761510b61498f565b5b61511889828a0161501d565b92509250509295509295509295565b600060a0828403121561513d5761513c614ca0565b5b81905092915050565b60006020828403121561515c5761515b61498a565b5b600082013567ffffffffffffffff81111561517a5761517961498f565b5b61518684828501615127565b91505092915050565b600081519050919050565b600082825260208201905092915050565b60006151b68261518f565b6151c0818561519a565b93506151d0818560208601614ace565b6151d981614af8565b840191505092915050565b6000604083016000830151848203600086015261520182826151ab565b9150506020830151848203602086015261521b82826151ab565b9150508091505092915050565b6000602082019050818103600083015261524281846151e4565b905092915050565b600081519050919050565b600082825260208201905092915050565b6000819050602082019050919050565b600061528283836151ab565b905092915050565b6000602082019050919050565b60006152a28261524a565b6152ac8185615255565b9350836020820285016152be85615266565b8060005b858110156152fa57848403895281516152db8582615276565b94506152e68361528a565b925060208a019950506001810190506152c2565b50829750879550505050505092915050565b600060208201905081810360008301526153268184615297565b905092915050565b600081519050919050565b600082825260208201905092915050565b6000819050602082019050919050565b61536381614bfe565b82525050565b6000615375838361535a565b60208301905092915050565b6000602082019050919050565b60006153998261532e565b6153a38185615339565b93506153ae8361534a565b8060005b838110156153df5781516153c68882615369565b97506153d183615381565b9250506001810190506153b2565b5085935050505092915050565b60006020820190508181036000830152615406818461538e565b905092915050565b60006fffffffffffffffffffffffffffffffff82169050919050565b6154338161540e565b82525050565b600063ffffffff82169050919050565b61545281615439565b82525050565b61546181614a19565b82525050565b60a08201600082015161547d600085018261542a565b5060208201516154906020850182615449565b5060408201516154a36040850182615458565b5060608201516154b6606085018261542a565b5060808201516154c9608085018261542a565b50505050565b600060a0820190506154e46000830184615467565b92915050565b600082825260208201905092915050565b60006155068261518f565b61551081856154ea565b9350615520818560208601614ace565b61552981614af8565b840191505092915050565b6000602082019050818103600083015261554e81846154fb565b905092915050565b600081519050919050565b600082825260208201905092915050565b6000819050602082019050919050565b61558b81614d7e565b82525050565b600061559d8383615582565b60208301905092915050565b6000602082019050919050565b60006155c182615556565b6155cb8185615561565b93506155d683615572565b8060005b838110156156075781516155ee8882615591565b97506155f9836155a9565b9250506001810190506155da565b5085935050505092915050565b6000602082019050818103600083015261562e81846155b6565b905092915050565b600080fd5b7f4e487b7100000000000000000000000000000000000000000000000000000000600052604160045260246000fd5b61567382614af8565b810181811067ffffffffffffffff821117156156925761569161563b565b5b80604052505050565b60006156a5614980565b90506156b1828261566a565b919050565b600080fd5b6156c481614a19565b81146156cf57600080fd5b50565b6000813590506156e1816156bb565b92915050565b6156f08161540e565b81146156fb57600080fd5b50565b60008135905061570d816156e7565b92915050565b60006060828403121561572957615728615636565b5b615733606061569b565b90506000615743848285016156d2565b6000830152506020615757848285016156fe565b602083015250604061576b848285016156fe565b60408301525092915050565b600080600060e084860312156157905761578f61498a565b5b600061579e86828701614da9565b93505060206157af86828701615713565b92505060806157c086828701615713565b9150509250925092565b60008083601f8401126157e0576157df614dbe565b5b8235905067ffffffffffffffff8111156157fd576157fc614dc3565b5b60208301915083602082028301111561581957615818614dc8565b5b9250929050565b6000806000806040858703121561583a5761583961498a565b5b600085013567ffffffffffffffff8111156158585761585761498f565b5b61586487828801614fc7565b9450945050602085013567ffffffffffffffff8111156158875761588661498f565b5b615893878288016157ca565b925092505092959194509250565b6000815190506158b081614a59565b92915050565b6000602082840312156158cc576158cb61498a565b5b60006158da848285016158a1565b91505092915050565b600080fd5b600080fd5b600080fd5b6000808335600160200384360303811261590f5761590e6158e3565b5b80840192508235915067ffffffffffffffff821115615931576159306158e8565b5b60208301925060018202360383131561594d5761594c6158ed565b5b509250929050565b61595e81614a4f565b82525050565b60006020820190506159796000830184615955565b92915050565b600081905092915050565b82818337600083830152505050565b60006159a5838561597f565b93506159b283858461598a565b82840190509392505050565b60006159cb828486615999565b91508190509392505050565b6159e081614d7e565b82525050565b60006020820190506159fb60008301846159d7565b92915050565b7f4e487b7100000000000000000000000000000000000000000000000000000000600052603260045260246000fd5b600060608284031215615a4657615a4561498a565b5b6000615a5484828501615713565b91505092915050565b7f4e487b7100000000000000000000000000000000000000000000000000000000600052602260045260246000fd5b60006002820490506001821680615aa457607f821691505b602082108103615ab757615ab6615a5d565b5b50919050565b6000615ac983856154ea565b9350615ad683858461598a565b615adf83614af8565b840190509392505050565b6000604082019050615aff60008301866159d7565b8181036020830152615b12818486615abd565b9050949350505050565b60006020820190508181036000830152615b37818486615abd565b90509392505050565b6000604082019050615b556000830185614d54565b615b626020830184614d54565b9392505050565b60008235600161012003833603038112615b8657615b856158e3565b5b80830191505092915050565b600067ffffffffffffffff821115615bad57615bac61563b565b5b602082029050602081019050919050565b600080fd5b600067ffffffffffffffff821115615bde57615bdd61563b565b5b615be782614af8565b9050602081019050919050565b6000615c07615c0284615bc3565b61569b565b905082815260208101848484011115615c2357615c22615bbe565b5b615c2e84828561598a565b509392505050565b600082601f830112615c4b57615c4a614dbe565b5b8135615c5b848260208601615bf4565b91505092915050565b6000615c77615c7284615b92565b61569b565b90508083825260208201905060208402830185811115615c9a57615c99614dc8565b5b835b81811015615ce157803567ffffffffffffffff811115615cbf57615cbe614dbe565b5b808601615ccc8982615c36565b85526020850194505050602081019050615c9c565b5050509392505050565b600082601f830112615d0057615cff614dbe565b5b8135615d10848260208601615c64565b91505092915050565b60006101208284031215615d3057615d2f615636565b5b615d3a60a061569b565b90506000615d4a84828501614da9565b600083015250602082013567ffffffffffffffff811115615d6e57615d6d6156b6565b5b615d7a84828501615ceb565b602083015250604082013567ffffffffffffffff811115615d9e57615d9d6156b6565b5b615daa84828501615c36565b6040830152506060615dbe84828501615713565b60608301525060c0615dd284828501615713565b60808301525092915050565b6000615dea3683615d19565b9050919050565b60008190508160005260206000209050919050565b60006020601f8301049050919050565b600082821b905092915050565b600060088302615e537fffffffffffffffffffffffffffffffffffffffffffffffffffffffffffffffff82615e16565b615e5d8683615e16565b95508019841693508086168417925050509392505050565b6000615e90615e8b615e8684614a4f565b614b84565b614a4f565b9050919050565b6000819050919050565b615eaa83615e75565b615ebe615eb682615e97565b848454615e23565b825550505050565b600090565b615ed3615ec6565b615ede818484615ea1565b505050565b5b81811015615f0257615ef7600082615ecb565b600181019050615ee4565b5050565b601f821115615f4757615f1881615df1565b615f2184615e06565b81016020851015615f30578190505b615f44615f3c85615e06565b830182615ee3565b50505b505050565b600082821c905092915050565b6000615f6a60001984600802615f4c565b1980831691505092915050565b6000615f838383615f59565b9150826002028217905092915050565b615f9c8261518f565b67ffffffffffffffff811115615fb557615fb461563b565b5b615fbf8254615a8c565b615fca828285615f06565b600060209050601f831160018114615ffd5760008415615feb578287015190505b615ff58582615f77565b86555061605d565b601f19841661600b86615df1565b60005b828110156160335784890151825560018201915060208501945060208101905061600e565b86831015616050578489015161604c601f891682615f59565b8355505b6001600288020188555050505b505050505050565b60608201600082015161607b6000850182615458565b50602082015161608e602085018261542a565b5060408201516160a1604085018261542a565b50505050565b6000610100820190506160bd60008301876159d7565b81810360208301526160cf81866154fb565b90506160de6040830185616065565b6160eb60a0830184616065565b95945050505050565b60006040820190506161096000830185614d54565b6161166020830184615955565b9392505050565b60007fffffffffffffffffffffffffffffffff0000000000000000000000000000000082169050919050565b6161528161611d565b82525050565b600060208201905061616d6000830184616149565b92915050565b600081519050616182816156bb565b92915050565b60006020828403121561619e5761619d61498a565b5b60006161ac84828501616173565b91505092915050565b7f4e487b7100000000000000000000000000000000000000000000000000000000600052601160045260246000fd5b60006161ef82614c69565b91506161fa83614c69565b9250828203905060ff811115616213576162126161b5565b5b92915050565b600060608201905061622e6000830186614c76565b61623b6020830185614c76565b6162486040830184615955565b949350505050565b60008160011c9050919050565b6000808291508390505b60018511156162a757808604811115616283576162826161b5565b5b60018516156162925780820291505b80810290506162a085616250565b9450616267565b94509492505050565b6000826162c0576001905061637c565b816162ce576000905061637c565b81600181146162e457600281146162ee5761631d565b600191505061637c565b60ff841115616300576162ff6161b5565b5b8360020a915084821115616317576163166161b5565b5b5061637c565b5060208310610133831016604e8410600b84101617156163525782820a90508381111561634d5761634c6161b5565b5b61637c565b61635f848484600161625d565b92509050818404811115616376576163756161b5565b5b81810290505b9392505050565b600061638e82614a4f565b915061639983614c69565b92506163c67fffffffffffffffffffffffffffffffffffffffffffffffffffffffffffffffff84846162b0565b905092915050565b7f4e487b7100000000000000000000000000000000000000000000000000000000600052601260045260246000fd5b600061640882614a4f565b915061641383614a4f565b925082616423576164226163ce565b5b828204905092915050565b600061643982614a4f565b915061644483614a4f565b925082820261645281614a4f565b91508282048414831517616469576164686161b5565b5b5092915050565b600060408201905061648560008301856159d7565b818103602083015261649781846154fb565b90509392505050565b600060e0820190506164b560008301866159d7565b6164c26020830185616065565b6164cf6080830184616065565b949350505050565b60006164e282614a4f565b91506164ed83614a4f565b9250828203905081811115616505576165046161b5565b5b92915050565b60006060820190506165206000830184616065565b92915050565b600060608201905061653b6000830186614d54565b6165486020830185614d54565b6165556040830184615955565b949350505050565b7f5361666545524332303a204552433230206f7065726174696f6e20646964206e60008201527f6f74207375636365656400000000000000000000000000000000000000000000602082015250565b60006165b9602a83614abd565b91506165c48261655d565b604082019050919050565b600060208201905081810360008301526165e8816165ac565b9050919050565b600060408201905061660460008301856159d7565b6166116020830184614d54565b9392505050565b60008151905061662781614c10565b92915050565b6000602082840312156166435761664261498a565b5b600061665184828501616618565b91505092915050565b7f4e487b7100000000000000000000000000000000000000000000000000000000600052603160045260246000fd5b600061669482614a4f565b915061669f83614a4f565b92508282019050808211156166b7576166b66161b5565b5b92915050565b60006040820190506166d26000830185615955565b6166df6020830184615955565b9392505050565b60006060820190506166fb6000830186615955565b6167086020830185615955565b6167156040830184614d54565b949350505050565b7f416464726573733a20696e73756666696369656e742062616c616e636520666f60008201527f722063616c6c0000000000000000000000000000000000000000000000000000602082015250565b6000616779602683614abd565b91506167848261671d565b604082019050919050565b600060208201905081810360008301526167a88161676c565b9050919050565b60006167ba8261518f565b6167c4818561597f565b93506167d4818560208601614ace565b80840191505092915050565b60006167ec82846167af565b915081905092915050565b7f416464726573733a2063616c6c20746f206e6f6e2d636f6e7472616374000000600082015250565b600061682d601d83614abd565b9150616838826167f7565b602082019050919050565b6000602082019050818103600083015261685c81616820565b905091905056fea264697066735822122093bedf0dcaf4345dc7e78bbe06e399da93d9e0c30726dff6751ba271664ea44664736f6c63430008180033","linkReferences":{}},"methodIdentifiers":{"acceptOwnership()":"79ba5097","addRemotePool(uint64,bytes)":"62ddd3c4","applyAllowListUpdates(address[],address[])":"54c8a4f3","applyChainUpdates(uint64[],(uint64,bytes[],bytes,(bool,uint128,uint128),(bool,uint128,uint128))[])":"e8a1da17","canAcceptLiquidity()":"bb98546b","getAllowList()":"a7cd63b7","getAllowListEnabled()":"e0351e13","getCurrentInboundRateLimiterState(uint64)":"af58d59f","getCurrentOutboundRateLimiterState(uint64)":"c75eea9c","getRateLimitAdmin()":"6d3d1a58","getRebalancer()":"432a6ba3","getRemotePools(uint64)":"a42a7b8b","getRemoteToken(uint64)":"b7946580","getRmnProxy()":"dc0bd971","getRouter()":"b0f479a1","getSupportedChains()":"c4bffe2b","getToken()":"21df0da7","getTokenDecimals()":"24f65ee7","isRemotePool(uint64,bytes)":"4c5ef0ed","isSupportedChain(uint64)":"8926f54f","isSupportedToken(address)":"240028e8","lockOrBurn((bytes,uint64,address,uint256,address))":"9a4575b9","owner()":"8da5cb5b","provideLiquidity(uint256)":"eb521a4c","releaseOrMint((bytes,uint64,address,uint256,address,bytes,bytes,bytes))":"39077537","removeRemotePool(uint64,bytes)":"acfecf91","setChainRateLimiterConfig(uint64,(bool,uint128,uint128),(bool,uint128,uint128))":"cf7401f3","setChainRateLimiterConfigs(uint64[],(bool,uint128,uint128)[],(bool,uint128,uint128)[])":"962d4020","setRateLimitAdmin(address)":"7d54534e","setRebalancer(address)":"6cfd1553","setRouter(address)":"c0d78655","supportsInterface(bytes4)":"01ffc9a7","transferLiquidity(address,uint256)":"66320087","transferOwnership(address)":"f2fde38b","typeAndVersion()":"181f5a77","withdrawLiquidity(uint256)":"0a861f2a"},"id":17}