{"abi":[{"type":"constructor","inputs":[{"name":"router","type":"address","internalType":"address"}],"stateMutability":"nonpayable"},{"type":"receive","stateMutability":"payable"},{"type":"function","name":"acceptOwnership","inputs":[],"outputs":[],"stateMutability":"nonpayable"},{"type":"function","name":"ccipReceive","inputs":[{"name":"message","type":"tuple","internalType":"struct Client.Any2EVMMessage","components":[{"name":"messageId","type":"bytes32","internalType":"bytes32"},{"name":"sourceChainSelector","type":"uint64","internalType":"uint64"},{"name":"sender","type":"bytes","internalType":"bytes"},{"name":"data","type":"bytes","internalType":"bytes"},{"name":"destTokenAmounts","type":"tuple[]","internalType":"struct Client.EVMTokenAmount[]","components":[{"name":"token","type":"address","internalType":"address"},{"name":"amount","type":"uint256","internalType":"uint256"}]}]}],"outputs":[],"stateMutability":"nonpayable"},{"type":"function","name":"getLastReceivedMessageDetails","inputs":[],"outputs":[{"name":"messageId","type":"bytes32","internalType":"bytes32"},{"name":"sourceChainSelector","type":"uint64","internalType":"uint64"},{"name":"sender","type":"address","internalType":"address"},{"name":"message","type":"string","internalType":"string"},{"name":"token","type":"address","internalType":"address"},{"name":"amount","type":"uint256","internalType":"uint256"}],"stateMutability":"view"},{"type":"function","name":"getNumberOfReceivedMessages","inputs":[],"outputs":[{"name":"number","type":"uint256","internalType":"uint256"}],"stateMutability":"view"},{"type":"function","name":"getReceivedMessageAt","inputs":[{"name":"index","type":"uint256","internalType":"uint256"}],"outputs":[{"name":"messageId","type":"bytes32","internalType":"bytes32"},{"name":"sourceChainSelector","type":"uint64","internalType":"uint64"},{"name":"sender","type":"address","internalType":"address"},{"name":"message","type":"string","internalType":"string"},{"name":"token","type":"address","internalType":"address"},{"name":"amount","type":"uint256","internalType":"uint256"}],"stateMutability":"view"},{"type":"function","name":"getReceivedMessageDetails","inputs":[{"name":"messageId","type":"bytes32","internalType":"bytes32"}],"outputs":[{"name":"sourceChainSelector","type":"uint64","internalType":"uint64"},{"name":"sender","type":"address","internalType":"address"},{"name":"message","type":"string","internalType":"string"},{"name":"token","type":"address","internalType":"address"},{"name":"amount","type":"uint256","internalType":"uint256"}],"stateMutability":"view"},{"type":"function","name":"getRouter","inputs":[],"outputs":[{"name":"","type":"address","internalType":"address"}],"stateMutability":"view"},{"type":"function","name":"messageDetail","inputs":[{"name":"","type":"bytes32","internalType":"bytes32"}],"outputs":[{"name":"sourceChainSelector","type":"uint64","internalType":"uint64"},{"name":"sender","type":"address","internalType":"address"},{"name":"message","type":"string","internalType":"string"},{"name":"token","type":"address","internalType":"address"},{"name":"amount","type":"uint256","internalType":"uint256"}],"stateMutability":"view"},{"type":"function","name":"owner","inputs":[],"outputs":[{"name":"","type":"address","internalType":"address"}],"stateMutability":"view"},{"type":"function","name":"receivedMessages","inputs":[{"name":"","type":"uint256","internalType":"uint256"}],"outputs":[{"name":"","type":"bytes32","internalType":"bytes32"}],"stateMutability":"view"},{"type":"function","name":"sendMessage","inputs":[{"name":"destinationChainSelector","type":"uint64","internalType":"uint64"},{"name":"receiver","type":"address","internalType":"address"},{"name":"message","type":"string","internalType":"string"},{"name":"token","type":"address","internalType":"address"},{"name":"amount","type":"uint256","internalType":"uint256"}],"outputs":[{"name":"messageId","type":"bytes32","internalType":"bytes32"}],"stateMutability":"nonpayable"},{"type":"function","name":"supportsInterface","inputs":[{"name":"interfaceId","type":"bytes4","internalType":"bytes4"}],"outputs":[{"name":"","type":"bool","internalType":"bool"}],"stateMutability":"view"},{"type":"function","name":"transferOwnership","inputs":[{"name":"to","type":"address","internalType":"address"}],"outputs":[],"stateMutability":"nonpayable"},{"type":"function","name":"withdraw","inputs":[{"name":"beneficiary","type":"address","internalType":"address"}],"outputs":[],"stateMutability":"nonpayable"},{"type":"function","name":"withdrawToken","inputs":[{"name":"beneficiary","type":"address","internalType":"address"},{"name":"token","type":"address","internalType":"address"}],"outputs":[],"stateMutability":"nonpayable"},{"type":"event","name":"MessageReceived","inputs":[{"name":"messageId","type":"bytes32","indexed":true,"internalType":"bytes32"},{"name":"sourceChainSelector","type":"uint64","indexed":true,"internalType":"uint64"},{"name":"sender","type":"address","indexed":false,"internalType":"address"},{"name":"message","type":"string","indexed":false,"internalType":"string"},{"name":"tokenAmount","type":"tuple","indexed":false,"internalType":"struct Client.EVMTokenAmount","components":[{"name":"token","type":"address","internalType":"address"},{"name":"amount","type":"uint256","internalType":"uint256"}]}],"anonymous":false},{"type":"event","name":"MessageSent","inputs":[{"name":"messageId","type":"bytes32","indexed":true,"internalType":"bytes32"},{"name":"destinationChainSelector","type":"uint64","indexed":true,"internalType":"uint64"},{"name":"receiver","type":"address","indexed":false,"internalType":"address"},{"name":"message","type":"string","indexed":false,"internalType":"string"},{"name":"tokenAmount","type":"tuple","indexed":false,"internalType":"struct Client.EVMTokenAmount","components":[{"name":"token","type":"address","internalType":"address"},{"name":"amount","type":"uint256","internalType":"uint256"}]},{"name":"fees","type":"uint256","indexed":false,"internalType":"uint256"}],"anonymous":false},{"type":"event","name":"OwnershipTransferRequested","inputs":[{"name":"from","type":"address","indexed":true,"internalType":"address"},{"name":"to","type":"address","indexed":true,"internalType":"address"}],"anonymous":false},{"type":"event","name":"OwnershipTransferred","inputs":[{"name":"from","type":"address","indexed":true,"internalType":"address"},{"name":"to","type":"address","indexed":true,"internalType":"address"}],"anonymous":false},{"type":"error","name":"FailedToWithdrawEth","inputs":[{"name":"owner","type":"address","internalType":"address"},{"name":"target","type":"address","internalType":"address"},{"name":"value","type":"uint256","internalType":"uint256"}]},{"type":"error","name":"IndexOutOfBound","inputs":[{"name":"providedIndex","type":"uint256","internalType":"uint256"},{"name":"maxIndex","type":"uint256","internalType":"uint256"}]},{"type":"error","name":"InsufficientFeeTokenAmount","inputs":[]},{"type":"error","name":"InvalidRouter","inputs":[{"name":"router","type":"address","internalType":"address"}]},{"type":"error","name":"MessageIdNotExist","inputs":[{"name":"messageId","type":"bytes32","internalType":"bytes32"}]},{"type":"error","name":"NoMessageReceived","inputs":[]},{"type":"error","name":"NothingToWithdraw","inputs":[]}],"bytecode":{"object":"0x60a06040523480156200001157600080fd5b50604051620038dc380380620038dc833981810160405281019062000037919062000382565b3380600083600073ffffffffffffffffffffffffffffffffffffffff168173ffffffffffffffffffffffffffffffffffffffff1603620000b15760006040517fd7f73334000000000000000000000000000000000000000000000000000000008152600401620000a89190620003c5565b60405180910390fd5b8073ffffffffffffffffffffffffffffffffffffffff1660808173ffffffffffffffffffffffffffffffffffffffff168152505050600073ffffffffffffffffffffffffffffffffffffffff168273ffffffffffffffffffffffffffffffffffffffff160362000158576040517f08c379a00000000000000000000000000000000000000000000000000000000081526004016200014f9062000443565b60405180910390fd5b816000806101000a81548173ffffffffffffffffffffffffffffffffffffffff021916908373ffffffffffffffffffffffffffffffffffffffff160217905550600073ffffffffffffffffffffffffffffffffffffffff168173ffffffffffffffffffffffffffffffffffffffff1614620001df57620001de81620001e960201b60201c565b5b50505050620004d7565b3373ffffffffffffffffffffffffffffffffffffffff168173ffffffffffffffffffffffffffffffffffffffff16036200025a576040517f08c379a00000000000000000000000000000000000000000000000000000000081526004016200025190620004b5565b60405180910390fd5b80600160006101000a81548173ffffffffffffffffffffffffffffffffffffffff021916908373ffffffffffffffffffffffffffffffffffffffff1602179055508073ffffffffffffffffffffffffffffffffffffffff1660008054906101000a900473ffffffffffffffffffffffffffffffffffffffff1673ffffffffffffffffffffffffffffffffffffffff167fed8889f560326eb138920d842192f0eb3dd22b4f139c87a2c57538e05bae127860405160405180910390a350565b600080fd5b600073ffffffffffffffffffffffffffffffffffffffff82169050919050565b60006200034a826200031d565b9050919050565b6200035c816200033d565b81146200036857600080fd5b50565b6000815190506200037c8162000351565b92915050565b6000602082840312156200039b576200039a62000318565b5b6000620003ab848285016200036b565b91505092915050565b620003bf816200033d565b82525050565b6000602082019050620003dc6000830184620003b4565b92915050565b600082825260208201905092915050565b7f43616e6e6f7420736574206f776e657220746f207a65726f0000000000000000600082015250565b60006200042b601883620003e2565b91506200043882620003f3565b602082019050919050565b600060208201905081810360008301526200045e816200041c565b9050919050565b7f43616e6e6f74207472616e7366657220746f2073656c66000000000000000000600082015250565b60006200049d601783620003e2565b9150620004aa8262000465565b602082019050919050565b60006020820190508181036000830152620004d0816200048e565b9050919050565b6080516133e9620004f3600039600061126c01526133e96000f3fe6080604052600436106100ec5760003560e01c806385572ffb1161008a578063b0f479a111610059578063b0f479a11461030c578063d030366c14610337578063eebc927b14610374578063f2fde38b146103b6576100f3565b806385572ffb1461023a5780638da5cb5b146102635780639c3ddb2e1461028e5780639c7ee0bc146102cf576100f3565b80633aeac4e1116100c65780633aeac4e11461019057806351bd6698146101b957806351cff8d9146101fa57806379ba509714610223576100f3565b806301ffc9a7146100f85780630b652d6d14610135578063263596a514610160576100f3565b366100f357005b600080fd5b34801561010457600080fd5b5061011f600480360381019061011a9190611d92565b6103df565b60405161012c9190611dda565b60405180910390f35b34801561014157600080fd5b5061014a6104b1565b6040516101579190611e0e565b60405180910390f35b34801561016c57600080fd5b506101756104be565b60405161018796959493929190611f36565b60405180910390f35b34801561019c57600080fd5b506101b760048036038101906101b29190611fca565b610704565b005b3480156101c557600080fd5b506101e060048036038101906101db9190612036565b6107f4565b6040516101f1959493929190612063565b60405180910390f35b34801561020657600080fd5b50610221600480360381019061021c91906120bd565b610a3a565b005b34801561022f57600080fd5b50610238610b38565b005b34801561024657600080fd5b50610261600480360381019061025c919061210e565b610ccd565b005b34801561026f57600080fd5b50610278610d59565b6040516102859190612157565b60405180910390f35b34801561029a57600080fd5b506102b560048036038101906102b09190612036565b610d82565b6040516102c6959493929190612063565b60405180910390f35b3480156102db57600080fd5b506102f660048036038101906102f1919061222f565b610e94565b60405161030391906122c9565b60405180910390f35b34801561031857600080fd5b50610321611268565b60405161032e9190612157565b60405180910390f35b34801561034357600080fd5b5061035e600480360381019061035991906122e4565b611290565b60405161036b91906122c9565b60405180910390f35b34801561038057600080fd5b5061039b600480360381019061039691906122e4565b6112b4565b6040516103ad96959493929190611f36565b60405180910390f35b3480156103c257600080fd5b506103dd60048036038101906103d891906120bd565b611507565b005b60007f85572ffb000000000000000000000000000000000000000000000000000000007bffffffffffffffffffffffffffffffffffffffffffffffffffffffff1916827bffffffffffffffffffffffffffffffffffffffffffffffffffffffff191614806104aa57507f01ffc9a7000000000000000000000000000000000000000000000000000000007bffffffffffffffffffffffffffffffffffffffffffffffffffffffff1916827bffffffffffffffffffffffffffffffffffffffffffffffffffffffff1916145b9050919050565b6000600280549050905090565b60008060006060600080600060028054905003610507576040517f6ad69dd500000000000000000000000000000000000000000000000000000000815260040160405180910390fd5b6002600160028054905061051b9190612340565b8154811061052c5761052b612374565b5b906000526020600020015495506000600360008881526020019081526020016000206040518060a00160405290816000820160009054906101000a900467ffffffffffffffff1667ffffffffffffffff1667ffffffffffffffff1681526020016000820160089054906101000a900473ffffffffffffffffffffffffffffffffffffffff1673ffffffffffffffffffffffffffffffffffffffff1673ffffffffffffffffffffffffffffffffffffffff1681526020016001820180546105f1906123d2565b80601f016020809104026020016040519081016040528092919081815260200182805461061d906123d2565b801561066a5780601f1061063f5761010080835404028352916020019161066a565b820191906000526020600020905b81548152906001019060200180831161064d57829003601f168201915b505050505081526020016002820160009054906101000a900473ffffffffffffffffffffffffffffffffffffffff1673ffffffffffffffffffffffffffffffffffffffff1673ffffffffffffffffffffffffffffffffffffffff1681526020016003820154815250509050868160000151826020015183604001518460600151856080015196509650965096509650965050909192939495565b61070c61151b565b60008173ffffffffffffffffffffffffffffffffffffffff166370a08231306040518263ffffffff1660e01b81526004016107479190612157565b602060405180830381865afa158015610764573d6000803e3d6000fd5b505050506040513d601f19601f820116820180604052508101906107889190612418565b9050600081036107c4576040517fd0d04f6000000000000000000000000000000000000000000000000000000000815260040160405180910390fd5b6107ef83828473ffffffffffffffffffffffffffffffffffffffff166115ab9092919063ffffffff16565b505050565b60008060606000806000600360008881526020019081526020016000206040518060a00160405290816000820160009054906101000a900467ffffffffffffffff1667ffffffffffffffff1667ffffffffffffffff1681526020016000820160089054906101000a900473ffffffffffffffffffffffffffffffffffffffff1673ffffffffffffffffffffffffffffffffffffffff1673ffffffffffffffffffffffffffffffffffffffff1681526020016001820180546108b4906123d2565b80601f01602080910402602001604051908101604052809291908181526020018280546108e0906123d2565b801561092d5780601f106109025761010080835404028352916020019161092d565b820191906000526020600020905b81548152906001019060200180831161091057829003601f168201915b505050505081526020016002820160009054906101000a900473ffffffffffffffffffffffffffffffffffffffff1673ffffffffffffffffffffffffffffffffffffffff1673ffffffffffffffffffffffffffffffffffffffff1681526020016003820154815250509050600073ffffffffffffffffffffffffffffffffffffffff16816020015173ffffffffffffffffffffffffffffffffffffffff1603610a0d57866040517f4d47bb33000000000000000000000000000000000000000000000000000000008152600401610a0491906122c9565b60405180910390fd5b80600001518160200151826040015183606001518460800151955095509550955095505091939590929450565b610a4261151b565b600047905060008103610a81576040517fd0d04f6000000000000000000000000000000000000000000000000000000000815260040160405180910390fd5b60008273ffffffffffffffffffffffffffffffffffffffff1682604051610aa790612476565b60006040518083038185875af1925050503d8060008114610ae4576040519150601f19603f3d011682016040523d82523d6000602084013e610ae9565b606091505b5050905080610b33573383836040517f9d11f563000000000000000000000000000000000000000000000000000000008152600401610b2a9392919061248b565b60405180910390fd5b505050565b600160009054906101000a900473ffffffffffffffffffffffffffffffffffffffff1673ffffffffffffffffffffffffffffffffffffffff163373ffffffffffffffffffffffffffffffffffffffff1614610bc8576040517f08c379a0000000000000000000000000000000000000000000000000000000008152600401610bbf9061250e565b60405180910390fd5b60008060009054906101000a900473ffffffffffffffffffffffffffffffffffffffff169050336000806101000a81548173ffffffffffffffffffffffffffffffffffffffff021916908373ffffffffffffffffffffffffffffffffffffffff1602179055506000600160006101000a81548173ffffffffffffffffffffffffffffffffffffffff021916908373ffffffffffffffffffffffffffffffffffffffff1602179055503373ffffffffffffffffffffffffffffffffffffffff168173ffffffffffffffffffffffffffffffffffffffff167f8be0079c531659141344cd1fd0a4f28419497f9722a3daafe3b4186f6b6457e060405160405180910390a350565b610cd5611268565b73ffffffffffffffffffffffffffffffffffffffff163373ffffffffffffffffffffffffffffffffffffffff1614610d4457336040517fd7f73334000000000000000000000000000000000000000000000000000000008152600401610d3b9190612157565b60405180910390fd5b610d5681610d519061285b565b611631565b50565b60008060009054906101000a900473ffffffffffffffffffffffffffffffffffffffff16905090565b60036020528060005260406000206000915090508060000160009054906101000a900467ffffffffffffffff16908060000160089054906101000a900473ffffffffffffffffffffffffffffffffffffffff1690806001018054610de5906123d2565b80601f0160208091040260200160405190810160405280929190818152602001828054610e11906123d2565b8015610e5e5780601f10610e3357610100808354040283529160200191610e5e565b820191906000526020600020905b815481529060010190602001808311610e4157829003601f168201915b5050505050908060020160009054906101000a900473ffffffffffffffffffffffffffffffffffffffff16908060030154905085565b600080600167ffffffffffffffff811115610eb257610eb1612533565b5b604051908082528060200260200182016040528015610eeb57816020015b610ed8611cf6565b815260200190600190039081610ed05790505b509050600060405180604001604052808673ffffffffffffffffffffffffffffffffffffffff1681526020018581525090508082600081518110610f3257610f31612374565b5b602002602001018190525060006040518060a001604052808a604051602001610f5b9190612157565b60405160208183030381529060405281526020018989604051602001610f8292919061289b565b6040516020818303038152906040528152602001848152602001600073ffffffffffffffffffffffffffffffffffffffff168152602001610fdc604051806040016040528062030d408152602001600115158152506118b7565b815250905060003073ffffffffffffffffffffffffffffffffffffffff1663b0f479a16040518163ffffffff1660e01b8152600401602060405180830381865afa15801561102e573d6000803e3d6000fd5b505050506040513d601f19601f8201168201806040525081019061105291906128d4565b90508673ffffffffffffffffffffffffffffffffffffffff1663095ea7b382886040518363ffffffff1660e01b815260040161108f929190612901565b6020604051808303816000875af11580156110ae573d6000803e3d6000fd5b505050506040513d601f19601f820116820180604052508101906110d29190612956565b5060008173ffffffffffffffffffffffffffffffffffffffff166320487ded8d856040518363ffffffff1660e01b8152600401611110929190612b5f565b602060405180830381865afa15801561112d573d6000803e3d6000fd5b505050506040513d601f19601f820116820180604052508101906111519190612418565b90508047101561118d576040517f07da6ee600000000000000000000000000000000000000000000000000000000815260040160405180910390fd5b8173ffffffffffffffffffffffffffffffffffffffff166396f4e9f9828e866040518463ffffffff1660e01b81526004016111c9929190612b5f565b60206040518083038185885af11580156111e7573d6000803e3d6000fd5b50505050506040513d601f19601f8201168201806040525081019061120c9190612ba4565b95508b67ffffffffffffffff16867f218adb5a0a723dc22ce7712e38f03997cd4cefc41a7fd618de7329da31321c908d8d8d8987604051611251959493929190612c00565b60405180910390a350505050509695505050505050565b60007f0000000000000000000000000000000000000000000000000000000000000000905090565b600281815481106112a057600080fd5b906000526020600020016000915090505481565b60008060006060600080600280549050871061131a578660016002805490506112dd9190612340565b6040517fd0394270000000000000000000000000000000000000000000000000000000008152600401611311929190612c4e565b60405180910390fd5b6002878154811061132e5761132d612374565b5b906000526020600020015495506000600360008881526020019081526020016000206040518060a00160405290816000820160009054906101000a900467ffffffffffffffff1667ffffffffffffffff1667ffffffffffffffff1681526020016000820160089054906101000a900473ffffffffffffffffffffffffffffffffffffffff1673ffffffffffffffffffffffffffffffffffffffff1673ffffffffffffffffffffffffffffffffffffffff1681526020016001820180546113f3906123d2565b80601f016020809104026020016040519081016040528092919081815260200182805461141f906123d2565b801561146c5780601f106114415761010080835404028352916020019161146c565b820191906000526020600020905b81548152906001019060200180831161144f57829003601f168201915b505050505081526020016002820160009054906101000a900473ffffffffffffffffffffffffffffffffffffffff1673ffffffffffffffffffffffffffffffffffffffff1673ffffffffffffffffffffffffffffffffffffffff168152602001600382015481525050905086816000015182602001518360400151846060015185608001519650965096509650965096505091939550919395565b61150f61151b565b61151881611936565b50565b60008054906101000a900473ffffffffffffffffffffffffffffffffffffffff1673ffffffffffffffffffffffffffffffffffffffff163373ffffffffffffffffffffffffffffffffffffffff16146115a9576040517f08c379a00000000000000000000000000000000000000000000000000000000081526004016115a090612cc3565b60405180910390fd5b565b61162c8363a9059cbb60e01b84846040516024016115ca929190612901565b604051602081830303815290604052907bffffffffffffffffffffffffffffffffffffffffffffffffffffffff19166020820180517bffffffffffffffffffffffffffffffffffffffffffffffffffffffff8381831617835250505050611a62565b505050565b6000816000015190506000826020015190506000836040015180602001905181019061165d9190612d21565b905060008460800151905060008160008151811061167e5761167d612374565b5b60200260200101516000015190506000826000815181106116a2576116a1612374565b5b6020026020010151602001519050600087606001518060200190518101906116ca9190612def565b9050600287908060018154018082558091505060019003906000526020600020016000909190919091505560006040518060a001604052808867ffffffffffffffff1681526020018773ffffffffffffffffffffffffffffffffffffffff1681526020018381526020018573ffffffffffffffffffffffffffffffffffffffff16815260200184815250905080600360008a815260200190815260200160002060008201518160000160006101000a81548167ffffffffffffffff021916908367ffffffffffffffff16021790555060208201518160000160086101000a81548173ffffffffffffffffffffffffffffffffffffffff021916908373ffffffffffffffffffffffffffffffffffffffff16021790555060408201518160010190816117f59190612fe4565b5060608201518160020160006101000a81548173ffffffffffffffffffffffffffffffffffffffff021916908373ffffffffffffffffffffffffffffffffffffffff160217905550608082015181600301559050508667ffffffffffffffff16887f852dbe7c0b886f87e176d6af0c3e5537dd2fc249db45c9a4348aa9bc5d18120688858960008151811061188d5761188c612374565b5b60200260200101516040516118a4939291906130b6565b60405180910390a3505050505050505050565b606063181dcf1060e01b826040516024016118d29190613132565b604051602081830303815290604052907bffffffffffffffffffffffffffffffffffffffffffffffffffffffff19166020820180517bffffffffffffffffffffffffffffffffffffffffffffffffffffffff83818316178352505050509050919050565b3373ffffffffffffffffffffffffffffffffffffffff168173ffffffffffffffffffffffffffffffffffffffff16036119a4576040517f08c379a000000000000000000000000000000000000000000000000000000000815260040161199b90613199565b60405180910390fd5b80600160006101000a81548173ffffffffffffffffffffffffffffffffffffffff021916908373ffffffffffffffffffffffffffffffffffffffff1602179055508073ffffffffffffffffffffffffffffffffffffffff1660008054906101000a900473ffffffffffffffffffffffffffffffffffffffff1673ffffffffffffffffffffffffffffffffffffffff167fed8889f560326eb138920d842192f0eb3dd22b4f139c87a2c57538e05bae127860405160405180910390a350565b6000611ac4826040518060400160405280602081526020017f5361666545524332303a206c6f772d6c6576656c2063616c6c206661696c65648152508573ffffffffffffffffffffffffffffffffffffffff16611b299092919063ffffffff16565b9050600081511115611b245780806020019051810190611ae49190612956565b611b23576040517f08c379a0000000000000000000000000000000000000000000000000000000008152600401611b1a9061322b565b60405180910390fd5b5b505050565b6060611b388484600085611b41565b90509392505050565b606082471015611b86576040517f08c379a0000000000000000000000000000000000000000000000000000000008152600401611b7d906132bd565b60405180910390fd5b6000808673ffffffffffffffffffffffffffffffffffffffff168587604051611baf919061330e565b60006040518083038185875af1925050503d8060008114611bec576040519150601f19603f3d011682016040523d82523d6000602084013e611bf1565b606091505b5091509150611c0287838387611c0e565b92505050949350505050565b60608315611c70576000835103611c6857611c2885611c83565b611c67576040517f08c379a0000000000000000000000000000000000000000000000000000000008152600401611c5e90613371565b60405180910390fd5b5b829050611c7b565b611c7a8383611ca6565b5b949350505050565b6000808273ffffffffffffffffffffffffffffffffffffffff163b119050919050565b600082511115611cb95781518083602001fd5b806040517f08c379a0000000000000000000000000000000000000000000000000000000008152600401611ced9190613391565b60405180910390fd5b6040518060400160405280600073ffffffffffffffffffffffffffffffffffffffff168152602001600081525090565b6000604051905090565b600080fd5b600080fd5b60007fffffffff0000000000000000000000000000000000000000000000000000000082169050919050565b611d6f81611d3a565b8114611d7a57600080fd5b50565b600081359050611d8c81611d66565b92915050565b600060208284031215611da857611da7611d30565b5b6000611db684828501611d7d565b91505092915050565b60008115159050919050565b611dd481611dbf565b82525050565b6000602082019050611def6000830184611dcb565b92915050565b6000819050919050565b611e0881611df5565b82525050565b6000602082019050611e236000830184611dff565b92915050565b6000819050919050565b611e3c81611e29565b82525050565b600067ffffffffffffffff82169050919050565b611e5f81611e42565b82525050565b600073ffffffffffffffffffffffffffffffffffffffff82169050919050565b6000611e9082611e65565b9050919050565b611ea081611e85565b82525050565b600081519050919050565b600082825260208201905092915050565b60005b83811015611ee0578082015181840152602081019050611ec5565b60008484015250505050565b6000601f19601f8301169050919050565b6000611f0882611ea6565b611f128185611eb1565b9350611f22818560208601611ec2565b611f2b81611eec565b840191505092915050565b600060c082019050611f4b6000830189611e33565b611f586020830188611e56565b611f656040830187611e97565b8181036060830152611f778186611efd565b9050611f866080830185611e97565b611f9360a0830184611dff565b979650505050505050565b611fa781611e85565b8114611fb257600080fd5b50565b600081359050611fc481611f9e565b92915050565b60008060408385031215611fe157611fe0611d30565b5b6000611fef85828601611fb5565b925050602061200085828601611fb5565b9150509250929050565b61201381611e29565b811461201e57600080fd5b50565b6000813590506120308161200a565b92915050565b60006020828403121561204c5761204b611d30565b5b600061205a84828501612021565b91505092915050565b600060a0820190506120786000830188611e56565b6120856020830187611e97565b81810360408301526120978186611efd565b90506120a66060830185611e97565b6120b36080830184611dff565b9695505050505050565b6000602082840312156120d3576120d2611d30565b5b60006120e184828501611fb5565b91505092915050565b600080fd5b600060a08284031215612105576121046120ea565b5b81905092915050565b60006020828403121561212457612123611d30565b5b600082013567ffffffffffffffff81111561214257612141611d35565b5b61214e848285016120ef565b91505092915050565b600060208201905061216c6000830184611e97565b92915050565b61217b81611e42565b811461218657600080fd5b50565b60008135905061219881612172565b92915050565b600080fd5b600080fd5b600080fd5b60008083601f8401126121c3576121c261219e565b5b8235905067ffffffffffffffff8111156121e0576121df6121a3565b5b6020830191508360018202830111156121fc576121fb6121a8565b5b9250929050565b61220c81611df5565b811461221757600080fd5b50565b60008135905061222981612203565b92915050565b60008060008060008060a0878903121561224c5761224b611d30565b5b600061225a89828a01612189565b965050602061226b89828a01611fb5565b955050604087013567ffffffffffffffff81111561228c5761228b611d35565b5b61229889828a016121ad565b945094505060606122ab89828a01611fb5565b92505060806122bc89828a0161221a565b9150509295509295509295565b60006020820190506122de6000830184611e33565b92915050565b6000602082840312156122fa576122f9611d30565b5b60006123088482850161221a565b91505092915050565b7f4e487b7100000000000000000000000000000000000000000000000000000000600052601160045260246000fd5b600061234b82611df5565b915061235683611df5565b925082820390508181111561236e5761236d612311565b5b92915050565b7f4e487b7100000000000000000000000000000000000000000000000000000000600052603260045260246000fd5b7f4e487b7100000000000000000000000000000000000000000000000000000000600052602260045260246000fd5b600060028204905060018216806123ea57607f821691505b6020821081036123fd576123fc6123a3565b5b50919050565b60008151905061241281612203565b92915050565b60006020828403121561242e5761242d611d30565b5b600061243c84828501612403565b91505092915050565b600081905092915050565b50565b6000612460600083612445565b915061246b82612450565b600082019050919050565b600061248182612453565b9150819050919050565b60006060820190506124a06000830186611e97565b6124ad6020830185611e97565b6124ba6040830184611dff565b949350505050565b7f4d7573742062652070726f706f736564206f776e657200000000000000000000600082015250565b60006124f8601683611eb1565b9150612503826124c2565b602082019050919050565b60006020820190508181036000830152612527816124eb565b9050919050565b600080fd5b7f4e487b7100000000000000000000000000000000000000000000000000000000600052604160045260246000fd5b61256b82611eec565b810181811067ffffffffffffffff8211171561258a57612589612533565b5b80604052505050565b600061259d611d26565b90506125a98282612562565b919050565b600080fd5b600080fd5b600067ffffffffffffffff8211156125d3576125d2612533565b5b6125dc82611eec565b9050602081019050919050565b82818337600083830152505050565b600061260b612606846125b8565b612593565b905082815260208101848484011115612627576126266125b3565b5b6126328482856125e9565b509392505050565b600082601f83011261264f5761264e61219e565b5b813561265f8482602086016125f8565b91505092915050565b600067ffffffffffffffff82111561268357612682612533565b5b602082029050602081019050919050565b6000604082840312156126aa576126a961252e565b5b6126b46040612593565b905060006126c484828501611fb5565b60008301525060206126d88482850161221a565b60208301525092915050565b60006126f76126f284612668565b612593565b9050808382526020820190506040840283018581111561271a576127196121a8565b5b835b81811015612743578061272f8882612694565b84526020840193505060408101905061271c565b5050509392505050565b600082601f8301126127625761276161219e565b5b81356127728482602086016126e4565b91505092915050565b600060a082840312156127915761279061252e565b5b61279b60a0612593565b905060006127ab84828501612021565b60008301525060206127bf84828501612189565b602083015250604082013567ffffffffffffffff8111156127e3576127e26125ae565b5b6127ef8482850161263a565b604083015250606082013567ffffffffffffffff811115612813576128126125ae565b5b61281f8482850161263a565b606083015250608082013567ffffffffffffffff811115612843576128426125ae565b5b61284f8482850161274d565b60808301525092915050565b6000612867368361277b565b9050919050565b600061287a8385611eb1565b93506128878385846125e9565b61289083611eec565b840190509392505050565b600060208201905081810360008301526128b681848661286e565b90509392505050565b6000815190506128ce81611f9e565b92915050565b6000602082840312156128ea576128e9611d30565b5b60006128f8848285016128bf565b91505092915050565b60006040820190506129166000830185611e97565b6129236020830184611dff565b9392505050565b61293381611dbf565b811461293e57600080fd5b50565b6000815190506129508161292a565b92915050565b60006020828403121561296c5761296b611d30565b5b600061297a84828501612941565b91505092915050565b600081519050919050565b600082825260208201905092915050565b60006129aa82612983565b6129b4818561298e565b93506129c4818560208601611ec2565b6129cd81611eec565b840191505092915050565b600081519050919050565b600082825260208201905092915050565b6000819050602082019050919050565b612a0d81611e85565b82525050565b612a1c81611df5565b82525050565b604082016000820151612a386000850182612a04565b506020820151612a4b6020850182612a13565b50505050565b6000612a5d8383612a22565b60408301905092915050565b6000602082019050919050565b6000612a81826129d8565b612a8b81856129e3565b9350612a96836129f4565b8060005b83811015612ac7578151612aae8882612a51565b9750612ab983612a69565b925050600181019050612a9a565b5085935050505092915050565b600060a0830160008301518482036000860152612af1828261299f565b91505060208301518482036020860152612b0b828261299f565b91505060408301518482036040860152612b258282612a76565b9150506060830151612b3a6060860182612a04565b5060808301518482036080860152612b52828261299f565b9150508091505092915050565b6000604082019050612b746000830185611e56565b8181036020830152612b868184612ad4565b90509392505050565b600081519050612b9e8161200a565b92915050565b600060208284031215612bba57612bb9611d30565b5b6000612bc884828501612b8f565b91505092915050565b604082016000820151612be76000850182612a04565b506020820151612bfa6020850182612a13565b50505050565b600060a082019050612c156000830188611e97565b8181036020830152612c2881868861286e565b9050612c376040830185612bd1565b612c446080830184611dff565b9695505050505050565b6000604082019050612c636000830185611dff565b612c706020830184611dff565b9392505050565b7f4f6e6c792063616c6c61626c65206279206f776e657200000000000000000000600082015250565b6000612cad601683611eb1565b9150612cb882612c77565b602082019050919050565b60006020820190508181036000830152612cdc81612ca0565b9050919050565b6000612cee82611e65565b9050919050565b612cfe81612ce3565b8114612d0957600080fd5b50565b600081519050612d1b81612cf5565b92915050565b600060208284031215612d3757612d36611d30565b5b6000612d4584828501612d0c565b91505092915050565b600067ffffffffffffffff821115612d6957612d68612533565b5b612d7282611eec565b9050602081019050919050565b6000612d92612d8d84612d4e565b612593565b905082815260208101848484011115612dae57612dad6125b3565b5b612db9848285611ec2565b509392505050565b600082601f830112612dd657612dd561219e565b5b8151612de6848260208601612d7f565b91505092915050565b600060208284031215612e0557612e04611d30565b5b600082015167ffffffffffffffff811115612e2357612e22611d35565b5b612e2f84828501612dc1565b91505092915050565b60008190508160005260206000209050919050565b60006020601f8301049050919050565b600082821b905092915050565b600060088302612e9a7fffffffffffffffffffffffffffffffffffffffffffffffffffffffffffffffff82612e5d565b612ea48683612e5d565b95508019841693508086168417925050509392505050565b6000819050919050565b6000612ee1612edc612ed784611df5565b612ebc565b611df5565b9050919050565b6000819050919050565b612efb83612ec6565b612f0f612f0782612ee8565b848454612e6a565b825550505050565b600090565b612f24612f17565b612f2f818484612ef2565b505050565b5b81811015612f5357612f48600082612f1c565b600181019050612f35565b5050565b601f821115612f9857612f6981612e38565b612f7284612e4d565b81016020851015612f81578190505b612f95612f8d85612e4d565b830182612f34565b50505b505050565b600082821c905092915050565b6000612fbb60001984600802612f9d565b1980831691505092915050565b6000612fd48383612faa565b9150826002028217905092915050565b612fed82611ea6565b67ffffffffffffffff81111561300657613005612533565b5b61301082546123d2565b61301b828285612f57565b600060209050601f83116001811461304e576000841561303c578287015190505b6130468582612fc8565b8655506130ae565b601f19841661305c86612e38565b60005b828110156130845784890151825560018201915060208501945060208101905061305f565b868310156130a1578489015161309d601f891682612faa565b8355505b6001600288020188555050505b505050505050565b60006080820190506130cb6000830186611e97565b81810360208301526130dd8185611efd565b90506130ec6040830184612bd1565b949350505050565b6130fd81611dbf565b82525050565b6040820160008201516131196000850182612a13565b50602082015161312c60208501826130f4565b50505050565b60006040820190506131476000830184613103565b92915050565b7f43616e6e6f74207472616e7366657220746f2073656c66000000000000000000600082015250565b6000613183601783611eb1565b915061318e8261314d565b602082019050919050565b600060208201905081810360008301526131b281613176565b9050919050565b7f5361666545524332303a204552433230206f7065726174696f6e20646964206e60008201527f6f74207375636365656400000000000000000000000000000000000000000000602082015250565b6000613215602a83611eb1565b9150613220826131b9565b604082019050919050565b6000602082019050818103600083015261324481613208565b9050919050565b7f416464726573733a20696e73756666696369656e742062616c616e636520666f60008201527f722063616c6c0000000000000000000000000000000000000000000000000000602082015250565b60006132a7602683611eb1565b91506132b28261324b565b604082019050919050565b600060208201905081810360008301526132d68161329a565b9050919050565b60006132e882612983565b6132f28185612445565b9350613302818560208601611ec2565b80840191505092915050565b600061331a82846132dd565b915081905092915050565b7f416464726573733a2063616c6c20746f206e6f6e2d636f6e7472616374000000600082015250565b600061335b601d83611eb1565b915061336682613325565b602082019050919050565b6000602082019050818103600083015261338a8161334e565b9050919050565b600060208201905081810360008301526133ab8184611efd565b90509291505056fea26469706673582212207ac1e0d1bba84493f977ee6ca76dc4299fa2609df5943c8e00da5aab45c0a5a164736f6c63430008180033","linkReferences":{}},"methodIdentifiers":{"acceptOwnership()":"79ba5097","ccipReceive((bytes32,uint64,bytes,bytes,(address,uint256)[]))":"85572ffb","getLastReceivedMessageDetails()":"263596a5","getNumberOfReceivedMessages()":"0b652d6d","getReceivedMessageAt(uint256)":"eebc927b","getReceivedMessageDetails(bytes32)":"51bd6698","getRouter()":"b0f479a1","messageDetail(bytes32)":"9c3ddb2e","owner()":"8da5cb5b","receivedMessages(uint256)":"d030366c","sendMessage(uint64,address,string,address,uint256)":"9c7ee0bc","supportsInterface(bytes4)":"01ffc9a7","transferOwnership(address)":"f2fde38b","withdraw(address)":"51cff8d9","withdrawToken(address,address)":"3aeac4e1"},"id":82}