{"abi":[{"type":"constructor","inputs":[],"stateMutability":"nonpayable"},{"type":"function","name":"networks","inputs":[{"name":"enumValue","type":"uint8","internalType":"enum Helper.SupportedNetworks"}],"outputs":[{"name":"humanReadableName","type":"string","internalType":"string"}],"stateMutability":"view"}],"bytecode":{"object":"0x60806040523480156200001157600080fd5b506040518060400160405280601081526020017f457468657265756d205365706f6c69610000000000000000000000000000000081525060008080601a81111562000061576200006062000dcc565b5b601a81111562000076576200007562000dcc565b5b8152602001908152602001600020908162000092919062001075565b506040518060400160405280600e81526020017f4176616c616e6368652046756a690000000000000000000000000000000000008152506000806001601a811115620000e357620000e262000dcc565b5b601a811115620000f857620000f762000dcc565b5b8152602001908152602001600020908162000114919062001075565b506040518060400160405280601081526020017f417262697472756d205365706f6c6961000000000000000000000000000000008152506000806002601a81111562000165576200016462000dcc565b5b601a8111156200017a576200017962000dcc565b5b8152602001908152602001600020908162000196919062001075565b506040518060400160405280600e81526020017f506f6c79676f6e204d756d6261690000000000000000000000000000000000008152506000806003601a811115620001e757620001e662000dcc565b5b601a811115620001fc57620001fb62000dcc565b5b8152602001908152602001600020908162000218919062001075565b506040518060400160405280601181526020017f424e4220436861696e20546573746e65740000000000000000000000000000008152506000806004601a81111562000269576200026862000dcc565b5b601a8111156200027e576200027d62000dcc565b5b815260200190815260200160002090816200029a919062001075565b506040518060400160405280601081526020017f4f7074696d69736d205365706f6c6961000000000000000000000000000000008152506000806005601a811115620002eb57620002ea62000dcc565b5b601a8111156200030057620002ff62000dcc565b5b815260200190815260200160002090816200031c919062001075565b506040518060400160405280600c81526020017f42617365205365706f6c696100000000000000000000000000000000000000008152506000806006601a8111156200036d576200036c62000dcc565b5b601a81111562000382576200038162000dcc565b5b815260200190815260200160002090816200039e919062001075565b506040518060400160405280600d81526020017f57656d697820546573746e6574000000000000000000000000000000000000008152506000806007601a811115620003ef57620003ee62000dcc565b5b601a81111562000404576200040362000dcc565b5b8152602001908152602001600020908162000420919062001075565b506040518060400160405280601581526020017f4b726f6d61205365706f6c696120546573746e657400000000000000000000008152506000806008601a81111562000471576200047062000dcc565b5b601a81111562000486576200048562000dcc565b5b81526020019081526020016000209081620004a2919062001075565b506040518060400160405280600d81526020017f4d65746973205365706f6c6961000000000000000000000000000000000000008152506000806009601a811115620004f357620004f262000dcc565b5b601a81111562000508576200050762000dcc565b5b8152602001908152602001600020908162000524919062001075565b506040518060400160405280600e81526020017f7a6b53796e63205365706f6c6961000000000000000000000000000000000000815250600080600a601a81111562000575576200057462000dcc565b5b601a8111156200058a576200058962000dcc565b5b81526020019081526020016000209081620005a6919062001075565b506040518060400160405280600e81526020017f5363726f6c6c205365706f6c6961000000000000000000000000000000000000815250600080600b601a811115620005f757620005f662000dcc565b5b601a8111156200060c576200060b62000dcc565b5b8152602001908152602001600020908162000628919062001075565b506040518060400160405280600f81526020017f5a697263756974205365706f6c69610000000000000000000000000000000000815250600080600c601a81111562000679576200067862000dcc565b5b601a8111156200068e576200068d62000dcc565b5b81526020019081526020016000209081620006aa919062001075565b506040518060400160405280600e81526020017f586c61796572205365706f6c6961000000000000000000000000000000000000815250600080600d601a811115620006fb57620006fa62000dcc565b5b601a81111562000710576200070f62000dcc565b5b815260200190815260200160002090816200072c919062001075565b506040518060400160405280601581526020017f506f6c79676f6e205a4b45564d205365706f6c69610000000000000000000000815250600080600e601a8111156200077d576200077c62000dcc565b5b601a81111562000792576200079162000dcc565b5b81526020019081526020016000209081620007ae919062001075565b506040518060400160405280601681526020017f506f6c6b61646f74204173746172205368696275796100000000000000000000815250600080600f601a811115620007ff57620007fe62000dcc565b5b601a81111562000814576200081362000dcc565b5b8152602001908152602001600020908162000830919062001075565b506040518060400160405280600e81526020017f4d616e746c65205365706f6c69610000000000000000000000000000000000008152506000806010601a81111562000881576200088062000dcc565b5b601a81111562000896576200089562000dcc565b5b81526020019081526020016000209081620008b2919062001075565b506040518060400160405280601681526020017f536f6e6569756d204d696e61746f205365706f6c6961000000000000000000008152506000806011601a81111562000903576200090262000dcc565b5b601a81111562000918576200091762000dcc565b5b8152602001908152602001600020908162000934919062001075565b506040518060400160405280601181526020017f422d5371756172656420546573746e65740000000000000000000000000000008152506000806012601a81111562000985576200098462000dcc565b5b601a8111156200099a576200099962000dcc565b5b81526020019081526020016000209081620009b6919062001075565b506040518060400160405280600b81526020017f426f42205365706f6c69610000000000000000000000000000000000000000008152506000806013601a81111562000a075762000a0662000dcc565b5b601a81111562000a1c5762000a1b62000dcc565b5b8152602001908152602001600020908162000a38919062001075565b506040518060400160405280601381526020017f576f726c6420436861696e205365706f6c6961000000000000000000000000008152506000806014601a81111562000a895762000a8862000dcc565b5b601a81111562000a9e5762000a9d62000dcc565b5b8152602001908152602001600020908162000aba919062001075565b506040518060400160405280601181526020017f53686962617269756d20546573746e65740000000000000000000000000000008152506000806015601a81111562000b0b5762000b0a62000dcc565b5b601a81111562000b205762000b1f62000dcc565b5b8152602001908152602001600020908162000b3c919062001075565b506040518060400160405280601081526020017f4269746c6179657220546573746e6574000000000000000000000000000000008152506000806016601a81111562000b8d5762000b8c62000dcc565b5b601a81111562000ba25762000ba162000dcc565b5b8152602001908152602001600020908162000bbe919062001075565b506040518060400160405280601481526020017f46616e746f6d20536f6e696320546573746e65740000000000000000000000008152506000806017601a81111562000c0f5762000c0e62000dcc565b5b601a81111562000c245762000c2362000dcc565b5b8152602001908152602001600020908162000c40919062001075565b506040518060400160405280600c81526020017f436f726e20546573746e657400000000000000000000000000000000000000008152506000806018601a81111562000c915762000c9062000dcc565b5b601a81111562000ca65762000ca562000dcc565b5b8152602001908152602001600020908162000cc2919062001075565b506040518060400160405280600f81526020017f486173686b6579205365706f6c696100000000000000000000000000000000008152506000806019601a81111562000d135762000d1262000dcc565b5b601a81111562000d285762000d2762000dcc565b5b8152602001908152602001600020908162000d44919062001075565b506040518060400160405280600b81526020017f496e6b205365706f6c6961000000000000000000000000000000000000000000815250600080601a8081111562000d945762000d9362000dcc565b5b601a81111562000da95762000da862000dcc565b5b8152602001908152602001600020908162000dc5919062001075565b506200115c565b7f4e487b7100000000000000000000000000000000000000000000000000000000600052602160045260246000fd5b600081519050919050565b7f4e487b7100000000000000000000000000000000000000000000000000000000600052604160045260246000fd5b7f4e487b7100000000000000000000000000000000000000000000000000000000600052602260045260246000fd5b6000600282049050600182168062000e7d57607f821691505b60208210810362000e935762000e9262000e35565b5b50919050565b60008190508160005260206000209050919050565b60006020601f8301049050919050565b600082821b905092915050565b60006008830262000efd7fffffffffffffffffffffffffffffffffffffffffffffffffffffffffffffffff8262000ebe565b62000f09868362000ebe565b95508019841693508086168417925050509392505050565b6000819050919050565b6000819050919050565b600062000f5662000f5062000f4a8462000f21565b62000f2b565b62000f21565b9050919050565b6000819050919050565b62000f728362000f35565b62000f8a62000f818262000f5d565b84845462000ecb565b825550505050565b600090565b62000fa162000f92565b62000fae81848462000f67565b505050565b5b8181101562000fd65762000fca60008262000f97565b60018101905062000fb4565b5050565b601f821115620010255762000fef8162000e99565b62000ffa8462000eae565b810160208510156200100a578190505b62001022620010198562000eae565b83018262000fb3565b50505b505050565b600082821c905092915050565b60006200104a600019846008026200102a565b1980831691505092915050565b600062001065838362001037565b9150826002028217905092915050565b620010808262000dfb565b67ffffffffffffffff8111156200109c576200109b62000e06565b5b620010a8825462000e64565b620010b582828562000fda565b600060209050601f831160018114620010ed5760008415620010d8578287015190505b620010e4858262001057565b86555062001154565b601f198416620010fd8662000e99565b60005b82811015620011275784890151825560018201915060208501945060208101905062001100565b8683101562001147578489015162001143601f89168262001037565b8355505b6001600288020188555050505b505050505050565b61029f806200116c6000396000f3fe608060405234801561001057600080fd5b506004361061002b5760003560e01c80638a21e63914610030575b600080fd5b61004a6004803603810190610045919061012a565b610060565b60405161005791906101e7565b60405180910390f35b6000602052806000526040600020600091509050805461007f90610238565b80601f01602080910402602001604051908101604052809291908181526020018280546100ab90610238565b80156100f85780601f106100cd576101008083540402835291602001916100f8565b820191906000526020600020905b8154815290600101906020018083116100db57829003601f168201915b505050505081565b600080fd5b601b811061011257600080fd5b50565b60008135905061012481610105565b92915050565b6000602082840312156101405761013f610100565b5b600061014e84828501610115565b91505092915050565b600081519050919050565b600082825260208201905092915050565b60005b83811015610191578082015181840152602081019050610176565b60008484015250505050565b6000601f19601f8301169050919050565b60006101b982610157565b6101c38185610162565b93506101d3818560208601610173565b6101dc8161019d565b840191505092915050565b6000602082019050818103600083015261020181846101ae565b905092915050565b7f4e487b7100000000000000000000000000000000000000000000000000000000600052602260045260246000fd5b6000600282049050600182168061025057607f821691505b60208210810361026357610262610209565b5b5091905056fea2646970667358221220a9ab9f7b7953762150229362d391fc52a81dc0cee9104589ff31b6068d84ed0764736f6c63430008180033","linkReferences":{}},"methodIdentifiers":{"networks(uint8)":"8a21e639"},"id":109}