{"abi":[{"type":"function","name":"CCIP_LOCK_OR_BURN_V1_RET_BYTES","inputs":[],"outputs":[{"name":"","type":"uint32","internalType":"uint32"}],"stateMutability":"view"},{"type":"function","name":"CCIP_POOL_V1","inputs":[],"outputs":[{"name":"","type":"bytes4","internalType":"bytes4"}],"stateMutability":"view"},{"type":"function","name":"CCIP_POOL_V1_RET_BYTES","inputs":[],"outputs":[{"name":"","type":"uint16","internalType":"uint16"}],"stateMutability":"view"}],"bytecode":{"object":"0x6101bd610053600b82828239805160001a607314610046577f4e487b7100000000000000000000000000000000000000000000000000000000600052600060045260246000fd5b30600052607381538281f3fe730000000000000000000000000000000000000000301460806040526004361061004b5760003560e01c80630ccb1dfe14610050578063b7f419201461006e578063cd30939a1461008c575b600080fd5b6100586100aa565b60405161006591906100de565b60405180910390f35b6100766100af565b6040516100839190610116565b60405180910390f35b6100946100b4565b6040516100a1919061016c565b60405180910390f35b602081565b602081565b63aff2afbf60e01b81565b600063ffffffff82169050919050565b6100d8816100bf565b82525050565b60006020820190506100f360008301846100cf565b92915050565b600061ffff82169050919050565b610110816100f9565b82525050565b600060208201905061012b6000830184610107565b92915050565b60007fffffffff0000000000000000000000000000000000000000000000000000000082169050919050565b61016681610131565b82525050565b6000602082019050610181600083018461015d565b9291505056fea2646970667358221220cee74a756755a9889ad8e559fb5cbdb3bb4b3ecece81f0cf349615fce7d0b79364736f6c63430008180033","linkReferences":{}},"methodIdentifiers":{"CCIP_LOCK_OR_BURN_V1_RET_BYTES()":"0ccb1dfe","CCIP_POOL_V1()":"cd30939a","CCIP_POOL_V1_RET_BYTES()":"b7f41920"},"id":13}